{
  "_format": "hh-sol-artifact-1",
  "contractName": "UniswapV3OracleRelay",
  "sourceName": "contracts/oracle/External/UniswapV3OracleRelay.sol",
  "abi": [
    {
      "inputs": [
        {
          "internalType": "address",
          "name": "pool_address",
          "type": "address"
        },
        {
          "internalType": "bool",
          "name": "quote_token_is_token0",
          "type": "bool"
        },
        {
          "internalType": "uint256",
          "name": "mul",
          "type": "uint256"
        },
        {
          "internalType": "uint256",
          "name": "div",
          "type": "uint256"
        }
      ],
      "stateMutability": "nonpayable",
      "type": "constructor"
    },
    {
      "inputs": [],
      "name": "_pool",
      "outputs": [
        {
          "internalType": "contract IUniswapV3PoolDerivedState",
          "name": "",
          "type": "address"
        }
      ],
      "stateMutability": "view",
      "type": "function"
    },
    {
      "inputs": [],
      "name": "_poolAddress",
      "outputs": [
        {
          "internalType": "address",
          "name": "",
          "type": "address"
        }
      ],
      "stateMutability": "view",
      "type": "function"
    },
    {
      "inputs": [],
      "name": "_quoteTokenIsToken0",
      "outputs": [
        {
          "internalType": "bool",
          "name": "",
          "type": "bool"
        }
      ],
      "stateMutability": "view",
      "type": "function"
    },
    {
      "inputs": [],
      "name": "currentValue",
      "outputs": [
        {
          "internalType": "uint256",
          "name": "",
          "type": "uint256"
        }
      ],
      "stateMutability": "view",
      "type": "function"
    }
  ],
  "bytecode": "0x60806040523480156200001157600080fd5b50604051620016bf380380620016bf8339818101604052810190620000379190620001ec565b8160028190555080600381905550836000806101000a81548173ffffffffffffffffffffffffffffffffffffffff021916908373ffffffffffffffffffffffffffffffffffffffff16021790555082600060146101000a81548160ff02191690831515021790555060008054906101000a900473ffffffffffffffffffffffffffffffffffffffff16600160006101000a81548173ffffffffffffffffffffffffffffffffffffffff021916908373ffffffffffffffffffffffffffffffffffffffff160217905550505050506200025e565b600080fd5b600073ffffffffffffffffffffffffffffffffffffffff82169050919050565b60006200013c826200010f565b9050919050565b6200014e816200012f565b81146200015a57600080fd5b50565b6000815190506200016e8162000143565b92915050565b60008115159050919050565b6200018b8162000174565b81146200019757600080fd5b50565b600081519050620001ab8162000180565b92915050565b6000819050919050565b620001c681620001b1565b8114620001d257600080fd5b50565b600081519050620001e681620001bb565b92915050565b600080600080608085870312156200020957620002086200010a565b5b600062000219878288016200015d565b94505060206200022c878288016200019a565b93505060406200023f87828801620001d5565b92505060606200025287828801620001d5565b91505092959194509250565b611451806200026e6000396000f3fe608060405234801561001057600080fd5b506004361061004c5760003560e01c80635541214314610051578063636fc28b1461006f578063698996f81461008d578063bcabc258146100ab575b600080fd5b6100596100c9565b6040516100669190610935565b60405180910390f35b6100776100dc565b60405161008491906109cf565b60405180910390f35b610095610102565b6040516100a29190610a03565b60405180910390f35b6100b3610111565b6040516100c09190610a3f565b60405180910390f35b600060149054906101000a900460ff1681565b600160009054906101000a900473ffffffffffffffffffffffffffffffffffffffff1681565b600061010c610135565b905090565b60008054906101000a900473ffffffffffffffffffffffffffffffffffffffff1681565b600060606000600267ffffffffffffffff81111561015657610155610a5a565b5b6040519080825280602002602001820160405280156101845781602001602082028036833780820191505090505b50905060018160008151811061019d5761019c610a89565b5b602002602001019063ffffffff16908163ffffffff16815250506000816001815181106101cd576101cc610a89565b5b602002602001019063ffffffff16908163ffffffff1681525050600160009054906101000a900473ffffffffffffffffffffffffffffffffffffffff1673ffffffffffffffffffffffffffffffffffffffff1663883bdbfd826040518263ffffffff1660e01b81526004016102429190610b86565b60006040518083038186803b15801561025a57600080fd5b505afa15801561026e573d6000803e3d6000fd5b505050506040513d6000823e3d601f19601f820116820180604052508101906102979190610e0e565b50809250506000600190506000836001815181106102b8576102b7610a89565b5b6020026020010151846000815181106102d4576102d3610a89565b5b60200260200101516102e69190610eb5565b90506000808260060b1290506000811561030b578261030490610f30565b905061030f565b8290505b60008463ffffffff16826103239190610fbb565b9050620d89e88166ffffffffffffff1610610373576040517f08c379a000000000000000000000000000000000000000000000000000000000815260040161036a90611049565b60405180910390fd5b6000831561038c578161038590611076565b9050610390565b8190505b780100000000000000000000000000000000000000000000000060026103b58361044e565b73ffffffffffffffffffffffffffffffffffffffff166103d591906111ff565b670de0b6b3a76400006103e8919061124a565b6103f291906112a4565b9850600060149054906101000a900460ff1661042657886ec097ce7bc90715b34b9f100000000061042391906112a4565b98505b6003546002548a610437919061124a565b61044191906112a4565b9850505050505050505090565b60008060008360020b12610465578260020b610473565b8260020b610472906112df565b5b90507ffffffffffffffffffffffffffffffffffffffffffffffffffffffffffff2761861049f90611076565b60020b8111156104e4576040517f08c379a00000000000000000000000000000000000000000000000000000000081526004016104db90611374565b60405180910390fd5b6000806001831614156105085770010000000000000000000000000000000061051a565b6ffffcb933bd6fad37aa2d162d1a5940015b70ffffffffffffffffffffffffffffffffff1690506000600283161461055d5760806ffff97272373d413259a46990580e213a82610558919061124a565b901c90505b6000600483161461058b5760806ffff2e50f5f656932ef12357cf3c7fdcc82610586919061124a565b901c90505b600060088316146105b95760806fffe5caca7e10e4e61c3624eaa0941cd0826105b4919061124a565b901c90505b600060108316146105e75760806fffcb9843d60f6159c9db58835c926644826105e2919061124a565b901c90505b600060208316146106155760806fff973b41fa98c081472e6896dfb254c082610610919061124a565b901c90505b600060408316146106435760806fff2ea16466c96a3843ec78b326b528618261063e919061124a565b901c90505b600060808316146106715760806ffe5dee046a99a2a811c461f1969c30538261066c919061124a565b901c90505b60006101008316146106a05760806ffcbe86c7900a88aedcffc83b479aa3a48261069b919061124a565b901c90505b60006102008316146106cf5760806ff987a7253ac413176f2b074cf7815e54826106ca919061124a565b901c90505b60006104008316146106fe5760806ff3392b0822b70005940c7a398e4b70f3826106f9919061124a565b901c90505b600061080083161461072d5760806fe7159475a2c29b7443b29c7fa6e889d982610728919061124a565b901c90505b600061100083161461075c5760806fd097f3bdfd2022b8845ad8f792aa582582610757919061124a565b901c90505b600061200083161461078b5760806fa9f746462d870fdf8a65dc1f90e061e582610786919061124a565b901c90505b60006140008316146107ba5760806f70d869a156d2a1b890bb3df62baf32f7826107b5919061124a565b901c90505b60006180008316146107e95760806f31be135f97d08fd981231505542fcfa6826107e4919061124a565b901c90505b6000620100008316146108195760806f09aa508b5b7a84e1c677de54f3e99bc982610814919061124a565b901c90505b6000620200008316146108485760806e5d6af8dedb81196699c329225ee60482610843919061124a565b901c90505b6000620400008316146108765760806d2216e584f5fa1ea926041bedfe9882610871919061124a565b901c90505b6000620800008316146108a25760806b048a170391f7dc42444e8fa28261089d919061124a565b901c90505b60008460020b13156108dd57807fffffffffffffffffffffffffffffffffffffffffffffffffffffffffffffffff6108da91906112a4565b90505b6000640100000000826108f09190611394565b146108fc5760016108ff565b60005b60ff16602082901c61091191906113c5565b92505050919050565b60008115159050919050565b61092f8161091a565b82525050565b600060208201905061094a6000830184610926565b92915050565b600073ffffffffffffffffffffffffffffffffffffffff82169050919050565b6000819050919050565b600061099561099061098b84610950565b610970565b610950565b9050919050565b60006109a78261097a565b9050919050565b60006109b98261099c565b9050919050565b6109c9816109ae565b82525050565b60006020820190506109e460008301846109c0565b92915050565b6000819050919050565b6109fd816109ea565b82525050565b6000602082019050610a1860008301846109f4565b92915050565b6000610a2982610950565b9050919050565b610a3981610a1e565b82525050565b6000602082019050610a546000830184610a30565b92915050565b7f4e487b7100000000000000000000000000000000000000000000000000000000600052604160045260246000fd5b7f4e487b7100000000000000000000000000000000000000000000000000000000600052603260045260246000fd5b600081519050919050565b600082825260208201905092915050565b6000819050602082019050919050565b600063ffffffff82169050919050565b610afd81610ae4565b82525050565b6000610b0f8383610af4565b60208301905092915050565b6000602082019050919050565b6000610b3382610ab8565b610b3d8185610ac3565b9350610b4883610ad4565b8060005b83811015610b79578151610b608882610b03565b9750610b6b83610b1b565b925050600181019050610b4c565b5085935050505092915050565b60006020820190508181036000830152610ba08184610b28565b905092915050565b6000604051905090565b600080fd5b600080fd5b600080fd5b6000601f19601f8301169050919050565b610bdb82610bc1565b810181811067ffffffffffffffff82111715610bfa57610bf9610a5a565b5b80604052505050565b6000610c0d610ba8565b9050610c198282610bd2565b919050565b600067ffffffffffffffff821115610c3957610c38610a5a565b5b602082029050602081019050919050565b600080fd5b60008160060b9050919050565b610c6581610c4f565b8114610c7057600080fd5b50565b600081519050610c8281610c5c565b92915050565b6000610c9b610c9684610c1e565b610c03565b90508083825260208201905060208402830185811115610cbe57610cbd610c4a565b5b835b81811015610ce75780610cd38882610c73565b845260208401935050602081019050610cc0565b5050509392505050565b600082601f830112610d0657610d05610bbc565b5b8151610d16848260208601610c88565b91505092915050565b600067ffffffffffffffff821115610d3a57610d39610a5a565b5b602082029050602081019050919050565b610d5481610950565b8114610d5f57600080fd5b50565b600081519050610d7181610d4b565b92915050565b6000610d8a610d8584610d1f565b610c03565b90508083825260208201905060208402830185811115610dad57610dac610c4a565b5b835b81811015610dd65780610dc28882610d62565b845260208401935050602081019050610daf565b5050509392505050565b600082601f830112610df557610df4610bbc565b5b8151610e05848260208601610d77565b91505092915050565b60008060408385031215610e2557610e24610bb2565b5b600083015167ffffffffffffffff811115610e4357610e42610bb7565b5b610e4f85828601610cf1565b925050602083015167ffffffffffffffff811115610e7057610e6f610bb7565b5b610e7c85828601610de0565b9150509250929050565b7f4e487b7100000000000000000000000000000000000000000000000000000000600052601160045260246000fd5b6000610ec082610c4f565b9150610ecb83610c4f565b9250827fffffffffffffffffffffffffffffffffffffffffffffffffff8000000000000001821260008412151615610f0657610f05610e86565b5b82667fffffffffffff018213600084121615610f2557610f24610e86565b5b828203905092915050565b6000610f3b82610c4f565b91507fffffffffffffffffffffffffffffffffffffffffffffffffff80000000000000821415610f6e57610f6d610e86565b5b816000039050919050565b600066ffffffffffffff82169050919050565b7f4e487b7100000000000000000000000000000000000000000000000000000000600052601260045260246000fd5b6000610fc682610f79565b9150610fd183610f79565b925082610fe157610fe0610f8c565b5b828204905092915050565b600082825260208201905092915050565b7f5469636b2074696d652064696666206661696c00000000000000000000000000600082015250565b6000611033601383610fec565b915061103e82610ffd565b602082019050919050565b6000602082019050818103600083015261106281611026565b9050919050565b60008160020b9050919050565b600061108182611069565b91507fffffffffffffffffffffffffffffffffffffffffffffffffffffffffff8000008214156110b4576110b3610e86565b5b816000039050919050565b60008160011c9050919050565b6000808291508390505b6001851115611116578086048111156110f2576110f1610e86565b5b60018516156111015780820291505b808102905061110f856110bf565b94506110d6565b94509492505050565b60008261112f57600190506111eb565b8161113d57600090506111eb565b8160018114611153576002811461115d5761118c565b60019150506111eb565b60ff84111561116f5761116e610e86565b5b8360020a91508482111561118657611185610e86565b5b506111eb565b5060208310610133831016604e8410600b84101617156111c15782820a9050838111156111bc576111bb610e86565b5b6111eb565b6111ce84848460016110cc565b925090508184048111156111e5576111e4610e86565b5b81810290505b9392505050565b600060ff82169050919050565b600061120a826109ea565b9150611215836111f2565b92506112427fffffffffffffffffffffffffffffffffffffffffffffffffffffffffffffffff848461111f565b905092915050565b6000611255826109ea565b9150611260836109ea565b9250817fffffffffffffffffffffffffffffffffffffffffffffffffffffffffffffffff048311821515161561129957611298610e86565b5b828202905092915050565b60006112af826109ea565b91506112ba836109ea565b9250826112ca576112c9610f8c565b5b828204905092915050565b6000819050919050565b60006112ea826112d5565b91507f800000000000000000000000000000000000000000000000000000000000000082141561131d5761131c610e86565b5b816000039050919050565b7f5400000000000000000000000000000000000000000000000000000000000000600082015250565b600061135e600183610fec565b915061136982611328565b602082019050919050565b6000602082019050818103600083015261138d81611351565b9050919050565b600061139f826109ea565b91506113aa836109ea565b9250826113ba576113b9610f8c565b5b828206905092915050565b60006113d0826109ea565b91506113db836109ea565b9250827fffffffffffffffffffffffffffffffffffffffffffffffffffffffffffffffff038211156114105761140f610e86565b5b82820190509291505056fea26469706673582212206943d94aa52de5aa520f217632c6f8d36ca2a876014d1465d06de06fa3f8ee1264736f6c63430008090033",
  "linkReferences": {},
  "deployedLinkReferences": {}
}