{
  "_format": "hh-sol-artifact-1",
  "contractName": "VaultController",
  "sourceName": "contracts/lending/VaultController.sol",
  "abi": [
    {
      "anonymous": false,
      "inputs": [
        {
          "indexed": false,
          "internalType": "uint256",
          "name": "vaultId",
          "type": "uint256"
        },
        {
          "indexed": false,
          "internalType": "address",
          "name": "vaultAddress",
          "type": "address"
        },
        {
          "indexed": false,
          "internalType": "uint256",
          "name": "borrowAmount",
          "type": "uint256"
        }
      ],
      "name": "BorrowUSDi",
      "type": "event"
    },
    {
      "anonymous": false,
      "inputs": [
        {
          "indexed": false,
          "internalType": "uint64",
          "name": "epoch",
          "type": "uint64"
        },
        {
          "indexed": false,
          "internalType": "uint192",
          "name": "amount",
          "type": "uint192"
        },
        {
          "indexed": false,
          "internalType": "uint256",
          "name": "curve_val",
          "type": "uint256"
        }
      ],
      "name": "InterestEvent",
      "type": "event"
    },
    {
      "anonymous": false,
      "inputs": [
        {
          "indexed": false,
          "internalType": "uint256",
          "name": "vaultId",
          "type": "uint256"
        },
        {
          "indexed": false,
          "internalType": "address",
          "name": "asset_address",
          "type": "address"
        },
        {
          "indexed": false,
          "internalType": "uint256",
          "name": "usdi_to_repurchase",
          "type": "uint256"
        },
        {
          "indexed": false,
          "internalType": "uint256",
          "name": "tokens_to_liquidate",
          "type": "uint256"
        }
      ],
      "name": "Liquidate",
      "type": "event"
    },
    {
      "anonymous": false,
      "inputs": [
        {
          "indexed": false,
          "internalType": "uint256",
          "name": "protocol_fee",
          "type": "uint256"
        }
      ],
      "name": "NewProtocolFee",
      "type": "event"
    },
    {
      "anonymous": false,
      "inputs": [
        {
          "indexed": false,
          "internalType": "address",
          "name": "vault_address",
          "type": "address"
        },
        {
          "indexed": false,
          "internalType": "uint256",
          "name": "vaultId",
          "type": "uint256"
        },
        {
          "indexed": false,
          "internalType": "address",
          "name": "vaultOwner",
          "type": "address"
        }
      ],
      "name": "NewVault",
      "type": "event"
    },
    {
      "anonymous": false,
      "inputs": [
        {
          "indexed": true,
          "internalType": "address",
          "name": "previousOwner",
          "type": "address"
        },
        {
          "indexed": true,
          "internalType": "address",
          "name": "newOwner",
          "type": "address"
        }
      ],
      "name": "OwnershipTransferred",
      "type": "event"
    },
    {
      "anonymous": false,
      "inputs": [
        {
          "indexed": false,
          "internalType": "address",
          "name": "account",
          "type": "address"
        }
      ],
      "name": "Paused",
      "type": "event"
    },
    {
      "anonymous": false,
      "inputs": [
        {
          "indexed": false,
          "internalType": "address",
          "name": "curveMasterAddress",
          "type": "address"
        }
      ],
      "name": "RegisterCurveMaster",
      "type": "event"
    },
    {
      "anonymous": false,
      "inputs": [
        {
          "indexed": false,
          "internalType": "address",
          "name": "oracleMasterAddress",
          "type": "address"
        }
      ],
      "name": "RegisterOracleMaster",
      "type": "event"
    },
    {
      "anonymous": false,
      "inputs": [
        {
          "indexed": false,
          "internalType": "address",
          "name": "token_address",
          "type": "address"
        },
        {
          "indexed": false,
          "internalType": "uint256",
          "name": "LTVe4",
          "type": "uint256"
        },
        {
          "indexed": false,
          "internalType": "address",
          "name": "oracle_address",
          "type": "address"
        },
        {
          "indexed": false,
          "internalType": "uint256",
          "name": "liquidationIncentivee4",
          "type": "uint256"
        }
      ],
      "name": "RegisteredErc20",
      "type": "event"
    },
    {
      "anonymous": false,
      "inputs": [
        {
          "indexed": false,
          "internalType": "uint256",
          "name": "vaultId",
          "type": "uint256"
        },
        {
          "indexed": false,
          "internalType": "address",
          "name": "vaultAddress",
          "type": "address"
        },
        {
          "indexed": false,
          "internalType": "uint256",
          "name": "repayAmount",
          "type": "uint256"
        }
      ],
      "name": "RepayUSDi",
      "type": "event"
    },
    {
      "anonymous": false,
      "inputs": [
        {
          "indexed": false,
          "internalType": "address",
          "name": "account",
          "type": "address"
        }
      ],
      "name": "Unpaused",
      "type": "event"
    },
    {
      "anonymous": false,
      "inputs": [
        {
          "indexed": false,
          "internalType": "address",
          "name": "token_address",
          "type": "address"
        },
        {
          "indexed": false,
          "internalType": "uint256",
          "name": "LTVe4",
          "type": "uint256"
        },
        {
          "indexed": false,
          "internalType": "address",
          "name": "oracle_address",
          "type": "address"
        },
        {
          "indexed": false,
          "internalType": "uint256",
          "name": "liquidationIncentivee4",
          "type": "uint256"
        }
      ],
      "name": "UpdateRegisteredErc20",
      "type": "event"
    },
    {
      "inputs": [],
      "name": "_curveMaster",
      "outputs": [
        {
          "internalType": "contract CurveMaster",
          "name": "",
          "type": "address"
        }
      ],
      "stateMutability": "view",
      "type": "function"
    },
    {
      "inputs": [
        {
          "internalType": "uint256",
          "name": "",
          "type": "uint256"
        }
      ],
      "name": "_enabledTokens",
      "outputs": [
        {
          "internalType": "address",
          "name": "",
          "type": "address"
        }
      ],
      "stateMutability": "view",
      "type": "function"
    },
    {
      "inputs": [],
      "name": "_interest",
      "outputs": [
        {
          "internalType": "uint64",
          "name": "lastTime",
          "type": "uint64"
        },
        {
          "internalType": "uint192",
          "name": "factor",
          "type": "uint192"
        }
      ],
      "stateMutability": "view",
      "type": "function"
    },
    {
      "inputs": [],
      "name": "_oracleMaster",
      "outputs": [
        {
          "internalType": "contract OracleMaster",
          "name": "",
          "type": "address"
        }
      ],
      "stateMutability": "view",
      "type": "function"
    },
    {
      "inputs": [],
      "name": "_protocolFee",
      "outputs": [
        {
          "internalType": "uint192",
          "name": "",
          "type": "uint192"
        }
      ],
      "stateMutability": "view",
      "type": "function"
    },
    {
      "inputs": [
        {
          "internalType": "address",
          "name": "",
          "type": "address"
        }
      ],
      "name": "_tokenAddress_liquidationIncentive",
      "outputs": [
        {
          "internalType": "uint256",
          "name": "",
          "type": "uint256"
        }
      ],
      "stateMutability": "view",
      "type": "function"
    },
    {
      "inputs": [
        {
          "internalType": "address",
          "name": "",
          "type": "address"
        }
      ],
      "name": "_tokenAddress_tokenId",
      "outputs": [
        {
          "internalType": "uint256",
          "name": "",
          "type": "uint256"
        }
      ],
      "stateMutability": "view",
      "type": "function"
    },
    {
      "inputs": [
        {
          "internalType": "uint256",
          "name": "",
          "type": "uint256"
        }
      ],
      "name": "_tokenId_oracleAddress",
      "outputs": [
        {
          "internalType": "address",
          "name": "",
          "type": "address"
        }
      ],
      "stateMutability": "view",
      "type": "function"
    },
    {
      "inputs": [
        {
          "internalType": "uint256",
          "name": "",
          "type": "uint256"
        }
      ],
      "name": "_tokenId_tokenLTV",
      "outputs": [
        {
          "internalType": "uint256",
          "name": "",
          "type": "uint256"
        }
      ],
      "stateMutability": "view",
      "type": "function"
    },
    {
      "inputs": [],
      "name": "_tokensRegistered",
      "outputs": [
        {
          "internalType": "uint256",
          "name": "",
          "type": "uint256"
        }
      ],
      "stateMutability": "view",
      "type": "function"
    },
    {
      "inputs": [],
      "name": "_totalBaseLiability",
      "outputs": [
        {
          "internalType": "uint192",
          "name": "",
          "type": "uint192"
        }
      ],
      "stateMutability": "view",
      "type": "function"
    },
    {
      "inputs": [],
      "name": "_usdi",
      "outputs": [
        {
          "internalType": "contract IUSDI",
          "name": "",
          "type": "address"
        }
      ],
      "stateMutability": "view",
      "type": "function"
    },
    {
      "inputs": [
        {
          "internalType": "uint96",
          "name": "",
          "type": "uint96"
        }
      ],
      "name": "_vaultId_vaultAddress",
      "outputs": [
        {
          "internalType": "address",
          "name": "",
          "type": "address"
        }
      ],
      "stateMutability": "view",
      "type": "function"
    },
    {
      "inputs": [],
      "name": "_vaultsMinted",
      "outputs": [
        {
          "internalType": "uint96",
          "name": "",
          "type": "uint96"
        }
      ],
      "stateMutability": "view",
      "type": "function"
    },
    {
      "inputs": [
        {
          "internalType": "uint96",
          "name": "id",
          "type": "uint96"
        }
      ],
      "name": "accountBorrowingPower",
      "outputs": [
        {
          "internalType": "uint192",
          "name": "",
          "type": "uint192"
        }
      ],
      "stateMutability": "view",
      "type": "function"
    },
    {
      "inputs": [
        {
          "internalType": "uint96",
          "name": "id",
          "type": "uint96"
        }
      ],
      "name": "accountLiability",
      "outputs": [
        {
          "internalType": "uint192",
          "name": "",
          "type": "uint192"
        }
      ],
      "stateMutability": "view",
      "type": "function"
    },
    {
      "inputs": [
        {
          "internalType": "uint96",
          "name": "id",
          "type": "uint96"
        }
      ],
      "name": "amountToSolvency",
      "outputs": [
        {
          "internalType": "uint256",
          "name": "",
          "type": "uint256"
        }
      ],
      "stateMutability": "view",
      "type": "function"
    },
    {
      "inputs": [
        {
          "internalType": "uint96",
          "name": "id",
          "type": "uint96"
        },
        {
          "internalType": "uint192",
          "name": "amount",
          "type": "uint192"
        }
      ],
      "name": "borrowUsdi",
      "outputs": [],
      "stateMutability": "nonpayable",
      "type": "function"
    },
    {
      "inputs": [],
      "name": "calculateInterest",
      "outputs": [
        {
          "internalType": "uint256",
          "name": "",
          "type": "uint256"
        }
      ],
      "stateMutability": "nonpayable",
      "type": "function"
    },
    {
      "inputs": [
        {
          "internalType": "uint192",
          "name": "new_protocol_fee",
          "type": "uint192"
        }
      ],
      "name": "changeProtocolFee",
      "outputs": [],
      "stateMutability": "nonpayable",
      "type": "function"
    },
    {
      "inputs": [
        {
          "internalType": "uint96",
          "name": "id",
          "type": "uint96"
        }
      ],
      "name": "checkAccount",
      "outputs": [
        {
          "internalType": "bool",
          "name": "",
          "type": "bool"
        }
      ],
      "stateMutability": "view",
      "type": "function"
    },
    {
      "inputs": [],
      "name": "initialize",
      "outputs": [],
      "stateMutability": "nonpayable",
      "type": "function"
    },
    {
      "inputs": [],
      "name": "interestFactor",
      "outputs": [
        {
          "internalType": "uint192",
          "name": "",
          "type": "uint192"
        }
      ],
      "stateMutability": "view",
      "type": "function"
    },
    {
      "inputs": [],
      "name": "lastInterestTime",
      "outputs": [
        {
          "internalType": "uint64",
          "name": "",
          "type": "uint64"
        }
      ],
      "stateMutability": "view",
      "type": "function"
    },
    {
      "inputs": [
        {
          "internalType": "uint96",
          "name": "id",
          "type": "uint96"
        },
        {
          "internalType": "address",
          "name": "asset_address",
          "type": "address"
        },
        {
          "internalType": "uint256",
          "name": "tokens_to_liquidate",
          "type": "uint256"
        }
      ],
      "name": "liquidateAccount",
      "outputs": [
        {
          "internalType": "uint256",
          "name": "",
          "type": "uint256"
        }
      ],
      "stateMutability": "nonpayable",
      "type": "function"
    },
    {
      "inputs": [],
      "name": "mintVault",
      "outputs": [
        {
          "internalType": "address",
          "name": "",
          "type": "address"
        }
      ],
      "stateMutability": "nonpayable",
      "type": "function"
    },
    {
      "inputs": [],
      "name": "owner",
      "outputs": [
        {
          "internalType": "address",
          "name": "",
          "type": "address"
        }
      ],
      "stateMutability": "view",
      "type": "function"
    },
    {
      "inputs": [],
      "name": "pause",
      "outputs": [],
      "stateMutability": "nonpayable",
      "type": "function"
    },
    {
      "inputs": [],
      "name": "paused",
      "outputs": [
        {
          "internalType": "bool",
          "name": "",
          "type": "bool"
        }
      ],
      "stateMutability": "view",
      "type": "function"
    },
    {
      "inputs": [],
      "name": "protocolFee",
      "outputs": [
        {
          "internalType": "uint192",
          "name": "",
          "type": "uint192"
        }
      ],
      "stateMutability": "view",
      "type": "function"
    },
    {
      "inputs": [
        {
          "internalType": "address",
          "name": "master_curve_address",
          "type": "address"
        }
      ],
      "name": "registerCurveMaster",
      "outputs": [],
      "stateMutability": "nonpayable",
      "type": "function"
    },
    {
      "inputs": [
        {
          "internalType": "address",
          "name": "token_address",
          "type": "address"
        },
        {
          "internalType": "uint256",
          "name": "LTV",
          "type": "uint256"
        },
        {
          "internalType": "address",
          "name": "oracle_address",
          "type": "address"
        },
        {
          "internalType": "uint256",
          "name": "liquidationIncentive",
          "type": "uint256"
        }
      ],
      "name": "registerErc20",
      "outputs": [],
      "stateMutability": "nonpayable",
      "type": "function"
    },
    {
      "inputs": [
        {
          "internalType": "address",
          "name": "master_oracle_address",
          "type": "address"
        }
      ],
      "name": "registerOracleMaster",
      "outputs": [],
      "stateMutability": "nonpayable",
      "type": "function"
    },
    {
      "inputs": [
        {
          "internalType": "address",
          "name": "usdi_address",
          "type": "address"
        }
      ],
      "name": "registerUSDi",
      "outputs": [],
      "stateMutability": "nonpayable",
      "type": "function"
    },
    {
      "inputs": [],
      "name": "renounceOwnership",
      "outputs": [],
      "stateMutability": "nonpayable",
      "type": "function"
    },
    {
      "inputs": [
        {
          "internalType": "uint96",
          "name": "id",
          "type": "uint96"
        }
      ],
      "name": "repayAllUSDi",
      "outputs": [],
      "stateMutability": "nonpayable",
      "type": "function"
    },
    {
      "inputs": [
        {
          "internalType": "uint96",
          "name": "id",
          "type": "uint96"
        },
        {
          "internalType": "uint192",
          "name": "amount",
          "type": "uint192"
        }
      ],
      "name": "repayUSDi",
      "outputs": [],
      "stateMutability": "nonpayable",
      "type": "function"
    },
    {
      "inputs": [],
      "name": "tokensRegistered",
      "outputs": [
        {
          "internalType": "uint256",
          "name": "",
          "type": "uint256"
        }
      ],
      "stateMutability": "view",
      "type": "function"
    },
    {
      "inputs": [
        {
          "internalType": "uint96",
          "name": "id",
          "type": "uint96"
        },
        {
          "internalType": "address",
          "name": "asset_address",
          "type": "address"
        }
      ],
      "name": "tokensToLiquidate",
      "outputs": [
        {
          "internalType": "uint256",
          "name": "",
          "type": "uint256"
        }
      ],
      "stateMutability": "view",
      "type": "function"
    },
    {
      "inputs": [],
      "name": "totalBaseLiability",
      "outputs": [
        {
          "internalType": "uint192",
          "name": "",
          "type": "uint192"
        }
      ],
      "stateMutability": "view",
      "type": "function"
    },
    {
      "inputs": [
        {
          "internalType": "address",
          "name": "newOwner",
          "type": "address"
        }
      ],
      "name": "transferOwnership",
      "outputs": [],
      "stateMutability": "nonpayable",
      "type": "function"
    },
    {
      "inputs": [],
      "name": "unpause",
      "outputs": [],
      "stateMutability": "nonpayable",
      "type": "function"
    },
    {
      "inputs": [
        {
          "internalType": "address",
          "name": "token_address",
          "type": "address"
        },
        {
          "internalType": "uint256",
          "name": "LTV",
          "type": "uint256"
        },
        {
          "internalType": "address",
          "name": "oracle_address",
          "type": "address"
        },
        {
          "internalType": "uint256",
          "name": "liquidationIncentive",
          "type": "uint256"
        }
      ],
      "name": "updateRegisteredErc20",
      "outputs": [],
      "stateMutability": "nonpayable",
      "type": "function"
    },
    {
      "inputs": [
        {
          "internalType": "uint96",
          "name": "id",
          "type": "uint96"
        }
      ],
      "name": "vaultAddress",
      "outputs": [
        {
          "internalType": "address",
          "name": "",
          "type": "address"
        }
      ],
      "stateMutability": "view",
      "type": "function"
    },
    {
      "inputs": [],
      "name": "vaultsMinted",
      "outputs": [
        {
          "internalType": "uint96",
          "name": "",
          "type": "uint96"
        }
      ],
      "stateMutability": "view",
      "type": "function"
    }
  ],
  "bytecode": "0x608060405234801561001057600080fd5b50613cc3806100206000396000f3fe60806040523480156200001157600080fd5b5060043610620002b45760003560e01c80637afcc9271162000179578063c575c56111620000df578063dddd91f61162000092578063dddd91f614620006c6578063de7a279114620006da578063eb0c495514620006fd578063ede17f891462000707578063f2fde38b146200071e578063fa7651c4146200073557600080fd5b8063c575c561146200061f578063c7b208351462000633578063ce0a2564146200064a578063cf2ab4a41462000663578063d912c427146200067a578063dc3a1e3714620006af57600080fd5b80639e0a768811620001385780639e0a768814620005ac578063adddb3f214620005c3578063b028b05c14620005d5578063b0e21e8a14620005df578063b13b9f3b14620005f1578063bcff1177146200060857600080fd5b80637afcc927146200054f5780638129fc1c146200057257806382703265146200057c5780638456cb5914620005905780638da5cb5b146200059a57600080fd5b80633836260b116200021f5780635d09b58e11620001de5780635d09b58e14620004c55780636b0374de14620004f95780636e8458f71462000503578063715018a6146200051a57806371580926146200052457806373263c9f146200053b57600080fd5b80633836260b146200045a5780633f4ba83a146200047357806344ce2952146200047d57806356dc3ac914620004945780635c975abb14620004ad57600080fd5b806312af5008116200027857806312af5008146200037b5780631fc6109d14620003c0578063250f4e8514620003dd5780632877ae9e14620003f45780632ac41e10146200040b57806334e328ab146200042e57600080fd5b8062d8e38414620002b95780630786eea814620002d05780630df2e2cf14620002e75780630e1ebf4d1462000337578063108e4db71462000367575b600080fd5b60a0545b6040519081526020015b60405180910390f35b620002bd620002e136600462002dd7565b6200074c565b60a3546200030e9067ffffffffffffffff811690600160401b90046001600160c01b031682565b6040805167ffffffffffffffff90931683526001600160c01b03909116602083015201620002c7565b6200034e6200034836600462002e13565b62000767565b6040516001600160c01b039091168152602001620002c7565b60a2546200034e906001600160c01b031681565b620003a76200038c36600462002e13565b6097602052600090815260409020546001600160a01b031681565b6040516001600160a01b039091168152602001620002c7565b60a35460405167ffffffffffffffff9091168152602001620002c7565b620003a7620003ee36600462002e38565b62000784565b6200034e6200040536600462002e13565b620007af565b620002bd6200041c36600462002e52565b609b6020526000908152604090205481565b620003a76200043f36600462002e38565b609a602052600090815260409020546001600160a01b031681565b620004716200046b36600462002e52565b620007bc565b005b6200047162000847565b620004716200048e36600462002e88565b62000880565b60a354600160401b90046001600160c01b03166200034e565b60335460ff165b6040519015158152602001620002c7565b609f54620004e090600160a01b90046001600160601b031681565b6040516001600160601b039091168152602001620002c7565b620002bd60a05481565b620004716200051436600462002eb9565b62000c33565b6200047162000e36565b620004716200053536600462002eb9565b62000e6f565b609f54620003a7906001600160a01b031681565b620002bd6200056036600462002e38565b60996020526000908152604090205481565b62000471620010c1565b60a1546200034e906001600160c01b031681565b62000471620011b7565b6065546001600160a01b0316620003a7565b62000471620005bd36600462002e52565b620011ee565b60a1546001600160c01b03166200034e565b620003a76200126a565b60a2546001600160c01b03166200034e565b620004b46200060236600462002e13565b620013a2565b620002bd6200061936600462002e13565b6200147f565b609e54620003a7906001600160a01b031681565b620002bd6200064436600462002f06565b620014d9565b609f54600160a01b90046001600160601b0316620004e0565b620004716200067436600462002e52565b62001869565b620003a76200068b36600462002e13565b6001600160601b03166000908152609760205260409020546001600160a01b031690565b62000471620006c036600462002e88565b620018b8565b609d54620003a7906001600160a01b031681565b620002bd620006eb36600462002e52565b60986020526000908152604090205481565b620002bd62001bb2565b620004716200071836600462002e13565b62001bc3565b620004716200072f36600462002e52565b62001e7f565b620004716200074636600462002f4a565b62001f1e565b6000806200075e848460001962001fef565b50949350505050565b60006200077e620007788362002268565b620022d0565b92915050565b609c81815481106200079557600080fd5b6000918252602090912001546001600160a01b0316905081565b60006200077e82620024c8565b6065546001600160a01b03163314620007f25760405162461bcd60e51b8152600401620007e99062002f6a565b60405180910390fd5b609e80546001600160a01b0319166001600160a01b0383169081179091556040519081527f6efa49a27d1f19e0dca70a0d80483be4b5f3e1b8af1d9714eacc529dbf074a5b906020015b60405180910390a150565b6065546001600160a01b03163314620008745760405162461bcd60e51b8152600401620007e99062002f6a565b6200087e620025a1565b565b6200088a62002636565b5060335460ff1615620008b15760405162461bcd60e51b8152600401620007e99062002f9f565b6000620008be8362002268565b9050806001600160a01b031663075461726040518163ffffffff1660e01b815260040160206040518083038186803b158015620008fa57600080fd5b505afa1580156200090f573d6000803e3d6000fd5b505050506040513d601f19601f8201168201806040525081019062000935919062002fc9565b6001600160a01b0316336001600160a01b0316146200098b5760405162461bcd60e51b815260206004820152601160248201527039b2b73232b9103737ba1036b4b73a32b960791b6044820152606401620007e9565b60a354600090620009d2906001600160c01b03600160401b909104811690620009c090670de0b6b3a764000090871662002fff565b620009cc919062003037565b62002a8c565b60405163dfabefe760e01b8152600160048201526001600160c01b03821660248201529091506000906001600160a01b0384169063dfabefe790604401602060405180830381600087803b15801562000a2a57600080fd5b505af115801562000a3f573d6000803e3d6000fd5b505050506040513d601f19601f8201168201806040525081019062000a6591906200304e565b905062000a7b826001600160c01b031662002a8c565b60a15462000a9391906001600160c01b031662003068565b60a180546001600160c01b0319166001600160c01b0392831617905560a35460009162000ad59162000acf918591600160401b90041662002fff565b62002ad5565b60a35490915060009062000b029062000acf906001600160c01b0380881691600160401b90041662002fff565b9050600062000b1186620022d0565b6001600160c01b031690508281101562000b625760405162461bcd60e51b81526020600482015260116024820152701858d8dbdd5b9d081a5b9cdbdb1d995b9d607a1b6044820152606401620007e9565b609f546001600160a01b0316630522658d336040516001600160e01b031960e084901b1681526001600160a01b03909116600482015260248101859052604401600060405180830381600087803b15801562000bbd57600080fd5b505af115801562000bd2573d6000803e3d6000fd5b5050604080516001600160601b038c1681526001600160a01b038a1660208201529081018590527f805c5591e26e864042788658377d48b79f09d90f1120e2925b4ee75a704a39e59250606001905060405180910390a15050505050505050565b6065546001600160a01b0316331462000c605760405162461bcd60e51b8152600401620007e99062002f6a565b609d5460405163c054fd5d60e01b81526001600160a01b038481166004830152600092169063c054fd5d9060240160206040518083038186803b15801562000ca757600080fd5b505afa15801562000cbc573d6000803e3d6000fd5b505050506040513d601f19601f8201168201806040525081019062000ce2919062002fc9565b6001600160a01b0316141562000d335760405162461bcd60e51b81526020600482015260156024820152741bdc9858db1948191bd95cc81b9bdd08195e1a5cdd605a1b6044820152606401620007e9565b6001600160a01b03841660009081526098602052604090205462000d9a5760405162461bcd60e51b815260206004820152601760248201527f746f6b656e206973206e6f7420726567697374657265640000000000000000006044820152606401620007e9565b60a080546000908152609a6020908152604080832080546001600160a01b0319166001600160a01b0388811691821790925594548452609983528184208890558816808452609b8352928190208590558051928352908201869052810191909152606081018290527f7a717250e5aa97c909db1acf5a906f6201b7ce1dfbc055bc779f55d3717dfcdb906080015b60405180910390a150505050565b6065546001600160a01b0316331462000e635760405162461bcd60e51b8152600401620007e99062002f6a565b6200087e600062002aeb565b6065546001600160a01b0316331462000e9c5760405162461bcd60e51b8152600401620007e99062002f6a565b609d5460405163c054fd5d60e01b81526001600160a01b038481166004830152600092169063c054fd5d9060240160206040518083038186803b15801562000ee357600080fd5b505afa15801562000ef8573d6000803e3d6000fd5b505050506040513d601f19601f8201168201806040525081019062000f1e919062002fc9565b6001600160a01b0316141562000f6f5760405162461bcd60e51b81526020600482015260156024820152741bdc9858db1948191bd95cc81b9bdd08195e1a5cdd605a1b6044820152606401620007e9565b6001600160a01b0384166000908152609860205260409020541562000fd75760405162461bcd60e51b815260206004820152601860248201527f746f6b656e20616c7265616479207265676973746572656400000000000000006044820152606401620007e9565b60a05462000fe790600162003096565b60a08181556001600160a01b038681166000818152609860209081526040808320879055958252609a815285822080549489166001600160a01b031995861681179091559454825260998152858220899055828252609b8152858220879055609c805460018101825592527faf85b9071dfafeac1409d3f1d19bafc9bc7c37974cde8df0ee6168f0086e539c90910180549093168217909255835190815290810186905291820152606081018290527f22aafc99cc92fec579679933a118900440ff9130c071d53f7b841b49bb2b0b219060800162000e28565b600054610100900460ff1680620010db575060005460ff16155b620010fa5760405162461bcd60e51b8152600401620007e990620030b1565b600054610100900460ff161580156200111d576000805461ffff19166101011790555b6200112762002b3d565b6200113162002bc2565b6040805180820190915267ffffffffffffffff4216808252670de0b6b3a76400006020909201919091526503782dace9d960521b1760a35560a280546001600160c01b0319908116655af3107a400017909155609f80546001600160a01b03169055600060a05560a1805490911690558015620011b4576000805461ff00191690555b50565b6065546001600160a01b03163314620011e45760405162461bcd60e51b8152600401620007e99062002f6a565b6200087e62002bf6565b6065546001600160a01b031633146200121b5760405162461bcd60e51b8152600401620007e99062002f6a565b609d80546001600160a01b0319166001600160a01b0383169081179091556040519081527f67d0daa6370ca90e96e13b330be2b5fb0e00bb91a58015caf05986c8ff74951f906020016200083c565b609f546000906200128d90600160a01b90046001600160601b03166001620030ff565b609f80546001600160a01b0316600160a01b6001600160601b03938416810291909117918290556000929104163330604051620012ca9062002d96565b6001600160601b0390931683526001600160a01b039182166020840152166040820152606001604051809103906000f0801580156200130d573d6000803e3d6000fd5b50609f80546001600160601b03600160a01b91829004811660009081526097602090815260409182902080546001600160a01b0388166001600160a01b031990911681179091559454825195865293909304909116918301919091523382820152519192507fd545492c32293e3c7c7bebfb14f0d2be495cebb835c376f31d2ac7b490fc5b9d919081900360600190a1919050565b600080620013b08362002268565b90506000620013bf82620022d0565b6001600160c01b0316905060006200147360a360000160089054906101000a90046001600160c01b03166001600160c01b0316846001600160a01b031663adef15bc6040518163ffffffff1660e01b815260040160206040518083038186803b1580156200142c57600080fd5b505afa15801562001441573d6000803e3d6000fd5b505050506040513d601f19601f820116820180604052508101906200146791906200304e565b62000acf919062002fff565b90911015949350505050565b60006200148c82620013a2565b15620014ce5760405162461bcd60e51b815260206004820152601060248201526f15985d5b1d081a5cc81cdbdb1d995b9d60821b6044820152606401620007e9565b6200077e8262002c52565b6000620014e562002636565b5060335460ff16156200150c5760405162461bcd60e51b8152600401620007e99062002f9f565b6200151784620013a2565b15620015595760405162461bcd60e51b815260206004820152601060248201526f15985d5b1d081a5cc81cdbdb1d995b9d60821b6044820152606401620007e9565b600082116200159e5760405162461bcd60e51b815260206004820152601060248201526f06d757374206c69717569646174653e360841b6044820152606401620007e9565b600080620015ae86868662001fef565b9150915081600014620015bf578193505b6000620015d162000acf868462002fff565b90506000620015e08862002268565b60a3549091506001600160a01b0382169063dfabefe790600090600160401b90046001600160c01b03166200161e86670de0b6b3a764000062002fff565b6200162a919062003037565b6040516001600160e01b031960e085901b16815291151560048301526024820152604401602060405180830381600087803b1580156200166957600080fd5b505af11580156200167e573d6000803e3d6000fd5b505050506040513d601f19601f82011682018060405250810190620016a491906200304e565b50609f546001600160a01b031663178a6670336040516001600160e01b031960e084901b1681526001600160a01b03909116600482015260248101859052604401600060405180830381600087803b1580156200170057600080fd5b505af115801562001715573d6000803e3d6000fd5b50505050806001600160a01b0316631c9c790388620017313390565b6040516001600160e01b031960e085901b1681526001600160a01b0392831660048201529116602482015260448101899052606401600060405180830381600087803b1580156200178157600080fd5b505af115801562001796573d6000803e3d6000fd5b50505050620017a588620024c8565b6001600160c01b0316620017b982620022d0565b6001600160c01b03161115620018045760405162461bcd60e51b815260206004820152600f60248201526e37bb32b93634b8bab4b230ba34b7b760891b6044820152606401620007e9565b604080516001600160601b038a1681526001600160a01b0389166020820152908101839052606081018790527fd47e75cd6a3c0e59e63919b525eb69ce3bfd7f8de011363e440f2c58273f74d99060800160405180910390a150939695505050505050565b6065546001600160a01b03163314620018965760405162461bcd60e51b8152600401620007e99062002f6a565b609f80546001600160a01b0319166001600160a01b0392909216919091179055565b620018c262002636565b5060335460ff1615620018e95760405162461bcd60e51b8152600401620007e99062002f9f565b6000620018f68362002268565b60a3549091506000906200194390600160401b90046001600160c01b03166200192885670de0b6b3a764000062003124565b62001934919062003156565b6001600160c01b031662002a8c565b60a1549091506200195f9082906001600160c01b03166200317f565b60a160006101000a8154816001600160c01b0302191690836001600160c01b03160217905550816001600160a01b031663adef15bc6040518163ffffffff1660e01b815260040160206040518083038186803b158015620019bf57600080fd5b505afa158015620019d4573d6000803e3d6000fd5b505050506040513d601f19601f82011682018060405250810190620019fa91906200304e565b816001600160c01b0316111562001a4c5760405162461bcd60e51b81526020600482015260156024820152741c995c185e480f88189bdc9c9bddc8185b5bdd5b9d605a1b6044820152606401620007e9565b60405163dfabefe760e01b8152600060048201526001600160c01b03821660248201526001600160a01b0383169063dfabefe790604401602060405180830381600087803b15801562001a9e57600080fd5b505af115801562001ab3573d6000803e3d6000fd5b505050506040513d601f19601f8201168201806040525081019062001ad991906200304e565b50609f546001600160a01b031663178a6670336040516001600160e01b031960e084901b1681526001600160a01b0390911660048201526001600160c01b0386166024820152604401600060405180830381600087803b15801562001b3d57600080fd5b505af115801562001b52573d6000803e3d6000fd5b5050604080516001600160601b03881681526001600160a01b03861660208201526001600160c01b038716918101919091527fba9d04daae3acba43a9a12853aba3fd1c05506c89f874802a159d4a32efc5c0a9250606001905062000e28565b600062001bbe62002636565b905090565b62001bcd62002636565b5060335460ff161562001bf45760405162461bcd60e51b8152600401620007e99062002f9f565b600062001c018262002268565b9050600062001cb062001ca1836001600160a01b031663adef15bc6040518163ffffffff1660e01b815260040160206040518083038186803b15801562001c4757600080fd5b505afa15801562001c5c573d6000803e3d6000fd5b505050506040513d601f19601f8201168201806040525081019062001c8291906200304e565b60a354620009cc9190600160401b90046001600160c01b031662002fff565b6001600160c01b031662002ad5565b9050816001600160a01b031663dfabefe76000846001600160a01b031663adef15bc6040518163ffffffff1660e01b815260040160206040518083038186803b15801562001cfd57600080fd5b505afa15801562001d12573d6000803e3d6000fd5b505050506040513d601f19601f8201168201806040525081019062001d3891906200304e565b6040516001600160e01b031960e085901b16815291151560048301526024820152604401602060405180830381600087803b15801562001d7757600080fd5b505af115801562001d8c573d6000803e3d6000fd5b505050506040513d601f19601f8201168201806040525081019062001db291906200304e565b50609f546001600160a01b031663178a6670336040516001600160e01b031960e084901b1681526001600160a01b03909116600482015260248101849052604401600060405180830381600087803b15801562001e0e57600080fd5b505af115801562001e23573d6000803e3d6000fd5b5050604080516001600160601b03871681526001600160a01b03861660208201529081018490527fba9d04daae3acba43a9a12853aba3fd1c05506c89f874802a159d4a32efc5c0a9250606001905060405180910390a1505050565b6065546001600160a01b0316331462001eac5760405162461bcd60e51b8152600401620007e99062002f6a565b6001600160a01b03811662001f135760405162461bcd60e51b815260206004820152602660248201527f4f776e61626c653a206e6577206f776e657220697320746865207a65726f206160448201526564647265737360d01b6064820152608401620007e9565b620011b48162002aeb565b6065546001600160a01b0316331462001f4b5760405162461bcd60e51b8152600401620007e99062002f6a565b670de0b6b3a7640000816001600160c01b03161062001fa05760405162461bcd60e51b815260206004820152601060248201526f66656520697320746f6f206c6172676560801b6044820152606401620007e9565b60a280546001600160c01b0319166001600160c01b0383169081179091556040519081527f3e1c6f794380f768303ee10adb978482d0ee037b0517bdabf3118141632078a6906020016200083c565b600080600062001fff8662002268565b609d54604051634295aec160e11b81526001600160a01b0388811660048301529293506000929091169063852b5d829060240160206040518083038186803b1580156200204b57600080fd5b505afa15801562002060573d6000803e3d6000fd5b505050506040513d601f19601f820116820180604052508101906200208691906200304e565b6001600160a01b0387166000908152609b602052604081205491925090620020c890620020bc90670de0b6b3a7640000620031aa565b62000acf908462002fff565b6001600160a01b0388166000908152609860209081526040808320548352609990915281205491925090620021039062000acf908562002fff565b90506000620021138284620031aa565b9050600081620021238c62002c52565b6200213790670de0b6b3a764000062002fff565b62002143919062003037565b90508089111562002152578098505b60405163776e4b3560e11b81526001600160a01b038b8116600483015287169063eedc966a9060240160206040518083038186803b1580156200219457600080fd5b505afa158015620021a9573d6000803e3d6000fd5b505050506040513d601f19601f82011682018060405250810190620021cf91906200304e565b891115620022575760405163776e4b3560e11b81526001600160a01b038b8116600483015287169063eedc966a9060240160206040518083038186803b1580156200221957600080fd5b505afa1580156200222e573d6000803e3d6000fd5b505050506040513d601f19601f820116820180604052508101906200225491906200304e565b98505b509699919850909650505050505050565b6001600160601b0381166000908152609760205260408120546001600160a01b0316806200077e5760405162461bcd60e51b81526020600482015260146024820152731d985d5b1d08191bd95cc81b9bdd08195e1a5cdd60621b6044820152606401620007e9565b60008060015b60a054816001600160c01b031611620024c1576000609c620022fa6001846200317f565b6001600160c01b031681548110620023165762002316620031c4565b600091825260208220015460405163776e4b3560e11b81526001600160a01b039182166004820181905293509087169063eedc966a9060240160206040518083038186803b1580156200236857600080fd5b505afa1580156200237d573d6000803e3d6000fd5b505050506040513d601f19601f82011682018060405250810190620023a391906200304e565b905080620023b3575050620024ac565b609d54604051634295aec160e11b81526001600160a01b0384811660048301526000926200243b9291169063852b5d829060240160206040518083038186803b1580156200240057600080fd5b505afa15801562002415573d6000803e3d6000fd5b505050506040513d601f19601f82011682018060405250810190620009cc91906200304e565b90506001600160c01b0381166200245557505050620024ac565b600062002497620009cc62000acf60996000896001600160c01b031681526020019081526020016000205486866001600160c01b031662001467919062002fff565b9050620024a5818762003068565b9550505050505b80620024b881620031da565b915050620022d6565b5092915050565b6001600160601b0381166000908152609760205260408120546001600160a01b031680620025305760405162461bcd60e51b81526020600482015260146024820152731d985d5b1d08191bd95cc81b9bdd08195e1a5cdd60621b6044820152606401620007e9565b600081905062002599620009cc60a360000160089054906101000a90046001600160c01b03166001600160c01b0316836001600160a01b031663adef15bc6040518163ffffffff1660e01b815260040160206040518083038186803b1580156200142c57600080fd5b949350505050565b60335460ff16620025ec5760405162461bcd60e51b815260206004820152601460248201527314185d5cd8589b194e881b9bdd081c185d5cd95960621b6044820152606401620007e9565b6033805460ff191690557f5db9ee0a495bf2e6ff9c91a7834c1ba4fdd244a5e8aa4e537bd38aeae4b073aa335b6040516001600160a01b03909116815260200160405180910390a1565b60a3546000908190620026549067ffffffffffffffff164262003204565b905067ffffffffffffffff81166200266e57600091505090565b609f546040805163018fab9b60e31b815290516000926001600160a01b031691630c7d5cd8916004808301926020929190829003018186803b158015620026b457600080fd5b505afa158015620026c9573d6000803e3d6000fd5b505050506040513d601f19601f82011682018060405250810190620026ef919062003228565b609e5460405163d15e1ba960e01b81526000600482018190526001600160c01b03939093166024820181905293508392916001600160a01b03169063d15e1ba99060440160206040518083038186803b1580156200274c57600080fd5b505afa15801562002761573d6000803e3d6000fd5b505050506040513d601f19601f820116820180604052508101906200278791906200304e565b90506000620027968262002a8c565b60a354909150600090620027ff90620009cc906001600160c01b03600160401b90910481169062001467906301e187e0908716620027e7670de0b6b3a764000067ffffffffffffffff8e1662002fff565b620027f3919062002fff565b62000acf919062003037565b60a35460a1549192506000916200283491620009cc9162000acf916001600160c01b03600160401b9091048116911662002fff565b905060405180604001604052804267ffffffffffffffff1681526020018360a360000160089054906101000a90046001600160c01b031662002877919062003068565b6001600160c01b03908116909152815160209092015167ffffffffffffffff909216600160401b92821683021760a381905560a154600093620028cb93620009cc9362000acf939290048116911662002fff565b60a2549091506000906200290890620009cc906001600160c01b0316620028f386866200317f565b6001600160c01b031662000acf919062002fff565b609f549091506001600160a01b031663c99d6f01826200292986866200317f565b6200293591906200317f565b6040516001600160e01b031960e084901b1681526001600160c01b039091166004820152602401600060405180830381600087803b1580156200297757600080fd5b505af11580156200298c573d6000803e3d6000fd5b5050609f546001600160a01b03169150630522658d9050620029b66065546001600160a01b031690565b6040516001600160e01b031960e084901b1681526001600160a01b0390911660048201526001600160c01b0384166024820152604401600060405180830381600087803b15801562002a0757600080fd5b505af115801562002a1c573d6000803e3d6000fd5b5050604080514267ffffffffffffffff1681526001600160c01b03888116602083015289168183015290517f9a3dde40e8ce8e77c8e6a6283e8ae51757e9125643311fb8e128c365924cc8419350908190036060019150a1836001600160c01b0316995050505050505050505090565b60006001600160c01b03821062002ad15760405162461bcd60e51b81526020600482015260086024820152676f766572666c6f7760c01b6044820152606401620007e9565b5090565b60006200077e670de0b6b3a76400008362003037565b606580546001600160a01b038381166001600160a01b0319831681179093556040519116919082907f8be0079c531659141344cd1fd0a4f28419497f9722a3daafe3b4186f6b6457e090600090a35050565b600054610100900460ff168062002b57575060005460ff16155b62002b765760405162461bcd60e51b8152600401620007e990620030b1565b600054610100900460ff1615801562002b99576000805461ffff19166101011790555b62002ba362002c89565b62002bad62002cf9565b8015620011b4576000805461ff001916905550565b600054610100900460ff1662002bec5760405162461bcd60e51b8152600401620007e99062003248565b6200087e62002d60565b60335460ff161562002c1c5760405162461bcd60e51b8152600401620007e99062002f9f565b6033805460ff191660011790557f62e78cea01bee320cd4e420270b5ea74000d11b0c9f74754ebdbfc544b05a258620026193390565b600062002c63620007788362002268565b62002c6e83620024c8565b62002c7a91906200317f565b6001600160c01b031692915050565b600054610100900460ff168062002ca3575060005460ff16155b62002cc25760405162461bcd60e51b8152600401620007e990620030b1565b600054610100900460ff1615801562002bad576000805461ffff19166101011790558015620011b4576000805461ff001916905550565b600054610100900460ff168062002d13575060005460ff16155b62002d325760405162461bcd60e51b8152600401620007e990620030b1565b600054610100900460ff1615801562002d55576000805461ffff19166101011790555b62002bad3362002aeb565b600054610100900460ff1662002d8a5760405162461bcd60e51b8152600401620007e99062003248565b6033805460ff19169055565b6109fa806200329483390190565b80356001600160601b038116811462002dbc57600080fd5b919050565b6001600160a01b0381168114620011b457600080fd5b6000806040838503121562002deb57600080fd5b62002df68362002da4565b9150602083013562002e088162002dc1565b809150509250929050565b60006020828403121562002e2657600080fd5b62002e318262002da4565b9392505050565b60006020828403121562002e4b57600080fd5b5035919050565b60006020828403121562002e6557600080fd5b813562002e318162002dc1565b6001600160c01b0381168114620011b457600080fd5b6000806040838503121562002e9c57600080fd5b62002ea78362002da4565b9150602083013562002e088162002e72565b6000806000806080858703121562002ed057600080fd5b843562002edd8162002dc1565b935060208501359250604085013562002ef68162002dc1565b9396929550929360600135925050565b60008060006060848603121562002f1c57600080fd5b62002f278462002da4565b9250602084013562002f398162002dc1565b929592945050506040919091013590565b60006020828403121562002f5d57600080fd5b813562002e318162002e72565b6020808252818101527f4f776e61626c653a2063616c6c6572206973206e6f7420746865206f776e6572604082015260600190565b60208082526010908201526f14185d5cd8589b194e881c185d5cd95960821b604082015260600190565b60006020828403121562002fdc57600080fd5b815162002e318162002dc1565b634e487b7160e01b600052601160045260246000fd5b60008160001904831182151516156200301c576200301c62002fe9565b500290565b634e487b7160e01b600052601260045260246000fd5b60008262003049576200304962003021565b500490565b6000602082840312156200306157600080fd5b5051919050565b60006001600160c01b038281168482168083038211156200308d576200308d62002fe9565b01949350505050565b60008219821115620030ac57620030ac62002fe9565b500190565b6020808252602e908201527f496e697469616c697a61626c653a20636f6e747261637420697320616c72656160408201526d191e481a5b9a5d1a585b1a5e995960921b606082015260800190565b60006001600160601b038083168185168083038211156200308d576200308d62002fe9565b60006001600160c01b03828116848216811515828404821116156200314d576200314d62002fe9565b02949350505050565b60006001600160c01b038381168062003173576200317362003021565b92169190910492915050565b60006001600160c01b0383811690831681811015620031a257620031a262002fe9565b039392505050565b600082821015620031bf57620031bf62002fe9565b500390565b634e487b7160e01b600052603260045260246000fd5b60006001600160c01b0382811680821415620031fa57620031fa62002fe9565b6001019392505050565b600067ffffffffffffffff83811690831681811015620031a257620031a262002fe9565b6000602082840312156200323b57600080fd5b815162002e318162002e72565b6020808252602b908201527f496e697469616c697a61626c653a20636f6e7472616374206973206e6f74206960408201526a6e697469616c697a696e6760a81b60608201526080019056fe608060405234801561001057600080fd5b506040516109fa3803806109fa83398101604081905261002f916100ab565b604080518082019091526001600160601b03939093168084526001600160a01b0392831660209094018490526c01000000000000000000000000909302909217600055600180546001600160a01b031916929091169190911790556100fc565b80516001600160a01b03811681146100a657600080fd5b919050565b6000806000606084860312156100c057600080fd5b83516001600160601b03811681146100d757600080fd5b92506100e56020850161008f565b91506100f36040850161008f565b90509250925092565b6108ef8061010b6000396000f3fe608060405234801561001057600080fd5b50600436106100a95760003560e01c8063adef15bc11610071578063adef15bc14610166578063af640d0f14610178578063bd1f4b5214610193578063dfabefe7146101a6578063eedc966a146101b9578063fe84d0ae146101cc57600080fd5b806307546172146100ae5780631c9c7903146100df5780632f10b47a146100f4578063353696621461010757806385b1899714610153575b600080fd5b600054600160601b90046001600160a01b03165b6040516001600160a01b0390911681526020015b60405180910390f35b6100f26100ed366004610754565b6101d5565b005b6100f2610102366004610790565b610310565b60005461012c906001600160601b03811690600160601b90046001600160a01b031682565b604080516001600160601b0390931683526001600160a01b039091166020830152016100d6565b6001546100c2906001600160a01b031681565b6002545b6040519081526020016100d6565b6000546040516001600160601b0390911681526020016100d6565b6100f26101a13660046107c3565b6103cd565b61016a6101b43660046107fe565b6105ca565b61016a6101c736600461081c565b6106be565b61016a60025481565b6001546001600160a01b0316336001600160a01b03161461023d5760405162461bcd60e51b815260206004820152601a60248201527f73656e646572206e6f74205661756c74436f6e74726f6c6c657200000000000060448201526064015b60405180910390fd5b60405163a9059cbb60e01b81526001600160a01b0383811660048301526024820183905284169063a9059cbb90604401602060405180830381600087803b15801561028757600080fd5b505af115801561029b573d6000803e3d6000fd5b505050506040513d601f19601f820116820180604052508101906102bf919061083e565b61030b5760405162461bcd60e51b815260206004820152601f60248201527f6d61737465725472616e736665723a205472616e73666572204661696c6564006044820152606401610234565b505050565b600054600160601b90046001600160a01b0316336001600160a01b03161461036e5760405162461bcd60e51b815260206004820152601160248201527039b2b73232b9103737ba1036b4b73a32b960791b6044820152606401610234565b6040516317066a5760e21b81526001600160a01b038381166004830152821690635c19a95c90602401600060405180830381600087803b1580156103b157600080fd5b505af11580156103c5573d6000803e3d6000fd5b505050505050565b600054600160601b90046001600160a01b0316336001600160a01b03161461042b5760405162461bcd60e51b815260206004820152601160248201527039b2b73232b9103737ba1036b4b73a32b960791b6044820152606401610234565b604080516323b872dd60e01b81523060048201523360248201526044810183905290516001600160a01b038416916323b872dd9160648083019260209291908290030181600087803b15801561048057600080fd5b505af1158015610494573d6000803e3d6000fd5b505050506040513d601f19601f820116820180604052508101906104b8919061083e565b506001546000805460405163b13b9f3b60e01b81526001600160601b03909116600482015290916001600160a01b03169063b13b9f3b9060240160206040518083038186803b15801561050a57600080fd5b505afa15801561051e573d6000803e3d6000fd5b505050506040513d601f19601f82011682018060405250810190610542919061083e565b9050806105835760405162461bcd60e51b815260206004820152600f60248201526e1bdd995c8b5dda5d1a191c985dd85b608a1b6044820152606401610234565b604080516001600160a01b0385168152602081018490527f884edad9ce6fa2440d8a54cc123490eb96d2768479d49ff9c7366125a9424364910160405180910390a1505050565b6001546000906001600160a01b0316336001600160a01b0316146106305760405162461bcd60e51b815260206004820152601a60248201527f73656e646572206e6f74205661756c74436f6e74726f6c6c65720000000000006044820152606401610234565b821561065057816002546106449190610871565b600281905590506106b8565b8160025410156106a25760405162461bcd60e51b815260206004820152601e60248201527f63616e6e6f74207265706179206d6f7265207468616e206973206f77656400006044820152606401610234565b816002546106b09190610889565b600281905590505b92915050565b6040516370a0823160e01b81523060048201526000906001600160a01b038316906370a082319060240160206040518083038186803b15801561070057600080fd5b505afa158015610714573d6000803e3d6000fd5b505050506040513d601f19601f820116820180604052508101906106b891906108a0565b80356001600160a01b038116811461074f57600080fd5b919050565b60008060006060848603121561076957600080fd5b61077284610738565b925061078060208501610738565b9150604084013590509250925092565b600080604083850312156107a357600080fd5b6107ac83610738565b91506107ba60208401610738565b90509250929050565b600080604083850312156107d657600080fd5b6107df83610738565b946020939093013593505050565b80151581146107fb57600080fd5b50565b6000806040838503121561081157600080fd5b82356107df816107ed565b60006020828403121561082e57600080fd5b61083782610738565b9392505050565b60006020828403121561085057600080fd5b8151610837816107ed565b634e487b7160e01b600052601160045260246000fd5b600082198211156108845761088461085b565b500190565b60008282101561089b5761089b61085b565b500390565b6000602082840312156108b257600080fd5b505191905056fea2646970667358221220ca68ca6a0dd2d0384b574b81a1f930d3b7f55a91514c3af9c2d0307300e88ba564736f6c63430008090033a26469706673582212202f71763b5d671d1417561667d456d90ab07140fe18168f9da6579a5499e3f6f364736f6c63430008090033",
  "linkReferences": {},
  "deployedLinkReferences": {}
}