{
  "_format": "hh-sol-artifact-1",
  "contractName": "ThreeLines0_100",
  "sourceName": "contracts/curve/Logic/ThreeLines0_100.sol",
  "abi": [
    {
      "inputs": [
        {
          "internalType": "int256",
          "name": "r0",
          "type": "int256"
        },
        {
          "internalType": "int256",
          "name": "r1",
          "type": "int256"
        },
        {
          "internalType": "int256",
          "name": "r2",
          "type": "int256"
        },
        {
          "internalType": "int256",
          "name": "r3",
          "type": "int256"
        },
        {
          "internalType": "int256",
          "name": "s0",
          "type": "int256"
        },
        {
          "internalType": "int256",
          "name": "s1",
          "type": "int256"
        }
      ],
      "stateMutability": "nonpayable",
      "type": "constructor"
    },
    {
      "inputs": [],
      "name": "_r0",
      "outputs": [
        {
          "internalType": "int256",
          "name": "",
          "type": "int256"
        }
      ],
      "stateMutability": "view",
      "type": "function"
    },
    {
      "inputs": [],
      "name": "_r1",
      "outputs": [
        {
          "internalType": "int256",
          "name": "",
          "type": "int256"
        }
      ],
      "stateMutability": "view",
      "type": "function"
    },
    {
      "inputs": [],
      "name": "_r2",
      "outputs": [
        {
          "internalType": "int256",
          "name": "",
          "type": "int256"
        }
      ],
      "stateMutability": "view",
      "type": "function"
    },
    {
      "inputs": [],
      "name": "_r3",
      "outputs": [
        {
          "internalType": "int256",
          "name": "",
          "type": "int256"
        }
      ],
      "stateMutability": "view",
      "type": "function"
    },
    {
      "inputs": [],
      "name": "_s0",
      "outputs": [
        {
          "internalType": "int256",
          "name": "",
          "type": "int256"
        }
      ],
      "stateMutability": "view",
      "type": "function"
    },
    {
      "inputs": [],
      "name": "_s1",
      "outputs": [
        {
          "internalType": "int256",
          "name": "",
          "type": "int256"
        }
      ],
      "stateMutability": "view",
      "type": "function"
    },
    {
      "inputs": [
        {
          "internalType": "int256",
          "name": "rise",
          "type": "int256"
        },
        {
          "internalType": "int256",
          "name": "run",
          "type": "int256"
        },
        {
          "internalType": "int256",
          "name": "distance",
          "type": "int256"
        },
        {
          "internalType": "int256",
          "name": "b",
          "type": "int256"
        }
      ],
      "name": "linearInterpolation",
      "outputs": [
        {
          "internalType": "int256",
          "name": "",
          "type": "int256"
        }
      ],
      "stateMutability": "pure",
      "type": "function"
    },
    {
      "inputs": [
        {
          "internalType": "int256",
          "name": "x_value",
          "type": "int256"
        }
      ],
      "name": "valueAt",
      "outputs": [
        {
          "internalType": "int256",
          "name": "",
          "type": "int256"
        }
      ],
      "stateMutability": "view",
      "type": "function"
    }
  ],
  "bytecode": "0x608060405234801561001057600080fd5b506040516109fb3803806109fb833981810160405281019061003291906100a2565b85600081905550846001819055508360028190555082600381905550816004819055508060058190555050505050505061012f565b600080fd5b6000819050919050565b61007f8161006c565b811461008a57600080fd5b50565b60008151905061009c81610076565b92915050565b60008060008060008060c087890312156100bf576100be610067565b5b60006100cd89828a0161008d565b96505060206100de89828a0161008d565b95505060406100ef89828a0161008d565b945050606061010089828a0161008d565b935050608061011189828a0161008d565b92505060a061012289828a0161008d565b9150509295509295509295565b6108bd8061013e6000396000f3fe608060405234801561001057600080fd5b50600436106100885760003560e01c8063825d3c4a1161005b578063825d3c4a1461011757806385bcfbd8146101355780639d830ef814610165578063ecf62e7e1461018357610088565b8063414be42b1461008d57806347ba7b21146100bd5780637785b716146100db57806378a8ad5e146100f9575b600080fd5b6100a760048036038101906100a291906103d9565b6101a1565b6040516100b49190610415565b60405180910390f35b6100c5610325565b6040516100d29190610415565b60405180910390f35b6100e361032b565b6040516100f09190610415565b60405180910390f35b610101610331565b60405161010e9190610415565b60405180910390f35b61011f610337565b60405161012c9190610415565b60405180910390f35b61014f600480360381019061014a9190610430565b61033d565b60405161015c9190610415565b60405180910390f35b61016d610392565b60405161017a9190610415565b60405180910390f35b61018b610398565b6040516101989190610415565b60405180910390f35b600080670de0b6b3a7640000905060008312156101f3576040517f08c379a00000000000000000000000000000000000000000000000000000000081526004016101ea906104f4565b60405180910390fd5b80831315610236576040517f08c379a000000000000000000000000000000000000000000000000000000000815260040161022d90610560565b60405180910390fd5b600454831215610272576000805460015461025191906105af565b90506000600454905061026882828760005461033d565b9350505050610320565b6005548312156102c957600060015460025461028e91906105af565b905060006004546005546102a291906105af565b90506102bf8282600454886102b791906105af565b60015461033d565b9350505050610320565b80831361031b5760006002546003546102e291906105af565b90506000600554836102f491906105af565b905061031182826005548861030991906105af565b60025461033d565b9350505050610320565b600080fd5b919050565b60005481565b60025481565b60045481565b60015481565b60008084620f4240876103509190610643565b61035a9190610789565b9050600083620f4240868461036f9190610643565b6103799190610789565b61038391906107f3565b90508092505050949350505050565b60055481565b60035481565b600080fd5b6000819050919050565b6103b6816103a3565b81146103c157600080fd5b50565b6000813590506103d3816103ad565b92915050565b6000602082840312156103ef576103ee61039e565b5b60006103fd848285016103c4565b91505092915050565b61040f816103a3565b82525050565b600060208201905061042a6000830184610406565b92915050565b6000806000806080858703121561044a5761044961039e565b5b6000610458878288016103c4565b9450506020610469878288016103c4565b935050604061047a878288016103c4565b925050606061048b878288016103c4565b91505092959194509250565b600082825260208201905092915050565b7f746f6f20736d616c6c0000000000000000000000000000000000000000000000600082015250565b60006104de600983610497565b91506104e9826104a8565b602082019050919050565b6000602082019050818103600083015261050d816104d1565b9050919050565b7f746f6f206c617267650000000000000000000000000000000000000000000000600082015250565b600061054a600983610497565b915061055582610514565b602082019050919050565b600060208201905081810360008301526105798161053d565b9050919050565b7f4e487b7100000000000000000000000000000000000000000000000000000000600052601160045260246000fd5b60006105ba826103a3565b91506105c5836103a3565b9250827f800000000000000000000000000000000000000000000000000000000000000001821260008412151615610600576105ff610580565b5b827f7fffffffffffffffffffffffffffffffffffffffffffffffffffffffffffffff01821360008412161561063857610637610580565b5b828203905092915050565b600061064e826103a3565b9150610659836103a3565b9250827f7fffffffffffffffffffffffffffffffffffffffffffffffffffffffffffffff048211600084136000841316161561069857610697610580565b5b817f800000000000000000000000000000000000000000000000000000000000000005831260008412600084131616156106d5576106d4610580565b5b827f8000000000000000000000000000000000000000000000000000000000000000058212600084136000841216161561071257610711610580565b5b827f7fffffffffffffffffffffffffffffffffffffffffffffffffffffffffffffff058212600084126000841216161561074f5761074e610580565b5b828202905092915050565b7f4e487b7100000000000000000000000000000000000000000000000000000000600052601260045260246000fd5b6000610794826103a3565b915061079f836103a3565b9250826107af576107ae61075a565b5b600160000383147f8000000000000000000000000000000000000000000000000000000000000000831416156107e8576107e7610580565b5b828205905092915050565b60006107fe826103a3565b9150610809836103a3565b9250817f7fffffffffffffffffffffffffffffffffffffffffffffffffffffffffffffff0383136000831215161561084457610843610580565b5b817f800000000000000000000000000000000000000000000000000000000000000003831260008312161561087c5761087b610580565b5b82820190509291505056fea264697066735822122068906bd720f2a5010859f0ac108d175a583f0b726ee982932a97104ce315ccda64736f6c63430008090033",
  "linkReferences": {},
  "deployedLinkReferences": {}
}