{
  "_format": "hh-sol-artifact-1",
  "contractName": "ThreeLines0_100",
  "sourceName": "contracts/curve/Logic/ThreeLines0_100.sol",
  "abi": [
    {
      "inputs": [
        {
          "internalType": "int256",
          "name": "r0",
          "type": "int256"
        },
        {
          "internalType": "int256",
          "name": "r1",
          "type": "int256"
        },
        {
          "internalType": "int256",
          "name": "r2",
          "type": "int256"
        },
        {
          "internalType": "int256",
          "name": "s1",
          "type": "int256"
        },
        {
          "internalType": "int256",
          "name": "s2",
          "type": "int256"
        }
      ],
      "stateMutability": "nonpayable",
      "type": "constructor"
    },
    {
      "inputs": [],
      "name": "_r0",
      "outputs": [
        {
          "internalType": "int256",
          "name": "",
          "type": "int256"
        }
      ],
      "stateMutability": "view",
      "type": "function"
    },
    {
      "inputs": [],
      "name": "_r1",
      "outputs": [
        {
          "internalType": "int256",
          "name": "",
          "type": "int256"
        }
      ],
      "stateMutability": "view",
      "type": "function"
    },
    {
      "inputs": [],
      "name": "_r2",
      "outputs": [
        {
          "internalType": "int256",
          "name": "",
          "type": "int256"
        }
      ],
      "stateMutability": "view",
      "type": "function"
    },
    {
      "inputs": [],
      "name": "_s1",
      "outputs": [
        {
          "internalType": "int256",
          "name": "",
          "type": "int256"
        }
      ],
      "stateMutability": "view",
      "type": "function"
    },
    {
      "inputs": [],
      "name": "_s2",
      "outputs": [
        {
          "internalType": "int256",
          "name": "",
          "type": "int256"
        }
      ],
      "stateMutability": "view",
      "type": "function"
    },
    {
      "inputs": [
        {
          "internalType": "int256",
          "name": "rise",
          "type": "int256"
        },
        {
          "internalType": "int256",
          "name": "run",
          "type": "int256"
        },
        {
          "internalType": "int256",
          "name": "distance",
          "type": "int256"
        },
        {
          "internalType": "int256",
          "name": "b",
          "type": "int256"
        }
      ],
      "name": "linearInterpolation",
      "outputs": [
        {
          "internalType": "int256",
          "name": "",
          "type": "int256"
        }
      ],
      "stateMutability": "pure",
      "type": "function"
    },
    {
      "inputs": [
        {
          "internalType": "int256",
          "name": "x_value",
          "type": "int256"
        }
      ],
      "name": "valueAt",
      "outputs": [
        {
          "internalType": "int256",
          "name": "",
          "type": "int256"
        }
      ],
      "stateMutability": "view",
      "type": "function"
    }
  ],
  "bytecode": "0x608060405234801561001057600080fd5b506040516104c53803806104c583398101604081905261002f91610049565b600094909455600192909255600255600355600455610089565b600080600080600060a0868803121561006157600080fd5b5050835160208501516040860151606087015160809097015192989197509594509092509050565b61042d806100986000396000f3fe608060405234801561001057600080fd5b506004361061007d5760003560e01c8063825d3c4a1161005b578063825d3c4a146100b957806385bcfbd8146100c25780639d830ef8146100d5578063d9394449146100de57600080fd5b8063414be42b1461008257806347ba7b21146100a75780637785b716146100b0575b600080fd5b610095610090366004610255565b6100e7565b60405190815260200160405180910390f35b61009560005481565b61009560025481565b61009560015481565b6100956100d036600461026e565b610208565b61009560035481565b61009560045481565b6000670de0b6b3a7640000818312156101335760405162461bcd60e51b81526020600482015260096024820152681d1bdbc81cdb585b1b60ba1b60448201526064015b60405180910390fd5b8083131561016f5760405162461bcd60e51b8152602060048201526009602482015268746f6f206c6172676560b81b604482015260640161012a565b6003548312156101aa576000805460015461018a91906102b6565b9050600060035490506101a1828287600054610208565b95945050505050565b6004548312156101f75760006001546002546101c691906102b6565b905060006003546004546101da91906102b6565b90506101a18282600354886101ef91906102b6565b600154610208565b80831361007d575050600254919050565b6000808461021987620f42406102f5565b610223919061037a565b9050600083620f424061023687856102f5565b610240919061037a565b61024a91906103b6565b979650505050505050565b60006020828403121561026757600080fd5b5035919050565b6000806000806080858703121561028457600080fd5b5050823594602084013594506040840135936060013592509050565b634e487b7160e01b600052601160045260246000fd5b60008083128015600160ff1b8501841216156102d4576102d46102a0565b6001600160ff1b03840183138116156102ef576102ef6102a0565b50500390565b60006001600160ff1b038184138284138082168684048611161561031b5761031b6102a0565b600160ff1b600087128281168783058912161561033a5761033a6102a0565b60008712925087820587128484161615610356576103566102a0565b8785058712818416161561036c5761036c6102a0565b505050929093029392505050565b60008261039757634e487b7160e01b600052601260045260246000fd5b600160ff1b8214600019841416156103b1576103b16102a0565b500590565b600080821280156001600160ff1b03849003851316156103d8576103d86102a0565b600160ff1b83900384128116156103f1576103f16102a0565b5050019056fea26469706673582212200bdc889234713744ec9c16989534b5d904469b0810a4a419ecc88378ac9c859464736f6c63430008090033",
  "linkReferences": {},
  "deployedLinkReferences": {}
}