{
  "_format": "hh-sol-artifact-1",
  "contractName": "VaultController",
  "sourceName": "contracts/lending/VaultController.sol",
  "abi": [
    {
      "anonymous": false,
      "inputs": [
        {
          "indexed": false,
          "internalType": "uint256",
          "name": "vaultId",
          "type": "uint256"
        },
        {
          "indexed": false,
          "internalType": "address",
          "name": "vaultAddress",
          "type": "address"
        },
        {
          "indexed": false,
          "internalType": "uint256",
          "name": "borrowAmount",
          "type": "uint256"
        }
      ],
      "name": "BorrowUSDi",
      "type": "event"
    },
    {
      "anonymous": false,
      "inputs": [
        {
          "indexed": false,
          "internalType": "uint256",
          "name": "epoch",
          "type": "uint256"
        },
        {
          "indexed": false,
          "internalType": "uint256",
          "name": "amount",
          "type": "uint256"
        },
        {
          "indexed": false,
          "internalType": "uint256",
          "name": "curve_val",
          "type": "uint256"
        }
      ],
      "name": "Interest",
      "type": "event"
    },
    {
      "anonymous": false,
      "inputs": [
        {
          "indexed": false,
          "internalType": "uint256",
          "name": "vaultId",
          "type": "uint256"
        },
        {
          "indexed": false,
          "internalType": "address",
          "name": "asset_address",
          "type": "address"
        },
        {
          "indexed": false,
          "internalType": "uint256",
          "name": "usdi_to_repurchase",
          "type": "uint256"
        },
        {
          "indexed": false,
          "internalType": "uint256",
          "name": "tokens_to_liquidate",
          "type": "uint256"
        }
      ],
      "name": "Liquidate",
      "type": "event"
    },
    {
      "anonymous": false,
      "inputs": [
        {
          "indexed": false,
          "internalType": "uint256",
          "name": "protocol_fee",
          "type": "uint256"
        }
      ],
      "name": "NewProtocolFee",
      "type": "event"
    },
    {
      "anonymous": false,
      "inputs": [
        {
          "indexed": false,
          "internalType": "address",
          "name": "vault_address",
          "type": "address"
        },
        {
          "indexed": false,
          "internalType": "uint256",
          "name": "vaultId",
          "type": "uint256"
        },
        {
          "indexed": false,
          "internalType": "address",
          "name": "vaultOwner",
          "type": "address"
        }
      ],
      "name": "NewVault",
      "type": "event"
    },
    {
      "anonymous": false,
      "inputs": [
        {
          "indexed": true,
          "internalType": "address",
          "name": "previousOwner",
          "type": "address"
        },
        {
          "indexed": true,
          "internalType": "address",
          "name": "newOwner",
          "type": "address"
        }
      ],
      "name": "OwnershipTransferred",
      "type": "event"
    },
    {
      "anonymous": false,
      "inputs": [
        {
          "indexed": false,
          "internalType": "address",
          "name": "account",
          "type": "address"
        }
      ],
      "name": "Paused",
      "type": "event"
    },
    {
      "anonymous": false,
      "inputs": [
        {
          "indexed": false,
          "internalType": "address",
          "name": "curveMasterAddress",
          "type": "address"
        }
      ],
      "name": "RegisterCurveMaster",
      "type": "event"
    },
    {
      "anonymous": false,
      "inputs": [
        {
          "indexed": false,
          "internalType": "address",
          "name": "oracleMasterAddress",
          "type": "address"
        }
      ],
      "name": "RegisterOracleMaster",
      "type": "event"
    },
    {
      "anonymous": false,
      "inputs": [
        {
          "indexed": false,
          "internalType": "address",
          "name": "token_address",
          "type": "address"
        },
        {
          "indexed": false,
          "internalType": "uint256",
          "name": "LTVe4",
          "type": "uint256"
        },
        {
          "indexed": false,
          "internalType": "address",
          "name": "oracle_address",
          "type": "address"
        },
        {
          "indexed": false,
          "internalType": "uint256",
          "name": "liquidationIncentivee4",
          "type": "uint256"
        }
      ],
      "name": "RegisteredErc20",
      "type": "event"
    },
    {
      "anonymous": false,
      "inputs": [
        {
          "indexed": false,
          "internalType": "uint256",
          "name": "vaultId",
          "type": "uint256"
        },
        {
          "indexed": false,
          "internalType": "address",
          "name": "vaultAddress",
          "type": "address"
        },
        {
          "indexed": false,
          "internalType": "uint256",
          "name": "repayAmount",
          "type": "uint256"
        }
      ],
      "name": "RepayUSDi",
      "type": "event"
    },
    {
      "anonymous": false,
      "inputs": [
        {
          "indexed": false,
          "internalType": "address",
          "name": "account",
          "type": "address"
        }
      ],
      "name": "Unpaused",
      "type": "event"
    },
    {
      "anonymous": false,
      "inputs": [
        {
          "indexed": false,
          "internalType": "address",
          "name": "token_address",
          "type": "address"
        },
        {
          "indexed": false,
          "internalType": "uint256",
          "name": "LTVe4",
          "type": "uint256"
        },
        {
          "indexed": false,
          "internalType": "address",
          "name": "oracle_address",
          "type": "address"
        },
        {
          "indexed": false,
          "internalType": "uint256",
          "name": "liquidationIncentivee4",
          "type": "uint256"
        }
      ],
      "name": "UpdateRegisteredErc20",
      "type": "event"
    },
    {
      "inputs": [
        {
          "internalType": "uint256",
          "name": "id",
          "type": "uint256"
        }
      ],
      "name": "accountBorrowingPower",
      "outputs": [
        {
          "internalType": "uint256",
          "name": "",
          "type": "uint256"
        }
      ],
      "stateMutability": "view",
      "type": "function"
    },
    {
      "inputs": [
        {
          "internalType": "uint256",
          "name": "id",
          "type": "uint256"
        }
      ],
      "name": "AccountLiability",
      "outputs": [
        {
          "internalType": "uint256",
          "name": "",
          "type": "uint256"
        }
      ],
      "stateMutability": "view",
      "type": "function"
    },
    {
      "inputs": [],
      "name": "InterestFactor",
      "outputs": [
        {
          "internalType": "uint256",
          "name": "",
          "type": "uint256"
        }
      ],
      "stateMutability": "view",
      "type": "function"
    },
    {
      "inputs": [],
      "name": "ProtocolFee",
      "outputs": [
        {
          "internalType": "uint256",
          "name": "",
          "type": "uint256"
        }
      ],
      "stateMutability": "view",
      "type": "function"
    },
    {
      "inputs": [
        {
          "internalType": "uint256",
          "name": "id",
          "type": "uint256"
        },
        {
          "internalType": "address",
          "name": "asset_address",
          "type": "address"
        },
        {
          "internalType": "uint256",
          "name": "tokens_to_liquidate",
          "type": "uint256"
        }
      ],
      "name": "tokensToLiquidate",
      "outputs": [
        {
          "internalType": "uint256",
          "name": "",
          "type": "uint256"
        }
      ],
      "stateMutability": "view",
      "type": "function"
    },
    {
      "inputs": [
        {
          "internalType": "uint256",
          "name": "id",
          "type": "uint256"
        }
      ],
      "name": "VaultAddress",
      "outputs": [
        {
          "internalType": "address",
          "name": "",
          "type": "address"
        }
      ],
      "stateMutability": "view",
      "type": "function"
    },
    {
      "inputs": [],
      "name": "_curveMaster",
      "outputs": [
        {
          "internalType": "contract CurveMaster",
          "name": "",
          "type": "address"
        }
      ],
      "stateMutability": "view",
      "type": "function"
    },
    {
      "inputs": [
        {
          "internalType": "uint256",
          "name": "",
          "type": "uint256"
        }
      ],
      "name": "_enabledTokens",
      "outputs": [
        {
          "internalType": "address",
          "name": "",
          "type": "address"
        }
      ],
      "stateMutability": "view",
      "type": "function"
    },
    {
      "inputs": [],
      "name": "_interestFactor",
      "outputs": [
        {
          "internalType": "uint256",
          "name": "",
          "type": "uint256"
        }
      ],
      "stateMutability": "view",
      "type": "function"
    },
    {
      "inputs": [],
      "name": "_lastInterestTime",
      "outputs": [
        {
          "internalType": "uint256",
          "name": "",
          "type": "uint256"
        }
      ],
      "stateMutability": "view",
      "type": "function"
    },
    {
      "inputs": [],
      "name": "_oracleMaster",
      "outputs": [
        {
          "internalType": "contract OracleMaster",
          "name": "",
          "type": "address"
        }
      ],
      "stateMutability": "view",
      "type": "function"
    },
    {
      "inputs": [],
      "name": "_protocolFee",
      "outputs": [
        {
          "internalType": "uint256",
          "name": "",
          "type": "uint256"
        }
      ],
      "stateMutability": "view",
      "type": "function"
    },
    {
      "inputs": [
        {
          "internalType": "address",
          "name": "",
          "type": "address"
        }
      ],
      "name": "_tokenAddress_liquidationIncentive",
      "outputs": [
        {
          "internalType": "uint256",
          "name": "",
          "type": "uint256"
        }
      ],
      "stateMutability": "view",
      "type": "function"
    },
    {
      "inputs": [
        {
          "internalType": "address",
          "name": "",
          "type": "address"
        }
      ],
      "name": "_tokenAddress_tokenId",
      "outputs": [
        {
          "internalType": "uint256",
          "name": "",
          "type": "uint256"
        }
      ],
      "stateMutability": "view",
      "type": "function"
    },
    {
      "inputs": [
        {
          "internalType": "uint256",
          "name": "",
          "type": "uint256"
        }
      ],
      "name": "_tokenId_oracleAddress",
      "outputs": [
        {
          "internalType": "address",
          "name": "",
          "type": "address"
        }
      ],
      "stateMutability": "view",
      "type": "function"
    },
    {
      "inputs": [
        {
          "internalType": "uint256",
          "name": "",
          "type": "uint256"
        }
      ],
      "name": "_tokenId_tokenLTV",
      "outputs": [
        {
          "internalType": "uint256",
          "name": "",
          "type": "uint256"
        }
      ],
      "stateMutability": "view",
      "type": "function"
    },
    {
      "inputs": [],
      "name": "_tokensRegistered",
      "outputs": [
        {
          "internalType": "uint256",
          "name": "",
          "type": "uint256"
        }
      ],
      "stateMutability": "view",
      "type": "function"
    },
    {
      "inputs": [],
      "name": "_totalBaseLiability",
      "outputs": [
        {
          "internalType": "uint256",
          "name": "",
          "type": "uint256"
        }
      ],
      "stateMutability": "view",
      "type": "function"
    },
    {
      "inputs": [],
      "name": "_usdi",
      "outputs": [
        {
          "internalType": "contract IUSDI",
          "name": "",
          "type": "address"
        }
      ],
      "stateMutability": "view",
      "type": "function"
    },
    {
      "inputs": [
        {
          "internalType": "uint256",
          "name": "",
          "type": "uint256"
        }
      ],
      "name": "_vaultId_vaultAddress",
      "outputs": [
        {
          "internalType": "address",
          "name": "",
          "type": "address"
        }
      ],
      "stateMutability": "view",
      "type": "function"
    },
    {
      "inputs": [],
      "name": "_vaultsMinted",
      "outputs": [
        {
          "internalType": "uint256",
          "name": "",
          "type": "uint256"
        }
      ],
      "stateMutability": "view",
      "type": "function"
    },
    {
      "inputs": [
        {
          "internalType": "uint256",
          "name": "id",
          "type": "uint256"
        },
        {
          "internalType": "uint256",
          "name": "amount",
          "type": "uint256"
        }
      ],
      "name": "borrowUsdi",
      "outputs": [],
      "stateMutability": "nonpayable",
      "type": "function"
    },
    {
      "inputs": [],
      "name": "calculateInterest",
      "outputs": [
        {
          "internalType": "uint256",
          "name": "",
          "type": "uint256"
        }
      ],
      "stateMutability": "nonpayable",
      "type": "function"
    },
    {
      "inputs": [
        {
          "internalType": "uint256",
          "name": "new_protocol_fee",
          "type": "uint256"
        }
      ],
      "name": "changeProtocolFee",
      "outputs": [],
      "stateMutability": "nonpayable",
      "type": "function"
    },
    {
      "inputs": [
        {
          "internalType": "uint256",
          "name": "id",
          "type": "uint256"
        }
      ],
      "name": "checkAccount",
      "outputs": [
        {
          "internalType": "bool",
          "name": "",
          "type": "bool"
        }
      ],
      "stateMutability": "view",
      "type": "function"
    },
    {
      "inputs": [],
      "name": "initialize",
      "outputs": [],
      "stateMutability": "nonpayable",
      "type": "function"
    },
    {
      "inputs": [
        {
          "internalType": "uint256",
          "name": "id",
          "type": "uint256"
        },
        {
          "internalType": "address",
          "name": "asset_address",
          "type": "address"
        },
        {
          "internalType": "uint256",
          "name": "tokens_to_liquidate",
          "type": "uint256"
        }
      ],
      "name": "liquidateAccount",
      "outputs": [
        {
          "internalType": "uint256",
          "name": "",
          "type": "uint256"
        }
      ],
      "stateMutability": "nonpayable",
      "type": "function"
    },
    {
      "inputs": [],
      "name": "mintVault",
      "outputs": [
        {
          "internalType": "address",
          "name": "",
          "type": "address"
        }
      ],
      "stateMutability": "nonpayable",
      "type": "function"
    },
    {
      "inputs": [],
      "name": "owner",
      "outputs": [
        {
          "internalType": "address",
          "name": "",
          "type": "address"
        }
      ],
      "stateMutability": "view",
      "type": "function"
    },
    {
      "inputs": [],
      "name": "pause",
      "outputs": [],
      "stateMutability": "nonpayable",
      "type": "function"
    },
    {
      "inputs": [],
      "name": "paused",
      "outputs": [
        {
          "internalType": "bool",
          "name": "",
          "type": "bool"
        }
      ],
      "stateMutability": "view",
      "type": "function"
    },
    {
      "inputs": [
        {
          "internalType": "address",
          "name": "master_curve_address",
          "type": "address"
        }
      ],
      "name": "registerCurveMaster",
      "outputs": [],
      "stateMutability": "nonpayable",
      "type": "function"
    },
    {
      "inputs": [
        {
          "internalType": "address",
          "name": "token_address",
          "type": "address"
        },
        {
          "internalType": "uint256",
          "name": "LTV",
          "type": "uint256"
        },
        {
          "internalType": "address",
          "name": "oracle_address",
          "type": "address"
        },
        {
          "internalType": "uint256",
          "name": "liquidationIncentive",
          "type": "uint256"
        }
      ],
      "name": "registerErc20",
      "outputs": [],
      "stateMutability": "nonpayable",
      "type": "function"
    },
    {
      "inputs": [
        {
          "internalType": "address",
          "name": "master_oracle_address",
          "type": "address"
        }
      ],
      "name": "registerOracleMaster",
      "outputs": [],
      "stateMutability": "nonpayable",
      "type": "function"
    },
    {
      "inputs": [
        {
          "internalType": "address",
          "name": "usdi_address",
          "type": "address"
        }
      ],
      "name": "registerUSDi",
      "outputs": [],
      "stateMutability": "nonpayable",
      "type": "function"
    },
    {
      "inputs": [],
      "name": "renounceOwnership",
      "outputs": [],
      "stateMutability": "nonpayable",
      "type": "function"
    },
    {
      "inputs": [
        {
          "internalType": "uint256",
          "name": "id",
          "type": "uint256"
        }
      ],
      "name": "repayAllUSDi",
      "outputs": [],
      "stateMutability": "nonpayable",
      "type": "function"
    },
    {
      "inputs": [
        {
          "internalType": "uint256",
          "name": "id",
          "type": "uint256"
        },
        {
          "internalType": "uint256",
          "name": "amount",
          "type": "uint256"
        }
      ],
      "name": "repayUSDi",
      "outputs": [],
      "stateMutability": "nonpayable",
      "type": "function"
    },
    {
      "inputs": [
        {
          "internalType": "address",
          "name": "newOwner",
          "type": "address"
        }
      ],
      "name": "transferOwnership",
      "outputs": [],
      "stateMutability": "nonpayable",
      "type": "function"
    },
    {
      "inputs": [],
      "name": "unpause",
      "outputs": [],
      "stateMutability": "nonpayable",
      "type": "function"
    },
    {
      "inputs": [
        {
          "internalType": "address",
          "name": "token_address",
          "type": "address"
        },
        {
          "internalType": "uint256",
          "name": "LTV",
          "type": "uint256"
        },
        {
          "internalType": "address",
          "name": "oracle_address",
          "type": "address"
        },
        {
          "internalType": "uint256",
          "name": "liquidationIncentive",
          "type": "uint256"
        }
      ],
      "name": "updateRegisteredErc20",
      "outputs": [],
      "stateMutability": "nonpayable",
      "type": "function"
    }
  ],
  "bytecode": "0x608060405234801561001057600080fd5b506136aa806100206000396000f3fe60806040523480156200001157600080fd5b5060043610620002855760003560e01c80638129fc1c1162000161578063c66e025f11620000d3578063e07cbee41162000092578063e07cbee41462000593578063e0b4872b146200059c578063eb0c495514620005a6578063f15c1e6814620005b0578063f2fde38b14620005c7578063f86b88d914620005de57600080fd5b8063c66e025f1462000510578063d08aa0151462000527578063d3879b201462000553578063dddd91f6146200055c578063de7a2791146200057057600080fd5b8063a3f6690a1162000120578063a3f6690a14620004ad578063ab3e765514620004c4578063af16562c14620004db578063b028b05c14620004f2578063c575c56114620004fc57600080fd5b80638129fc1c14620004665780638270326514620004705780638456cb59146200047a5780638cf000c714620004845780638da5cb5b146200049b57600080fd5b806334e328ab11620001fb5780636b0374de11620001ba5780636b0374de1462000404578063715018a6146200040e57806373263c9f146200041857806377ae9c72146200042c5780637afcc927146200044357600080fd5b806334e328ab14620003a15780633f4ba83a14620003cd5780635c975abb14620003d75780635d09b58e14620003e35780636077008514620003ed57600080fd5b80631fa0b54f11620002485780631fa0b54f1462000316578063218c030c146200032d57806321bc8d721462000337578063250f4e85146200034e5780632ac41e10146200037e57600080fd5b806307b60fa2146200028a578063108e4db714620002b65780631407ffaa14620002cf578063158af43514620002e85780631ade77be14620002ff575b600080fd5b620002a16200029b36600462002949565b6200060a565b60405190151581526020015b60405180910390f35b620002c060a55481565b604051908152602001620002ad565b620002e6620002e036600462002963565b620006f8565b005b620002c0620002f936600462002949565b620009a0565b620002c0620003103660046200299c565b620009b3565b620002e662000327366004620029d7565b62000c73565b620002c060a45481565b620002c0620003483660046200299c565b62000e76565b620003656200035f36600462002949565b62000e90565b6040516001600160a01b039091168152602001620002ad565b620002c06200038f36600462002a24565b609b6020526000908152604090205481565b62000365620003b236600462002949565b609a602052600090815260409020546001600160a01b031681565b620002e662000ebb565b60335460ff16620002a1565b620002c060a05481565b620002e6620003fe36600462002963565b62000ef4565b620002c060a15481565b620002e66200122e565b609f5462000365906001600160a01b031681565b620002e66200043d36600462002a24565b62001267565b620002c06200045436600462002949565b60996020526000908152604090205481565b620002e6620012b6565b620002c060a25481565b620002e662001365565b620002e662000495366004620029d7565b6200139c565b6065546001600160a01b031662000365565b620002e6620004be36600462002949565b620015ee565b620002e6620004d536600462002a24565b6200169d565b620002e6620004ec36600462002a24565b62001719565b6200036562001795565b609e5462000365906001600160a01b031681565b620002c06200052136600462002949565b62001887565b620003656200053836600462002949565b6097602052600090815260409020546001600160a01b031681565b60a554620002c0565b609d5462000365906001600160a01b031681565b620002c06200058136600462002a24565b60986020526000908152604090205481565b60a454620002c0565b620002c060a35481565b620002c0620018aa565b620002e6620005c136600462002949565b620018bb565b620002e6620005d836600462002a24565b62001b7c565b62000365620005ef36600462002949565b6000908152609760205260409020546001600160a01b031690565b6000818152609760205260408120546001600160a01b0316806200064b5760405162461bcd60e51b8152600401620006429062002a44565b60405180910390fd5b806000620006598262001c1b565b90506000620006eb60a454846001600160a01b031663e81795776040518163ffffffff1660e01b815260040160206040518083038186803b1580156200069e57600080fd5b505afa158015620006b3573d6000803e3d6000fd5b505050506040513d601f19601f82011682018060405250810190620006d9919062002a72565b620006e5919062002aa2565b62001dc3565b9091101595945050505050565b6200070262001dd9565b5060335460ff1615620007295760405162461bcd60e51b8152600401620006429062002ac4565b6000828152609760205260409020546001600160a01b031680620007615760405162461bcd60e51b8152600401620006429062002a44565b806000620007856200077c85670de0b6b3a764000062002aa2565b60a45462002158565b90508060a25462000797919062002aee565b60a281905550816001600160a01b031663e81795776040518163ffffffff1660e01b815260040160206040518083038186803b158015620007d757600080fd5b505afa158015620007ec573d6000803e3d6000fd5b505050506040513d601f19601f8201168201806040525081019062000812919062002a72565b8111156200085b5760405162461bcd60e51b81526020600482015260156024820152741c995c185e480f88189bdc9c9bddc8185b5bdd5b9d605a1b604482015260640162000642565b604051636d7d93db60e11b8152600481018290526001600160a01b0383169063dafb27b690602401602060405180830381600087803b1580156200089e57600080fd5b505af1158015620008b3573d6000803e3d6000fd5b505050506040513d601f19601f82011682018060405250810190620008d9919062002a72565b50609f546001600160a01b031663da004a6d336040516001600160e01b031960e084901b1681526001600160a01b03909116600482015260248101879052604401600060405180830381600087803b1580156200093557600080fd5b505af11580156200094a573d6000803e3d6000fd5b5050604080518881526001600160a01b03871660208201529081018790527fba9d04daae3acba43a9a12853aba3fd1c05506c89f874802a159d4a32efc5c0a925060600190505b60405180910390a15050505050565b6000620009ad826200218d565b92915050565b6000620009bf62001dd9565b5060335460ff1615620009e65760405162461bcd60e51b8152600401620006429062002ac4565b600080620009f686868662002213565b915091508160001462000a07578193505b600062000a19620006e5868462002aa2565b9050600062000a2888620024bc565b90506001600160a01b03811663dafb27b662000a516200077c85670de0b6b3a764000062002aa2565b6040518263ffffffff1660e01b815260040162000a7091815260200190565b602060405180830381600087803b15801562000a8b57600080fd5b505af115801562000aa0573d6000803e3d6000fd5b505050506040513d601f19601f8201168201806040525081019062000ac6919062002a72565b50609f546001600160a01b031663da004a6d336040516001600160e01b031960e084901b1681526001600160a01b03909116600482015260248101859052604401600060405180830381600087803b15801562000b2257600080fd5b505af115801562000b37573d6000803e3d6000fd5b50505050806001600160a01b0316631c9c79038862000b533390565b6040516001600160e01b031960e085901b1681526001600160a01b0392831660048201529116602482015260448101899052606401600060405180830381600087803b15801562000ba357600080fd5b505af115801562000bb8573d6000803e3d6000fd5b5050505062000bc7886200218d565b62000bd28262001c1b565b111562000c145760405162461bcd60e51b815260206004820152600f60248201526e37bb32b93634b8bab4b230ba34b7b760891b604482015260640162000642565b604080518981526001600160a01b0389166020820152908101839052606081018790527fd47e75cd6a3c0e59e63919b525eb69ce3bfd7f8de011363e440f2c58273f74d99060800160405180910390a1859450505050505b9392505050565b6065546001600160a01b0316331462000ca05760405162461bcd60e51b8152600401620006429062002b08565b609d5460405163c054fd5d60e01b81526001600160a01b038481166004830152600092169063c054fd5d9060240160206040518083038186803b15801562000ce757600080fd5b505afa15801562000cfc573d6000803e3d6000fd5b505050506040513d601f19601f8201168201806040525081019062000d22919062002b3d565b6001600160a01b0316141562000d735760405162461bcd60e51b81526020600482015260156024820152741bdc9858db1948191bd95cc81b9bdd08195e1a5cdd605a1b604482015260640162000642565b6001600160a01b03841660009081526098602052604090205462000dda5760405162461bcd60e51b815260206004820152601760248201527f746f6b656e206973206e6f742072656769737465726564000000000000000000604482015260640162000642565b60a180546000908152609a6020908152604080832080546001600160a01b0319166001600160a01b0388811691821790925594548452609983528184208890558816808452609b8352928190208590558051928352908201869052810191909152606081018290527f7a717250e5aa97c909db1acf5a906f6201b7ce1dfbc055bc779f55d3717dfcdb906080015b60405180910390a150505050565b60008062000e8685858562002213565b5095945050505050565b609c818154811062000ea157600080fd5b6000918252602090912001546001600160a01b0316905081565b6065546001600160a01b0316331462000ee85760405162461bcd60e51b8152600401620006429062002b08565b62000ef2620024f4565b565b62000efe62001dd9565b5060335460ff161562000f255760405162461bcd60e51b8152600401620006429062002ac4565b6000828152609760205260409020546001600160a01b03168062000f5d5760405162461bcd60e51b8152600401620006429062002a44565b6000819050806001600160a01b0316634de7a8b86040518163ffffffff1660e01b815260040160206040518083038186803b15801562000f9c57600080fd5b505afa15801562000fb1573d6000803e3d6000fd5b505050506040513d601f19601f8201168201806040525081019062000fd7919062002b3d565b6001600160a01b0316336001600160a01b0316146200102e5760405162461bcd60e51b815260206004820152601260248201527139b2b73232b9103737ba1031b932b0ba37b960711b604482015260640162000642565b6000620010486200077c85670de0b6b3a764000062002aa2565b60405163da7eeea560e01b8152600481018290529091506000906001600160a01b0384169063da7eeea590602401602060405180830381600087803b1580156200109157600080fd5b505af1158015620010a6573d6000803e3d6000fd5b505050506040513d601f19601f82011682018060405250810190620010cc919062002a72565b90508160a254620010de919062002b5d565b60a2819055506000620010fc82600160a454620006d9919062002aee565b905060006200110b8562001c1b565b905081811015620011535760405162461bcd60e51b81526020600482015260116024820152701858d8dbdd5b9d081a5b9cdbdb1d995b9d607a1b604482015260640162000642565b609f546001600160a01b03166320f9a39a33620011708b6200218d565b6040516001600160e01b031960e085901b1681526001600160a01b0390921660048301526024820152604401600060405180830381600087803b158015620011b757600080fd5b505af1158015620011cc573d6000803e3d6000fd5b505050507f805c5591e26e864042788658377d48b79f09d90f1120e2925b4ee75a704a39e58887620011fe8b6200218d565b604080519384526001600160a01b0390921660208401529082015260600160405180910390a15050505050505050565b6065546001600160a01b031633146200125b5760405162461bcd60e51b8152600401620006429062002b08565b62000ef2600062002589565b6065546001600160a01b03163314620012945760405162461bcd60e51b8152600401620006429062002b08565b609f80546001600160a01b0319166001600160a01b0392909216919091179055565b600054610100900460ff1680620012d0575060005460ff16155b620012ef5760405162461bcd60e51b8152600401620006429062002b78565b600054610100900460ff1615801562001312576000805461ffff19166101011790555b6200131c620025db565b6200132662002660565b600060a081905560a1819055670de0b6b3a764000060a45560a255655af3107a400060a5554260a355801562001362576000805461ff00191690555b50565b6065546001600160a01b03163314620013925760405162461bcd60e51b8152600401620006429062002b08565b62000ef262002694565b6065546001600160a01b03163314620013c95760405162461bcd60e51b8152600401620006429062002b08565b609d5460405163c054fd5d60e01b81526001600160a01b038481166004830152600092169063c054fd5d9060240160206040518083038186803b1580156200141057600080fd5b505afa15801562001425573d6000803e3d6000fd5b505050506040513d601f19601f820116820180604052508101906200144b919062002b3d565b6001600160a01b031614156200149c5760405162461bcd60e51b81526020600482015260156024820152741bdc9858db1948191bd95cc81b9bdd08195e1a5cdd605a1b604482015260640162000642565b6001600160a01b03841660009081526098602052604090205415620015045760405162461bcd60e51b815260206004820152601860248201527f746f6b656e20616c726561647920726567697374657265640000000000000000604482015260640162000642565b60a1546200151490600162002b5d565b60a18181556001600160a01b038681166000818152609860209081526040808320879055958252609a815285822080546001600160a01b0319908116958a16958617909155609c8054600181019091557faf85b9071dfafeac1409d3f1d19bafc9bc7c37974cde8df0ee6168f0086e539c018054909116841790559354815260998452848120889055818152609b8452849020859055835190815291820186905291810191909152606081018290527f22aafc99cc92fec579679933a118900440ff9130c071d53f7b841b49bb2b0b219060800162000e68565b6065546001600160a01b031633146200161b5760405162461bcd60e51b8152600401620006429062002b08565b6113888110620016615760405162461bcd60e51b815260206004820152601060248201526f66656520697320746f6f206c6172676560801b604482015260640162000642565b60a58190556040518181527f3e1c6f794380f768303ee10adb978482d0ee037b0517bdabf3118141632078a6906020015b60405180910390a150565b6065546001600160a01b03163314620016ca5760405162461bcd60e51b8152600401620006429062002b08565b609e80546001600160a01b0319166001600160a01b0383169081179091556040519081527f6efa49a27d1f19e0dca70a0d80483be4b5f3e1b8af1d9714eacc529dbf074a5b9060200162001692565b6065546001600160a01b03163314620017465760405162461bcd60e51b8152600401620006429062002b08565b609d80546001600160a01b0319166001600160a01b0383169081179091556040519081527f67d0daa6370ca90e96e13b330be2b5fb0e00bb91a58015caf05986c8ff74951f9060200162001692565b600060a0546001620017a8919062002b5d565b60a081905560009033609f5460405130916001600160a01b031690620017ce906200293b565b9384526001600160a01b0392831660208501529082166040840152166060820152608001604051809103906000f0801580156200180f573d6000803e3d6000fd5b5060a0805460009081526097602090815260409182902080546001600160a01b0386166001600160a01b0319909116811790915592548251938452908301523382820152519192507fd545492c32293e3c7c7bebfb14f0d2be495cebb835c376f31d2ac7b490fc5b9d919081900360600190a1919050565b600081815260976020526040812054620009ad906001600160a01b031662001c1b565b6000620018b662001dd9565b905090565b620018c562001dd9565b5060335460ff1615620018ec5760405162461bcd60e51b8152600401620006429062002ac4565b6000818152609760205260409020546001600160a01b031680620019245760405162461bcd60e51b8152600401620006429062002a44565b60008190506000604051806020016040528060a45481525090506000620019c4620006e583856001600160a01b031663e81795776040518163ffffffff1660e01b815260040160206040518083038186803b1580156200198357600080fd5b505afa15801562001998573d6000803e3d6000fd5b505050506040513d601f19601f82011682018060405250810190620019be919062002a72565b620026f0565b9050826001600160a01b031663dafb27b6846001600160a01b031663e81795776040518163ffffffff1660e01b815260040160206040518083038186803b15801562001a0f57600080fd5b505afa15801562001a24573d6000803e3d6000fd5b505050506040513d601f19601f8201168201806040525081019062001a4a919062002a72565b6040518263ffffffff1660e01b815260040162001a6991815260200190565b602060405180830381600087803b15801562001a8457600080fd5b505af115801562001a99573d6000803e3d6000fd5b505050506040513d601f19601f8201168201806040525081019062001abf919062002a72565b50609f546001600160a01b031663da004a6d336040516001600160e01b031960e084901b1681526001600160a01b03909116600482015260248101849052604401600060405180830381600087803b15801562001b1b57600080fd5b505af115801562001b30573d6000803e3d6000fd5b5050604080518881526001600160a01b03881660208201529081018490527fba9d04daae3acba43a9a12853aba3fd1c05506c89f874802a159d4a32efc5c0a9250606001905062000991565b6065546001600160a01b0316331462001ba95760405162461bcd60e51b8152600401620006429062002b08565b6001600160a01b03811662001c105760405162461bcd60e51b815260206004820152602660248201527f4f776e61626c653a206e6577206f776e657220697320746865207a65726f206160448201526564647265737360d01b606482015260840162000642565b620013628162002589565b60008060015b60a154811162001dbc576000609c62001c3c60018462002aee565b8154811062001c4f5762001c4f62002bc6565b6000918252602082200154609d54604051634295aec160e11b81526001600160a01b0392831660048201819052945091169063852b5d829060240160206040518083038186803b15801562001ca357600080fd5b505afa15801562001cb8573d6000803e3d6000fd5b505050506040513d601f19601f8201168201806040525081019062001cde919062002a72565b9050801562001da45760405163776e4b3560e11b81526001600160a01b0383811660048301526000919088169063eedc966a9060240160206040518083038186803b15801562001d2d57600080fd5b505afa15801562001d42573d6000803e3d6000fd5b505050506040513d601f19601f8201168201806040525081019062001d68919062002a72565b6000858152609960205260408120549192509062001d9190620006e590620006d9858762002aa2565b905062001d9f818762002b5d565b955050505b5050808062001db39062002bdc565b91505062001c21565b5092915050565b6000620009ad670de0b6b3a76400008362002bfa565b60008060a3544262001dec919062002aee565b90508062001dfc57600091505090565b609f546040805163018fab9b60e31b815290516000926001600160a01b031691630c7d5cd8916004808301926020929190829003018186803b15801562001e4257600080fd5b505afa15801562001e57573d6000803e3d6000fd5b505050506040513d601f19601f8201168201806040525081019062001e7d919062002a72565b609e5460405163d15e1ba960e01b8152600060048201819052602482018490529293506001600160a01b039091169063d15e1ba99060440160206040518083038186803b15801562001ece57600080fd5b505afa15801562001ee3573d6000803e3d6000fd5b505050506040513d601f19601f8201168201806040525081019062001f09919062002a72565b9050600081121562001f4f5760405162461bcd60e51b815260206004820152600e60248201526d1c985d19481d1bdbc81cdb585b1b60921b604482015260640162000642565b60a454819060009062001f9290620006d96301e187e08562001f7a8a670de0b6b3a764000062002aa2565b62001f86919062002aa2565b620006e5919062002bfa565b9050600062001fac60a45460a254620006e5919062002aa2565b90508160a45462001fbe919062002b5d565b60a481905560a25460009162001fda91620006e5919062002aa2565b9050818111156200210657600062001ffc60a5548484620006d9919062002aee565b609f549091506001600160a01b031663c1fcfcc2826200201d868662002aee565b62002029919062002aee565b6040518263ffffffff1660e01b81526004016200204891815260200190565b600060405180830381600087803b1580156200206357600080fd5b505af115801562002078573d6000803e3d6000fd5b5050609f546001600160a01b031691506320f9a39a9050620020a26065546001600160a01b031690565b6040516001600160e01b031960e084901b1681526001600160a01b03909116600482015260248101849052604401600060405180830381600087803b158015620020eb57600080fd5b505af115801562002100573d6000803e3d6000fd5b50505050505b4260a3819055604080519182526020820185905281018590527fe4b75eb10228fbebf7e2fe9c85c9cd8c3fa329189915ad3ca52b4f41da138fc79060600160405180910390a150909695505050505050565b600062000c6c83836040518060400160405280600e81526020016d646976696465206279207a65726f60901b8152506200270c565b6000818152609760205260408120546001600160a01b031680620021c55760405162461bcd60e51b8152600401620006429062002a44565b60008190506200220b60a454826001600160a01b031663e81795776040518163ffffffff1660e01b815260040160206040518083038186803b1580156200069e57600080fd5b949350505050565b60008060006200222386620024bc565b609d54604051634295aec160e11b81526001600160a01b0388811660048301529293506000929091169063852b5d829060240160206040518083038186803b1580156200226f57600080fd5b505afa15801562002284573d6000803e3d6000fd5b505050506040513d601f19601f82011682018060405250810190620022aa919062002a72565b6001600160a01b0387166000908152609b602052604081205491925090620022ec90620022e090670de0b6b3a764000062002aee565b620006e5908462002aa2565b6001600160a01b03881660008181526098602090815260408083205483526099825280832054938352609b909152812054929350916200235391906200233b90670de0b6b3a764000062002aee565b62002347919062002aee565b620006e5908562002aa2565b905060006200239982620023678762001c1b565b620023728d6200218d565b6200237e919062002aee565b62001f86906ec097ce7bc90715b34b9f100000000062002aa2565b905080881115620023a8578097505b60405163776e4b3560e11b81526001600160a01b038a8116600483015286169063eedc966a9060240160206040518083038186803b158015620023ea57600080fd5b505afa158015620023ff573d6000803e3d6000fd5b505050506040513d601f19601f8201168201806040525081019062002425919062002a72565b881115620024ad5760405163776e4b3560e11b81526001600160a01b038a8116600483015286169063eedc966a9060240160206040518083038186803b1580156200246f57600080fd5b505afa15801562002484573d6000803e3d6000fd5b505050506040513d601f19601f82011682018060405250810190620024aa919062002a72565b97505b50959890975095505050505050565b6000818152609760205260408120546001600160a01b031680620009ad5760405162461bcd60e51b8152600401620006429062002a44565b60335460ff166200253f5760405162461bcd60e51b815260206004820152601460248201527314185d5cd8589b194e881b9bdd081c185d5cd95960621b604482015260640162000642565b6033805460ff191690557f5db9ee0a495bf2e6ff9c91a7834c1ba4fdd244a5e8aa4e537bd38aeae4b073aa335b6040516001600160a01b03909116815260200160405180910390a1565b606580546001600160a01b038381166001600160a01b0319831681179093556040519116919082907f8be0079c531659141344cd1fd0a4f28419497f9722a3daafe3b4186f6b6457e090600090a35050565b600054610100900460ff1680620025f5575060005460ff16155b620026145760405162461bcd60e51b8152600401620006429062002b78565b600054610100900460ff1615801562002637576000805461ffff19166101011790555b620026416200273d565b6200264b620027ad565b801562001362576000805461ff001916905550565b600054610100900460ff166200268a5760405162461bcd60e51b8152600401620006429062002c1d565b62000ef262002814565b60335460ff1615620026ba5760405162461bcd60e51b8152600401620006429062002ac4565b6033805460ff191660011790557f62e78cea01bee320cd4e420270b5ea74000d11b0c9f74754ebdbfc544b05a2586200256c3390565b600080620026ff84846200284a565b90506200220b816200287d565b60008183620027305760405162461bcd60e51b815260040162000642919062002c68565b506200220b838562002bfa565b600054610100900460ff168062002757575060005460ff16155b620027765760405162461bcd60e51b8152600401620006429062002b78565b600054610100900460ff161580156200264b576000805461ffff1916610101179055801562001362576000805461ff001916905550565b600054610100900460ff1680620027c7575060005460ff16155b620027e65760405162461bcd60e51b8152600401620006429062002b78565b600054610100900460ff1615801562002809576000805461ffff19166101011790555b6200264b3362002589565b600054610100900460ff166200283e5760405162461bcd60e51b8152600401620006429062002c1d565b6033805460ff19169055565b60408051602081019091526000815260405180602001604052806200287485600001518562002897565b90529392505050565b8051600090620009ad90670de0b6b3a76400009062002bfa565b600062000c6c83836040518060400160405280601781526020017f6d756c7469706c69636174696f6e206f766572666c6f770000000000000000008152506000831580620028e3575082155b15620028f25750600062000c6c565b600062002900848662002aa2565b9050836200290f868362002bfa565b148390620029325760405162461bcd60e51b815260040162000642919062002c68565b50949350505050565b6109b48062002cc183390190565b6000602082840312156200295c57600080fd5b5035919050565b600080604083850312156200297757600080fd5b50508035926020909101359150565b6001600160a01b03811681146200136257600080fd5b600080600060608486031215620029b257600080fd5b833592506020840135620029c68162002986565b929592945050506040919091013590565b60008060008060808587031215620029ee57600080fd5b8435620029fb8162002986565b935060208501359250604085013562002a148162002986565b9396929550929360600135925050565b60006020828403121562002a3757600080fd5b813562000c6c8162002986565b6020808252601490820152731d985d5b1d08191bd95cc81b9bdd08195e1a5cdd60621b604082015260600190565b60006020828403121562002a8557600080fd5b5051919050565b634e487b7160e01b600052601160045260246000fd5b600081600019048311821515161562002abf5762002abf62002a8c565b500290565b60208082526010908201526f14185d5cd8589b194e881c185d5cd95960821b604082015260600190565b60008282101562002b035762002b0362002a8c565b500390565b6020808252818101527f4f776e61626c653a2063616c6c6572206973206e6f7420746865206f776e6572604082015260600190565b60006020828403121562002b5057600080fd5b815162000c6c8162002986565b6000821982111562002b735762002b7362002a8c565b500190565b6020808252602e908201527f496e697469616c697a61626c653a20636f6e747261637420697320616c72656160408201526d191e481a5b9a5d1a585b1a5e995960921b606082015260800190565b634e487b7160e01b600052603260045260246000fd5b600060001982141562002bf35762002bf362002a8c565b5060010190565b60008262002c1857634e487b7160e01b600052601260045260246000fd5b500490565b6020808252602b908201527f496e697469616c697a61626c653a20636f6e7472616374206973206e6f74206960408201526a6e697469616c697a696e6760a81b606082015260800190565b600060208083528351808285015260005b8181101562002c975785810183015185820160400152820162002c79565b8181111562002caa576000604083870101525b50601f01601f191692909201604001939250505056fe608060405234801561001057600080fd5b506040516109b43803806109b483398101604081905261002f916100a9565b600093909355600180546001600160a01b039384166001600160a01b031991821617909155600280549484169482168517905560038054821690941790935560048054919092169083168117909155600580549092161790556100f6565b80516001600160a01b03811681146100a457600080fd5b919050565b600080600080608085870312156100bf57600080fd5b845193506100cf6020860161008d565b92506100dd6040860161008d565b91506100eb6060860161008d565b905092959194509250565b6108af806101056000396000f3fe608060405234801561001057600080fd5b50600436106100b45760003560e01c8063bd1f4b5211610071578063bd1f4b5214610148578063da7eeea51461015b578063dafb27b61461016e578063e817957714610181578063eedc966a14610189578063fe84d0ae1461019c57600080fd5b806305180237146100b95780631c9c7903146100d55780632f10b47a146100ea5780634de7a8b8146100fd578063578ec33f146101225780639c9ee2bb14610135575b600080fd5b6100c260005481565b6040519081526020015b60405180910390f35b6100e86100e33660046106ee565b6101a5565b005b6100e86100f836600461072a565b6102ba565b6001546001600160a01b03165b6040516001600160a01b0390911681526020016100cc565b60015461010a906001600160a01b031681565b60045461010a906001600160a01b031681565b6100e861015636600461075d565b610370565b6100c2610169366004610787565b610570565b6100c261017c366004610787565b6105c1565b6006546100c2565b6100c26101973660046107a0565b610657565b6100c260065481565b6004546001600160a01b0316336001600160a01b0316146101e15760405162461bcd60e51b81526004016101d8906107c2565b60405180910390fd5b6040516323b872dd60e01b81523060048201526001600160a01b038381166024830152604482018390528416906323b872dd90606401602060405180830381600087803b15801561023157600080fd5b505af1158015610245573d6000803e3d6000fd5b505050506040513d601f19601f8201168201806040525081019061026991906107f9565b6102b55760405162461bcd60e51b815260206004820152601f60248201527f6d61737465725472616e736665723a205472616e73666572204661696c65640060448201526064016101d8565b505050565b6001546001600160a01b0316336001600160a01b0316146103115760405162461bcd60e51b815260206004820152601160248201527039b2b73232b9103737ba1036b4b73a32b960791b60448201526064016101d8565b6040516317066a5760e21b81526001600160a01b038381166004830152821690635c19a95c90602401600060405180830381600087803b15801561035457600080fd5b505af1158015610368573d6000803e3d6000fd5b505050505050565b6001546001600160a01b0316336001600160a01b0316146103c75760405162461bcd60e51b815260206004820152601160248201527039b2b73232b9103737ba1036b4b73a32b960791b60448201526064016101d8565b816001600160a01b0381166323b872dd30336040516001600160e01b031960e085901b1681526001600160a01b0392831660048201529116602482015260448101859052606401602060405180830381600087803b15801561042857600080fd5b505af115801561043c573d6000803e3d6000fd5b505050506040513d601f19601f8201168201806040525081019061046091906107f9565b50600554600080546040516303db07d160e11b815291926001600160a01b0316916307b60fa2916104979160040190815260200190565b60206040518083038186803b1580156104af57600080fd5b505afa1580156104c3573d6000803e3d6000fd5b505050506040513d601f19601f820116820180604052508101906104e791906107f9565b9050806105285760405162461bcd60e51b815260206004820152600f60248201526e1bdd995c8b5dda5d1a191c985dd85b608a1b60448201526064016101d8565b604080516001600160a01b0386168152602081018590527f884edad9ce6fa2440d8a54cc123490eb96d2768479d49ff9c7366125a9424364910160405180910390a150505050565b6004546000906001600160a01b0316336001600160a01b0316146105a65760405162461bcd60e51b81526004016101d8906107c2565b816006546105b49190610831565b600681905590505b919050565b6004546000906001600160a01b0316336001600160a01b0316146105f75760405162461bcd60e51b81526004016101d8906107c2565b8160065410156106495760405162461bcd60e51b815260206004820152601e60248201527f63616e6e6f74207265706179206d6f7265207468616e206973206f776564000060448201526064016101d8565b816006546105b49190610849565b6040516370a0823160e01b81523060048201526000906001600160a01b038316906370a082319060240160206040518083038186803b15801561069957600080fd5b505afa1580156106ad573d6000803e3d6000fd5b505050506040513d601f19601f820116820180604052508101906106d19190610860565b92915050565b80356001600160a01b03811681146105bc57600080fd5b60008060006060848603121561070357600080fd5b61070c846106d7565b925061071a602085016106d7565b9150604084013590509250925092565b6000806040838503121561073d57600080fd5b610746836106d7565b9150610754602084016106d7565b90509250929050565b6000806040838503121561077057600080fd5b610779836106d7565b946020939093013593505050565b60006020828403121561079957600080fd5b5035919050565b6000602082840312156107b257600080fd5b6107bb826106d7565b9392505050565b6020808252601a908201527f73656e646572206e6f74205661756c74436f6e74726f6c6c6572000000000000604082015260600190565b60006020828403121561080b57600080fd5b815180151581146107bb57600080fd5b634e487b7160e01b600052601160045260246000fd5b600082198211156108445761084461081b565b500190565b60008282101561085b5761085b61081b565b500390565b60006020828403121561087257600080fd5b505191905056fea2646970667358221220592e599ddb8afc182163ad9cb2a16fe3587bb8d7aaf635736e88da0a3078376c64736f6c63430008090033a2646970667358221220a64716d996c948a7787929a151cd7543632227532a03bdeb95dd8b259291c39e64736f6c63430008090033",
  "linkReferences": {},
  "deployedLinkReferences": {}
}