{
  "_format": "hh-sol-artifact-1",
  "contractName": "UniswapV3OracleRelay",
  "sourceName": "contracts/oracle/External/UniswapV3OracleRelay.sol",
  "abi": [
    {
      "inputs": [
        {
          "internalType": "address",
          "name": "pool_address",
          "type": "address"
        },
        {
          "internalType": "bool",
          "name": "quote_token_is_token0",
          "type": "bool"
        },
        {
          "internalType": "uint256",
          "name": "mul",
          "type": "uint256"
        },
        {
          "internalType": "uint256",
          "name": "div",
          "type": "uint256"
        }
      ],
      "stateMutability": "nonpayable",
      "type": "constructor"
    },
    {
      "inputs": [],
      "name": "_pool",
      "outputs": [
        {
          "internalType": "contract IUniswapV3PoolDerivedState",
          "name": "",
          "type": "address"
        }
      ],
      "stateMutability": "view",
      "type": "function"
    },
    {
      "inputs": [],
      "name": "_poolAddress",
      "outputs": [
        {
          "internalType": "address",
          "name": "",
          "type": "address"
        }
      ],
      "stateMutability": "view",
      "type": "function"
    },
    {
      "inputs": [],
      "name": "_quoteTokenIsToken0",
      "outputs": [
        {
          "internalType": "bool",
          "name": "",
          "type": "bool"
        }
      ],
      "stateMutability": "view",
      "type": "function"
    },
    {
      "inputs": [],
      "name": "currentValue",
      "outputs": [
        {
          "internalType": "uint256",
          "name": "",
          "type": "uint256"
        }
      ],
      "stateMutability": "view",
      "type": "function"
    }
  ],
  "bytecode": "0x608060405234801561001057600080fd5b50604051610d1f380380610d1f83398101604081905261002f9161007f565b60029190915560035560008054911515600160a01b026001600160a81b03199092166001600160a01b03938416179190911790819055600180546001600160a01b031916919092161790556100d8565b6000806000806080858703121561009557600080fd5b84516001600160a01b03811681146100ac57600080fd5b602086015190945080151581146100c257600080fd5b6040860151606090960151949790965092505050565b610c38806100e76000396000f3fe608060405234801561001057600080fd5b506004361061004c5760003560e01c80635541214314610051578063636fc28b1461007a578063698996f8146100a5578063bcabc258146100bb575b600080fd5b60005461006590600160a01b900460ff1681565b60405190151581526020015b60405180910390f35b60015461008d906001600160a01b031681565b6040516001600160a01b039091168152602001610071565b6100ad6100ce565b604051908152602001610071565b60005461008d906001600160a01b031681565b60006100d86100dd565b905090565b604080516002808252606082810190935260009291839181602001602082028036833701905050905060018160008151811061011b5761011b6107a5565b602002602001019063ffffffff16908163ffffffff168152505060008160018151811061014a5761014a6107a5565b63ffffffff9092166020928302919091019091015260015460405163883bdbfd60e01b81526001600160a01b039091169063883bdbfd9061018f9084906004016107bb565b60006040518083038186803b1580156101a757600080fd5b505afa1580156101bb573d6000803e3d6000fd5b505050506040513d6000823e601f3d908101601f191682016040526101e391908101906108db565b5080925050600060019050600083600181518110610203576102036107a5565b60200260200101518460008151811061021e5761021e6107a5565b602002602001015161023091906109bd565b90506000808260060b129050600081156102545761024d83610a0d565b9050610257565b50815b600061026963ffffffff861683610a4a565b9050620d89e88166ffffffffffffff16106102c15760405162461bcd60e51b8152602060048201526013602482015272151a58dac81d1a5b5948191a59998819985a5b606a1b60448201526064015b60405180910390fd5b600083156102d9576102d282610a70565b90506102dc565b50805b600160c01b60026102ec83610372565b6001600160a01b03166102ff9190610b70565b61031190670de0b6b3a7640000610b86565b61031b9190610ba5565b600054909950600160a01b900460ff1661034b57610348896ec097ce7bc90715b34b9f1000000000610ba5565b98505b60035460025461035b908b610b86565b6103659190610ba5565b9850505050505050505090565b60008060008360020b12610389578260020b610396565b8260020b61039690610bb9565b90506103a5620d89e719610a70565b60020b8111156103db5760405162461bcd60e51b81526020600482015260016024820152601560fa1b60448201526064016102b8565b6000600182166103ef57600160801b610401565b6ffffcb933bd6fad37aa2d162d1a5940015b70ffffffffffffffffffffffffffffffffff169050600282161561044057608061043b826ffff97272373d413259a46990580e213a610b86565b901c90505b600482161561046a576080610465826ffff2e50f5f656932ef12357cf3c7fdcc610b86565b901c90505b600882161561049457608061048f826fffe5caca7e10e4e61c3624eaa0941cd0610b86565b901c90505b60108216156104be5760806104b9826fffcb9843d60f6159c9db58835c926644610b86565b901c90505b60208216156104e85760806104e3826fff973b41fa98c081472e6896dfb254c0610b86565b901c90505b604082161561051257608061050d826fff2ea16466c96a3843ec78b326b52861610b86565b901c90505b608082161561053c576080610537826ffe5dee046a99a2a811c461f1969c3053610b86565b901c90505b610100821615610567576080610562826ffcbe86c7900a88aedcffc83b479aa3a4610b86565b901c90505b61020082161561059257608061058d826ff987a7253ac413176f2b074cf7815e54610b86565b901c90505b6104008216156105bd5760806105b8826ff3392b0822b70005940c7a398e4b70f3610b86565b901c90505b6108008216156105e85760806105e3826fe7159475a2c29b7443b29c7fa6e889d9610b86565b901c90505b61100082161561061357608061060e826fd097f3bdfd2022b8845ad8f792aa5825610b86565b901c90505b61200082161561063e576080610639826fa9f746462d870fdf8a65dc1f90e061e5610b86565b901c90505b614000821615610669576080610664826f70d869a156d2a1b890bb3df62baf32f7610b86565b901c90505b61800082161561069457608061068f826f31be135f97d08fd981231505542fcfa6610b86565b901c90505b620100008216156106c05760806106bb826f09aa508b5b7a84e1c677de54f3e99bc9610b86565b901c90505b620200008216156106eb5760806106e6826e5d6af8dedb81196699c329225ee604610b86565b901c90505b62040000821615610715576080610710826d2216e584f5fa1ea926041bedfe98610b86565b901c90505b6208000082161561073d576080610738826b048a170391f7dc42444e8fa2610b86565b901c90505b60008460020b13156107585761075581600019610ba5565b90505b61076764010000000082610bd6565b15610773576001610776565b60005b6107879060ff16602083901c610bea565b949350505050565b634e487b7160e01b600052604160045260246000fd5b634e487b7160e01b600052603260045260246000fd5b6020808252825182820181905260009190848201906040850190845b818110156107f957835163ffffffff16835292840192918401916001016107d7565b50909695505050505050565b604051601f8201601f1916810167ffffffffffffffff8111828210171561082e5761082e61078f565b604052919050565b600067ffffffffffffffff8211156108505761085061078f565b5060051b60200190565b600082601f83011261086b57600080fd5b8151602061088061087b83610836565b610805565b82815260059290921b8401810191818101908684111561089f57600080fd5b8286015b848110156108d05780516001600160a01b03811681146108c35760008081fd5b83529183019183016108a3565b509695505050505050565b600080604083850312156108ee57600080fd5b825167ffffffffffffffff8082111561090657600080fd5b818501915085601f83011261091a57600080fd5b8151602061092a61087b83610836565b82815260059290921b8401810191818101908984111561094957600080fd5b948201945b838610156109775785518060060b81146109685760008081fd5b8252948201949082019061094e565b9188015191965090935050508082111561099057600080fd5b5061099d8582860161085a565b9150509250929050565b634e487b7160e01b600052601160045260246000fd5b60008160060b8360060b6000811281667fffffffffffff19018312811516156109e8576109e86109a7565b81667fffffffffffff018313811615610a0357610a036109a7565b5090039392505050565b60008160060b667fffffffffffff19811415610a2b57610a2b6109a7565b60000392915050565b634e487b7160e01b600052601260045260246000fd5b600066ffffffffffffff80841680610a6457610a64610a34565b92169190910492915050565b60008160020b627fffff19811415610a2b57610a2b6109a7565b600181815b80851115610ac5578160001904821115610aab57610aab6109a7565b80851615610ab857918102915b93841c9390800290610a8f565b509250929050565b600082610adc57506001610b6a565b81610ae957506000610b6a565b8160018114610aff5760028114610b0957610b25565b6001915050610b6a565b60ff841115610b1a57610b1a6109a7565b50506001821b610b6a565b5060208310610133831016604e8410600b8410161715610b48575081810a610b6a565b610b528383610a8a565b8060001904821115610b6657610b666109a7565b0290505b92915050565b6000610b7f60ff841683610acd565b9392505050565b6000816000190483118215151615610ba057610ba06109a7565b500290565b600082610bb457610bb4610a34565b500490565b6000600160ff1b821415610bcf57610bcf6109a7565b5060000390565b600082610be557610be5610a34565b500690565b60008219821115610bfd57610bfd6109a7565b50019056fea26469706673582212203b6532e302555397b94cc3b1f2142c84f2b5da78e5fcd360e09c3835f8bcc1f564736f6c63430008090033",
  "linkReferences": {},
  "deployedLinkReferences": {}
}