{
  "_format": "hh-sol-artifact-1",
  "contractName": "Vault",
  "sourceName": "contracts/lending/Vault.sol",
  "abi": [
    {
      "inputs": [
        {
          "internalType": "uint96",
          "name": "id_",
          "type": "uint96"
        },
        {
          "internalType": "address",
          "name": "minter_",
          "type": "address"
        },
        {
          "internalType": "address",
          "name": "master_address",
          "type": "address"
        }
      ],
      "stateMutability": "nonpayable",
      "type": "constructor"
    },
    {
      "anonymous": false,
      "inputs": [
        {
          "indexed": false,
          "internalType": "address",
          "name": "token_address",
          "type": "address"
        },
        {
          "indexed": false,
          "internalType": "uint256",
          "name": "amount",
          "type": "uint256"
        }
      ],
      "name": "Deposit",
      "type": "event"
    },
    {
      "anonymous": false,
      "inputs": [
        {
          "indexed": false,
          "internalType": "address",
          "name": "token_address",
          "type": "address"
        },
        {
          "indexed": false,
          "internalType": "uint256",
          "name": "amount",
          "type": "uint256"
        }
      ],
      "name": "Withdraw",
      "type": "event"
    },
    {
      "inputs": [],
      "name": "_baseLiability",
      "outputs": [
        {
          "internalType": "uint256",
          "name": "",
          "type": "uint256"
        }
      ],
      "stateMutability": "view",
      "type": "function"
    },
    {
      "inputs": [],
      "name": "_master",
      "outputs": [
        {
          "internalType": "contract IVaultController",
          "name": "",
          "type": "address"
        }
      ],
      "stateMutability": "view",
      "type": "function"
    },
    {
      "inputs": [],
      "name": "_vaultInfo",
      "outputs": [
        {
          "internalType": "uint96",
          "name": "id",
          "type": "uint96"
        },
        {
          "internalType": "address",
          "name": "minter",
          "type": "address"
        }
      ],
      "stateMutability": "view",
      "type": "function"
    },
    {
      "inputs": [],
      "name": "baseLiability",
      "outputs": [
        {
          "internalType": "uint256",
          "name": "",
          "type": "uint256"
        }
      ],
      "stateMutability": "view",
      "type": "function"
    },
    {
      "inputs": [
        {
          "internalType": "address",
          "name": "delegatee",
          "type": "address"
        },
        {
          "internalType": "address",
          "name": "token_address",
          "type": "address"
        }
      ],
      "name": "delegateCompLikeTo",
      "outputs": [],
      "stateMutability": "nonpayable",
      "type": "function"
    },
    {
      "inputs": [],
      "name": "id",
      "outputs": [
        {
          "internalType": "uint96",
          "name": "",
          "type": "uint96"
        }
      ],
      "stateMutability": "view",
      "type": "function"
    },
    {
      "inputs": [
        {
          "internalType": "address",
          "name": "_token",
          "type": "address"
        },
        {
          "internalType": "address",
          "name": "_to",
          "type": "address"
        },
        {
          "internalType": "uint256",
          "name": "_amount",
          "type": "uint256"
        }
      ],
      "name": "masterTransfer",
      "outputs": [],
      "stateMutability": "nonpayable",
      "type": "function"
    },
    {
      "inputs": [],
      "name": "minter",
      "outputs": [
        {
          "internalType": "address",
          "name": "",
          "type": "address"
        }
      ],
      "stateMutability": "view",
      "type": "function"
    },
    {
      "inputs": [
        {
          "internalType": "bool",
          "name": "increase",
          "type": "bool"
        },
        {
          "internalType": "uint256",
          "name": "base_amount",
          "type": "uint256"
        }
      ],
      "name": "modifyLiability",
      "outputs": [
        {
          "internalType": "uint256",
          "name": "",
          "type": "uint256"
        }
      ],
      "stateMutability": "nonpayable",
      "type": "function"
    },
    {
      "inputs": [
        {
          "internalType": "address",
          "name": "addr",
          "type": "address"
        }
      ],
      "name": "tokenBalance",
      "outputs": [
        {
          "internalType": "uint256",
          "name": "",
          "type": "uint256"
        }
      ],
      "stateMutability": "view",
      "type": "function"
    },
    {
      "inputs": [
        {
          "internalType": "address",
          "name": "token_address",
          "type": "address"
        },
        {
          "internalType": "uint256",
          "name": "amount",
          "type": "uint256"
        }
      ],
      "name": "withdrawErc20",
      "outputs": [],
      "stateMutability": "nonpayable",
      "type": "function"
    }
  ],
  "bytecode": "0x608060405234801561001057600080fd5b506040516109fa3803806109fa83398101604081905261002f916100ab565b604080518082019091526001600160601b03939093168084526001600160a01b0392831660209094018490526c01000000000000000000000000909302909217600055600180546001600160a01b031916929091169190911790556100fc565b80516001600160a01b03811681146100a657600080fd5b919050565b6000806000606084860312156100c057600080fd5b83516001600160601b03811681146100d757600080fd5b92506100e56020850161008f565b91506100f36040850161008f565b90509250925092565b6108ef8061010b6000396000f3fe608060405234801561001057600080fd5b50600436106100a95760003560e01c8063adef15bc11610071578063adef15bc14610166578063af640d0f14610178578063bd1f4b5214610193578063dfabefe7146101a6578063eedc966a146101b9578063fe84d0ae146101cc57600080fd5b806307546172146100ae5780631c9c7903146100df5780632f10b47a146100f4578063353696621461010757806385b1899714610153575b600080fd5b600054600160601b90046001600160a01b03165b6040516001600160a01b0390911681526020015b60405180910390f35b6100f26100ed366004610754565b6101d5565b005b6100f2610102366004610790565b610310565b60005461012c906001600160601b03811690600160601b90046001600160a01b031682565b604080516001600160601b0390931683526001600160a01b039091166020830152016100d6565b6001546100c2906001600160a01b031681565b6002545b6040519081526020016100d6565b6000546040516001600160601b0390911681526020016100d6565b6100f26101a13660046107c3565b6103cd565b61016a6101b43660046107fe565b6105ca565b61016a6101c736600461081c565b6106be565b61016a60025481565b6001546001600160a01b0316336001600160a01b03161461023d5760405162461bcd60e51b815260206004820152601a60248201527f73656e646572206e6f74205661756c74436f6e74726f6c6c657200000000000060448201526064015b60405180910390fd5b60405163a9059cbb60e01b81526001600160a01b0383811660048301526024820183905284169063a9059cbb90604401602060405180830381600087803b15801561028757600080fd5b505af115801561029b573d6000803e3d6000fd5b505050506040513d601f19601f820116820180604052508101906102bf919061083e565b61030b5760405162461bcd60e51b815260206004820152601f60248201527f6d61737465725472616e736665723a205472616e73666572204661696c6564006044820152606401610234565b505050565b600054600160601b90046001600160a01b0316336001600160a01b03161461036e5760405162461bcd60e51b815260206004820152601160248201527039b2b73232b9103737ba1036b4b73a32b960791b6044820152606401610234565b6040516317066a5760e21b81526001600160a01b038381166004830152821690635c19a95c90602401600060405180830381600087803b1580156103b157600080fd5b505af11580156103c5573d6000803e3d6000fd5b505050505050565b600054600160601b90046001600160a01b0316336001600160a01b03161461042b5760405162461bcd60e51b815260206004820152601160248201527039b2b73232b9103737ba1036b4b73a32b960791b6044820152606401610234565b604080516323b872dd60e01b81523060048201523360248201526044810183905290516001600160a01b038416916323b872dd9160648083019260209291908290030181600087803b15801561048057600080fd5b505af1158015610494573d6000803e3d6000fd5b505050506040513d601f19601f820116820180604052508101906104b8919061083e565b506001546000805460405163b13b9f3b60e01b81526001600160601b03909116600482015290916001600160a01b03169063b13b9f3b9060240160206040518083038186803b15801561050a57600080fd5b505afa15801561051e573d6000803e3d6000fd5b505050506040513d601f19601f82011682018060405250810190610542919061083e565b9050806105835760405162461bcd60e51b815260206004820152600f60248201526e1bdd995c8b5dda5d1a191c985dd85b608a1b6044820152606401610234565b604080516001600160a01b0385168152602081018490527f884edad9ce6fa2440d8a54cc123490eb96d2768479d49ff9c7366125a9424364910160405180910390a1505050565b6001546000906001600160a01b0316336001600160a01b0316146106305760405162461bcd60e51b815260206004820152601a60248201527f73656e646572206e6f74205661756c74436f6e74726f6c6c65720000000000006044820152606401610234565b821561065057816002546106449190610871565b600281905590506106b8565b8160025410156106a25760405162461bcd60e51b815260206004820152601e60248201527f63616e6e6f74207265706179206d6f7265207468616e206973206f77656400006044820152606401610234565b816002546106b09190610889565b600281905590505b92915050565b6040516370a0823160e01b81523060048201526000906001600160a01b038316906370a082319060240160206040518083038186803b15801561070057600080fd5b505afa158015610714573d6000803e3d6000fd5b505050506040513d601f19601f820116820180604052508101906106b891906108a0565b80356001600160a01b038116811461074f57600080fd5b919050565b60008060006060848603121561076957600080fd5b61077284610738565b925061078060208501610738565b9150604084013590509250925092565b600080604083850312156107a357600080fd5b6107ac83610738565b91506107ba60208401610738565b90509250929050565b600080604083850312156107d657600080fd5b6107df83610738565b946020939093013593505050565b80151581146107fb57600080fd5b50565b6000806040838503121561081157600080fd5b82356107df816107ed565b60006020828403121561082e57600080fd5b61083782610738565b9392505050565b60006020828403121561085057600080fd5b8151610837816107ed565b634e487b7160e01b600052601160045260246000fd5b600082198211156108845761088461085b565b500190565b60008282101561089b5761089b61085b565b500390565b6000602082840312156108b257600080fd5b505191905056fea2646970667358221220ca68ca6a0dd2d0384b574b81a1f930d3b7f55a91514c3af9c2d0307300e88ba564736f6c63430008090033",
  "linkReferences": {},
  "deployedLinkReferences": {}
}