{
  "_format": "hh-sol-artifact-1",
  "contractName": "Vault",
  "sourceName": "contracts/lending/Vault.sol",
  "abi": [
    {
      "inputs": [
        {
          "internalType": "uint256",
          "name": "id",
          "type": "uint256"
        },
        {
          "internalType": "address",
          "name": "minter",
          "type": "address"
        },
        {
          "internalType": "address",
          "name": "master_address",
          "type": "address"
        },
        {
          "internalType": "address",
          "name": "usdi_address",
          "type": "address"
        }
      ],
      "stateMutability": "nonpayable",
      "type": "constructor"
    },
    {
      "anonymous": false,
      "inputs": [
        {
          "indexed": false,
          "internalType": "address",
          "name": "token_address",
          "type": "address"
        },
        {
          "indexed": false,
          "internalType": "uint256",
          "name": "amount",
          "type": "uint256"
        }
      ],
      "name": "Deposit",
      "type": "event"
    },
    {
      "anonymous": false,
      "inputs": [
        {
          "indexed": false,
          "internalType": "address",
          "name": "token_address",
          "type": "address"
        },
        {
          "indexed": false,
          "internalType": "uint256",
          "name": "amount",
          "type": "uint256"
        }
      ],
      "name": "withdraw",
      "type": "event"
    },
    {
      "inputs": [],
      "name": "BaseLiability",
      "outputs": [
        {
          "internalType": "uint256",
          "name": "",
          "type": "uint256"
        }
      ],
      "stateMutability": "view",
      "type": "function"
    },
    {
      "inputs": [],
      "name": "Minter",
      "outputs": [
        {
          "internalType": "address",
          "name": "",
          "type": "address"
        }
      ],
      "stateMutability": "view",
      "type": "function"
    },
    {
      "inputs": [],
      "name": "_baseLiability",
      "outputs": [
        {
          "internalType": "uint256",
          "name": "",
          "type": "uint256"
        }
      ],
      "stateMutability": "view",
      "type": "function"
    },
    {
      "inputs": [],
      "name": "_id",
      "outputs": [
        {
          "internalType": "uint256",
          "name": "",
          "type": "uint256"
        }
      ],
      "stateMutability": "view",
      "type": "function"
    },
    {
      "inputs": [],
      "name": "_masterAddress",
      "outputs": [
        {
          "internalType": "address",
          "name": "",
          "type": "address"
        }
      ],
      "stateMutability": "view",
      "type": "function"
    },
    {
      "inputs": [],
      "name": "_minter",
      "outputs": [
        {
          "internalType": "address",
          "name": "",
          "type": "address"
        }
      ],
      "stateMutability": "view",
      "type": "function"
    },
    {
      "inputs": [
        {
          "internalType": "uint256",
          "name": "base_amount",
          "type": "uint256"
        }
      ],
      "name": "decrease_liability",
      "outputs": [
        {
          "internalType": "uint256",
          "name": "",
          "type": "uint256"
        }
      ],
      "stateMutability": "nonpayable",
      "type": "function"
    },
    {
      "inputs": [
        {
          "internalType": "address",
          "name": "compLikeDelegatee",
          "type": "address"
        },
        {
          "internalType": "address",
          "name": "CompLikeToken",
          "type": "address"
        }
      ],
      "name": "delegateCompLikeTo",
      "outputs": [],
      "stateMutability": "nonpayable",
      "type": "function"
    },
    {
      "inputs": [
        {
          "internalType": "uint256",
          "name": "base_amount",
          "type": "uint256"
        }
      ],
      "name": "increase_liability",
      "outputs": [
        {
          "internalType": "uint256",
          "name": "",
          "type": "uint256"
        }
      ],
      "stateMutability": "nonpayable",
      "type": "function"
    },
    {
      "inputs": [
        {
          "internalType": "address",
          "name": "_token",
          "type": "address"
        },
        {
          "internalType": "address",
          "name": "_to",
          "type": "address"
        },
        {
          "internalType": "uint256",
          "name": "_amount",
          "type": "uint256"
        }
      ],
      "name": "masterTransfer",
      "outputs": [],
      "stateMutability": "nonpayable",
      "type": "function"
    },
    {
      "inputs": [
        {
          "internalType": "address",
          "name": "addr",
          "type": "address"
        }
      ],
      "name": "tokenBalance",
      "outputs": [
        {
          "internalType": "uint256",
          "name": "",
          "type": "uint256"
        }
      ],
      "stateMutability": "view",
      "type": "function"
    },
    {
      "inputs": [
        {
          "internalType": "address",
          "name": "token_address",
          "type": "address"
        },
        {
          "internalType": "uint256",
          "name": "amount",
          "type": "uint256"
        }
      ],
      "name": "withdrawErc20",
      "outputs": [],
      "stateMutability": "nonpayable",
      "type": "function"
    }
  ],
  "bytecode": "0x608060405234801561001057600080fd5b506040516108f83803806108f883398101604081905261002f916100a9565b600093909355600180546001600160a01b039384166001600160a01b031991821617909155600280549484169482168517905560038054821690941790935560048054919092169083168117909155600580549092161790556100f6565b80516001600160a01b03811681146100a457600080fd5b919050565b600080600080608085870312156100bf57600080fd5b845193506100cf6020860161008d565b92506100dd6040860161008d565b91506100eb6060860161008d565b905092959194509250565b6107f3806101056000396000f3fe608060405234801561001057600080fd5b50600436106100b45760003560e01c8063bd1f4b5211610071578063bd1f4b5214610148578063da7eeea51461015b578063dafb27b61461016e578063e817957714610181578063eedc966a14610189578063fe84d0ae1461019c57600080fd5b806305180237146100b95780631c9c7903146100d55780632f10b47a146100ea5780634de7a8b8146100fd578063578ec33f146101225780636075851e14610135575b600080fd5b6100c260005481565b6040519081526020015b60405180910390f35b6100e86100e3366004610669565b6101a5565b005b6100e86100f83660046106a5565b6102a3565b6001546001600160a01b03165b6040516001600160a01b0390911681526020016100cc565b60015461010a906001600160a01b031681565b60045461010a906001600160a01b031681565b6100e86101563660046106d8565b610322565b6100c2610169366004610702565b610511565b6100c261017c366004610702565b61054f565b6006546100c2565b6100c261019736600461071b565b6105d2565b6100c260065481565b6004546001600160a01b0316336001600160a01b0316146101c557600080fd5b6040516323b872dd60e01b81523060048201526001600160a01b038381166024830152604482018390528416906323b872dd90606401602060405180830381600087803b15801561021557600080fd5b505af1158015610229573d6000803e3d6000fd5b505050506040513d601f19601f8201168201806040525081019061024d919061073d565b61029e5760405162461bcd60e51b815260206004820152601f60248201527f6d61737465725472616e736665723a205472616e73666572204661696c65640060448201526064015b60405180910390fd5b505050565b6001546001600160a01b0316336001600160a01b0316146102c357600080fd5b6040516317066a5760e21b81526001600160a01b038381166004830152821690635c19a95c90602401600060405180830381600087803b15801561030657600080fd5b505af115801561031a573d6000803e3d6000fd5b505050505050565b6001546001600160a01b0316336001600160a01b03161461034257600080fd5b816001600160a01b0381166323b872dd30336040516001600160e01b031960e085901b1681526001600160a01b0392831660048201529116602482015260448101859052606401602060405180830381600087803b1580156103a357600080fd5b505af11580156103b7573d6000803e3d6000fd5b505050506040513d601f19601f820116820180604052508101906103db919061073d565b50600554600080546040516303db07d160e11b815291926001600160a01b0316916307b60fa2916104129160040190815260200190565b60206040518083038186803b15801561042a57600080fd5b505afa15801561043e573d6000803e3d6000fd5b505050506040513d601f19601f82011682018060405250810190610462919061073d565b9050806104c95760405162461bcd60e51b815260206004820152602f60248201527f7468697320776974686472617720776f756c64206d616b6520796f757220616360448201526e18dbdd5b9d081a5b9cdbdb1d995b9d608a1b6064820152608401610295565b604080516001600160a01b0386168152602081018590527f884edad9ce6fa2440d8a54cc123490eb96d2768479d49ff9c7366125a9424364910160405180910390a150505050565b6004546000906001600160a01b0316336001600160a01b03161461053457600080fd5b816006546105429190610775565b600681905590505b919050565b6004546000906001600160a01b0316336001600160a01b03161461057257600080fd5b8160065410156105c45760405162461bcd60e51b815260206004820152601e60248201527f63616e6e6f74207265706179206d6f7265207468616e206973206f77656400006044820152606401610295565b81600654610542919061078d565b6040516370a0823160e01b81523060048201526000906001600160a01b038316906370a082319060240160206040518083038186803b15801561061457600080fd5b505afa158015610628573d6000803e3d6000fd5b505050506040513d601f19601f8201168201806040525081019061064c91906107a4565b92915050565b80356001600160a01b038116811461054a57600080fd5b60008060006060848603121561067e57600080fd5b61068784610652565b925061069560208501610652565b9150604084013590509250925092565b600080604083850312156106b857600080fd5b6106c183610652565b91506106cf60208401610652565b90509250929050565b600080604083850312156106eb57600080fd5b6106f483610652565b946020939093013593505050565b60006020828403121561071457600080fd5b5035919050565b60006020828403121561072d57600080fd5b61073682610652565b9392505050565b60006020828403121561074f57600080fd5b8151801515811461073657600080fd5b634e487b7160e01b600052601160045260246000fd5b600082198211156107885761078861075f565b500190565b60008282101561079f5761079f61075f565b500390565b6000602082840312156107b657600080fd5b505191905056fea2646970667358221220f1040de411eb319b38063d3c03fc3223c4a19eee250e1b9843fbb94cce9e17bd64736f6c63430008090033",
  "linkReferences": {},
  "deployedLinkReferences": {}
}