{
  "contracts/curve/Logic/ThreeLines0_100.sol": {
    "ThreeLines0_100": {
      "abi": [
        {
          "inputs": [
            {
              "internalType": "int256",
              "name": "r0",
              "type": "int256"
            },
            {
              "internalType": "int256",
              "name": "r1",
              "type": "int256"
            },
            {
              "internalType": "int256",
              "name": "r2",
              "type": "int256"
            },
            {
              "internalType": "int256",
              "name": "r3",
              "type": "int256"
            },
            {
              "internalType": "int256",
              "name": "s0",
              "type": "int256"
            },
            {
              "internalType": "int256",
              "name": "s1",
              "type": "int256"
            }
          ],
          "stateMutability": "nonpayable",
          "type": "constructor"
        },
        {
          "inputs": [],
          "name": "_r0",
          "outputs": [
            {
              "internalType": "int256",
              "name": "",
              "type": "int256"
            }
          ],
          "stateMutability": "view",
          "type": "function"
        },
        {
          "inputs": [],
          "name": "_r1",
          "outputs": [
            {
              "internalType": "int256",
              "name": "",
              "type": "int256"
            }
          ],
          "stateMutability": "view",
          "type": "function"
        },
        {
          "inputs": [],
          "name": "_r2",
          "outputs": [
            {
              "internalType": "int256",
              "name": "",
              "type": "int256"
            }
          ],
          "stateMutability": "view",
          "type": "function"
        },
        {
          "inputs": [],
          "name": "_r3",
          "outputs": [
            {
              "internalType": "int256",
              "name": "",
              "type": "int256"
            }
          ],
          "stateMutability": "view",
          "type": "function"
        },
        {
          "inputs": [],
          "name": "_s0",
          "outputs": [
            {
              "internalType": "int256",
              "name": "",
              "type": "int256"
            }
          ],
          "stateMutability": "view",
          "type": "function"
        },
        {
          "inputs": [],
          "name": "_s1",
          "outputs": [
            {
              "internalType": "int256",
              "name": "",
              "type": "int256"
            }
          ],
          "stateMutability": "view",
          "type": "function"
        },
        {
          "inputs": [
            {
              "internalType": "int256",
              "name": "rise",
              "type": "int256"
            },
            {
              "internalType": "int256",
              "name": "run",
              "type": "int256"
            },
            {
              "internalType": "int256",
              "name": "distance",
              "type": "int256"
            },
            {
              "internalType": "int256",
              "name": "b",
              "type": "int256"
            }
          ],
          "name": "linearInterpolation",
          "outputs": [
            {
              "internalType": "int256",
              "name": "",
              "type": "int256"
            }
          ],
          "stateMutability": "pure",
          "type": "function"
        },
        {
          "inputs": [
            {
              "internalType": "int256",
              "name": "x_value",
              "type": "int256"
            }
          ],
          "name": "valueAt",
          "outputs": [
            {
              "internalType": "int256",
              "name": "",
              "type": "int256"
            }
          ],
          "stateMutability": "view",
          "type": "function"
        }
      ],
      "evm": {
        "bytecode": {
          "linkReferences": {},
          "object": "608060405234801561001057600080fd5b506040516109fb3803806109fb833981810160405281019061003291906100a2565b85600081905550846001819055508360028190555082600381905550816004819055508060058190555050505050505061012f565b600080fd5b6000819050919050565b61007f8161006c565b811461008a57600080fd5b50565b60008151905061009c81610076565b92915050565b60008060008060008060c087890312156100bf576100be610067565b5b60006100cd89828a0161008d565b96505060206100de89828a0161008d565b95505060406100ef89828a0161008d565b945050606061010089828a0161008d565b935050608061011189828a0161008d565b92505060a061012289828a0161008d565b9150509295509295509295565b6108bd8061013e6000396000f3fe608060405234801561001057600080fd5b50600436106100885760003560e01c8063825d3c4a1161005b578063825d3c4a1461011757806385bcfbd8146101355780639d830ef814610165578063ecf62e7e1461018357610088565b8063414be42b1461008d57806347ba7b21146100bd5780637785b716146100db57806378a8ad5e146100f9575b600080fd5b6100a760048036038101906100a291906103d9565b6101a1565b6040516100b49190610415565b60405180910390f35b6100c5610325565b6040516100d29190610415565b60405180910390f35b6100e361032b565b6040516100f09190610415565b60405180910390f35b610101610331565b60405161010e9190610415565b60405180910390f35b61011f610337565b60405161012c9190610415565b60405180910390f35b61014f600480360381019061014a9190610430565b61033d565b60405161015c9190610415565b60405180910390f35b61016d610392565b60405161017a9190610415565b60405180910390f35b61018b610398565b6040516101989190610415565b60405180910390f35b600080670de0b6b3a7640000905060008312156101f3576040517f08c379a00000000000000000000000000000000000000000000000000000000081526004016101ea906104f4565b60405180910390fd5b80831315610236576040517f08c379a000000000000000000000000000000000000000000000000000000000815260040161022d90610560565b60405180910390fd5b600454831215610272576000805460015461025191906105af565b90506000600454905061026882828760005461033d565b9350505050610320565b6005548312156102c957600060015460025461028e91906105af565b905060006004546005546102a291906105af565b90506102bf8282600454886102b791906105af565b60015461033d565b9350505050610320565b80831361031b5760006002546003546102e291906105af565b90506000600554836102f491906105af565b905061031182826005548861030991906105af565b60025461033d565b9350505050610320565b600080fd5b919050565b60005481565b60025481565b60045481565b60015481565b60008084620f4240876103509190610643565b61035a9190610789565b9050600083620f4240868461036f9190610643565b6103799190610789565b61038391906107f3565b90508092505050949350505050565b60055481565b60035481565b600080fd5b6000819050919050565b6103b6816103a3565b81146103c157600080fd5b50565b6000813590506103d3816103ad565b92915050565b6000602082840312156103ef576103ee61039e565b5b60006103fd848285016103c4565b91505092915050565b61040f816103a3565b82525050565b600060208201905061042a6000830184610406565b92915050565b6000806000806080858703121561044a5761044961039e565b5b6000610458878288016103c4565b9450506020610469878288016103c4565b935050604061047a878288016103c4565b925050606061048b878288016103c4565b91505092959194509250565b600082825260208201905092915050565b7f746f6f20736d616c6c0000000000000000000000000000000000000000000000600082015250565b60006104de600983610497565b91506104e9826104a8565b602082019050919050565b6000602082019050818103600083015261050d816104d1565b9050919050565b7f746f6f206c617267650000000000000000000000000000000000000000000000600082015250565b600061054a600983610497565b915061055582610514565b602082019050919050565b600060208201905081810360008301526105798161053d565b9050919050565b7f4e487b7100000000000000000000000000000000000000000000000000000000600052601160045260246000fd5b60006105ba826103a3565b91506105c5836103a3565b9250827f800000000000000000000000000000000000000000000000000000000000000001821260008412151615610600576105ff610580565b5b827f7fffffffffffffffffffffffffffffffffffffffffffffffffffffffffffffff01821360008412161561063857610637610580565b5b828203905092915050565b600061064e826103a3565b9150610659836103a3565b9250827f7fffffffffffffffffffffffffffffffffffffffffffffffffffffffffffffff048211600084136000841316161561069857610697610580565b5b817f800000000000000000000000000000000000000000000000000000000000000005831260008412600084131616156106d5576106d4610580565b5b827f8000000000000000000000000000000000000000000000000000000000000000058212600084136000841216161561071257610711610580565b5b827f7fffffffffffffffffffffffffffffffffffffffffffffffffffffffffffffff058212600084126000841216161561074f5761074e610580565b5b828202905092915050565b7f4e487b7100000000000000000000000000000000000000000000000000000000600052601260045260246000fd5b6000610794826103a3565b915061079f836103a3565b9250826107af576107ae61075a565b5b600160000383147f8000000000000000000000000000000000000000000000000000000000000000831416156107e8576107e7610580565b5b828205905092915050565b60006107fe826103a3565b9150610809836103a3565b9250817f7fffffffffffffffffffffffffffffffffffffffffffffffffffffffffffffff0383136000831215161561084457610843610580565b5b817f800000000000000000000000000000000000000000000000000000000000000003831260008312161561087c5761087b610580565b5b82820190509291505056fea264697066735822122068906bd720f2a5010859f0ac108d175a583f0b726ee982932a97104ce315ccda64736f6c63430008090033",
          "opcodes": "PUSH1 0x80 PUSH1 0x40 MSTORE CALLVALUE DUP1 ISZERO PUSH2 0x10 JUMPI PUSH1 0x0 DUP1 REVERT JUMPDEST POP PUSH1 0x40 MLOAD PUSH2 0x9FB CODESIZE SUB DUP1 PUSH2 0x9FB DUP4 CODECOPY DUP2 DUP2 ADD PUSH1 0x40 MSTORE DUP2 ADD SWAP1 PUSH2 0x32 SWAP2 SWAP1 PUSH2 0xA2 JUMP JUMPDEST DUP6 PUSH1 0x0 DUP2 SWAP1 SSTORE POP DUP5 PUSH1 0x1 DUP2 SWAP1 SSTORE POP DUP4 PUSH1 0x2 DUP2 SWAP1 SSTORE POP DUP3 PUSH1 0x3 DUP2 SWAP1 SSTORE POP DUP2 PUSH1 0x4 DUP2 SWAP1 SSTORE POP DUP1 PUSH1 0x5 DUP2 SWAP1 SSTORE POP POP POP POP POP POP POP PUSH2 0x12F JUMP JUMPDEST PUSH1 0x0 DUP1 REVERT JUMPDEST PUSH1 0x0 DUP2 SWAP1 POP SWAP2 SWAP1 POP JUMP JUMPDEST PUSH2 0x7F DUP2 PUSH2 0x6C JUMP JUMPDEST DUP2 EQ PUSH2 0x8A JUMPI PUSH1 0x0 DUP1 REVERT JUMPDEST POP JUMP JUMPDEST PUSH1 0x0 DUP2 MLOAD SWAP1 POP PUSH2 0x9C DUP2 PUSH2 0x76 JUMP JUMPDEST SWAP3 SWAP2 POP POP JUMP JUMPDEST PUSH1 0x0 DUP1 PUSH1 0x0 DUP1 PUSH1 0x0 DUP1 PUSH1 0xC0 DUP8 DUP10 SUB SLT ISZERO PUSH2 0xBF JUMPI PUSH2 0xBE PUSH2 0x67 JUMP JUMPDEST JUMPDEST PUSH1 0x0 PUSH2 0xCD DUP10 DUP3 DUP11 ADD PUSH2 0x8D JUMP JUMPDEST SWAP7 POP POP PUSH1 0x20 PUSH2 0xDE DUP10 DUP3 DUP11 ADD PUSH2 0x8D JUMP JUMPDEST SWAP6 POP POP PUSH1 0x40 PUSH2 0xEF DUP10 DUP3 DUP11 ADD PUSH2 0x8D JUMP JUMPDEST SWAP5 POP POP PUSH1 0x60 PUSH2 0x100 DUP10 DUP3 DUP11 ADD PUSH2 0x8D JUMP JUMPDEST SWAP4 POP POP PUSH1 0x80 PUSH2 0x111 DUP10 DUP3 DUP11 ADD PUSH2 0x8D JUMP JUMPDEST SWAP3 POP POP PUSH1 0xA0 PUSH2 0x122 DUP10 DUP3 DUP11 ADD PUSH2 0x8D JUMP JUMPDEST SWAP2 POP POP SWAP3 SWAP6 POP SWAP3 SWAP6 POP SWAP3 SWAP6 JUMP JUMPDEST PUSH2 0x8BD DUP1 PUSH2 0x13E PUSH1 0x0 CODECOPY PUSH1 0x0 RETURN INVALID PUSH1 0x80 PUSH1 0x40 MSTORE CALLVALUE DUP1 ISZERO PUSH2 0x10 JUMPI PUSH1 0x0 DUP1 REVERT JUMPDEST POP PUSH1 0x4 CALLDATASIZE LT PUSH2 0x88 JUMPI PUSH1 0x0 CALLDATALOAD PUSH1 0xE0 SHR DUP1 PUSH4 0x825D3C4A GT PUSH2 0x5B JUMPI DUP1 PUSH4 0x825D3C4A EQ PUSH2 0x117 JUMPI DUP1 PUSH4 0x85BCFBD8 EQ PUSH2 0x135 JUMPI DUP1 PUSH4 0x9D830EF8 EQ PUSH2 0x165 JUMPI DUP1 PUSH4 0xECF62E7E EQ PUSH2 0x183 JUMPI PUSH2 0x88 JUMP JUMPDEST DUP1 PUSH4 0x414BE42B EQ PUSH2 0x8D JUMPI DUP1 PUSH4 0x47BA7B21 EQ PUSH2 0xBD JUMPI DUP1 PUSH4 0x7785B716 EQ PUSH2 0xDB JUMPI DUP1 PUSH4 0x78A8AD5E EQ PUSH2 0xF9 JUMPI JUMPDEST PUSH1 0x0 DUP1 REVERT JUMPDEST PUSH2 0xA7 PUSH1 0x4 DUP1 CALLDATASIZE SUB DUP2 ADD SWAP1 PUSH2 0xA2 SWAP2 SWAP1 PUSH2 0x3D9 JUMP JUMPDEST PUSH2 0x1A1 JUMP JUMPDEST PUSH1 0x40 MLOAD PUSH2 0xB4 SWAP2 SWAP1 PUSH2 0x415 JUMP JUMPDEST PUSH1 0x40 MLOAD DUP1 SWAP2 SUB SWAP1 RETURN JUMPDEST PUSH2 0xC5 PUSH2 0x325 JUMP JUMPDEST PUSH1 0x40 MLOAD PUSH2 0xD2 SWAP2 SWAP1 PUSH2 0x415 JUMP JUMPDEST PUSH1 0x40 MLOAD DUP1 SWAP2 SUB SWAP1 RETURN JUMPDEST PUSH2 0xE3 PUSH2 0x32B JUMP JUMPDEST PUSH1 0x40 MLOAD PUSH2 0xF0 SWAP2 SWAP1 PUSH2 0x415 JUMP JUMPDEST PUSH1 0x40 MLOAD DUP1 SWAP2 SUB SWAP1 RETURN JUMPDEST PUSH2 0x101 PUSH2 0x331 JUMP JUMPDEST PUSH1 0x40 MLOAD PUSH2 0x10E SWAP2 SWAP1 PUSH2 0x415 JUMP JUMPDEST PUSH1 0x40 MLOAD DUP1 SWAP2 SUB SWAP1 RETURN JUMPDEST PUSH2 0x11F PUSH2 0x337 JUMP JUMPDEST PUSH1 0x40 MLOAD PUSH2 0x12C SWAP2 SWAP1 PUSH2 0x415 JUMP JUMPDEST PUSH1 0x40 MLOAD DUP1 SWAP2 SUB SWAP1 RETURN JUMPDEST PUSH2 0x14F PUSH1 0x4 DUP1 CALLDATASIZE SUB DUP2 ADD SWAP1 PUSH2 0x14A SWAP2 SWAP1 PUSH2 0x430 JUMP JUMPDEST PUSH2 0x33D JUMP JUMPDEST PUSH1 0x40 MLOAD PUSH2 0x15C SWAP2 SWAP1 PUSH2 0x415 JUMP JUMPDEST PUSH1 0x40 MLOAD DUP1 SWAP2 SUB SWAP1 RETURN JUMPDEST PUSH2 0x16D PUSH2 0x392 JUMP JUMPDEST PUSH1 0x40 MLOAD PUSH2 0x17A SWAP2 SWAP1 PUSH2 0x415 JUMP JUMPDEST PUSH1 0x40 MLOAD DUP1 SWAP2 SUB SWAP1 RETURN JUMPDEST PUSH2 0x18B PUSH2 0x398 JUMP JUMPDEST PUSH1 0x40 MLOAD PUSH2 0x198 SWAP2 SWAP1 PUSH2 0x415 JUMP JUMPDEST PUSH1 0x40 MLOAD DUP1 SWAP2 SUB SWAP1 RETURN JUMPDEST PUSH1 0x0 DUP1 PUSH8 0xDE0B6B3A7640000 SWAP1 POP PUSH1 0x0 DUP4 SLT ISZERO PUSH2 0x1F3 JUMPI PUSH1 0x40 MLOAD PUSH32 0x8C379A000000000000000000000000000000000000000000000000000000000 DUP2 MSTORE PUSH1 0x4 ADD PUSH2 0x1EA SWAP1 PUSH2 0x4F4 JUMP JUMPDEST PUSH1 0x40 MLOAD DUP1 SWAP2 SUB SWAP1 REVERT JUMPDEST DUP1 DUP4 SGT ISZERO PUSH2 0x236 JUMPI PUSH1 0x40 MLOAD PUSH32 0x8C379A000000000000000000000000000000000000000000000000000000000 DUP2 MSTORE PUSH1 0x4 ADD PUSH2 0x22D SWAP1 PUSH2 0x560 JUMP JUMPDEST PUSH1 0x40 MLOAD DUP1 SWAP2 SUB SWAP1 REVERT JUMPDEST PUSH1 0x4 SLOAD DUP4 SLT ISZERO PUSH2 0x272 JUMPI PUSH1 0x0 DUP1 SLOAD PUSH1 0x1 SLOAD PUSH2 0x251 SWAP2 SWAP1 PUSH2 0x5AF JUMP JUMPDEST SWAP1 POP PUSH1 0x0 PUSH1 0x4 SLOAD SWAP1 POP PUSH2 0x268 DUP3 DUP3 DUP8 PUSH1 0x0 SLOAD PUSH2 0x33D JUMP JUMPDEST SWAP4 POP POP POP POP PUSH2 0x320 JUMP JUMPDEST PUSH1 0x5 SLOAD DUP4 SLT ISZERO PUSH2 0x2C9 JUMPI PUSH1 0x0 PUSH1 0x1 SLOAD PUSH1 0x2 SLOAD PUSH2 0x28E SWAP2 SWAP1 PUSH2 0x5AF JUMP JUMPDEST SWAP1 POP PUSH1 0x0 PUSH1 0x4 SLOAD PUSH1 0x5 SLOAD PUSH2 0x2A2 SWAP2 SWAP1 PUSH2 0x5AF JUMP JUMPDEST SWAP1 POP PUSH2 0x2BF DUP3 DUP3 PUSH1 0x4 SLOAD DUP9 PUSH2 0x2B7 SWAP2 SWAP1 PUSH2 0x5AF JUMP JUMPDEST PUSH1 0x1 SLOAD PUSH2 0x33D JUMP JUMPDEST SWAP4 POP POP POP POP PUSH2 0x320 JUMP JUMPDEST DUP1 DUP4 SGT PUSH2 0x31B JUMPI PUSH1 0x0 PUSH1 0x2 SLOAD PUSH1 0x3 SLOAD PUSH2 0x2E2 SWAP2 SWAP1 PUSH2 0x5AF JUMP JUMPDEST SWAP1 POP PUSH1 0x0 PUSH1 0x5 SLOAD DUP4 PUSH2 0x2F4 SWAP2 SWAP1 PUSH2 0x5AF JUMP JUMPDEST SWAP1 POP PUSH2 0x311 DUP3 DUP3 PUSH1 0x5 SLOAD DUP9 PUSH2 0x309 SWAP2 SWAP1 PUSH2 0x5AF JUMP JUMPDEST PUSH1 0x2 SLOAD PUSH2 0x33D JUMP JUMPDEST SWAP4 POP POP POP POP PUSH2 0x320 JUMP JUMPDEST PUSH1 0x0 DUP1 REVERT JUMPDEST SWAP2 SWAP1 POP JUMP JUMPDEST PUSH1 0x0 SLOAD DUP2 JUMP JUMPDEST PUSH1 0x2 SLOAD DUP2 JUMP JUMPDEST PUSH1 0x4 SLOAD DUP2 JUMP JUMPDEST PUSH1 0x1 SLOAD DUP2 JUMP JUMPDEST PUSH1 0x0 DUP1 DUP5 PUSH3 0xF4240 DUP8 PUSH2 0x350 SWAP2 SWAP1 PUSH2 0x643 JUMP JUMPDEST PUSH2 0x35A SWAP2 SWAP1 PUSH2 0x789 JUMP JUMPDEST SWAP1 POP PUSH1 0x0 DUP4 PUSH3 0xF4240 DUP7 DUP5 PUSH2 0x36F SWAP2 SWAP1 PUSH2 0x643 JUMP JUMPDEST PUSH2 0x379 SWAP2 SWAP1 PUSH2 0x789 JUMP JUMPDEST PUSH2 0x383 SWAP2 SWAP1 PUSH2 0x7F3 JUMP JUMPDEST SWAP1 POP DUP1 SWAP3 POP POP POP SWAP5 SWAP4 POP POP POP POP JUMP JUMPDEST PUSH1 0x5 SLOAD DUP2 JUMP JUMPDEST PUSH1 0x3 SLOAD DUP2 JUMP JUMPDEST PUSH1 0x0 DUP1 REVERT JUMPDEST PUSH1 0x0 DUP2 SWAP1 POP SWAP2 SWAP1 POP JUMP JUMPDEST PUSH2 0x3B6 DUP2 PUSH2 0x3A3 JUMP JUMPDEST DUP2 EQ PUSH2 0x3C1 JUMPI PUSH1 0x0 DUP1 REVERT JUMPDEST POP JUMP JUMPDEST PUSH1 0x0 DUP2 CALLDATALOAD SWAP1 POP PUSH2 0x3D3 DUP2 PUSH2 0x3AD JUMP JUMPDEST SWAP3 SWAP2 POP POP JUMP JUMPDEST PUSH1 0x0 PUSH1 0x20 DUP3 DUP5 SUB SLT ISZERO PUSH2 0x3EF JUMPI PUSH2 0x3EE PUSH2 0x39E JUMP JUMPDEST JUMPDEST PUSH1 0x0 PUSH2 0x3FD DUP5 DUP3 DUP6 ADD PUSH2 0x3C4 JUMP JUMPDEST SWAP2 POP POP SWAP3 SWAP2 POP POP JUMP JUMPDEST PUSH2 0x40F DUP2 PUSH2 0x3A3 JUMP JUMPDEST DUP3 MSTORE POP POP JUMP JUMPDEST PUSH1 0x0 PUSH1 0x20 DUP3 ADD SWAP1 POP PUSH2 0x42A PUSH1 0x0 DUP4 ADD DUP5 PUSH2 0x406 JUMP JUMPDEST SWAP3 SWAP2 POP POP JUMP JUMPDEST PUSH1 0x0 DUP1 PUSH1 0x0 DUP1 PUSH1 0x80 DUP6 DUP8 SUB SLT ISZERO PUSH2 0x44A JUMPI PUSH2 0x449 PUSH2 0x39E JUMP JUMPDEST JUMPDEST PUSH1 0x0 PUSH2 0x458 DUP8 DUP3 DUP9 ADD PUSH2 0x3C4 JUMP JUMPDEST SWAP5 POP POP PUSH1 0x20 PUSH2 0x469 DUP8 DUP3 DUP9 ADD PUSH2 0x3C4 JUMP JUMPDEST SWAP4 POP POP PUSH1 0x40 PUSH2 0x47A DUP8 DUP3 DUP9 ADD PUSH2 0x3C4 JUMP JUMPDEST SWAP3 POP POP PUSH1 0x60 PUSH2 0x48B DUP8 DUP3 DUP9 ADD PUSH2 0x3C4 JUMP JUMPDEST SWAP2 POP POP SWAP3 SWAP6 SWAP2 SWAP5 POP SWAP3 POP JUMP JUMPDEST PUSH1 0x0 DUP3 DUP3 MSTORE PUSH1 0x20 DUP3 ADD SWAP1 POP SWAP3 SWAP2 POP POP JUMP JUMPDEST PUSH32 0x746F6F20736D616C6C0000000000000000000000000000000000000000000000 PUSH1 0x0 DUP3 ADD MSTORE POP JUMP JUMPDEST PUSH1 0x0 PUSH2 0x4DE PUSH1 0x9 DUP4 PUSH2 0x497 JUMP JUMPDEST SWAP2 POP PUSH2 0x4E9 DUP3 PUSH2 0x4A8 JUMP JUMPDEST PUSH1 0x20 DUP3 ADD SWAP1 POP SWAP2 SWAP1 POP JUMP JUMPDEST PUSH1 0x0 PUSH1 0x20 DUP3 ADD SWAP1 POP DUP2 DUP2 SUB PUSH1 0x0 DUP4 ADD MSTORE PUSH2 0x50D DUP2 PUSH2 0x4D1 JUMP JUMPDEST SWAP1 POP SWAP2 SWAP1 POP JUMP JUMPDEST PUSH32 0x746F6F206C617267650000000000000000000000000000000000000000000000 PUSH1 0x0 DUP3 ADD MSTORE POP JUMP JUMPDEST PUSH1 0x0 PUSH2 0x54A PUSH1 0x9 DUP4 PUSH2 0x497 JUMP JUMPDEST SWAP2 POP PUSH2 0x555 DUP3 PUSH2 0x514 JUMP JUMPDEST PUSH1 0x20 DUP3 ADD SWAP1 POP SWAP2 SWAP1 POP JUMP JUMPDEST PUSH1 0x0 PUSH1 0x20 DUP3 ADD SWAP1 POP DUP2 DUP2 SUB PUSH1 0x0 DUP4 ADD MSTORE PUSH2 0x579 DUP2 PUSH2 0x53D JUMP JUMPDEST SWAP1 POP SWAP2 SWAP1 POP JUMP JUMPDEST PUSH32 0x4E487B7100000000000000000000000000000000000000000000000000000000 PUSH1 0x0 MSTORE PUSH1 0x11 PUSH1 0x4 MSTORE PUSH1 0x24 PUSH1 0x0 REVERT JUMPDEST PUSH1 0x0 PUSH2 0x5BA DUP3 PUSH2 0x3A3 JUMP JUMPDEST SWAP2 POP PUSH2 0x5C5 DUP4 PUSH2 0x3A3 JUMP JUMPDEST SWAP3 POP DUP3 PUSH32 0x8000000000000000000000000000000000000000000000000000000000000000 ADD DUP3 SLT PUSH1 0x0 DUP5 SLT ISZERO AND ISZERO PUSH2 0x600 JUMPI PUSH2 0x5FF PUSH2 0x580 JUMP JUMPDEST JUMPDEST DUP3 PUSH32 0x7FFFFFFFFFFFFFFFFFFFFFFFFFFFFFFFFFFFFFFFFFFFFFFFFFFFFFFFFFFFFFFF ADD DUP3 SGT PUSH1 0x0 DUP5 SLT AND ISZERO PUSH2 0x638 JUMPI PUSH2 0x637 PUSH2 0x580 JUMP JUMPDEST JUMPDEST DUP3 DUP3 SUB SWAP1 POP SWAP3 SWAP2 POP POP JUMP JUMPDEST PUSH1 0x0 PUSH2 0x64E DUP3 PUSH2 0x3A3 JUMP JUMPDEST SWAP2 POP PUSH2 0x659 DUP4 PUSH2 0x3A3 JUMP JUMPDEST SWAP3 POP DUP3 PUSH32 0x7FFFFFFFFFFFFFFFFFFFFFFFFFFFFFFFFFFFFFFFFFFFFFFFFFFFFFFFFFFFFFFF DIV DUP3 GT PUSH1 0x0 DUP5 SGT PUSH1 0x0 DUP5 SGT AND AND ISZERO PUSH2 0x698 JUMPI PUSH2 0x697 PUSH2 0x580 JUMP JUMPDEST JUMPDEST DUP2 PUSH32 0x8000000000000000000000000000000000000000000000000000000000000000 SDIV DUP4 SLT PUSH1 0x0 DUP5 SLT PUSH1 0x0 DUP5 SGT AND AND ISZERO PUSH2 0x6D5 JUMPI PUSH2 0x6D4 PUSH2 0x580 JUMP JUMPDEST JUMPDEST DUP3 PUSH32 0x8000000000000000000000000000000000000000000000000000000000000000 SDIV DUP3 SLT PUSH1 0x0 DUP5 SGT PUSH1 0x0 DUP5 SLT AND AND ISZERO PUSH2 0x712 JUMPI PUSH2 0x711 PUSH2 0x580 JUMP JUMPDEST JUMPDEST DUP3 PUSH32 0x7FFFFFFFFFFFFFFFFFFFFFFFFFFFFFFFFFFFFFFFFFFFFFFFFFFFFFFFFFFFFFFF SDIV DUP3 SLT PUSH1 0x0 DUP5 SLT PUSH1 0x0 DUP5 SLT AND AND ISZERO PUSH2 0x74F JUMPI PUSH2 0x74E PUSH2 0x580 JUMP JUMPDEST JUMPDEST DUP3 DUP3 MUL SWAP1 POP SWAP3 SWAP2 POP POP JUMP JUMPDEST PUSH32 0x4E487B7100000000000000000000000000000000000000000000000000000000 PUSH1 0x0 MSTORE PUSH1 0x12 PUSH1 0x4 MSTORE PUSH1 0x24 PUSH1 0x0 REVERT JUMPDEST PUSH1 0x0 PUSH2 0x794 DUP3 PUSH2 0x3A3 JUMP JUMPDEST SWAP2 POP PUSH2 0x79F DUP4 PUSH2 0x3A3 JUMP JUMPDEST SWAP3 POP DUP3 PUSH2 0x7AF JUMPI PUSH2 0x7AE PUSH2 0x75A JUMP JUMPDEST JUMPDEST PUSH1 0x1 PUSH1 0x0 SUB DUP4 EQ PUSH32 0x8000000000000000000000000000000000000000000000000000000000000000 DUP4 EQ AND ISZERO PUSH2 0x7E8 JUMPI PUSH2 0x7E7 PUSH2 0x580 JUMP JUMPDEST JUMPDEST DUP3 DUP3 SDIV SWAP1 POP SWAP3 SWAP2 POP POP JUMP JUMPDEST PUSH1 0x0 PUSH2 0x7FE DUP3 PUSH2 0x3A3 JUMP JUMPDEST SWAP2 POP PUSH2 0x809 DUP4 PUSH2 0x3A3 JUMP JUMPDEST SWAP3 POP DUP2 PUSH32 0x7FFFFFFFFFFFFFFFFFFFFFFFFFFFFFFFFFFFFFFFFFFFFFFFFFFFFFFFFFFFFFFF SUB DUP4 SGT PUSH1 0x0 DUP4 SLT ISZERO AND ISZERO PUSH2 0x844 JUMPI PUSH2 0x843 PUSH2 0x580 JUMP JUMPDEST JUMPDEST DUP2 PUSH32 0x8000000000000000000000000000000000000000000000000000000000000000 SUB DUP4 SLT PUSH1 0x0 DUP4 SLT AND ISZERO PUSH2 0x87C JUMPI PUSH2 0x87B PUSH2 0x580 JUMP JUMPDEST JUMPDEST DUP3 DUP3 ADD SWAP1 POP SWAP3 SWAP2 POP POP JUMP INVALID LOG2 PUSH5 0x6970667358 0x22 SLT KECCAK256 PUSH9 0x906BD720F2A5010859 CREATE 0xAC LT DUP14 OR GAS PC EXTCODEHASH SIGNEXTEND PUSH19 0x6EE982932A97104CE315CCDA64736F6C634300 ADDMOD MULMOD STOP CALLER "
        },
        "methodIdentifiers": {
          "_r0()": "47ba7b21",
          "_r1()": "825d3c4a",
          "_r2()": "7785b716",
          "_r3()": "ecf62e7e",
          "_s0()": "78a8ad5e",
          "_s1()": "9d830ef8",
          "linearInterpolation(int256,int256,int256,int256)": "85bcfbd8",
          "valueAt(int256)": "414be42b"
        }
      }
    }
  }
}