{
  "_format": "hh-sol-artifact-1",
  "contractName": "GovernorCharlieDelegate",
  "sourceName": "contracts/governance/governor/GovernorDelegate.sol",
  "abi": [
    {
      "anonymous": false,
      "inputs": [
        {
          "indexed": true,
          "internalType": "bytes32",
          "name": "txHash",
          "type": "bytes32"
        },
        {
          "indexed": true,
          "internalType": "address",
          "name": "target",
          "type": "address"
        },
        {
          "indexed": false,
          "internalType": "uint256",
          "name": "value",
          "type": "uint256"
        },
        {
          "indexed": false,
          "internalType": "string",
          "name": "signature",
          "type": "string"
        },
        {
          "indexed": false,
          "internalType": "bytes",
          "name": "data",
          "type": "bytes"
        },
        {
          "indexed": false,
          "internalType": "uint256",
          "name": "eta",
          "type": "uint256"
        }
      ],
      "name": "CancelTransaction",
      "type": "event"
    },
    {
      "anonymous": false,
      "inputs": [
        {
          "indexed": false,
          "internalType": "uint256",
          "name": "oldEmergencyVotingPeriod",
          "type": "uint256"
        },
        {
          "indexed": false,
          "internalType": "uint256",
          "name": "emergencyVotingPeriod",
          "type": "uint256"
        }
      ],
      "name": "EmergencyVotingPeriodSet",
      "type": "event"
    },
    {
      "anonymous": false,
      "inputs": [
        {
          "indexed": true,
          "internalType": "bytes32",
          "name": "txHash",
          "type": "bytes32"
        },
        {
          "indexed": true,
          "internalType": "address",
          "name": "target",
          "type": "address"
        },
        {
          "indexed": false,
          "internalType": "uint256",
          "name": "value",
          "type": "uint256"
        },
        {
          "indexed": false,
          "internalType": "string",
          "name": "signature",
          "type": "string"
        },
        {
          "indexed": false,
          "internalType": "bytes",
          "name": "data",
          "type": "bytes"
        },
        {
          "indexed": false,
          "internalType": "uint256",
          "name": "eta",
          "type": "uint256"
        }
      ],
      "name": "ExecuteTransaction",
      "type": "event"
    },
    {
      "anonymous": false,
      "inputs": [
        {
          "indexed": false,
          "internalType": "address",
          "name": "oldAdmin",
          "type": "address"
        },
        {
          "indexed": false,
          "internalType": "address",
          "name": "newAdmin",
          "type": "address"
        }
      ],
      "name": "NewAdmin",
      "type": "event"
    },
    {
      "anonymous": false,
      "inputs": [
        {
          "indexed": false,
          "internalType": "uint256",
          "name": "oldTimelockDelay",
          "type": "uint256"
        },
        {
          "indexed": false,
          "internalType": "uint256",
          "name": "proposalTimelockDelay",
          "type": "uint256"
        }
      ],
      "name": "NewDelay",
      "type": "event"
    },
    {
      "anonymous": false,
      "inputs": [
        {
          "indexed": false,
          "internalType": "uint256",
          "name": "oldEmergencyTimelockDelay",
          "type": "uint256"
        },
        {
          "indexed": false,
          "internalType": "uint256",
          "name": "emergencyTimelockDelay",
          "type": "uint256"
        }
      ],
      "name": "NewEmergencyDelay",
      "type": "event"
    },
    {
      "anonymous": false,
      "inputs": [
        {
          "indexed": false,
          "internalType": "uint256",
          "name": "oldEmergencyQuorumVotes",
          "type": "uint256"
        },
        {
          "indexed": false,
          "internalType": "uint256",
          "name": "emergencyQuorumVotes",
          "type": "uint256"
        }
      ],
      "name": "NewEmergencyQuorum",
      "type": "event"
    },
    {
      "anonymous": false,
      "inputs": [
        {
          "indexed": false,
          "internalType": "address",
          "name": "oldImplementation",
          "type": "address"
        },
        {
          "indexed": false,
          "internalType": "address",
          "name": "newImplementation",
          "type": "address"
        }
      ],
      "name": "NewImplementation",
      "type": "event"
    },
    {
      "anonymous": false,
      "inputs": [
        {
          "indexed": false,
          "internalType": "address",
          "name": "oldPendingAdmin",
          "type": "address"
        },
        {
          "indexed": false,
          "internalType": "address",
          "name": "newPendingAdmin",
          "type": "address"
        }
      ],
      "name": "NewPendingAdmin",
      "type": "event"
    },
    {
      "anonymous": false,
      "inputs": [
        {
          "indexed": false,
          "internalType": "uint256",
          "name": "oldQuorumVotes",
          "type": "uint256"
        },
        {
          "indexed": false,
          "internalType": "uint256",
          "name": "quorumVotes",
          "type": "uint256"
        }
      ],
      "name": "NewQuorum",
      "type": "event"
    },
    {
      "anonymous": false,
      "inputs": [
        {
          "indexed": false,
          "internalType": "uint256",
          "name": "id",
          "type": "uint256"
        }
      ],
      "name": "ProposalCanceled",
      "type": "event"
    },
    {
      "anonymous": false,
      "inputs": [
        {
          "indexed": false,
          "internalType": "uint256",
          "name": "id",
          "type": "uint256"
        },
        {
          "indexed": false,
          "internalType": "address",
          "name": "proposer",
          "type": "address"
        },
        {
          "indexed": false,
          "internalType": "address[]",
          "name": "targets",
          "type": "address[]"
        },
        {
          "indexed": false,
          "internalType": "uint256[]",
          "name": "values",
          "type": "uint256[]"
        },
        {
          "indexed": false,
          "internalType": "string[]",
          "name": "signatures",
          "type": "string[]"
        },
        {
          "indexed": false,
          "internalType": "bytes[]",
          "name": "calldatas",
          "type": "bytes[]"
        },
        {
          "indexed": false,
          "internalType": "uint256",
          "name": "startBlock",
          "type": "uint256"
        },
        {
          "indexed": false,
          "internalType": "uint256",
          "name": "endBlock",
          "type": "uint256"
        },
        {
          "indexed": false,
          "internalType": "string",
          "name": "description",
          "type": "string"
        }
      ],
      "name": "ProposalCreated",
      "type": "event"
    },
    {
      "anonymous": false,
      "inputs": [
        {
          "indexed": false,
          "internalType": "uint256",
          "name": "id",
          "type": "uint256"
        }
      ],
      "name": "ProposalExecuted",
      "type": "event"
    },
    {
      "anonymous": false,
      "inputs": [
        {
          "indexed": false,
          "internalType": "uint256",
          "name": "id",
          "type": "uint256"
        },
        {
          "indexed": false,
          "internalType": "uint256",
          "name": "eta",
          "type": "uint256"
        }
      ],
      "name": "ProposalQueued",
      "type": "event"
    },
    {
      "anonymous": false,
      "inputs": [
        {
          "indexed": false,
          "internalType": "uint256",
          "name": "oldProposalThreshold",
          "type": "uint256"
        },
        {
          "indexed": false,
          "internalType": "uint256",
          "name": "newProposalThreshold",
          "type": "uint256"
        }
      ],
      "name": "ProposalThresholdSet",
      "type": "event"
    },
    {
      "anonymous": false,
      "inputs": [
        {
          "indexed": true,
          "internalType": "bytes32",
          "name": "txHash",
          "type": "bytes32"
        },
        {
          "indexed": true,
          "internalType": "address",
          "name": "target",
          "type": "address"
        },
        {
          "indexed": false,
          "internalType": "uint256",
          "name": "value",
          "type": "uint256"
        },
        {
          "indexed": false,
          "internalType": "string",
          "name": "signature",
          "type": "string"
        },
        {
          "indexed": false,
          "internalType": "bytes",
          "name": "data",
          "type": "bytes"
        },
        {
          "indexed": false,
          "internalType": "uint256",
          "name": "eta",
          "type": "uint256"
        }
      ],
      "name": "QueueTransaction",
      "type": "event"
    },
    {
      "anonymous": false,
      "inputs": [
        {
          "indexed": true,
          "internalType": "address",
          "name": "voter",
          "type": "address"
        },
        {
          "indexed": false,
          "internalType": "uint256",
          "name": "proposalId",
          "type": "uint256"
        },
        {
          "indexed": false,
          "internalType": "uint8",
          "name": "support",
          "type": "uint8"
        },
        {
          "indexed": false,
          "internalType": "uint256",
          "name": "votes",
          "type": "uint256"
        },
        {
          "indexed": false,
          "internalType": "string",
          "name": "reason",
          "type": "string"
        }
      ],
      "name": "VoteCast",
      "type": "event"
    },
    {
      "anonymous": false,
      "inputs": [
        {
          "indexed": false,
          "internalType": "uint256",
          "name": "oldVotingDelay",
          "type": "uint256"
        },
        {
          "indexed": false,
          "internalType": "uint256",
          "name": "newVotingDelay",
          "type": "uint256"
        }
      ],
      "name": "VotingDelaySet",
      "type": "event"
    },
    {
      "anonymous": false,
      "inputs": [
        {
          "indexed": false,
          "internalType": "uint256",
          "name": "oldVotingPeriod",
          "type": "uint256"
        },
        {
          "indexed": false,
          "internalType": "uint256",
          "name": "newVotingPeriod",
          "type": "uint256"
        }
      ],
      "name": "VotingPeriodSet",
      "type": "event"
    },
    {
      "anonymous": false,
      "inputs": [
        {
          "indexed": false,
          "internalType": "address",
          "name": "account",
          "type": "address"
        },
        {
          "indexed": false,
          "internalType": "uint256",
          "name": "expiration",
          "type": "uint256"
        }
      ],
      "name": "WhitelistAccountExpirationSet",
      "type": "event"
    },
    {
      "anonymous": false,
      "inputs": [
        {
          "indexed": false,
          "internalType": "address",
          "name": "oldGuardian",
          "type": "address"
        },
        {
          "indexed": false,
          "internalType": "address",
          "name": "newGuardian",
          "type": "address"
        }
      ],
      "name": "WhitelistGuardianSet",
      "type": "event"
    },
    {
      "inputs": [],
      "name": "BALLOT_TYPEHASH",
      "outputs": [
        {
          "internalType": "bytes32",
          "name": "",
          "type": "bytes32"
        }
      ],
      "stateMutability": "view",
      "type": "function"
    },
    {
      "inputs": [],
      "name": "DOMAIN_TYPEHASH",
      "outputs": [
        {
          "internalType": "bytes32",
          "name": "",
          "type": "bytes32"
        }
      ],
      "stateMutability": "view",
      "type": "function"
    },
    {
      "inputs": [],
      "name": "GRACE_PERIOD",
      "outputs": [
        {
          "internalType": "uint256",
          "name": "",
          "type": "uint256"
        }
      ],
      "stateMutability": "view",
      "type": "function"
    },
    {
      "inputs": [
        {
          "internalType": "uint256",
          "name": "proposalTimelockDelay_",
          "type": "uint256"
        }
      ],
      "name": "_setDelay",
      "outputs": [],
      "stateMutability": "nonpayable",
      "type": "function"
    },
    {
      "inputs": [
        {
          "internalType": "uint256",
          "name": "emergencyTimelockDelay_",
          "type": "uint256"
        }
      ],
      "name": "_setEmergencyDelay",
      "outputs": [],
      "stateMutability": "nonpayable",
      "type": "function"
    },
    {
      "inputs": [
        {
          "internalType": "uint256",
          "name": "newEmergencyQuorumVotes",
          "type": "uint256"
        }
      ],
      "name": "_setEmergencyQuorumVotes",
      "outputs": [],
      "stateMutability": "nonpayable",
      "type": "function"
    },
    {
      "inputs": [
        {
          "internalType": "uint256",
          "name": "newEmergencyVotingPeriod",
          "type": "uint256"
        }
      ],
      "name": "_setEmergencyVotingPeriod",
      "outputs": [],
      "stateMutability": "nonpayable",
      "type": "function"
    },
    {
      "inputs": [
        {
          "internalType": "uint256",
          "name": "newProposalThreshold",
          "type": "uint256"
        }
      ],
      "name": "_setProposalThreshold",
      "outputs": [],
      "stateMutability": "nonpayable",
      "type": "function"
    },
    {
      "inputs": [
        {
          "internalType": "uint256",
          "name": "newQuorumVotes",
          "type": "uint256"
        }
      ],
      "name": "_setQuorumVotes",
      "outputs": [],
      "stateMutability": "nonpayable",
      "type": "function"
    },
    {
      "inputs": [
        {
          "internalType": "uint256",
          "name": "newVotingDelay",
          "type": "uint256"
        }
      ],
      "name": "_setVotingDelay",
      "outputs": [],
      "stateMutability": "nonpayable",
      "type": "function"
    },
    {
      "inputs": [
        {
          "internalType": "uint256",
          "name": "newVotingPeriod",
          "type": "uint256"
        }
      ],
      "name": "_setVotingPeriod",
      "outputs": [],
      "stateMutability": "nonpayable",
      "type": "function"
    },
    {
      "inputs": [
        {
          "internalType": "address",
          "name": "account",
          "type": "address"
        },
        {
          "internalType": "uint256",
          "name": "expiration",
          "type": "uint256"
        }
      ],
      "name": "_setWhitelistAccountExpiration",
      "outputs": [],
      "stateMutability": "nonpayable",
      "type": "function"
    },
    {
      "inputs": [
        {
          "internalType": "address",
          "name": "account",
          "type": "address"
        }
      ],
      "name": "_setWhitelistGuardian",
      "outputs": [],
      "stateMutability": "nonpayable",
      "type": "function"
    },
    {
      "inputs": [
        {
          "internalType": "uint256",
          "name": "proposalId",
          "type": "uint256"
        }
      ],
      "name": "cancel",
      "outputs": [],
      "stateMutability": "nonpayable",
      "type": "function"
    },
    {
      "inputs": [
        {
          "internalType": "uint256",
          "name": "proposalId",
          "type": "uint256"
        },
        {
          "internalType": "uint8",
          "name": "support",
          "type": "uint8"
        }
      ],
      "name": "castVote",
      "outputs": [],
      "stateMutability": "nonpayable",
      "type": "function"
    },
    {
      "inputs": [
        {
          "internalType": "uint256",
          "name": "proposalId",
          "type": "uint256"
        },
        {
          "internalType": "uint8",
          "name": "support",
          "type": "uint8"
        },
        {
          "internalType": "uint8",
          "name": "v",
          "type": "uint8"
        },
        {
          "internalType": "bytes32",
          "name": "r",
          "type": "bytes32"
        },
        {
          "internalType": "bytes32",
          "name": "s",
          "type": "bytes32"
        }
      ],
      "name": "castVoteBySig",
      "outputs": [],
      "stateMutability": "nonpayable",
      "type": "function"
    },
    {
      "inputs": [
        {
          "internalType": "uint256",
          "name": "proposalId",
          "type": "uint256"
        },
        {
          "internalType": "uint8",
          "name": "support",
          "type": "uint8"
        },
        {
          "internalType": "string",
          "name": "reason",
          "type": "string"
        }
      ],
      "name": "castVoteWithReason",
      "outputs": [],
      "stateMutability": "nonpayable",
      "type": "function"
    },
    {
      "inputs": [],
      "name": "emergencyQuorumVotes",
      "outputs": [
        {
          "internalType": "uint256",
          "name": "",
          "type": "uint256"
        }
      ],
      "stateMutability": "view",
      "type": "function"
    },
    {
      "inputs": [],
      "name": "emergencyTimelockDelay",
      "outputs": [
        {
          "internalType": "uint256",
          "name": "",
          "type": "uint256"
        }
      ],
      "stateMutability": "view",
      "type": "function"
    },
    {
      "inputs": [],
      "name": "emergencyVotingPeriod",
      "outputs": [
        {
          "internalType": "uint256",
          "name": "",
          "type": "uint256"
        }
      ],
      "stateMutability": "view",
      "type": "function"
    },
    {
      "inputs": [
        {
          "internalType": "uint256",
          "name": "proposalId",
          "type": "uint256"
        }
      ],
      "name": "execute",
      "outputs": [],
      "stateMutability": "payable",
      "type": "function"
    },
    {
      "inputs": [
        {
          "internalType": "address",
          "name": "target",
          "type": "address"
        },
        {
          "internalType": "uint256",
          "name": "value",
          "type": "uint256"
        },
        {
          "internalType": "string",
          "name": "signature",
          "type": "string"
        },
        {
          "internalType": "bytes",
          "name": "data",
          "type": "bytes"
        },
        {
          "internalType": "uint256",
          "name": "eta",
          "type": "uint256"
        }
      ],
      "name": "executeTransaction",
      "outputs": [
        {
          "internalType": "bytes",
          "name": "",
          "type": "bytes"
        }
      ],
      "stateMutability": "payable",
      "type": "function"
    },
    {
      "inputs": [
        {
          "internalType": "uint256",
          "name": "proposalId",
          "type": "uint256"
        }
      ],
      "name": "getActions",
      "outputs": [
        {
          "internalType": "address[]",
          "name": "targets",
          "type": "address[]"
        },
        {
          "internalType": "uint256[]",
          "name": "values",
          "type": "uint256[]"
        },
        {
          "internalType": "string[]",
          "name": "signatures",
          "type": "string[]"
        },
        {
          "internalType": "bytes[]",
          "name": "calldatas",
          "type": "bytes[]"
        }
      ],
      "stateMutability": "view",
      "type": "function"
    },
    {
      "inputs": [
        {
          "internalType": "uint256",
          "name": "proposalId",
          "type": "uint256"
        },
        {
          "internalType": "address",
          "name": "voter",
          "type": "address"
        }
      ],
      "name": "getReceipt",
      "outputs": [
        {
          "components": [
            {
              "internalType": "bool",
              "name": "hasVoted",
              "type": "bool"
            },
            {
              "internalType": "uint8",
              "name": "support",
              "type": "uint8"
            },
            {
              "internalType": "uint96",
              "name": "votes",
              "type": "uint96"
            }
          ],
          "internalType": "struct Receipt",
          "name": "",
          "type": "tuple"
        }
      ],
      "stateMutability": "view",
      "type": "function"
    },
    {
      "inputs": [],
      "name": "implementation",
      "outputs": [
        {
          "internalType": "address",
          "name": "",
          "type": "address"
        }
      ],
      "stateMutability": "view",
      "type": "function"
    },
    {
      "inputs": [],
      "name": "initialProposalId",
      "outputs": [
        {
          "internalType": "uint256",
          "name": "",
          "type": "uint256"
        }
      ],
      "stateMutability": "view",
      "type": "function"
    },
    {
      "inputs": [
        {
          "internalType": "address",
          "name": "ipt_",
          "type": "address"
        },
        {
          "internalType": "uint256",
          "name": "votingPeriod_",
          "type": "uint256"
        },
        {
          "internalType": "uint256",
          "name": "votingDelay_",
          "type": "uint256"
        },
        {
          "internalType": "uint256",
          "name": "proposalThreshold_",
          "type": "uint256"
        },
        {
          "internalType": "uint256",
          "name": "proposalTimelockDelay_",
          "type": "uint256"
        },
        {
          "internalType": "uint256",
          "name": "quorumVotes_",
          "type": "uint256"
        },
        {
          "internalType": "uint256",
          "name": "emergencyQuorumVotes_",
          "type": "uint256"
        },
        {
          "internalType": "uint256",
          "name": "emergencyVotingPeriod_",
          "type": "uint256"
        },
        {
          "internalType": "uint256",
          "name": "emergencyTimelockDelay_",
          "type": "uint256"
        }
      ],
      "name": "initialize",
      "outputs": [],
      "stateMutability": "nonpayable",
      "type": "function"
    },
    {
      "inputs": [],
      "name": "initialized",
      "outputs": [
        {
          "internalType": "bool",
          "name": "",
          "type": "bool"
        }
      ],
      "stateMutability": "view",
      "type": "function"
    },
    {
      "inputs": [],
      "name": "ipt",
      "outputs": [
        {
          "internalType": "contract IIpt",
          "name": "",
          "type": "address"
        }
      ],
      "stateMutability": "view",
      "type": "function"
    },
    {
      "inputs": [
        {
          "internalType": "address",
          "name": "account",
          "type": "address"
        }
      ],
      "name": "isWhitelisted",
      "outputs": [
        {
          "internalType": "bool",
          "name": "",
          "type": "bool"
        }
      ],
      "stateMutability": "view",
      "type": "function"
    },
    {
      "inputs": [
        {
          "internalType": "address",
          "name": "",
          "type": "address"
        }
      ],
      "name": "latestProposalIds",
      "outputs": [
        {
          "internalType": "uint256",
          "name": "",
          "type": "uint256"
        }
      ],
      "stateMutability": "view",
      "type": "function"
    },
    {
      "inputs": [],
      "name": "name",
      "outputs": [
        {
          "internalType": "string",
          "name": "",
          "type": "string"
        }
      ],
      "stateMutability": "view",
      "type": "function"
    },
    {
      "inputs": [],
      "name": "proposalCount",
      "outputs": [
        {
          "internalType": "uint256",
          "name": "",
          "type": "uint256"
        }
      ],
      "stateMutability": "view",
      "type": "function"
    },
    {
      "inputs": [],
      "name": "proposalMaxOperations",
      "outputs": [
        {
          "internalType": "uint256",
          "name": "",
          "type": "uint256"
        }
      ],
      "stateMutability": "view",
      "type": "function"
    },
    {
      "inputs": [
        {
          "internalType": "uint256",
          "name": "",
          "type": "uint256"
        },
        {
          "internalType": "address",
          "name": "",
          "type": "address"
        }
      ],
      "name": "proposalReceipts",
      "outputs": [
        {
          "internalType": "bool",
          "name": "hasVoted",
          "type": "bool"
        },
        {
          "internalType": "uint8",
          "name": "support",
          "type": "uint8"
        },
        {
          "internalType": "uint96",
          "name": "votes",
          "type": "uint96"
        }
      ],
      "stateMutability": "view",
      "type": "function"
    },
    {
      "inputs": [],
      "name": "proposalThreshold",
      "outputs": [
        {
          "internalType": "uint256",
          "name": "",
          "type": "uint256"
        }
      ],
      "stateMutability": "view",
      "type": "function"
    },
    {
      "inputs": [],
      "name": "proposalTimelockDelay",
      "outputs": [
        {
          "internalType": "uint256",
          "name": "",
          "type": "uint256"
        }
      ],
      "stateMutability": "view",
      "type": "function"
    },
    {
      "inputs": [
        {
          "internalType": "uint256",
          "name": "",
          "type": "uint256"
        }
      ],
      "name": "proposals",
      "outputs": [
        {
          "internalType": "uint256",
          "name": "id",
          "type": "uint256"
        },
        {
          "internalType": "address",
          "name": "proposer",
          "type": "address"
        },
        {
          "internalType": "uint256",
          "name": "eta",
          "type": "uint256"
        },
        {
          "internalType": "uint256",
          "name": "startBlock",
          "type": "uint256"
        },
        {
          "internalType": "uint256",
          "name": "endBlock",
          "type": "uint256"
        },
        {
          "internalType": "uint256",
          "name": "forVotes",
          "type": "uint256"
        },
        {
          "internalType": "uint256",
          "name": "againstVotes",
          "type": "uint256"
        },
        {
          "internalType": "uint256",
          "name": "abstainVotes",
          "type": "uint256"
        },
        {
          "internalType": "bool",
          "name": "canceled",
          "type": "bool"
        },
        {
          "internalType": "bool",
          "name": "executed",
          "type": "bool"
        },
        {
          "internalType": "bool",
          "name": "emergency",
          "type": "bool"
        },
        {
          "internalType": "uint256",
          "name": "quorumVotes",
          "type": "uint256"
        },
        {
          "internalType": "uint256",
          "name": "delay",
          "type": "uint256"
        }
      ],
      "stateMutability": "view",
      "type": "function"
    },
    {
      "inputs": [
        {
          "internalType": "address[]",
          "name": "targets",
          "type": "address[]"
        },
        {
          "internalType": "uint256[]",
          "name": "values",
          "type": "uint256[]"
        },
        {
          "internalType": "string[]",
          "name": "signatures",
          "type": "string[]"
        },
        {
          "internalType": "bytes[]",
          "name": "calldatas",
          "type": "bytes[]"
        },
        {
          "internalType": "string",
          "name": "description",
          "type": "string"
        },
        {
          "internalType": "bool",
          "name": "emergency",
          "type": "bool"
        }
      ],
      "name": "propose",
      "outputs": [
        {
          "internalType": "uint256",
          "name": "",
          "type": "uint256"
        }
      ],
      "stateMutability": "nonpayable",
      "type": "function"
    },
    {
      "inputs": [
        {
          "internalType": "uint256",
          "name": "proposalId",
          "type": "uint256"
        }
      ],
      "name": "queue",
      "outputs": [],
      "stateMutability": "nonpayable",
      "type": "function"
    },
    {
      "inputs": [
        {
          "internalType": "bytes32",
          "name": "",
          "type": "bytes32"
        }
      ],
      "name": "queuedTransactions",
      "outputs": [
        {
          "internalType": "bool",
          "name": "",
          "type": "bool"
        }
      ],
      "stateMutability": "view",
      "type": "function"
    },
    {
      "inputs": [],
      "name": "quorumVotes",
      "outputs": [
        {
          "internalType": "uint256",
          "name": "",
          "type": "uint256"
        }
      ],
      "stateMutability": "view",
      "type": "function"
    },
    {
      "inputs": [
        {
          "internalType": "uint256",
          "name": "proposalId",
          "type": "uint256"
        }
      ],
      "name": "state",
      "outputs": [
        {
          "internalType": "enum ProposalState",
          "name": "",
          "type": "uint8"
        }
      ],
      "stateMutability": "view",
      "type": "function"
    },
    {
      "inputs": [],
      "name": "votingDelay",
      "outputs": [
        {
          "internalType": "uint256",
          "name": "",
          "type": "uint256"
        }
      ],
      "stateMutability": "view",
      "type": "function"
    },
    {
      "inputs": [],
      "name": "votingPeriod",
      "outputs": [
        {
          "internalType": "uint256",
          "name": "",
          "type": "uint256"
        }
      ],
      "stateMutability": "view",
      "type": "function"
    },
    {
      "inputs": [
        {
          "internalType": "address",
          "name": "",
          "type": "address"
        }
      ],
      "name": "whitelistAccountExpirations",
      "outputs": [
        {
          "internalType": "uint256",
          "name": "",
          "type": "uint256"
        }
      ],
      "stateMutability": "view",
      "type": "function"
    },
    {
      "inputs": [],
      "name": "whitelistGuardian",
      "outputs": [
        {
          "internalType": "address",
          "name": "",
          "type": "address"
        }
      ],
      "stateMutability": "view",
      "type": "function"
    }
  ],
  "bytecode": "0x608060405234801561001057600080fd5b50613c5b806100206000396000f3fe6080604052600436106102885760003560e01c8063661767431161015a578063da35c664116100c1578063f2b065371161007a578063f2b06537146109fe578063f682e04c14610a2e578063fc176c0414610a4e578063fc4eee4214610a6e578063fc66ff1414610a84578063fe0d94c114610aa457600080fd5b8063da35c66414610898578063ddf0b009146108ae578063de7bc127146108ce578063deaaa7cc146108e4578063e23a9a5214610918578063f0843ba8146109de57600080fd5b8063abaac6a811610113578063abaac6a8146107f5578063b58131b014610815578063c1a287e21461082b578063c5a8425d14610842578063d114e6fc14610862578063d50572ee1461088257600080fd5b806366176743146106ec5780637b3c71d31461076a5780637bdbe4d01461078a5780637cae57bb1461079f57806386d37e8b146107b557806399533365146107d557600080fd5b806324bc1a64116101fe5780633e4f49e6116101b75780633e4f49e61461060757806340e58ee5146106345780634d6733d214610654578063504420981461067457806356781388146106945780635c60da1b146106b457600080fd5b806324bc1a6414610526578063328dd9821461053c57806338bd0dda1461056c5780633932abb1146105995780633af32abf146105af5780633bccf4fd146105e757600080fd5b8063158ef93e11610250578063158ef93e1461044557806317977c611461046f57806317ba1b8b1461049c57806318b62629146104bc5780631dfb1b5a146104d257806320606b70146104f257600080fd5b8063013cf08b1461028d57806302a251a31461039657806306fdde03146103ba5780630825f38f146104105780630ea2d98c14610423575b600080fd5b34801561029957600080fd5b506103216102a8366004613085565b60096020819052600091825260409091208054600182015460028301546007840154600885015495850154600a860154600b870154600c880154600d890154600e9099015497996001600160a01b0390971698959794969593949293919260ff808316936101008404821693620100009004909116918d565b604080519d8e526001600160a01b03909c1660208e01529a8c019990995260608b019790975260808a019590955260a089019390935260c088019190915260e08701521515610100860152151561012085015215156101408401526101608301526101808201526101a0015b60405180910390f35b3480156103a257600080fd5b506103ac60045481565b60405190815260200161038d565b3480156103c657600080fd5b506104036040518060400160405280601a81526020017f496e7465726573742050726f746f636f6c20476f7665726e6f7200000000000081525081565b60405161038d91906130fa565b61040361041e3660046131ee565b610ab7565b34801561042f57600080fd5b5061044361043e366004613085565b610d34565b005b34801561045157600080fd5b5060125461045f9060ff1681565b604051901515815260200161038d565b34801561047b57600080fd5b506103ac61048a366004613274565b600a6020526000908152604090205481565b3480156104a857600080fd5b506104436104b7366004613085565b610d99565b3480156104c857600080fd5b506103ac600f5481565b3480156104de57600080fd5b506104436104ed366004613085565b610df6565b3480156104fe57600080fd5b506103ac7f8cad95687ba82c2ce50e74f7b754645e5117c3a5bec8151c0726d5857980a86681565b34801561053257600080fd5b506103ac60015481565b34801561054857600080fd5b5061055c610557366004613085565b610e53565b60405161038d949392919061335b565b34801561057857600080fd5b506103ac610587366004613274565b600d6020526000908152604090205481565b3480156105a557600080fd5b506103ac60035481565b3480156105bb57600080fd5b5061045f6105ca366004613274565b6001600160a01b03166000908152600d6020526040902054421090565b3480156105f357600080fd5b506104436106023660046133c4565b6110e4565b34801561061357600080fd5b50610627610622366004613085565b61134f565b60405161038d9190613428565b34801561064057600080fd5b5061044361064f366004613085565b611480565b34801561066057600080fd5b5061044361066f366004613450565b611965565b34801561068057600080fd5b5061044361068f366004613085565b6119f3565b3480156106a057600080fd5b506104436106af36600461347a565b611a7a565b3480156106c057600080fd5b506000546106d4906001600160a01b031681565b6040516001600160a01b03909116815260200161038d565b3480156106f857600080fd5b506107426107073660046134a6565b601160209081526000928352604080842090915290825290205460ff808216916101008104909116906201000090046001600160601b031683565b60408051931515845260ff90921660208401526001600160601b03169082015260600161038d565b34801561077657600080fd5b506104436107853660046134c9565b611ae5565b34801561079657600080fd5b506103ac600a81565b3480156107ab57600080fd5b506103ac600c5481565b3480156107c157600080fd5b506104436107d0366004613085565b611b35565b3480156107e157600080fd5b506104436107f0366004613274565b611b92565b34801561080157600080fd5b50610443610810366004613085565b611c0b565b34801561082157600080fd5b506103ac60055481565b34801561083757600080fd5b506103ac6212750081565b34801561084e57600080fd5b50600e546106d4906001600160a01b031681565b34801561086e57600080fd5b5061044361087d366004613550565b611c68565b34801561088e57600080fd5b506103ac60025481565b3480156108a457600080fd5b506103ac60075481565b3480156108ba57600080fd5b506104436108c9366004613085565b611d1c565b3480156108da57600080fd5b506103ac60105481565b3480156108f057600080fd5b506103ac7f150214d74d59b7d1e90c73fc22ef3d991dd0a76b046543d4d80ab92d2a50328f81565b34801561092457600080fd5b506109ae6109333660046134a6565b60408051606081018252600080825260208201819052918101919091525060009182526011602090815260408084206001600160a01b03939093168452918152918190208151606081018352905460ff8082161515835261010082041693820193909352620100009092046001600160601b03169082015290565b6040805182511515815260208084015160ff1690820152918101516001600160601b03169082015260600161038d565b3480156109ea57600080fd5b506104436109f9366004613085565b6120d6565b348015610a0a57600080fd5b5061045f610a19366004613085565b600b6020526000908152604090205460ff1681565b348015610a3a57600080fd5b506103ac610a49366004613732565b612133565b348015610a5a57600080fd5b50610443610a69366004613085565b612735565b348015610a7a57600080fd5b506103ac60065481565b348015610a9057600080fd5b506008546106d4906001600160a01b031681565b610443610ab2366004613085565b6127bc565b606060008686868686604051602001610ad4959493929190613813565b60408051601f1981840301815291815281516020928301206000818152600b90935291205490915060ff16610b495760405162461bcd60e51b81526020600482015260166024820152753a3c103430b9b713ba103132b2b71038bab2bab2b21760511b60448201526064015b60405180910390fd5b82421015610b995760405162461bcd60e51b815260206004820152601d60248201527f7478206861736e2774207375727061737365642074696d656c6f636b2e0000006044820152606401610b40565b610ba66212750084613875565b421115610be45760405162461bcd60e51b815260206004820152600c60248201526b3a3c1034b99039ba30b6329760a11b6044820152606401610b40565b6000818152600b60205260409020805460ff191690558451606090610c0a575083610c36565b858051906020012085604051602001610c2492919061388d565b60405160208183030381529060405290505b600080896001600160a01b03168984604051610c5291906138be565b60006040518083038185875af1925050503d8060008114610c8f576040519150601f19603f3d011682016040523d82523d6000602084013e610c94565b606091505b509150915081610cdf5760405162461bcd60e51b81526020600482015260166024820152753a3c1032bc32b1baba34b7b7103932bb32b93a32b21760511b6044820152606401610b40565b896001600160a01b0316847fa560e3198060a2f10670c1ec5b403077ea6ae93ca8de1c32b451dc1a943cd6e78b8b8b8b604051610d1f94939291906138da565b60405180910390a39998505050505050505050565b333014610d535760405162461bcd60e51b8152600401610b4090613917565b600480549082905560408051828152602081018490527f7e3f7f0708a84de9203036abaa450dccc85ad5ff52f78c170f3edb55cf5e882891015b60405180910390a15050565b333014610db85760405162461bcd60e51b8152600401610b4090613917565b600580549082905560408051828152602081018490527fccb45da8d5717e6c4544694297c4ba5cf151d455c9bb0ed4fc7a38411bc054619101610d8d565b333014610e155760405162461bcd60e51b8152600401610b4090613917565b600380549082905560408051828152602081018490527fc565b045403dc03c2eea82b81a0465edad9e2e7fc4d97e11421c209da93d7a939101610d8d565b60608060608060006009600087815260200190815260200160002090508060030181600401826005018360060183805480602002602001604051908101604052809291908181526020018280548015610ed557602002820191906000526020600020905b81546001600160a01b03168152600190910190602001808311610eb7575b5050505050935082805480602002602001604051908101604052809291908181526020018280548015610f2757602002820191906000526020600020905b815481526020019060010190808311610f13575b5050505050925081805480602002602001604051908101604052809291908181526020016000905b82821015610ffb578382906000526020600020018054610f6e90613940565b80601f0160208091040260200160405190810160405280929190818152602001828054610f9a90613940565b8015610fe75780601f10610fbc57610100808354040283529160200191610fe7565b820191906000526020600020905b815481529060010190602001808311610fca57829003601f168201915b505050505081526020019060010190610f4f565b50505050915080805480602002602001604051908101604052809291908181526020016000905b828210156110ce57838290600052602060002001805461104190613940565b80601f016020809104026020016040519081016040528092919081815260200182805461106d90613940565b80156110ba5780601f1061108f576101008083540402835291602001916110ba565b820191906000526020600020905b81548152906001019060200180831161109d57829003601f168201915b505050505081526020019060010190611022565b5050505090509450945094509450509193509193565b604080518082018252601a81527f496e7465726573742050726f746f636f6c20476f7665726e6f7200000000000060209182015281517f8cad95687ba82c2ce50e74f7b754645e5117c3a5bec8151c0726d5857980a866818301527f75a838dcd8ee5903cc7f4a5799344d0080864f57a6e9911f8bdfb4c8ddce9b5481840152466060820152306080808301919091528351808303909101815260a0820184528051908301207f150214d74d59b7d1e90c73fc22ef3d991dd0a76b046543d4d80ab92d2a50328f60c083015260e0820189905260ff8816610100808401919091528451808403909101815261012083019094528351939092019290922061190160f01b6101408401526101428301829052610162830181905290916000906101820160408051601f198184030181528282528051602091820120600080855291840180845281905260ff8a169284019290925260608301889052608083018790529092509060019060a0016020604051602081039080840390855afa158015611271573d6000803e3d6000fd5b5050604051601f1901519150506001600160a01b0381166112d45760405162461bcd60e51b815260206004820181905260248201527f63617374566f746542795369673a20696e76616c6964207369676e61747572656044820152606401610b40565b806001600160a01b03167fb8e138887d0aa13bab447e82de9d5c1777041ecd21ca36ba824ff1e6c07ddda48a8a61130c858e8e6129cc565b6040805193845260ff90921660208401526001600160601b03169082015260806060820181905260009082015260a00160405180910390a2505050505050505050565b60008160075410158015611364575060065482115b6113b05760405162461bcd60e51b815260206004820152601a60248201527f73746174653a20696e76616c69642070726f706f73616c2069640000000000006044820152606401610b40565b6000828152600960205260409020600c81015460ff16156113d45750600292915050565b806007015443116113e85750600092915050565b806008015443116113fc5750600192915050565b80600a0154816009015411158061141a575080600d01548160090154105b156114285750600392915050565b600281015461143a5750600492915050565b600c810154610100900460ff16156114555750600792915050565b6212750081600201546114689190613875565b42106114775750600692915050565b50600592915050565b600761148b8261134f565b600781111561149c5761149c613412565b14156114ea5760405162461bcd60e51b815260206004820152601d60248201527f63616e742063616e63656c2065786563757465642070726f706f73616c0000006044820152606401610b40565b600081815260096020526040902060018101546001600160a01b0316336001600160a01b0316146117595760018101546001600160a01b03166000908152600d602052604090205442101561165b576005546008546001838101546001600160a01b039283169263782d6fe192911690611565904390612c4e565b6040516001600160e01b031960e085901b1681526001600160a01b039092166004830152602482015260440160206040518083038186803b1580156115a957600080fd5b505afa1580156115bd573d6000803e3d6000fd5b505050506040513d601f19601f820116820180604052508101906115e1919061397b565b6001600160601b031610801561160a5750600e546001600160a01b0316336001600160a01b0316145b6116565760405162461bcd60e51b815260206004820152601c60248201527f63616e63656c3a2077686974656c69737465642070726f706f736572000000006044820152606401610b40565b611759565b6005546008546001838101546001600160a01b039283169263782d6fe192911690611687904390612c4e565b6040516001600160e01b031960e085901b1681526001600160a01b039092166004830152602482015260440160206040518083038186803b1580156116cb57600080fd5b505afa1580156116df573d6000803e3d6000fd5b505050506040513d601f19601f82011682018060405250810190611703919061397b565b6001600160601b0316106117595760405162461bcd60e51b815260206004820181905260248201527f63616e63656c3a2070726f706f7365722061626f7665207468726573686f6c646044820152606401610b40565b600c8101805460ff1916600117905560005b60038201548110156119345761192282600301828154811061178f5761178f6139a4565b6000918252602090912001546004840180546001600160a01b0390921691849081106117bd576117bd6139a4565b90600052602060002001548460050184815481106117dd576117dd6139a4565b9060005260206000200180546117f290613940565b80601f016020809104026020016040519081016040528092919081815260200182805461181e90613940565b801561186b5780601f106118405761010080835404028352916020019161186b565b820191906000526020600020905b81548152906001019060200180831161184e57829003601f168201915b5050505050856006018581548110611885576118856139a4565b90600052602060002001805461189a90613940565b80601f01602080910402602001604051908101604052809291908181526020018280546118c690613940565b80156119135780601f106118e857610100808354040283529160200191611913565b820191906000526020600020905b8154815290600101906020018083116118f657829003601f168201915b50505050508660020154612ca9565b8061192c816139ba565b91505061176b565b506040518281527f789cf55be980739dad1d0699b93b58e806b51c9d96619bfa8fe0a28abaa7b30c90602001610d8d565b333014806119865750600e546001600160a01b0316336001600160a01b0316145b6119a25760405162461bcd60e51b8152600401610b4090613917565b6001600160a01b0382166000818152600d6020908152604091829020849055815192835282018390527f4e7b7545bc5744d0e30425959f4687475774b6c7edad77d24cb51c7d967d45159101610d8d565b333014611a3c5760405162461bcd60e51b815260206004820152601760248201527636bab9ba1031b7b6b290333937b6903a34329033b7bb1760491b6044820152606401610b40565b601080549082905560408051828152602081018490527f2a61b867418a359864adca8bb250ea65ee8bd41dbfd0279198d8e7552d4a27c29101610d8d565b337fb8e138887d0aa13bab447e82de9d5c1777041ecd21ca36ba824ff1e6c07ddda48383611aa98483836129cc565b6040805193845260ff90921660208401526001600160601b03169082015260806060820181905260009082015260a00160405180910390a25050565b337fb8e138887d0aa13bab447e82de9d5c1777041ecd21ca36ba824ff1e6c07ddda48585611b148483836129cc565b8686604051611b279594939291906139d5565b60405180910390a250505050565b333014611b545760405162461bcd60e51b8152600401610b4090613917565b600180549082905560408051828152602081018490527fa74554b0f53da47d07ec571d712428b3720460f54f81375fbcf78f6b5f72e7ed9101610d8d565b333014611bb15760405162461bcd60e51b8152600401610b4090613917565b600e80546001600160a01b038381166001600160a01b031983168117909355604080519190921680825260208201939093527f80a07e73e552148844a9c216d9724212d609cfa54e9c1a2e97203bdd2c4ad3419101610d8d565b333014611c2a5760405162461bcd60e51b8152600401610b4090613917565b600f80549082905560408051828152602081018490527f80a384652af83fc00bfd40ef94edda7ede83e7db39931b2c889821573f314e239101610d8d565b60125460ff1615611cbb5760405162461bcd60e51b815260206004820152601860248201527f616c7265616479206265656e20696e697469616c697a656400000000000000006044820152606401610b40565b600880546001600160a01b0319166001600160a01b039a909a1699909917909855600496909655600394909455600592909255600c5560006007556001908155600291909155600f919091556010919091556012805460ff19169091179055565b6004611d278261134f565b6007811115611d3857611d38613412565b14611d855760405162461bcd60e51b815260206004820152601f60248201527f63616e206f6e6c792062652071756575656420696620737563636565646564006044820152606401610b40565b6000818152600960205260408120600e810154909190611da59042613875565b905060005b600383015481101561209057600b6000846003018381548110611dcf57611dcf6139a4565b6000918252602090912001546004860180546001600160a01b039092169185908110611dfd57611dfd6139a4565b9060005260206000200154866005018581548110611e1d57611e1d6139a4565b90600052602060002001876006018681548110611e3c57611e3c6139a4565b9060005260206000200187604051602001611e5b959493929190613ac6565b60408051601f198184030181529181528151602092830120835290820192909252016000205460ff1615611ed15760405162461bcd60e51b815260206004820152601760248201527f70726f706f73616c20616c7265616479207175657565640000000000000000006044820152606401610b40565b61207d836003018281548110611ee957611ee96139a4565b6000918252602090912001546004850180546001600160a01b039092169184908110611f1757611f176139a4565b9060005260206000200154856005018481548110611f3757611f376139a4565b906000526020600020018054611f4c90613940565b80601f0160208091040260200160405190810160405280929190818152602001828054611f7890613940565b8015611fc55780601f10611f9a57610100808354040283529160200191611fc5565b820191906000526020600020905b815481529060010190602001808311611fa857829003601f168201915b5050505050866006018581548110611fdf57611fdf6139a4565b906000526020600020018054611ff490613940565b80601f016020809104026020016040519081016040528092919081815260200182805461202090613940565b801561206d5780601f106120425761010080835404028352916020019161206d565b820191906000526020600020905b81548152906001019060200180831161205057829003601f168201915b50505050508688600e0154612d43565b5080612088816139ba565b915050611daa565b506002820181905560408051848152602081018390527f9a2e42fd6722813d69113e7d0079d3d940171428df7373df9c7f7617cfda2892910160405180910390a1505050565b3330146120f55760405162461bcd60e51b8152600401610b4090613917565b600280549082905560408051828152602081018490527fc2adf06da6765dba7faaccde4c0ce3f91c35dd3390e7f0b6bc2844202c9fa9529101610d8d565b60006001546000141561217d5760405162461bcd60e51b8152602060048201526012602482015271436861726c6965206e6f742061637469766560701b6044820152606401610b40565b6005546008546001600160a01b031663782d6fe13361219d436001612c4e565b6040516001600160e01b031960e085901b1681526001600160a01b039092166004830152602482015260440160206040518083038186803b1580156121e157600080fd5b505afa1580156121f5573d6000803e3d6000fd5b505050506040513d601f19601f82011682018060405250810190612219919061397b565b6001600160601b03161015806122335750612233336105ca565b61227f5760405162461bcd60e51b815260206004820152601e60248201527f766f7465732062656c6f772070726f706f73616c207468726573686f6c6400006044820152606401610b40565b85518751148015612291575084518751145b801561229e575083518751145b6122ea5760405162461bcd60e51b815260206004820152601a60248201527f696e666f726d6174696f6e206172697479206d69736d617463680000000000006044820152606401610b40565b865161232f5760405162461bcd60e51b81526020600482015260146024820152736d7573742070726f7669646520616374696f6e7360601b6044820152606401610b40565b600a875111156123745760405162461bcd60e51b815260206004820152601060248201526f746f6f206d616e7920616374696f6e7360801b6044820152606401610b40565b336000908152600a6020526040902054801561245d5760006123958261134f565b905060018160078111156123ab576123ab613412565b14156123f95760405162461bcd60e51b815260206004820152601e60248201527f6f6e65206c6976652070726f706f73616c207065722070726f706f73657200006044820152606401610b40565b600081600781111561240d5761240d613412565b141561245b5760405162461bcd60e51b815260206004820152601e60248201527f6f6e65206c6976652070726f706f73616c207065722070726f706f73657200006044820152606401610b40565b505b6007805490600061246d836139ba565b91905055506000604051806102200160405280600754815260200161248f3390565b6001600160a01b03168152602001600081526020018a8152602001898152602001888152602001878152602001600354436124ca9190613875565b8152602001600454600354436124e09190613875565b6124ea9190613875565b815260200160008152602001600081526020016000815260200160001515815260200160001515815260200185151581526020016001548152602001600c5481525090508315612561574360e08201819052600f5461254891613875565b6101008201526002546101e08201526010546102008201525b805160009081526009602090815260409182902083518155818401516001820180546001600160a01b0319166001600160a01b03909216919091179055918301516002830155606083015180518493926125c2926003850192910190612e34565b50608082015180516125de916004840191602090910190612e99565b5060a082015180516125fa916005840191602090910190612ed4565b5060c08201518051612616916006840191602090910190612f2d565b5060e082015160078201556101008083015160088301556101208301516009830155610140830151600a80840191909155610160840151600b840155610180840151600c840180546101a08701516101c088015161ffff1990921693151561ff001916939093179215159094029190911762ff000019166201000093151593909302929092179091556101e0830151600d83015561020090920151600e9091015581516020808401516001600160a01b0316600090815292905260409091205580517f7d84a6263ae0d98d3329bd7b46bb4e8d6f98cd35a7adb45c274c8b7fd5ebd5e090338b8b8b8b8760e001518861010001518d60405161272099989796959493929190613aff565b60405180910390a15198975050505050505050565b33301461277e5760405162461bcd60e51b815260206004820152601760248201527636bab9ba1031b7b6b290333937b6903a34329033b7bb1760491b6044820152606401610b40565b600c80549082905560408051828152602081018490527fed0229422af39d4d7d33f7a27d31d6f5cb20ec628293da58dd6e8a528ed466be9101610d8d565b60056127c78261134f565b60078111156127d8576127d8613412565b146128255760405162461bcd60e51b815260206004820152601c60248201527f63616e206f6e6c792062652065786563276420696620717565756564000000006044820152606401610b40565b6000818152600960205260408120600c8101805461ff001916610100179055905b600382015481101561299b57306001600160a01b0316630825f38f836004018381548110612876576128766139a4565b9060005260206000200154846003018481548110612896576128966139a4565b6000918252602090912001546004860180546001600160a01b0390921691869081106128c4576128c46139a4565b90600052602060002001548660050186815481106128e4576128e46139a4565b90600052602060002001876006018781548110612903576129036139a4565b9060005260206000200188600201546040518763ffffffff1660e01b8152600401612932959493929190613ac6565b6000604051808303818588803b15801561294b57600080fd5b505af115801561295f573d6000803e3d6000fd5b50505050506040513d6000823e601f3d908101601f191682016040526129889190810190613b97565b5080612993816139ba565b915050612846565b506040518281527f712ae1383f79ac853f8d882153778e0260ef8f03b504e2866e0593e04d2b291f90602001610d8d565b600060016129d98461134f565b60078111156129ea576129ea613412565b14612a2a5760405162461bcd60e51b815260206004820152601060248201526f1d9bdd1a5b99c81a5cc818db1bdcd95960821b6044820152606401610b40565b60028260ff161115612a725760405162461bcd60e51b8152602060048201526011602482015270696e76616c696420766f7465207479706560781b6044820152606401610b40565b6000838152600960209081526040808320601183528184206001600160a01b0389168552909252909120805460ff1615612ae45760405162461bcd60e51b81526020600482015260136024820152721d9bdd195c88185b1c9958591e481d9bdd1959606a1b6044820152606401610b40565b600854600783015460405163782d6fe160e01b81526000926001600160a01b03169163782d6fe191612b2e918b916004016001600160a01b03929092168252602082015260400190565b60206040518083038186803b158015612b4657600080fd5b505afa158015612b5a573d6000803e3d6000fd5b505050506040513d601f19601f82011682018060405250810190612b7e919061397b565b905060ff8516612bab57806001600160601b031683600a0154612ba19190613875565b600a840155612c05565b8460ff1660011415612bda57806001600160601b03168360090154612bd09190613875565b6009840155612c05565b8460ff1660021415612c0557806001600160601b031683600b0154612bff9190613875565b600b8401555b81546001600160601b03821662010000026dffffffffffffffffffffffff00001960ff88166101000261ffff199093169290921760011791909116179091559150509392505050565b600082821115612c985760405162461bcd60e51b81526020600482015260156024820152747375627472616374696f6e20756e646572666c6f7760581b6044820152606401610b40565b612ca28284613c0e565b9392505050565b60008585858585604051602001612cc4959493929190613813565b60408051601f1981840301815282825280516020918201206000818152600b909252919020805460ff1916905591506001600160a01b0387169082907f2fffc091a501fd91bfbff27141450d3acb40fb8e6d8382b243ec7a812a3aaf8790612d339089908990899089906138da565b60405180910390a3505050505050565b6000612d4f8242613875565b831015612d945760405162461bcd60e51b815260206004820152601360248201527236bab9ba1039b0ba34b9b33c903232b630bc9760691b6044820152606401610b40565b60008787878787604051602001612daf959493929190613813565b60408051601f1981840301815282825280516020918201206000818152600b909252919020805460ff1916600117905591506001600160a01b0389169082907f76e2796dc3a81d57b0e8504b647febcbeeb5f4af818e164f11eef8131a6a763f90612e21908b908b908b908b906138da565b60405180910390a3979650505050505050565b828054828255906000526020600020908101928215612e89579160200282015b82811115612e8957825182546001600160a01b0319166001600160a01b03909116178255602090920191600190910190612e54565b50612e95929150612f86565b5090565b828054828255906000526020600020908101928215612e89579160200282015b82811115612e89578251825591602001919060010190612eb9565b828054828255906000526020600020908101928215612f21579160200282015b82811115612f215782518051612f11918491602090910190612f9b565b5091602001919060010190612ef4565b50612e9592915061300e565b828054828255906000526020600020908101928215612f7a579160200282015b82811115612f7a5782518051612f6a918491602090910190612f9b565b5091602001919060010190612f4d565b50612e9592915061302b565b5b80821115612e955760008155600101612f87565b828054612fa790613940565b90600052602060002090601f016020900481019282612fc95760008555612e89565b82601f10612fe257805160ff1916838001178555612e89565b82800160010185558215612e895791820182811115612e89578251825591602001919060010190612eb9565b80821115612e955760006130228282613048565b5060010161300e565b80821115612e9557600061303f8282613048565b5060010161302b565b50805461305490613940565b6000825580601f10613064575050565b601f0160209004906000526020600020908101906130829190612f86565b50565b60006020828403121561309757600080fd5b5035919050565b60005b838110156130b95781810151838201526020016130a1565b838111156130c8576000848401525b50505050565b600081518084526130e681602086016020860161309e565b601f01601f19169290920160200192915050565b602081526000612ca260208301846130ce565b80356001600160a01b038116811461312457600080fd5b919050565b634e487b7160e01b600052604160045260246000fd5b604051601f8201601f1916810167ffffffffffffffff8111828210171561316857613168613129565b604052919050565b600067ffffffffffffffff82111561318a5761318a613129565b50601f01601f191660200190565b600082601f8301126131a957600080fd5b81356131bc6131b782613170565b61313f565b8181528460208386010111156131d157600080fd5b816020850160208301376000918101602001919091529392505050565b600080600080600060a0868803121561320657600080fd5b61320f8661310d565b945060208601359350604086013567ffffffffffffffff8082111561323357600080fd5b61323f89838a01613198565b9450606088013591508082111561325557600080fd5b5061326288828901613198565b95989497509295608001359392505050565b60006020828403121561328657600080fd5b612ca28261310d565b600081518084526020808501945080840160005b838110156132c85781516001600160a01b0316875295820195908201906001016132a3565b509495945050505050565b600081518084526020808501945080840160005b838110156132c8578151875295820195908201906001016132e7565b600082825180855260208086019550808260051b84010181860160005b8481101561334e57601f1986840301895261333c8383516130ce565b98840198925090830190600101613320565b5090979650505050505050565b60808152600061336e608083018761328f565b828103602084015261338081876132d3565b905082810360408401526133948186613303565b905082810360608401526133a88185613303565b979650505050505050565b803560ff8116811461312457600080fd5b600080600080600060a086880312156133dc57600080fd5b853594506133ec602087016133b3565b93506133fa604087016133b3565b94979396509394606081013594506080013592915050565b634e487b7160e01b600052602160045260246000fd5b602081016008831061344a57634e487b7160e01b600052602160045260246000fd5b91905290565b6000806040838503121561346357600080fd5b61346c8361310d565b946020939093013593505050565b6000806040838503121561348d57600080fd5b8235915061349d602084016133b3565b90509250929050565b600080604083850312156134b957600080fd5b8235915061349d6020840161310d565b600080600080606085870312156134df57600080fd5b843593506134ef602086016133b3565b9250604085013567ffffffffffffffff8082111561350c57600080fd5b818701915087601f83011261352057600080fd5b81358181111561352f57600080fd5b88602082850101111561354157600080fd5b95989497505060200194505050565b60008060008060008060008060006101208a8c03121561356f57600080fd5b6135788a61310d565b9b60208b01359b5060408b01359a60608101359a506080810135995060a0810135985060c0810135975060e081013596506101000135945092505050565b600067ffffffffffffffff8211156135d0576135d0613129565b5060051b60200190565b600082601f8301126135eb57600080fd5b813560206135fb6131b7836135b6565b82815260059290921b8401810191818101908684111561361a57600080fd5b8286015b8481101561363c5761362f8161310d565b835291830191830161361e565b509695505050505050565b600082601f83011261365857600080fd5b813560206136686131b7836135b6565b82815260059290921b8401810191818101908684111561368757600080fd5b8286015b8481101561363c578035835291830191830161368b565b600082601f8301126136b357600080fd5b813560206136c36131b7836135b6565b82815260059290921b840181019181810190868411156136e257600080fd5b8286015b8481101561363c57803567ffffffffffffffff8111156137065760008081fd5b6137148986838b0101613198565b8452509183019183016136e6565b8035801515811461312457600080fd5b60008060008060008060c0878903121561374b57600080fd5b863567ffffffffffffffff8082111561376357600080fd5b61376f8a838b016135da565b9750602089013591508082111561378557600080fd5b6137918a838b01613647565b965060408901359150808211156137a757600080fd5b6137b38a838b016136a2565b955060608901359150808211156137c957600080fd5b6137d58a838b016136a2565b945060808901359150808211156137eb57600080fd5b506137f889828a01613198565b92505061380760a08801613722565b90509295509295509295565b60018060a01b038616815284602082015260a06040820152600061383a60a08301866130ce565b828103606084015261384c81866130ce565b9150508260808301529695505050505050565b634e487b7160e01b600052601160045260246000fd5b600082198211156138885761388861385f565b500190565b6001600160e01b03198316815281516000906138b081600485016020870161309e565b919091016004019392505050565b600082516138d081846020870161309e565b9190910192915050565b8481526080602082015260006138f360808301866130ce565b828103604084015261390581866130ce565b91505082606083015295945050505050565b6020808252600f908201526e676f7665726e616e6365206f6e6c7960881b604082015260600190565b600181811c9082168061395457607f821691505b6020821081141561397557634e487b7160e01b600052602260045260246000fd5b50919050565b60006020828403121561398d57600080fd5b81516001600160601b0381168114612ca257600080fd5b634e487b7160e01b600052603260045260246000fd5b60006000198214156139ce576139ce61385f565b5060010190565b85815260ff851660208201526001600160601b038416604082015260806060820152816080820152818360a0830137600081830160a090810191909152601f909201601f19160101949350505050565b8054600090600181811c9080831680613a3f57607f831692505b6020808410821415613a6157634e487b7160e01b600052602260045260246000fd5b838852818015613a785760018114613a8c57613aba565b60ff19861689830152604089019650613aba565b876000528160002060005b86811015613ab25781548b8201850152908501908301613a97565b8a0183019750505b50505050505092915050565b60018060a01b038616815284602082015260a060408201526000613aed60a0830186613a25565b828103606084015261384c8186613a25565b8981526001600160a01b038916602082015261012060408201819052600090613b2a8382018b61328f565b90508281036060840152613b3e818a6132d3565b90508281036080840152613b528189613303565b905082810360a0840152613b668188613303565b90508560c08401528460e0840152828103610100840152613b8781856130ce565b9c9b505050505050505050505050565b600060208284031215613ba957600080fd5b815167ffffffffffffffff811115613bc057600080fd5b8201601f81018413613bd157600080fd5b8051613bdf6131b782613170565b818152856020838501011115613bf457600080fd5b613c0582602083016020860161309e565b95945050505050565b600082821015613c2057613c2061385f565b50039056fea26469706673582212205fb0de461372b6c3ef323daddef674b637963867a7d700aab662fa69cfd3edef64736f6c63430008090033",
  "linkReferences": {},
  "deployedLinkReferences": {}
}