{
  "_format": "hh-sol-artifact-1",
  "contractName": "UFragments",
  "sourceName": "contracts/token/UFragments.sol",
  "abi": [
    {
      "anonymous": false,
      "inputs": [
        {
          "indexed": true,
          "internalType": "address",
          "name": "owner",
          "type": "address"
        },
        {
          "indexed": true,
          "internalType": "address",
          "name": "spender",
          "type": "address"
        },
        {
          "indexed": false,
          "internalType": "uint256",
          "name": "value",
          "type": "uint256"
        }
      ],
      "name": "Approval",
      "type": "event"
    },
    {
      "anonymous": false,
      "inputs": [
        {
          "indexed": false,
          "internalType": "address",
          "name": "monetaryPolicy",
          "type": "address"
        }
      ],
      "name": "LogMonetaryPolicyUpdated",
      "type": "event"
    },
    {
      "anonymous": false,
      "inputs": [
        {
          "indexed": true,
          "internalType": "uint256",
          "name": "epoch",
          "type": "uint256"
        },
        {
          "indexed": false,
          "internalType": "uint256",
          "name": "totalSupply",
          "type": "uint256"
        }
      ],
      "name": "LogRebase",
      "type": "event"
    },
    {
      "anonymous": false,
      "inputs": [
        {
          "indexed": true,
          "internalType": "address",
          "name": "previousOwner",
          "type": "address"
        },
        {
          "indexed": true,
          "internalType": "address",
          "name": "newOwner",
          "type": "address"
        }
      ],
      "name": "OwnershipTransferred",
      "type": "event"
    },
    {
      "anonymous": false,
      "inputs": [
        {
          "indexed": true,
          "internalType": "address",
          "name": "from",
          "type": "address"
        },
        {
          "indexed": true,
          "internalType": "address",
          "name": "to",
          "type": "address"
        },
        {
          "indexed": false,
          "internalType": "uint256",
          "name": "value",
          "type": "uint256"
        }
      ],
      "name": "Transfer",
      "type": "event"
    },
    {
      "inputs": [],
      "name": "DOMAIN_SEPARATOR",
      "outputs": [
        {
          "internalType": "bytes32",
          "name": "",
          "type": "bytes32"
        }
      ],
      "stateMutability": "view",
      "type": "function"
    },
    {
      "inputs": [],
      "name": "EIP712_DOMAIN",
      "outputs": [
        {
          "internalType": "bytes32",
          "name": "",
          "type": "bytes32"
        }
      ],
      "stateMutability": "view",
      "type": "function"
    },
    {
      "inputs": [],
      "name": "EIP712_REVISION",
      "outputs": [
        {
          "internalType": "string",
          "name": "",
          "type": "string"
        }
      ],
      "stateMutability": "view",
      "type": "function"
    },
    {
      "inputs": [],
      "name": "MAX_SUPPLY",
      "outputs": [
        {
          "internalType": "uint256",
          "name": "",
          "type": "uint256"
        }
      ],
      "stateMutability": "view",
      "type": "function"
    },
    {
      "inputs": [],
      "name": "PERMIT_TYPEHASH",
      "outputs": [
        {
          "internalType": "bytes32",
          "name": "",
          "type": "bytes32"
        }
      ],
      "stateMutability": "view",
      "type": "function"
    },
    {
      "inputs": [
        {
          "internalType": "string",
          "name": "name_",
          "type": "string"
        },
        {
          "internalType": "string",
          "name": "symbol_",
          "type": "string"
        },
        {
          "internalType": "uint8",
          "name": "decimals_",
          "type": "uint8"
        }
      ],
      "name": "__ERC20Detailed_init",
      "outputs": [],
      "stateMutability": "nonpayable",
      "type": "function"
    },
    {
      "inputs": [
        {
          "internalType": "string",
          "name": "name",
          "type": "string"
        },
        {
          "internalType": "string",
          "name": "symbol",
          "type": "string"
        }
      ],
      "name": "__UFragments_init",
      "outputs": [],
      "stateMutability": "nonpayable",
      "type": "function"
    },
    {
      "inputs": [
        {
          "internalType": "address",
          "name": "",
          "type": "address"
        }
      ],
      "name": "_gonBalances",
      "outputs": [
        {
          "internalType": "uint256",
          "name": "",
          "type": "uint256"
        }
      ],
      "stateMutability": "view",
      "type": "function"
    },
    {
      "inputs": [],
      "name": "_gonsPerFragment",
      "outputs": [
        {
          "internalType": "uint256",
          "name": "",
          "type": "uint256"
        }
      ],
      "stateMutability": "view",
      "type": "function"
    },
    {
      "inputs": [],
      "name": "_totalGons",
      "outputs": [
        {
          "internalType": "uint256",
          "name": "",
          "type": "uint256"
        }
      ],
      "stateMutability": "view",
      "type": "function"
    },
    {
      "inputs": [],
      "name": "_totalSupply",
      "outputs": [
        {
          "internalType": "uint256",
          "name": "",
          "type": "uint256"
        }
      ],
      "stateMutability": "view",
      "type": "function"
    },
    {
      "inputs": [
        {
          "internalType": "address",
          "name": "owner_",
          "type": "address"
        },
        {
          "internalType": "address",
          "name": "spender",
          "type": "address"
        }
      ],
      "name": "allowance",
      "outputs": [
        {
          "internalType": "uint256",
          "name": "",
          "type": "uint256"
        }
      ],
      "stateMutability": "view",
      "type": "function"
    },
    {
      "inputs": [
        {
          "internalType": "address",
          "name": "spender",
          "type": "address"
        },
        {
          "internalType": "uint256",
          "name": "value",
          "type": "uint256"
        }
      ],
      "name": "approve",
      "outputs": [
        {
          "internalType": "bool",
          "name": "",
          "type": "bool"
        }
      ],
      "stateMutability": "nonpayable",
      "type": "function"
    },
    {
      "inputs": [
        {
          "internalType": "address",
          "name": "who",
          "type": "address"
        }
      ],
      "name": "balanceOf",
      "outputs": [
        {
          "internalType": "uint256",
          "name": "",
          "type": "uint256"
        }
      ],
      "stateMutability": "view",
      "type": "function"
    },
    {
      "inputs": [],
      "name": "decimals",
      "outputs": [
        {
          "internalType": "uint8",
          "name": "",
          "type": "uint8"
        }
      ],
      "stateMutability": "view",
      "type": "function"
    },
    {
      "inputs": [
        {
          "internalType": "address",
          "name": "spender",
          "type": "address"
        },
        {
          "internalType": "uint256",
          "name": "subtractedValue",
          "type": "uint256"
        }
      ],
      "name": "decreaseAllowance",
      "outputs": [
        {
          "internalType": "bool",
          "name": "",
          "type": "bool"
        }
      ],
      "stateMutability": "nonpayable",
      "type": "function"
    },
    {
      "inputs": [
        {
          "internalType": "address",
          "name": "spender",
          "type": "address"
        },
        {
          "internalType": "uint256",
          "name": "addedValue",
          "type": "uint256"
        }
      ],
      "name": "increaseAllowance",
      "outputs": [
        {
          "internalType": "bool",
          "name": "",
          "type": "bool"
        }
      ],
      "stateMutability": "nonpayable",
      "type": "function"
    },
    {
      "inputs": [],
      "name": "monetaryPolicy",
      "outputs": [
        {
          "internalType": "address",
          "name": "",
          "type": "address"
        }
      ],
      "stateMutability": "view",
      "type": "function"
    },
    {
      "inputs": [],
      "name": "name",
      "outputs": [
        {
          "internalType": "string",
          "name": "",
          "type": "string"
        }
      ],
      "stateMutability": "view",
      "type": "function"
    },
    {
      "inputs": [
        {
          "internalType": "address",
          "name": "who",
          "type": "address"
        }
      ],
      "name": "nonces",
      "outputs": [
        {
          "internalType": "uint256",
          "name": "",
          "type": "uint256"
        }
      ],
      "stateMutability": "view",
      "type": "function"
    },
    {
      "inputs": [],
      "name": "owner",
      "outputs": [
        {
          "internalType": "address",
          "name": "",
          "type": "address"
        }
      ],
      "stateMutability": "view",
      "type": "function"
    },
    {
      "inputs": [
        {
          "internalType": "address",
          "name": "owner",
          "type": "address"
        },
        {
          "internalType": "address",
          "name": "spender",
          "type": "address"
        },
        {
          "internalType": "uint256",
          "name": "value",
          "type": "uint256"
        },
        {
          "internalType": "uint256",
          "name": "deadline",
          "type": "uint256"
        },
        {
          "internalType": "uint8",
          "name": "v",
          "type": "uint8"
        },
        {
          "internalType": "bytes32",
          "name": "r",
          "type": "bytes32"
        },
        {
          "internalType": "bytes32",
          "name": "s",
          "type": "bytes32"
        }
      ],
      "name": "permit",
      "outputs": [],
      "stateMutability": "nonpayable",
      "type": "function"
    },
    {
      "inputs": [
        {
          "internalType": "uint256",
          "name": "epoch",
          "type": "uint256"
        },
        {
          "internalType": "uint256",
          "name": "supplyAdd",
          "type": "uint256"
        },
        {
          "internalType": "uint256",
          "name": "supplyRemove",
          "type": "uint256"
        }
      ],
      "name": "rebase",
      "outputs": [
        {
          "internalType": "uint256",
          "name": "",
          "type": "uint256"
        }
      ],
      "stateMutability": "nonpayable",
      "type": "function"
    },
    {
      "inputs": [],
      "name": "renounceOwnership",
      "outputs": [],
      "stateMutability": "nonpayable",
      "type": "function"
    },
    {
      "inputs": [
        {
          "internalType": "address",
          "name": "who",
          "type": "address"
        }
      ],
      "name": "scaledBalanceOf",
      "outputs": [
        {
          "internalType": "uint256",
          "name": "",
          "type": "uint256"
        }
      ],
      "stateMutability": "view",
      "type": "function"
    },
    {
      "inputs": [],
      "name": "scaledTotalSupply",
      "outputs": [
        {
          "internalType": "uint256",
          "name": "",
          "type": "uint256"
        }
      ],
      "stateMutability": "view",
      "type": "function"
    },
    {
      "inputs": [
        {
          "internalType": "address",
          "name": "monetaryPolicy_",
          "type": "address"
        }
      ],
      "name": "setMonetaryPolicy",
      "outputs": [],
      "stateMutability": "nonpayable",
      "type": "function"
    },
    {
      "inputs": [],
      "name": "symbol",
      "outputs": [
        {
          "internalType": "string",
          "name": "",
          "type": "string"
        }
      ],
      "stateMutability": "view",
      "type": "function"
    },
    {
      "inputs": [],
      "name": "totalSupply",
      "outputs": [
        {
          "internalType": "uint256",
          "name": "",
          "type": "uint256"
        }
      ],
      "stateMutability": "view",
      "type": "function"
    },
    {
      "inputs": [
        {
          "internalType": "address",
          "name": "to",
          "type": "address"
        },
        {
          "internalType": "uint256",
          "name": "value",
          "type": "uint256"
        }
      ],
      "name": "transfer",
      "outputs": [
        {
          "internalType": "bool",
          "name": "",
          "type": "bool"
        }
      ],
      "stateMutability": "nonpayable",
      "type": "function"
    },
    {
      "inputs": [
        {
          "internalType": "address",
          "name": "to",
          "type": "address"
        }
      ],
      "name": "transferAll",
      "outputs": [
        {
          "internalType": "bool",
          "name": "",
          "type": "bool"
        }
      ],
      "stateMutability": "nonpayable",
      "type": "function"
    },
    {
      "inputs": [
        {
          "internalType": "address",
          "name": "from",
          "type": "address"
        },
        {
          "internalType": "address",
          "name": "to",
          "type": "address"
        }
      ],
      "name": "transferAllFrom",
      "outputs": [
        {
          "internalType": "bool",
          "name": "",
          "type": "bool"
        }
      ],
      "stateMutability": "nonpayable",
      "type": "function"
    },
    {
      "inputs": [
        {
          "internalType": "address",
          "name": "from",
          "type": "address"
        },
        {
          "internalType": "address",
          "name": "to",
          "type": "address"
        },
        {
          "internalType": "uint256",
          "name": "value",
          "type": "uint256"
        }
      ],
      "name": "transferFrom",
      "outputs": [
        {
          "internalType": "bool",
          "name": "",
          "type": "bool"
        }
      ],
      "stateMutability": "nonpayable",
      "type": "function"
    },
    {
      "inputs": [
        {
          "internalType": "address",
          "name": "newOwner",
          "type": "address"
        }
      ],
      "name": "transferOwnership",
      "outputs": [],
      "stateMutability": "nonpayable",
      "type": "function"
    }
  ],
  "bytecode": "0x608060405234801561001057600080fd5b506119e6806100206000396000f3fe608060405234801561001057600080fd5b50600436106102065760003560e01c806384d4b4101161011a578063a48daa4f116100ad578063d505accf1161007c578063d505accf14610472578063dd62ed3e14610485578063e1b11da4146104be578063f2fde38b146104e5578063fd5eb09d146104f857600080fd5b8063a48daa4f1461043b578063a9059cbb1461044e578063b1bf962d14610461578063c4996f511461046957600080fd5b806395d89b41116100e957806395d89b41146103fa578063a10daee314610402578063a3a7e7f314610415578063a457c2d71461042857600080fd5b806384d4b4101461039c5780638b5a6a08146103af5780638da5cb5b146103c25780638e27d7d7146103e757600080fd5b80633644e5151161019d5780633eaaf86b1161016c5780633eaaf86b1461032f57806370a0823114610338578063715018a61461034b57806378160376146103535780637ecebe001461037357600080fd5b80633644e515146102df57806336fed975146102e75780633769175f14610307578063395093511461031c57600080fd5b806323b872dd116101d957806323b872dd1461028757806330adf81f1461029a578063313ce567146102c157806332cb6b0c146102d657600080fd5b806306fdde031461020b578063095ea7b31461022957806318160ddd1461024c5780631da24f3e1461025e575b600080fd5b610213610501565b60405161022091906113fb565b60405180910390f35b61023c61023736600461146c565b610593565b6040519015158152602001610220565b609d545b604051908152602001610220565b61025061026c366004611496565b6001600160a01b03166000908152609f602052604090205490565b61023c6102953660046114b1565b6105ee565b6102507f6e71edae12b1b97f4d1f60370fef10105fa2faae0126114a169c64845d6126c981565b60675460405160ff9091168152602001610220565b610250609c5481565b61025061072a565b6102506102f5366004611496565b609f6020526000908152604090205481565b61031a610315366004611590565b6107d6565b005b61023c61032a36600461146c565b610923565b610250609d5481565b610250610346366004611496565b610997565b61031a6109be565b610213604051806040016040528060018152602001603160f81b81525081565b610250610381366004611496565b6001600160a01b0316600090815260a1602052604090205490565b61023c6103aa3660046115f4565b6109f4565b61031a6103bd366004611496565b610b05565b6033546001600160a01b03165b6040516001600160a01b039091168152602001610220565b609a546103cf906001600160a01b031681565b610213610b83565b61031a610410366004611638565b610b92565b61023c610423366004611496565b610c38565b61023c61043636600461146c565b610d08565b6102506104493660046116ac565b610d98565b61023c61045c36600461146c565b610ea0565b609b54610250565b610250609e5481565b61031a6104803660046116d8565b610f79565b6102506104933660046115f4565b6001600160a01b03918216600090815260a06020908152604080832093909416825291909152205490565b6102507f8b73c3c69bb8fe3d512ecc4cf759cc79239f7b179b0ffacaa9a75d522b39400f81565b61031a6104f3366004611496565b611130565b610250609b5481565b60606065805461051090611742565b80601f016020809104026020016040519081016040528092919081815260200182805461053c90611742565b80156105895780601f1061055e57610100808354040283529160200191610589565b820191906000526020600020905b81548152906001019060200180831161056c57829003601f168201915b5050505050905090565b33600081815260a0602090815260408083206001600160a01b03871680855292528083208590555191929091600080516020611991833981519152906105dc9086815260200190565b60405180910390a35060015b92915050565b6000826001600160a01b03811661060457600080fd5b6001600160a01b03811630141561061a57600080fd5b6001600160a01b038516600090815260a06020908152604080832033845290915290205461064990849061178d565b6001600160a01b038616600090815260a060209081526040808320338452909152812091909155609e5461067d90856117a4565b6001600160a01b0387166000908152609f60205260409020549091506106a490829061178d565b6001600160a01b038088166000908152609f602052604080822093909355908716815220546106d49082906117c3565b6001600160a01b038087166000818152609f60205260409081902093909355915190881690600080516020611971833981519152906107169088815260200190565b60405180910390a350600195945050505050565b6000467f8b73c3c69bb8fe3d512ecc4cf759cc79239f7b179b0ffacaa9a75d522b39400f610756610501565b805160209182012060408051808201825260018152603160f81b90840152805192830193909352918101919091527fc89efdaa54c0f20c7adf612882df0950f5a951637e0307cdcb4c672f298b8bc66060820152608081018290523060a082015260c0016040516020818303038152906040528051906020012091505090565b600054610100900460ff16806107ef575060005460ff16155b6108145760405162461bcd60e51b815260040161080b906117db565b60405180910390fd5b600054610100900460ff16158015610836576000805461ffff19166101011790555b61083e6111cb565b61084a83836012610b92565b6108566012600a61190d565b6108619060016117a4565b61087f9073af298d050e4395d69670b12b7f410000000000006117a4565b609b556fffffffffffffffffffffffffffffffff609c55609a805461ffff60a01b191690556108b06012600a61190d565b6108bb9060016117a4565b609d908155609b54336000908152609f6020526040902081905590546108e091611919565b609e55609d5460405190815233906000906000805160206119718339815191529060200160405180910390a3801561091e576000805461ff00191690555b505050565b33600090815260a0602090815260408083206001600160a01b03861684529091528120546109529083906117c3565b33600081815260a0602090815260408083206001600160a01b0389168085529083529281902085905551938452909260008051602061199183398151915291016105dc565b609e546001600160a01b0382166000908152609f602052604081205490916105e891611919565b6033546001600160a01b031633146109e85760405162461bcd60e51b815260040161080b9061193b565b6109f26000611246565b565b6000816001600160a01b038116610a0a57600080fd5b6001600160a01b038116301415610a2057600080fd5b6001600160a01b0384166000908152609f6020526040812054609e54909190610a499083611919565b6001600160a01b038716600090815260a060209081526040808320338452909152902054909150610a7b90829061178d565b6001600160a01b03808816600081815260a060209081526040808320338452825280832095909555918152609f90915282812081905590871681522054610ac39083906117c3565b6001600160a01b038087166000818152609f60205260409081902093909355915190881690600080516020611971833981519152906107169085815260200190565b6033546001600160a01b03163314610b2f5760405162461bcd60e51b815260040161080b9061193b565b609a80546001600160a01b0319166001600160a01b0383169081179091556040519081527f0e6961f1a1afb87eaf51fd64f22ddc10062e23aa7838eac5d0bdf140bfd389729060200160405180910390a150565b60606066805461051090611742565b600054610100900460ff1680610bab575060005460ff16155b610bc75760405162461bcd60e51b815260040161080b906117db565b600054610100900460ff16158015610be9576000805461ffff19166101011790555b8351610bfc906065906020870190611362565b508251610c10906066906020860190611362565b506067805460ff191660ff84161790558015610c32576000805461ff00191690555b50505050565b6000816001600160a01b038116610c4e57600080fd5b6001600160a01b038116301415610c6457600080fd5b336000908152609f6020526040812054609e54909190610c849083611919565b336000908152609f60205260408082208290556001600160a01b0388168252902054909150610cb49083906117c3565b6001600160a01b0386166000818152609f602052604090819020929092559051339060008051602061197183398151915290610cf39085815260200190565b60405180910390a36001935050505b50919050565b33600090815260a0602090815260408083206001600160a01b038616845290915281205480831015610d4357610d3e838261178d565b610d46565b60005b33600081815260a0602090815260408083206001600160a01b038a1680855290835292819020859055519384529092600080516020611991833981519152910160405180910390a35060019392505050565b609a546000906001600160a01b03163314610db257600080fd5b82158015610dbe575081155b15610e0857837f72725a3b1e5bd622d6bcd1339bb31279c351abe8f541ac7fd320f24e1b1641f2609d54604051610df791815260200190565b60405180910390a250609d54610e99565b8215610e245782609d54610e1c91906117c3565b609d55610e36565b81609d54610e32919061178d565b609d555b609c54609d541115610e4957609c54609d555b609d54609b54610e599190611919565b609e55609d5460405190815284907f72725a3b1e5bd622d6bcd1339bb31279c351abe8f541ac7fd320f24e1b1641f29060200160405180910390a250609d545b9392505050565b6000826001600160a01b038116610eb657600080fd5b6001600160a01b038116301415610ecc57600080fd5b6000609e5484610edc91906117a4565b336000908152609f6020526040902054909150610efa90829061178d565b336000908152609f6020526040808220929092556001600160a01b03871681522054610f279082906117c3565b6001600160a01b0386166000818152609f602052604090819020929092559051339060008051602061197183398151915290610f669088815260200190565b60405180910390a3506001949350505050565b83421115610f8657600080fd5b6001600160a01b03878116600081815260a1602090815260408083205481517f6e71edae12b1b97f4d1f60370fef10105fa2faae0126114a169c64845d6126c98185015280830195909552948b166060850152608084018a905260a0840185905260c08085018a90528151808603909101815260e0909401905282519201919091209061101161072a565b60405161190160f01b602082015260228101919091526042810183905260620160408051601f1981840301815282825280516020918201206000845290830180835281905260ff8916918301919091526060820187905260808201869052915060019060a0016020604051602081039080840390855afa158015611099573d6000803e3d6000fd5b505050602060405103516001600160a01b03168a6001600160a01b0316146110c057600080fd5b6110cb8360016117c3565b6001600160a01b038b8116600081815260a1602090815260408083209590955560a08152848220938e16808352938152908490208c905592518b815291929091600080516020611991833981519152910160405180910390a350505050505050505050565b6033546001600160a01b0316331461115a5760405162461bcd60e51b815260040161080b9061193b565b6001600160a01b0381166111bf5760405162461bcd60e51b815260206004820152602660248201527f4f776e61626c653a206e6577206f776e657220697320746865207a65726f206160448201526564647265737360d01b606482015260840161080b565b6111c881611246565b50565b600054610100900460ff16806111e4575060005460ff16155b6112005760405162461bcd60e51b815260040161080b906117db565b600054610100900460ff16158015611222576000805461ffff19166101011790555b61122a611298565b611232611302565b80156111c8576000805461ff001916905550565b603380546001600160a01b038381166001600160a01b0319831681179093556040519116919082907f8be0079c531659141344cd1fd0a4f28419497f9722a3daafe3b4186f6b6457e090600090a35050565b600054610100900460ff16806112b1575060005460ff16155b6112cd5760405162461bcd60e51b815260040161080b906117db565b600054610100900460ff16158015611232576000805461ffff191661010117905580156111c8576000805461ff001916905550565b600054610100900460ff168061131b575060005460ff16155b6113375760405162461bcd60e51b815260040161080b906117db565b600054610100900460ff16158015611359576000805461ffff19166101011790555b61123233611246565b82805461136e90611742565b90600052602060002090601f01602090048101928261139057600085556113d6565b82601f106113a957805160ff19168380011785556113d6565b828001600101855582156113d6579182015b828111156113d65782518255916020019190600101906113bb565b506113e29291506113e6565b5090565b5b808211156113e257600081556001016113e7565b600060208083528351808285015260005b818110156114285785810183015185820160400152820161140c565b8181111561143a576000604083870101525b50601f01601f1916929092016040019392505050565b80356001600160a01b038116811461146757600080fd5b919050565b6000806040838503121561147f57600080fd5b61148883611450565b946020939093013593505050565b6000602082840312156114a857600080fd5b610e9982611450565b6000806000606084860312156114c657600080fd5b6114cf84611450565b92506114dd60208501611450565b9150604084013590509250925092565b634e487b7160e01b600052604160045260246000fd5b600082601f83011261151457600080fd5b813567ffffffffffffffff8082111561152f5761152f6114ed565b604051601f8301601f19908116603f01168101908282118183101715611557576115576114ed565b8160405283815286602085880101111561157057600080fd5b836020870160208301376000602085830101528094505050505092915050565b600080604083850312156115a357600080fd5b823567ffffffffffffffff808211156115bb57600080fd5b6115c786838701611503565b935060208501359150808211156115dd57600080fd5b506115ea85828601611503565b9150509250929050565b6000806040838503121561160757600080fd5b61161083611450565b915061161e60208401611450565b90509250929050565b803560ff8116811461146757600080fd5b60008060006060848603121561164d57600080fd5b833567ffffffffffffffff8082111561166557600080fd5b61167187838801611503565b9450602086013591508082111561168757600080fd5b5061169486828701611503565b9250506116a360408501611627565b90509250925092565b6000806000606084860312156116c157600080fd5b505081359360208301359350604090920135919050565b600080600080600080600060e0888a0312156116f357600080fd5b6116fc88611450565b965061170a60208901611450565b9550604088013594506060880135935061172660808901611627565b925060a0880135915060c0880135905092959891949750929550565b600181811c9082168061175657607f821691505b60208210811415610d0257634e487b7160e01b600052602260045260246000fd5b634e487b7160e01b600052601160045260246000fd5b60008282101561179f5761179f611777565b500390565b60008160001904831182151516156117be576117be611777565b500290565b600082198211156117d6576117d6611777565b500190565b6020808252602e908201527f496e697469616c697a61626c653a20636f6e747261637420697320616c72656160408201526d191e481a5b9a5d1a585b1a5e995960921b606082015260800190565b600181815b8085111561186457816000190482111561184a5761184a611777565b8085161561185757918102915b93841c939080029061182e565b509250929050565b60008261187b575060016105e8565b81611888575060006105e8565b816001811461189e57600281146118a8576118c4565b60019150506105e8565b60ff8411156118b9576118b9611777565b50506001821b6105e8565b5060208310610133831016604e8410600b84101617156118e7575081810a6105e8565b6118f18383611829565b806000190482111561190557611905611777565b029392505050565b6000610e99838361186c565b60008261193657634e487b7160e01b600052601260045260246000fd5b500490565b6020808252818101527f4f776e61626c653a2063616c6c6572206973206e6f7420746865206f776e657260408201526060019056feddf252ad1be2c89b69c2b068fc378daa952ba7f163c4a11628f55a4df523b3ef8c5be1e5ebec7d5bd14f71427d1e84f3dd0314c0f7b2291e5b200ac8c7c3b925a26469706673582212206975377251369fdc7d2273eb7642550a8dd69e2927452426ed8db1671f12cf1f64736f6c63430008090033",
  "linkReferences": {},
  "deployedLinkReferences": {}
}