{
  "_format": "hh-sol-artifact-1",
  "contractName": "GovernorCharlieDelegateStorage",
  "sourceName": "contracts/governance/governor/GovernorStorage.sol",
  "abi": [
    {
      "inputs": [],
      "name": "emergencyQuorumVotes",
      "outputs": [
        {
          "internalType": "uint256",
          "name": "",
          "type": "uint256"
        }
      ],
      "stateMutability": "view",
      "type": "function"
    },
    {
      "inputs": [],
      "name": "emergencyTimelockDelay",
      "outputs": [
        {
          "internalType": "uint256",
          "name": "",
          "type": "uint256"
        }
      ],
      "stateMutability": "view",
      "type": "function"
    },
    {
      "inputs": [],
      "name": "emergencyVotingPeriod",
      "outputs": [
        {
          "internalType": "uint256",
          "name": "",
          "type": "uint256"
        }
      ],
      "stateMutability": "view",
      "type": "function"
    },
    {
      "inputs": [],
      "name": "implementation",
      "outputs": [
        {
          "internalType": "address",
          "name": "",
          "type": "address"
        }
      ],
      "stateMutability": "view",
      "type": "function"
    },
    {
      "inputs": [],
      "name": "initialProposalId",
      "outputs": [
        {
          "internalType": "uint256",
          "name": "",
          "type": "uint256"
        }
      ],
      "stateMutability": "view",
      "type": "function"
    },
    {
      "inputs": [],
      "name": "initialized",
      "outputs": [
        {
          "internalType": "bool",
          "name": "",
          "type": "bool"
        }
      ],
      "stateMutability": "view",
      "type": "function"
    },
    {
      "inputs": [],
      "name": "ipt",
      "outputs": [
        {
          "internalType": "contract IIpt",
          "name": "",
          "type": "address"
        }
      ],
      "stateMutability": "view",
      "type": "function"
    },
    {
      "inputs": [
        {
          "internalType": "address",
          "name": "",
          "type": "address"
        }
      ],
      "name": "latestProposalIds",
      "outputs": [
        {
          "internalType": "uint256",
          "name": "",
          "type": "uint256"
        }
      ],
      "stateMutability": "view",
      "type": "function"
    },
    {
      "inputs": [],
      "name": "proposalCount",
      "outputs": [
        {
          "internalType": "uint256",
          "name": "",
          "type": "uint256"
        }
      ],
      "stateMutability": "view",
      "type": "function"
    },
    {
      "inputs": [
        {
          "internalType": "uint256",
          "name": "",
          "type": "uint256"
        },
        {
          "internalType": "address",
          "name": "",
          "type": "address"
        }
      ],
      "name": "proposalReceipts",
      "outputs": [
        {
          "internalType": "bool",
          "name": "hasVoted",
          "type": "bool"
        },
        {
          "internalType": "uint8",
          "name": "support",
          "type": "uint8"
        },
        {
          "internalType": "uint96",
          "name": "votes",
          "type": "uint96"
        }
      ],
      "stateMutability": "view",
      "type": "function"
    },
    {
      "inputs": [],
      "name": "proposalThreshold",
      "outputs": [
        {
          "internalType": "uint256",
          "name": "",
          "type": "uint256"
        }
      ],
      "stateMutability": "view",
      "type": "function"
    },
    {
      "inputs": [],
      "name": "proposalTimelockDelay",
      "outputs": [
        {
          "internalType": "uint256",
          "name": "",
          "type": "uint256"
        }
      ],
      "stateMutability": "view",
      "type": "function"
    },
    {
      "inputs": [
        {
          "internalType": "uint256",
          "name": "",
          "type": "uint256"
        }
      ],
      "name": "proposals",
      "outputs": [
        {
          "internalType": "uint256",
          "name": "id",
          "type": "uint256"
        },
        {
          "internalType": "address",
          "name": "proposer",
          "type": "address"
        },
        {
          "internalType": "uint256",
          "name": "eta",
          "type": "uint256"
        },
        {
          "internalType": "uint256",
          "name": "startBlock",
          "type": "uint256"
        },
        {
          "internalType": "uint256",
          "name": "endBlock",
          "type": "uint256"
        },
        {
          "internalType": "uint256",
          "name": "forVotes",
          "type": "uint256"
        },
        {
          "internalType": "uint256",
          "name": "againstVotes",
          "type": "uint256"
        },
        {
          "internalType": "uint256",
          "name": "abstainVotes",
          "type": "uint256"
        },
        {
          "internalType": "bool",
          "name": "canceled",
          "type": "bool"
        },
        {
          "internalType": "bool",
          "name": "executed",
          "type": "bool"
        },
        {
          "internalType": "bool",
          "name": "emergency",
          "type": "bool"
        },
        {
          "internalType": "uint256",
          "name": "quorumVotes",
          "type": "uint256"
        },
        {
          "internalType": "uint256",
          "name": "delay",
          "type": "uint256"
        }
      ],
      "stateMutability": "view",
      "type": "function"
    },
    {
      "inputs": [
        {
          "internalType": "bytes32",
          "name": "",
          "type": "bytes32"
        }
      ],
      "name": "queuedTransactions",
      "outputs": [
        {
          "internalType": "bool",
          "name": "",
          "type": "bool"
        }
      ],
      "stateMutability": "view",
      "type": "function"
    },
    {
      "inputs": [],
      "name": "quorumVotes",
      "outputs": [
        {
          "internalType": "uint256",
          "name": "",
          "type": "uint256"
        }
      ],
      "stateMutability": "view",
      "type": "function"
    },
    {
      "inputs": [],
      "name": "votingDelay",
      "outputs": [
        {
          "internalType": "uint256",
          "name": "",
          "type": "uint256"
        }
      ],
      "stateMutability": "view",
      "type": "function"
    },
    {
      "inputs": [],
      "name": "votingPeriod",
      "outputs": [
        {
          "internalType": "uint256",
          "name": "",
          "type": "uint256"
        }
      ],
      "stateMutability": "view",
      "type": "function"
    },
    {
      "inputs": [
        {
          "internalType": "address",
          "name": "",
          "type": "address"
        }
      ],
      "name": "whitelistAccountExpirations",
      "outputs": [
        {
          "internalType": "uint256",
          "name": "",
          "type": "uint256"
        }
      ],
      "stateMutability": "view",
      "type": "function"
    },
    {
      "inputs": [],
      "name": "whitelistGuardian",
      "outputs": [
        {
          "internalType": "address",
          "name": "",
          "type": "address"
        }
      ],
      "stateMutability": "view",
      "type": "function"
    }
  ],
  "bytecode": "0x608060405234801561001057600080fd5b5061048f806100206000396000f3fe608060405234801561001057600080fd5b50600436106101215760003560e01c806366176743116100ad578063da35c66411610071578063da35c66414610385578063de7bc1271461038e578063f2b0653714610397578063fc4eee42146103ba578063fc66ff14146103c357600080fd5b806366176743146102dc5780637cae57bb14610357578063b58131b014610360578063c5a8425d14610369578063d50572ee1461037c57600080fd5b806318b62629116100f457806318b626291461027657806324bc1a641461027f57806338bd0dda146102885780633932abb1146102a85780635c60da1b146102b157600080fd5b8063013cf08b1461012657806302a251a314610222578063158ef93e1461023957806317977c6114610256575b600080fd5b6101ad6101343660046103d6565b60096020819052600091825260409091208054600182015460028301546007840154600885015495850154600a860154600b870154600c880154600d890154600e9099015497996001600160a01b0390971698959794969593949293919260ff808316936101008404821693620100009004909116918d565b604080519d8e526001600160a01b03909c1660208e01529a8c019990995260608b019790975260808a019590955260a089019390935260c088019190915260e08701521515610100860152151561012085015215156101408401526101608301526101808201526101a0015b60405180910390f35b61022b60045481565b604051908152602001610219565b6012546102469060ff1681565b6040519015158152602001610219565b61022b61026436600461040b565b600a6020526000908152604090205481565b61022b600f5481565b61022b60015481565b61022b61029636600461040b565b600d6020526000908152604090205481565b61022b60035481565b6000546102c4906001600160a01b031681565b6040516001600160a01b039091168152602001610219565b61032a6102ea36600461042d565b601160209081526000928352604080842090915290825290205460ff808216916101008104909116906201000090046bffffffffffffffffffffffff1683565b60408051931515845260ff90921660208401526bffffffffffffffffffffffff1690820152606001610219565b61022b600c5481565b61022b60055481565b600e546102c4906001600160a01b031681565b61022b60025481565b61022b60075481565b61022b60105481565b6102466103a53660046103d6565b600b6020526000908152604090205460ff1681565b61022b60065481565b6008546102c4906001600160a01b031681565b6000602082840312156103e857600080fd5b5035919050565b80356001600160a01b038116811461040657600080fd5b919050565b60006020828403121561041d57600080fd5b610426826103ef565b9392505050565b6000806040838503121561044057600080fd5b82359150610450602084016103ef565b9050925092905056fea2646970667358221220b0291f6ff1bf78806bb1a739366ab72ceb1a4b2fc5f848dd5adebb38896a561164736f6c63430008090033",
  "linkReferences": {},
  "deployedLinkReferences": {}
}