{
  "_format": "hh-sol-artifact-1",
  "contractName": "TokenDelegatorStorage",
  "sourceName": "contracts/governance/token/TokenStorage.sol",
  "abi": [
    {
      "inputs": [],
      "name": "decimals",
      "outputs": [
        {
          "internalType": "uint8",
          "name": "",
          "type": "uint8"
        }
      ],
      "stateMutability": "view",
      "type": "function"
    },
    {
      "inputs": [],
      "name": "implementation",
      "outputs": [
        {
          "internalType": "address",
          "name": "",
          "type": "address"
        }
      ],
      "stateMutability": "view",
      "type": "function"
    },
    {
      "inputs": [],
      "name": "name",
      "outputs": [
        {
          "internalType": "string",
          "name": "",
          "type": "string"
        }
      ],
      "stateMutability": "view",
      "type": "function"
    },
    {
      "inputs": [],
      "name": "owner",
      "outputs": [
        {
          "internalType": "address",
          "name": "",
          "type": "address"
        }
      ],
      "stateMutability": "view",
      "type": "function"
    },
    {
      "inputs": [],
      "name": "symbol",
      "outputs": [
        {
          "internalType": "string",
          "name": "",
          "type": "string"
        }
      ],
      "stateMutability": "view",
      "type": "function"
    },
    {
      "inputs": [],
      "name": "totalSupply",
      "outputs": [
        {
          "internalType": "uint256",
          "name": "",
          "type": "uint256"
        }
      ],
      "stateMutability": "view",
      "type": "function"
    }
  ],
  "bytecode": "0x60c06040526011608081905270125b9d195c995cdd08141c9bdd1bd8dbdb607a1b60a09081526100329160019190610070565b506040805180820190915260038082526212541560ea1b602090920191825261005d91600291610070565b5034801561006a57600080fd5b50610144565b82805461007c90610109565b90600052602060002090601f01602090048101928261009e57600085556100e4565b82601f106100b757805160ff19168380011785556100e4565b828001600101855582156100e4579182015b828111156100e45782518255916020019190600101906100c9565b506100f09291506100f4565b5090565b5b808211156100f057600081556001016100f5565b600181811c9082168061011d57607f821691505b6020821081141561013e57634e487b7160e01b600052602260045260246000fd5b50919050565b61025d806101536000396000f3fe608060405234801561001057600080fd5b50600436106100625760003560e01c806306fdde031461006757806318160ddd14610085578063313ce5671461009c5780635c60da1b146100b65780638da5cb5b146100e157806395d89b41146100f4575b600080fd5b61006f6100fc565b60405161007c9190610197565b60405180910390f35b61008e60035481565b60405190815260200161007c565b6100a4601281565b60405160ff909116815260200161007c565b6000546100c9906001600160a01b031681565b6040516001600160a01b03909116815260200161007c565b6004546100c9906001600160a01b031681565b61006f61018a565b60018054610109906101ec565b80601f0160208091040260200160405190810160405280929190818152602001828054610135906101ec565b80156101825780601f1061015757610100808354040283529160200191610182565b820191906000526020600020905b81548152906001019060200180831161016557829003601f168201915b505050505081565b60028054610109906101ec565b600060208083528351808285015260005b818110156101c4578581018301518582016040015282016101a8565b818111156101d6576000604083870101525b50601f01601f1916929092016040019392505050565b600181811c9082168061020057607f821691505b6020821081141561022157634e487b7160e01b600052602260045260246000fd5b5091905056fea26469706673582212209b569fa9c045895b43a773a48125d1c223a90a1645269bd5ea30288d4a4bb4aa64736f6c63430008090033",
  "linkReferences": {},
  "deployedLinkReferences": {}
}