{
  "_format": "hh-sol-artifact-1",
  "contractName": "TokenDelegateStorageV1",
  "sourceName": "contracts/governance/token/TokenStorage.sol",
  "abi": [
    {
      "inputs": [
        {
          "internalType": "address",
          "name": "",
          "type": "address"
        },
        {
          "internalType": "uint32",
          "name": "",
          "type": "uint32"
        }
      ],
      "name": "checkpoints",
      "outputs": [
        {
          "internalType": "uint32",
          "name": "fromBlock",
          "type": "uint32"
        },
        {
          "internalType": "uint96",
          "name": "votes",
          "type": "uint96"
        }
      ],
      "stateMutability": "view",
      "type": "function"
    },
    {
      "inputs": [],
      "name": "decimals",
      "outputs": [
        {
          "internalType": "uint8",
          "name": "",
          "type": "uint8"
        }
      ],
      "stateMutability": "view",
      "type": "function"
    },
    {
      "inputs": [
        {
          "internalType": "address",
          "name": "",
          "type": "address"
        }
      ],
      "name": "delegates",
      "outputs": [
        {
          "internalType": "address",
          "name": "",
          "type": "address"
        }
      ],
      "stateMutability": "view",
      "type": "function"
    },
    {
      "inputs": [],
      "name": "implementation",
      "outputs": [
        {
          "internalType": "address",
          "name": "",
          "type": "address"
        }
      ],
      "stateMutability": "view",
      "type": "function"
    },
    {
      "inputs": [],
      "name": "name",
      "outputs": [
        {
          "internalType": "string",
          "name": "",
          "type": "string"
        }
      ],
      "stateMutability": "view",
      "type": "function"
    },
    {
      "inputs": [
        {
          "internalType": "address",
          "name": "",
          "type": "address"
        }
      ],
      "name": "nonces",
      "outputs": [
        {
          "internalType": "uint256",
          "name": "",
          "type": "uint256"
        }
      ],
      "stateMutability": "view",
      "type": "function"
    },
    {
      "inputs": [
        {
          "internalType": "address",
          "name": "",
          "type": "address"
        }
      ],
      "name": "numCheckpoints",
      "outputs": [
        {
          "internalType": "uint32",
          "name": "",
          "type": "uint32"
        }
      ],
      "stateMutability": "view",
      "type": "function"
    },
    {
      "inputs": [],
      "name": "owner",
      "outputs": [
        {
          "internalType": "address",
          "name": "",
          "type": "address"
        }
      ],
      "stateMutability": "view",
      "type": "function"
    },
    {
      "inputs": [],
      "name": "symbol",
      "outputs": [
        {
          "internalType": "string",
          "name": "",
          "type": "string"
        }
      ],
      "stateMutability": "view",
      "type": "function"
    },
    {
      "inputs": [],
      "name": "totalSupply",
      "outputs": [
        {
          "internalType": "uint256",
          "name": "",
          "type": "uint256"
        }
      ],
      "stateMutability": "view",
      "type": "function"
    }
  ],
  "bytecode": "0x60c06040526011608081905270125b9d195c995cdd08141c9bdd1bd8dbdb607a1b60a09081526100329160019190610070565b506040805180820190915260038082526212541560ea1b602090920191825261005d91600291610070565b5034801561006a57600080fd5b50610144565b82805461007c90610109565b90600052602060002090601f01602090048101928261009e57600085556100e4565b82601f106100b757805160ff19168380011785556100e4565b828001600101855582156100e4579182015b828111156100e45782518255916020019190600101906100c9565b506100f09291506100f4565b5090565b5b808211156100f057600081556001016100f5565b600181811c9082168061011d57607f821691505b6020821081141561013e57634e487b7160e01b600052602260045260246000fd5b50919050565b61040d806101536000396000f3fe608060405234801561001057600080fd5b506004361061009e5760003560e01c80636fcfff45116100665780636fcfff45146101465780637ecebe00146101815780638da5cb5b146101a157806395d89b41146101b4578063f1127ed8146101bc57600080fd5b806306fdde03146100a357806318160ddd146100c1578063313ce567146100d8578063587cde1e146100f25780635c60da1b14610133575b600080fd5b6100ab61022e565b6040516100b891906102c9565b60405180910390f35b6100ca60035481565b6040519081526020016100b8565b6100e0601281565b60405160ff90911681526020016100b8565b61011b61010036600461033a565b6007602052600090815260409020546001600160a01b031681565b6040516001600160a01b0390911681526020016100b8565b60005461011b906001600160a01b031681565b61016c61015436600461033a565b60096020526000908152604090205463ffffffff1681565b60405163ffffffff90911681526020016100b8565b6100ca61018f36600461033a565b600a6020526000908152604090205481565b60045461011b906001600160a01b031681565b6100ab6102bc565b6102056101ca36600461035c565b600860209081526000928352604080842090915290825290205463ffffffff81169064010000000090046bffffffffffffffffffffffff1682565b6040805163ffffffff90931683526bffffffffffffffffffffffff9091166020830152016100b8565b6001805461023b9061039c565b80601f01602080910402602001604051908101604052809291908181526020018280546102679061039c565b80156102b45780601f10610289576101008083540402835291602001916102b4565b820191906000526020600020905b81548152906001019060200180831161029757829003601f168201915b505050505081565b6002805461023b9061039c565b600060208083528351808285015260005b818110156102f6578581018301518582016040015282016102da565b81811115610308576000604083870101525b50601f01601f1916929092016040019392505050565b80356001600160a01b038116811461033557600080fd5b919050565b60006020828403121561034c57600080fd5b6103558261031e565b9392505050565b6000806040838503121561036f57600080fd5b6103788361031e565b9150602083013563ffffffff8116811461039157600080fd5b809150509250929050565b600181811c908216806103b057607f821691505b602082108114156103d157634e487b7160e01b600052602260045260246000fd5b5091905056fea2646970667358221220ec54dd02d88f638f0b9d46300acad1a158f2ce7726c5da010ce5705608e1dfcc64736f6c63430008090033",
  "linkReferences": {},
  "deployedLinkReferences": {}
}