{
    "_format": "hh-sol-artifact-1",
    "contractName": "Vault",
    "sourceName": "contracts/lending/Vault.sol",
    "abi": [
        {
            "inputs": [
                {
                    "internalType": "uint256",
                    "name": "id",
                    "type": "uint256"
                },
                {
                    "internalType": "address",
                    "name": "minter",
                    "type": "address"
                },
                {
                    "internalType": "address",
                    "name": "master_address",
                    "type": "address"
                },
                {
                    "internalType": "address",
                    "name": "usdi_address",
                    "type": "address"
                }
            ],
            "stateMutability": "nonpayable",
            "type": "constructor"
        },
        {
            "anonymous": false,
            "inputs": [
                {
                    "indexed": false,
                    "internalType": "address",
                    "name": "token_address",
                    "type": "address"
                },
                {
                    "indexed": false,
                    "internalType": "uint256",
                    "name": "amount",
                    "type": "uint256"
                }
            ],
            "name": "Deposit",
            "type": "event"
        },
        {
            "anonymous": false,
            "inputs": [
                {
                    "indexed": false,
                    "internalType": "address",
                    "name": "token_address",
                    "type": "address"
                },
                {
                    "indexed": false,
                    "internalType": "uint256",
                    "name": "amount",
                    "type": "uint256"
                }
            ],
            "name": "Withdraw",
            "type": "event"
        },
        {
            "inputs": [],
            "name": "_baseLiability",
            "outputs": [
                {
                    "internalType": "uint256",
                    "name": "",
                    "type": "uint256"
                }
            ],
            "stateMutability": "view",
            "type": "function"
        },
        {
            "inputs": [],
            "name": "_id",
            "outputs": [
                {
                    "internalType": "uint256",
                    "name": "",
                    "type": "uint256"
                }
            ],
            "stateMutability": "view",
            "type": "function"
        },
        {
            "inputs": [],
            "name": "_masterAddress",
            "outputs": [
                {
                    "internalType": "address",
                    "name": "",
                    "type": "address"
                }
            ],
            "stateMutability": "view",
            "type": "function"
        },
        {
            "inputs": [],
            "name": "_minter",
            "outputs": [
                {
                    "internalType": "address",
                    "name": "",
                    "type": "address"
                }
            ],
            "stateMutability": "view",
            "type": "function"
        },
        {
            "inputs": [
                {
                    "internalType": "uint256",
                    "name": "base_amount",
                    "type": "uint256"
                }
            ],
            "name": "decrease_liability",
            "outputs": [
                {
                    "internalType": "uint256",
                    "name": "",
                    "type": "uint256"
                }
            ],
            "stateMutability": "nonpayable",
            "type": "function"
        },
        {
            "inputs": [
                {
                    "internalType": "address",
                    "name": "compLikeDelegatee",
                    "type": "address"
                },
                {
                    "internalType": "address",
                    "name": "CompLikeToken",
                    "type": "address"
                }
            ],
            "name": "delegateCompLikeTo",
            "outputs": [],
            "stateMutability": "nonpayable",
            "type": "function"
        },
        {
            "inputs": [
                {
                    "internalType": "address",
                    "name": "token_address",
                    "type": "address"
                },
                {
                    "internalType": "uint256",
                    "name": "amount",
                    "type": "uint256"
                }
            ],
            "name": "deposit_erc20",
            "outputs": [],
            "stateMutability": "nonpayable",
            "type": "function"
        },
        {
            "inputs": [
                {
                    "internalType": "address",
                    "name": "addr",
                    "type": "address"
                }
            ],
            "name": "getBalances",
            "outputs": [
                {
                    "internalType": "uint256",
                    "name": "",
                    "type": "uint256"
                }
            ],
            "stateMutability": "view",
            "type": "function"
        },
        {
            "inputs": [],
            "name": "BaseLiability",
            "outputs": [
                {
                    "internalType": "uint256",
                    "name": "",
                    "type": "uint256"
                }
            ],
            "stateMutability": "view",
            "type": "function"
        },
        {
            "inputs": [],
            "name": "getMinter",
            "outputs": [
                {
                    "internalType": "address",
                    "name": "",
                    "type": "address"
                }
            ],
            "stateMutability": "view",
            "type": "function"
        },
        {
            "inputs": [
                {
                    "internalType": "uint256",
                    "name": "base_amount",
                    "type": "uint256"
                }
            ],
            "name": "increase_liability",
            "outputs": [
                {
                    "internalType": "uint256",
                    "name": "",
                    "type": "uint256"
                }
            ],
            "stateMutability": "nonpayable",
            "type": "function"
        },
        {
            "inputs": [
                {
                    "internalType": "address",
                    "name": "_token",
                    "type": "address"
                },
                {
                    "internalType": "address",
                    "name": "_to",
                    "type": "address"
                },
                {
                    "internalType": "uint256",
                    "name": "_amount",
                    "type": "uint256"
                }
            ],
            "name": "masterTransfer",
            "outputs": [],
            "stateMutability": "nonpayable",
            "type": "function"
        },
        {
            "inputs": [
                {
                    "internalType": "address",
                    "name": "token_address",
                    "type": "address"
                },
                {
                    "internalType": "uint256",
                    "name": "amount",
                    "type": "uint256"
                }
            ],
            "name": "withdraw_erc20",
            "outputs": [],
            "stateMutability": "nonpayable",
            "type": "function"
        }
    ],
    "bytecode": "0x60806040523480156200001157600080fd5b50604051620012b4380380620012b4833981810160405281019062000037919062000232565b8360008190555082600160006101000a81548173ffffffffffffffffffffffffffffffffffffffff021916908373ffffffffffffffffffffffffffffffffffffffff16021790555080600260006101000a81548173ffffffffffffffffffffffffffffffffffffffff021916908373ffffffffffffffffffffffffffffffffffffffff16021790555080600360006101000a81548173ffffffffffffffffffffffffffffffffffffffff021916908373ffffffffffffffffffffffffffffffffffffffff16021790555081600460006101000a81548173ffffffffffffffffffffffffffffffffffffffff021916908373ffffffffffffffffffffffffffffffffffffffff16021790555081600560006101000a81548173ffffffffffffffffffffffffffffffffffffffff021916908373ffffffffffffffffffffffffffffffffffffffff16021790555050505050620002a4565b600080fd5b6000819050919050565b620001a78162000192565b8114620001b357600080fd5b50565b600081519050620001c7816200019c565b92915050565b600073ffffffffffffffffffffffffffffffffffffffff82169050919050565b6000620001fa82620001cd565b9050919050565b6200020c81620001ed565b81146200021857600080fd5b50565b6000815190506200022c8162000201565b92915050565b600080600080608085870312156200024f576200024e6200018d565b5b60006200025f87828801620001b6565b945050602062000272878288016200021b565b935050604062000285878288016200021b565b925050606062000298878288016200021b565b91505092959194509250565b61100080620002b46000396000f3fe608060405234801561001057600080fd5b50600436106100ce5760003560e01c80636075851e1161008c578063da7eeea511610066578063da7eeea5146101eb578063dafb27b61461021b578063f36675171461024b578063fe84d0ae14610269576100ce565b80636075851e14610181578063c84aae171461019f578063d16544f0146101cf576100ce565b80629fd1d6146100d357806305180237146100f15780631c9c79031461010f57806324a5af311461012b5780632f10b47a14610147578063578ec33f14610163575b600080fd5b6100db610287565b6040516100e89190610a22565b60405180910390f35b6100f9610291565b6040516101069190610a22565b60405180910390f35b61012960048036038101906101249190610acc565b610297565b005b61014560048036038101906101409190610b1f565b6103c4565b005b610161600480360381019061015c9190610b5f565b6105e3565b005b61016b6106ac565b6040516101789190610bae565b60405180910390f35b6101896106d2565b6040516101969190610bae565b60405180910390f35b6101b960048036038101906101b49190610bc9565b6106f8565b6040516101c69190610a22565b60405180910390f35b6101e960048036038101906101e49190610b1f565b61078a565b005b61020560048036038101906102009190610bf6565b6108a0565b6040516102129190610a22565b60405180910390f35b61023560048036038101906102309190610bf6565b61091a565b6040516102429190610a22565b60405180910390f35b6102536109d9565b6040516102609190610bae565b60405180910390f35b610271610a03565b60405161027e9190610a22565b60405180910390f35b6000600654905090565b60005481565b600460009054906101000a900473ffffffffffffffffffffffffffffffffffffffff1673ffffffffffffffffffffffffffffffffffffffff163373ffffffffffffffffffffffffffffffffffffffff16146102f157600080fd5b8273ffffffffffffffffffffffffffffffffffffffff166323b872dd3084846040518463ffffffff1660e01b815260040161032e93929190610c23565b602060405180830381600087803b15801561034857600080fd5b505af115801561035c573d6000803e3d6000fd5b505050506040513d601f19601f820116820180604052508101906103809190610c92565b6103bf576040517f08c379a00000000000000000000000000000000000000000000000000000000081526004016103b690610d1c565b60405180910390fd5b505050565b600160009054906101000a900473ffffffffffffffffffffffffffffffffffffffff1673ffffffffffffffffffffffffffffffffffffffff163373ffffffffffffffffffffffffffffffffffffffff161461041e57600080fd5b60008290508073ffffffffffffffffffffffffffffffffffffffff166323b872dd3033856040518463ffffffff1660e01b815260040161046093929190610c23565b602060405180830381600087803b15801561047a57600080fd5b505af115801561048e573d6000803e3d6000fd5b505050506040513d601f19601f820116820180604052508101906104b29190610c92565b506000600560009054906101000a900473ffffffffffffffffffffffffffffffffffffffff1673ffffffffffffffffffffffffffffffffffffffff16638b7482646000546040518263ffffffff1660e01b81526004016105129190610a22565b60206040518083038186803b15801561052a57600080fd5b505afa15801561053e573d6000803e3d6000fd5b505050506040513d601f19601f820116820180604052508101906105629190610c92565b9050806105a4576040517f08c379a000000000000000000000000000000000000000000000000000000000815260040161059b90610dae565b60405180910390fd5b7f884edad9ce6fa2440d8a54cc123490eb96d2768479d49ff9c7366125a942436484846040516105d5929190610dce565b60405180910390a150505050565b600160009054906101000a900473ffffffffffffffffffffffffffffffffffffffff1673ffffffffffffffffffffffffffffffffffffffff163373ffffffffffffffffffffffffffffffffffffffff161461063d57600080fd5b8073ffffffffffffffffffffffffffffffffffffffff16635c19a95c836040518263ffffffff1660e01b81526004016106769190610bae565b600060405180830381600087803b15801561069057600080fd5b505af11580156106a4573d6000803e3d6000fd5b505050505050565b600160009054906101000a900473ffffffffffffffffffffffffffffffffffffffff1681565b600460009054906101000a900473ffffffffffffffffffffffffffffffffffffffff1681565b60008173ffffffffffffffffffffffffffffffffffffffff166370a08231306040518263ffffffff1660e01b81526004016107339190610bae565b60206040518083038186803b15801561074b57600080fd5b505afa15801561075f573d6000803e3d6000fd5b505050506040513d601f19601f820116820180604052508101906107839190610e0c565b9050919050565b600081116107cd576040517f08c379a00000000000000000000000000000000000000000000000000000000081526004016107c490610e85565b60405180910390fd5b60008290508073ffffffffffffffffffffffffffffffffffffffff166323b872dd3330856040518463ffffffff1660e01b815260040161080f93929190610c23565b602060405180830381600087803b15801561082957600080fd5b505af115801561083d573d6000803e3d6000fd5b505050506040513d601f19601f820116820180604052508101906108619190610c92565b507fe1fffcc4923d04b559f4d29a8bfc6cda04eb5b0d3c460751c2402c5c5cc9109c8383604051610893929190610dce565b60405180910390a1505050565b6000600460009054906101000a900473ffffffffffffffffffffffffffffffffffffffff1673ffffffffffffffffffffffffffffffffffffffff163373ffffffffffffffffffffffffffffffffffffffff16146108fc57600080fd5b8160065461090a9190610ed4565b6006819055506006549050919050565b6000600460009054906101000a900473ffffffffffffffffffffffffffffffffffffffff1673ffffffffffffffffffffffffffffffffffffffff163373ffffffffffffffffffffffffffffffffffffffff161461097657600080fd5b8160065410156109bb576040517f08c379a00000000000000000000000000000000000000000000000000000000081526004016109b290610f76565b60405180910390fd5b816006546109c99190610f96565b6006819055506006549050919050565b6000600160009054906101000a900473ffffffffffffffffffffffffffffffffffffffff16905090565b60065481565b6000819050919050565b610a1c81610a09565b82525050565b6000602082019050610a376000830184610a13565b92915050565b600080fd5b600073ffffffffffffffffffffffffffffffffffffffff82169050919050565b6000610a6d82610a42565b9050919050565b610a7d81610a62565b8114610a8857600080fd5b50565b600081359050610a9a81610a74565b92915050565b610aa981610a09565b8114610ab457600080fd5b50565b600081359050610ac681610aa0565b92915050565b600080600060608486031215610ae557610ae4610a3d565b5b6000610af386828701610a8b565b9350506020610b0486828701610a8b565b9250506040610b1586828701610ab7565b9150509250925092565b60008060408385031215610b3657610b35610a3d565b5b6000610b4485828601610a8b565b9250506020610b5585828601610ab7565b9150509250929050565b60008060408385031215610b7657610b75610a3d565b5b6000610b8485828601610a8b565b9250506020610b9585828601610a8b565b9150509250929050565b610ba881610a62565b82525050565b6000602082019050610bc36000830184610b9f565b92915050565b600060208284031215610bdf57610bde610a3d565b5b6000610bed84828501610a8b565b91505092915050565b600060208284031215610c0c57610c0b610a3d565b5b6000610c1a84828501610ab7565b91505092915050565b6000606082019050610c386000830186610b9f565b610c456020830185610b9f565b610c526040830184610a13565b949350505050565b60008115159050919050565b610c6f81610c5a565b8114610c7a57600080fd5b50565b600081519050610c8c81610c66565b92915050565b600060208284031215610ca857610ca7610a3d565b5b6000610cb684828501610c7d565b91505092915050565b600082825260208201905092915050565b7f6d61737465725472616e736665723a205472616e73666572204661696c656400600082015250565b6000610d06601f83610cbf565b9150610d1182610cd0565b602082019050919050565b60006020820190508181036000830152610d3581610cf9565b9050919050565b7f7468697320776974686472617720776f756c64206d616b6520796f757220616360008201527f636f756e7420696e736f6c76656e740000000000000000000000000000000000602082015250565b6000610d98602f83610cbf565b9150610da382610d3c565b604082019050919050565b60006020820190508181036000830152610dc781610d8b565b9050919050565b6000604082019050610de36000830185610b9f565b610df06020830184610a13565b9392505050565b600081519050610e0681610aa0565b92915050565b600060208284031215610e2257610e21610a3d565b5b6000610e3084828501610df7565b91505092915050565b7f63616e6e6f74206465706f736974203000000000000000000000000000000000600082015250565b6000610e6f601083610cbf565b9150610e7a82610e39565b602082019050919050565b60006020820190508181036000830152610e9e81610e62565b9050919050565b7f4e487b7100000000000000000000000000000000000000000000000000000000600052601160045260246000fd5b6000610edf82610a09565b9150610eea83610a09565b9250827fffffffffffffffffffffffffffffffffffffffffffffffffffffffffffffffff03821115610f1f57610f1e610ea5565b5b828201905092915050565b7f63616e6e6f74207265706179206d6f7265207468616e206973206f7765640000600082015250565b6000610f60601e83610cbf565b9150610f6b82610f2a565b602082019050919050565b60006020820190508181036000830152610f8f81610f53565b9050919050565b6000610fa182610a09565b9150610fac83610a09565b925082821015610fbf57610fbe610ea5565b5b82820390509291505056fea2646970667358221220566e6c1ee03f86927ae233b4877025e883af034b50c8e8274678ff1d5fb1526564736f6c63430008090033",
    "linkReferences": {},
    "deployedLinkReferences": {}
}