{
  "_format": "hh-sol-artifact-1",
  "contractName": "USDI",
  "sourceName": "contracts/USDI.sol",
  "abi": [
    {
      "anonymous": false,
      "inputs": [
        {
          "indexed": true,
          "internalType": "address",
          "name": "owner",
          "type": "address"
        },
        {
          "indexed": true,
          "internalType": "address",
          "name": "spender",
          "type": "address"
        },
        {
          "indexed": false,
          "internalType": "uint256",
          "name": "value",
          "type": "uint256"
        }
      ],
      "name": "Approval",
      "type": "event"
    },
    {
      "anonymous": false,
      "inputs": [
        {
          "indexed": false,
          "internalType": "address",
          "name": "from",
          "type": "address"
        },
        {
          "indexed": false,
          "internalType": "uint256",
          "name": "_value",
          "type": "uint256"
        }
      ],
      "name": "Burn",
      "type": "event"
    },
    {
      "anonymous": false,
      "inputs": [
        {
          "indexed": true,
          "internalType": "address",
          "name": "_from",
          "type": "address"
        },
        {
          "indexed": false,
          "internalType": "uint256",
          "name": "_value",
          "type": "uint256"
        }
      ],
      "name": "Deposit",
      "type": "event"
    },
    {
      "anonymous": false,
      "inputs": [
        {
          "indexed": true,
          "internalType": "address",
          "name": "_from",
          "type": "address"
        },
        {
          "indexed": false,
          "internalType": "uint256",
          "name": "_value",
          "type": "uint256"
        },
        {
          "indexed": false,
          "internalType": "uint256",
          "name": "_totalSupply",
          "type": "uint256"
        }
      ],
      "name": "Donation",
      "type": "event"
    },
    {
      "anonymous": false,
      "inputs": [
        {
          "indexed": false,
          "internalType": "address",
          "name": "monetaryPolicy",
          "type": "address"
        }
      ],
      "name": "LogMonetaryPolicyUpdated",
      "type": "event"
    },
    {
      "anonymous": false,
      "inputs": [
        {
          "indexed": true,
          "internalType": "uint256",
          "name": "epoch",
          "type": "uint256"
        },
        {
          "indexed": false,
          "internalType": "uint256",
          "name": "totalSupply",
          "type": "uint256"
        }
      ],
      "name": "LogRebase",
      "type": "event"
    },
    {
      "anonymous": false,
      "inputs": [
        {
          "indexed": false,
          "internalType": "address",
          "name": "to",
          "type": "address"
        },
        {
          "indexed": false,
          "internalType": "uint256",
          "name": "_value",
          "type": "uint256"
        }
      ],
      "name": "Mint",
      "type": "event"
    },
    {
      "anonymous": false,
      "inputs": [
        {
          "indexed": true,
          "internalType": "address",
          "name": "previousOwner",
          "type": "address"
        },
        {
          "indexed": true,
          "internalType": "address",
          "name": "newOwner",
          "type": "address"
        }
      ],
      "name": "OwnershipTransferred",
      "type": "event"
    },
    {
      "anonymous": false,
      "inputs": [
        {
          "indexed": false,
          "internalType": "address",
          "name": "account",
          "type": "address"
        }
      ],
      "name": "Paused",
      "type": "event"
    },
    {
      "anonymous": false,
      "inputs": [
        {
          "indexed": true,
          "internalType": "address",
          "name": "from",
          "type": "address"
        },
        {
          "indexed": true,
          "internalType": "address",
          "name": "to",
          "type": "address"
        },
        {
          "indexed": false,
          "internalType": "uint256",
          "name": "value",
          "type": "uint256"
        }
      ],
      "name": "Transfer",
      "type": "event"
    },
    {
      "anonymous": false,
      "inputs": [
        {
          "indexed": false,
          "internalType": "address",
          "name": "account",
          "type": "address"
        }
      ],
      "name": "Unpaused",
      "type": "event"
    },
    {
      "anonymous": false,
      "inputs": [
        {
          "indexed": true,
          "internalType": "address",
          "name": "_from",
          "type": "address"
        },
        {
          "indexed": false,
          "internalType": "uint256",
          "name": "_value",
          "type": "uint256"
        }
      ],
      "name": "Withdraw",
      "type": "event"
    },
    {
      "inputs": [],
      "name": "DOMAIN_SEPARATOR",
      "outputs": [
        {
          "internalType": "bytes32",
          "name": "",
          "type": "bytes32"
        }
      ],
      "stateMutability": "view",
      "type": "function"
    },
    {
      "inputs": [],
      "name": "EIP712_DOMAIN",
      "outputs": [
        {
          "internalType": "bytes32",
          "name": "",
          "type": "bytes32"
        }
      ],
      "stateMutability": "view",
      "type": "function"
    },
    {
      "inputs": [],
      "name": "EIP712_REVISION",
      "outputs": [
        {
          "internalType": "string",
          "name": "",
          "type": "string"
        }
      ],
      "stateMutability": "view",
      "type": "function"
    },
    {
      "inputs": [],
      "name": "MAX_SUPPLY",
      "outputs": [
        {
          "internalType": "uint256",
          "name": "",
          "type": "uint256"
        }
      ],
      "stateMutability": "view",
      "type": "function"
    },
    {
      "inputs": [],
      "name": "PERMIT_TYPEHASH",
      "outputs": [
        {
          "internalType": "bytes32",
          "name": "",
          "type": "bytes32"
        }
      ],
      "stateMutability": "view",
      "type": "function"
    },
    {
      "inputs": [],
      "name": "_VaultControllerAddress",
      "outputs": [
        {
          "internalType": "address",
          "name": "",
          "type": "address"
        }
      ],
      "stateMutability": "view",
      "type": "function"
    },
    {
      "inputs": [
        {
          "internalType": "string",
          "name": "name_",
          "type": "string"
        },
        {
          "internalType": "string",
          "name": "symbol_",
          "type": "string"
        },
        {
          "internalType": "uint8",
          "name": "decimals_",
          "type": "uint8"
        }
      ],
      "name": "__ERC20Detailed_init",
      "outputs": [],
      "stateMutability": "nonpayable",
      "type": "function"
    },
    {
      "inputs": [
        {
          "internalType": "string",
          "name": "name",
          "type": "string"
        },
        {
          "internalType": "string",
          "name": "symbol",
          "type": "string"
        }
      ],
      "name": "__UFragments_init",
      "outputs": [],
      "stateMutability": "nonpayable",
      "type": "function"
    },
    {
      "inputs": [
        {
          "internalType": "address",
          "name": "",
          "type": "address"
        }
      ],
      "name": "_gonBalances",
      "outputs": [
        {
          "internalType": "uint256",
          "name": "",
          "type": "uint256"
        }
      ],
      "stateMutability": "view",
      "type": "function"
    },
    {
      "inputs": [],
      "name": "_gonsPerFragment",
      "outputs": [
        {
          "internalType": "uint256",
          "name": "",
          "type": "uint256"
        }
      ],
      "stateMutability": "view",
      "type": "function"
    },
    {
      "inputs": [],
      "name": "_lenderAddress",
      "outputs": [
        {
          "internalType": "address",
          "name": "",
          "type": "address"
        }
      ],
      "stateMutability": "view",
      "type": "function"
    },
    {
      "inputs": [],
      "name": "_reserve",
      "outputs": [
        {
          "internalType": "contract IERC20",
          "name": "",
          "type": "address"
        }
      ],
      "stateMutability": "view",
      "type": "function"
    },
    {
      "inputs": [],
      "name": "_reserveAddress",
      "outputs": [
        {
          "internalType": "address",
          "name": "",
          "type": "address"
        }
      ],
      "stateMutability": "view",
      "type": "function"
    },
    {
      "inputs": [],
      "name": "_totalGons",
      "outputs": [
        {
          "internalType": "uint256",
          "name": "",
          "type": "uint256"
        }
      ],
      "stateMutability": "view",
      "type": "function"
    },
    {
      "inputs": [],
      "name": "_totalSupply",
      "outputs": [
        {
          "internalType": "uint256",
          "name": "",
          "type": "uint256"
        }
      ],
      "stateMutability": "view",
      "type": "function"
    },
    {
      "inputs": [
        {
          "internalType": "address",
          "name": "owner_",
          "type": "address"
        },
        {
          "internalType": "address",
          "name": "spender",
          "type": "address"
        }
      ],
      "name": "allowance",
      "outputs": [
        {
          "internalType": "uint256",
          "name": "",
          "type": "uint256"
        }
      ],
      "stateMutability": "view",
      "type": "function"
    },
    {
      "inputs": [
        {
          "internalType": "address",
          "name": "spender",
          "type": "address"
        },
        {
          "internalType": "uint256",
          "name": "value",
          "type": "uint256"
        }
      ],
      "name": "approve",
      "outputs": [
        {
          "internalType": "bool",
          "name": "",
          "type": "bool"
        }
      ],
      "stateMutability": "nonpayable",
      "type": "function"
    },
    {
      "inputs": [
        {
          "internalType": "address",
          "name": "who",
          "type": "address"
        }
      ],
      "name": "balanceOf",
      "outputs": [
        {
          "internalType": "uint256",
          "name": "",
          "type": "uint256"
        }
      ],
      "stateMutability": "view",
      "type": "function"
    },
    {
      "inputs": [
        {
          "internalType": "uint256",
          "name": "usdc_amount",
          "type": "uint256"
        }
      ],
      "name": "burn",
      "outputs": [],
      "stateMutability": "nonpayable",
      "type": "function"
    },
    {
      "inputs": [],
      "name": "decimals",
      "outputs": [
        {
          "internalType": "uint8",
          "name": "",
          "type": "uint8"
        }
      ],
      "stateMutability": "view",
      "type": "function"
    },
    {
      "inputs": [
        {
          "internalType": "address",
          "name": "spender",
          "type": "address"
        },
        {
          "internalType": "uint256",
          "name": "subtractedValue",
          "type": "uint256"
        }
      ],
      "name": "decreaseAllowance",
      "outputs": [
        {
          "internalType": "bool",
          "name": "",
          "type": "bool"
        }
      ],
      "stateMutability": "nonpayable",
      "type": "function"
    },
    {
      "inputs": [
        {
          "internalType": "uint256",
          "name": "usdc_amount",
          "type": "uint256"
        }
      ],
      "name": "deposit",
      "outputs": [],
      "stateMutability": "nonpayable",
      "type": "function"
    },
    {
      "inputs": [
        {
          "internalType": "address",
          "name": "spender",
          "type": "address"
        },
        {
          "internalType": "uint256",
          "name": "addedValue",
          "type": "uint256"
        }
      ],
      "name": "increaseAllowance",
      "outputs": [
        {
          "internalType": "bool",
          "name": "",
          "type": "bool"
        }
      ],
      "stateMutability": "nonpayable",
      "type": "function"
    },
    {
      "inputs": [
        {
          "internalType": "address",
          "name": "reserveAddress",
          "type": "address"
        }
      ],
      "name": "initialize",
      "outputs": [],
      "stateMutability": "nonpayable",
      "type": "function"
    },
    {
      "inputs": [
        {
          "internalType": "uint256",
          "name": "usdc_amount",
          "type": "uint256"
        }
      ],
      "name": "mint",
      "outputs": [],
      "stateMutability": "nonpayable",
      "type": "function"
    },
    {
      "inputs": [],
      "name": "monetaryPolicy",
      "outputs": [
        {
          "internalType": "address",
          "name": "",
          "type": "address"
        }
      ],
      "stateMutability": "view",
      "type": "function"
    },
    {
      "inputs": [],
      "name": "name",
      "outputs": [
        {
          "internalType": "string",
          "name": "",
          "type": "string"
        }
      ],
      "stateMutability": "view",
      "type": "function"
    },
    {
      "inputs": [
        {
          "internalType": "address",
          "name": "who",
          "type": "address"
        }
      ],
      "name": "nonces",
      "outputs": [
        {
          "internalType": "uint256",
          "name": "",
          "type": "uint256"
        }
      ],
      "stateMutability": "view",
      "type": "function"
    },
    {
      "inputs": [],
      "name": "owner",
      "outputs": [
        {
          "internalType": "address",
          "name": "",
          "type": "address"
        }
      ],
      "stateMutability": "view",
      "type": "function"
    },
    {
      "inputs": [],
      "name": "pause",
      "outputs": [],
      "stateMutability": "nonpayable",
      "type": "function"
    },
    {
      "inputs": [],
      "name": "paused",
      "outputs": [
        {
          "internalType": "bool",
          "name": "",
          "type": "bool"
        }
      ],
      "stateMutability": "view",
      "type": "function"
    },
    {
      "inputs": [
        {
          "internalType": "address",
          "name": "owner",
          "type": "address"
        },
        {
          "internalType": "address",
          "name": "spender",
          "type": "address"
        },
        {
          "internalType": "uint256",
          "name": "value",
          "type": "uint256"
        },
        {
          "internalType": "uint256",
          "name": "deadline",
          "type": "uint256"
        },
        {
          "internalType": "uint8",
          "name": "v",
          "type": "uint8"
        },
        {
          "internalType": "bytes32",
          "name": "r",
          "type": "bytes32"
        },
        {
          "internalType": "bytes32",
          "name": "s",
          "type": "bytes32"
        }
      ],
      "name": "permit",
      "outputs": [],
      "stateMutability": "nonpayable",
      "type": "function"
    },
    {
      "inputs": [
        {
          "internalType": "uint256",
          "name": "epoch",
          "type": "uint256"
        },
        {
          "internalType": "uint256",
          "name": "supplyAdd",
          "type": "uint256"
        },
        {
          "internalType": "uint256",
          "name": "supplyRemove",
          "type": "uint256"
        }
      ],
      "name": "rebase",
      "outputs": [
        {
          "internalType": "uint256",
          "name": "",
          "type": "uint256"
        }
      ],
      "stateMutability": "nonpayable",
      "type": "function"
    },
    {
      "inputs": [],
      "name": "renounceOwnership",
      "outputs": [],
      "stateMutability": "nonpayable",
      "type": "function"
    },
    {
      "inputs": [],
      "name": "reserveRatio",
      "outputs": [
        {
          "internalType": "uint256",
          "name": "e18_reserve_ratio",
          "type": "uint256"
        }
      ],
      "stateMutability": "view",
      "type": "function"
    },
    {
      "inputs": [
        {
          "internalType": "address",
          "name": "who",
          "type": "address"
        }
      ],
      "name": "scaledBalanceOf",
      "outputs": [
        {
          "internalType": "uint256",
          "name": "",
          "type": "uint256"
        }
      ],
      "stateMutability": "view",
      "type": "function"
    },
    {
      "inputs": [],
      "name": "scaledTotalSupply",
      "outputs": [
        {
          "internalType": "uint256",
          "name": "",
          "type": "uint256"
        }
      ],
      "stateMutability": "view",
      "type": "function"
    },
    {
      "inputs": [
        {
          "internalType": "address",
          "name": "monetaryPolicy_",
          "type": "address"
        }
      ],
      "name": "setMonetaryPolicy",
      "outputs": [],
      "stateMutability": "nonpayable",
      "type": "function"
    },
    {
      "inputs": [
        {
          "internalType": "address",
          "name": "vault_master_address",
          "type": "address"
        }
      ],
      "name": "setVaultController",
      "outputs": [],
      "stateMutability": "nonpayable",
      "type": "function"
    },
    {
      "inputs": [],
      "name": "symbol",
      "outputs": [
        {
          "internalType": "string",
          "name": "",
          "type": "string"
        }
      ],
      "stateMutability": "view",
      "type": "function"
    },
    {
      "inputs": [],
      "name": "totalSupply",
      "outputs": [
        {
          "internalType": "uint256",
          "name": "",
          "type": "uint256"
        }
      ],
      "stateMutability": "view",
      "type": "function"
    },
    {
      "inputs": [
        {
          "internalType": "address",
          "name": "to",
          "type": "address"
        },
        {
          "internalType": "uint256",
          "name": "value",
          "type": "uint256"
        }
      ],
      "name": "transfer",
      "outputs": [
        {
          "internalType": "bool",
          "name": "",
          "type": "bool"
        }
      ],
      "stateMutability": "nonpayable",
      "type": "function"
    },
    {
      "inputs": [
        {
          "internalType": "address",
          "name": "to",
          "type": "address"
        }
      ],
      "name": "transferAll",
      "outputs": [
        {
          "internalType": "bool",
          "name": "",
          "type": "bool"
        }
      ],
      "stateMutability": "nonpayable",
      "type": "function"
    },
    {
      "inputs": [
        {
          "internalType": "address",
          "name": "from",
          "type": "address"
        },
        {
          "internalType": "address",
          "name": "to",
          "type": "address"
        }
      ],
      "name": "transferAllFrom",
      "outputs": [
        {
          "internalType": "bool",
          "name": "",
          "type": "bool"
        }
      ],
      "stateMutability": "nonpayable",
      "type": "function"
    },
    {
      "inputs": [
        {
          "internalType": "address",
          "name": "from",
          "type": "address"
        },
        {
          "internalType": "address",
          "name": "to",
          "type": "address"
        },
        {
          "internalType": "uint256",
          "name": "value",
          "type": "uint256"
        }
      ],
      "name": "transferFrom",
      "outputs": [
        {
          "internalType": "bool",
          "name": "",
          "type": "bool"
        }
      ],
      "stateMutability": "nonpayable",
      "type": "function"
    },
    {
      "inputs": [
        {
          "internalType": "address",
          "name": "newOwner",
          "type": "address"
        }
      ],
      "name": "transferOwnership",
      "outputs": [],
      "stateMutability": "nonpayable",
      "type": "function"
    },
    {
      "inputs": [],
      "name": "unpause",
      "outputs": [],
      "stateMutability": "nonpayable",
      "type": "function"
    },
    {
      "inputs": [
        {
          "internalType": "address",
          "name": "target",
          "type": "address"
        },
        {
          "internalType": "uint256",
          "name": "amount",
          "type": "uint256"
        }
      ],
      "name": "vault_master_burn",
      "outputs": [],
      "stateMutability": "nonpayable",
      "type": "function"
    },
    {
      "inputs": [
        {
          "internalType": "uint256",
          "name": "amount",
          "type": "uint256"
        }
      ],
      "name": "vault_master_donate",
      "outputs": [],
      "stateMutability": "nonpayable",
      "type": "function"
    },
    {
      "inputs": [
        {
          "internalType": "address",
          "name": "target",
          "type": "address"
        },
        {
          "internalType": "uint256",
          "name": "amount",
          "type": "uint256"
        }
      ],
      "name": "vault_master_mint",
      "outputs": [],
      "stateMutability": "nonpayable",
      "type": "function"
    },
    {
      "inputs": [
        {
          "internalType": "uint256",
          "name": "usdc_amount",
          "type": "uint256"
        }
      ],
      "name": "withdraw",
      "outputs": [],
      "stateMutability": "nonpayable",
      "type": "function"
    }
  ],
  "bytecode": "0x608060405234801561001057600080fd5b50612ba6806100206000396000f3fe608060405234801561001057600080fd5b50600436106102f15760003560e01c806384d4b4101161019d578063ae5b5b11116100e9578063c8e142ff116100a2578063dd62ed3e1161007c578063dd62ed3e14610692578063e1b11da4146106cb578063f2fde38b146106f2578063fd5eb09d1461070557600080fd5b8063c8e142ff14610659578063d505accf1461066c578063da004a6d1461067f57600080fd5b8063ae5b5b11146105fc578063b1bf962d1461060f578063b6b55f2514610617578063c1fcfcc21461062a578063c4996f511461063d578063c4d66de81461064657600080fd5b80639c9ee2bb11610156578063a3a7e7f311610130578063a3a7e7f3146105b0578063a457c2d7146105c3578063a48daa4f146105d6578063a9059cbb146105e957600080fd5b80639c9ee2bb14610577578063a0712d681461058a578063a10daee31461059d57600080fd5b806384d4b410146105125780638b5a6a08146105255780638da5cb5b146105385780638e27d7d71461054957806395d89b411461055c57806399747f151461056457600080fd5b806336fed9751161025c57806342966c6811610215578063715018a6116101ef578063715018a6146104b957806378160376146104c15780637ecebe00146104e15780638456cb591461050a57600080fd5b806342966c68146104885780635c975abb1461049b57806370a08231146104a657600080fd5b806336fed975146104065780633769175f1461042657806339509351146104395780633eaaf86b1461044c5780633f4ba83a14610455578063413ab4a81461045d57600080fd5b806323b872dd116102ae57806323b872dd146103935780632e1a7d4d146103a657806330adf81f146103b9578063313ce567146103e057806332cb6b0c146103f55780633644e515146103fe57600080fd5b806306fdde03146102f6578063095ea7b3146103145780630c7d5cd81461033757806318160ddd1461034d5780631da24f3e1461035557806320f9a39a1461037e575b600080fd5b6102fe61070e565b60405161030b91906124c7565b60405180910390f35b610327610322366004612538565b6107a0565b604051901515815260200161030b565b61033f6107fb565b60405190815260200161030b565b60cf5461033f565b61033f610363366004612562565b6001600160a01b0316600090815260d1602052604090205490565b61039161038c366004612538565b6108af565b005b6103276103a136600461257d565b6109a0565b6103916103b43660046125b9565b610adc565b61033f7f6e71edae12b1b97f4d1f60370fef10105fa2faae0126114a169c64845d6126c981565b60995460405160ff909116815260200161030b565b61033f60ce5481565b61033f610dd4565b61033f610414366004612562565b60d16020526000908152604090205481565b610391610434366004612675565b610e80565b610327610447366004612538565b610fc4565b61033f60cf5481565b610391611038565b60d554610470906001600160a01b031681565b6040516001600160a01b03909116815260200161030b565b6103916104963660046125b9565b61106c565b60335460ff16610327565b61033f6104b4366004612562565b6111dc565b610391611203565b6102fe604051806040016040528060018152602001603160f81b81525081565b61033f6104ef366004612562565b6001600160a01b0316600090815260d3602052604090205490565b610391611237565b6103276105203660046126d9565b611269565b610391610533366004612562565b61137a565b6065546001600160a01b0316610470565b60cc54610470906001600160a01b031681565b6102fe6113f8565b610391610572366004612562565b611407565b60d754610470906001600160a01b031681565b6103916105983660046125b9565b61145d565b6103916105ab36600461271d565b6115ca565b6103276105be366004612562565b611670565b6103276105d1366004612538565b611740565b61033f6105e4366004612791565b6117d0565b6103276105f7366004612538565b6118d8565b60d454610470906001600160a01b031681565b60cd5461033f565b6103916106253660046125b9565b6119b1565b6103916106383660046125b9565b611c19565b61033f60d05481565b610391610654366004612562565b611cc0565b60d654610470906001600160a01b031681565b61039161067a3660046127bd565b611da8565b61039161068d366004612538565b611f5f565b61033f6106a03660046126d9565b6001600160a01b03918216600090815260d26020908152604080832093909416825291909152205490565b61033f7f8b73c3c69bb8fe3d512ecc4cf759cc79239f7b179b0ffacaa9a75d522b39400f81565b610391610700366004612562565b6120b2565b61033f60cd5481565b60606097805461071d90612827565b80601f016020809104026020016040519081016040528092919081815260200182805461074990612827565b80156107965780601f1061076b57610100808354040283529160200191610796565b820191906000526020600020905b81548152906001019060200180831161077957829003601f168201915b5050505050905090565b33600081815260d2602090815260408083206001600160a01b03871680855292528083208590555191929091600080516020612b51833981519152906107e99086815260200190565b60405180910390a35060015b92915050565b60cf5460d5546040516370a0823160e01b815230600482015260009291670de0b6b3a7640000916001600160a01b03909116906370a082319060240160206040518083038186803b15801561084f57600080fd5b505afa158015610863573d6000803e3d6000fd5b505050506040513d601f19601f82011682018060405250810190610887919061285c565b610891919061288b565b61089b91906128aa565b6108aa9064e8d4a5100061288b565b905090565b60d7546001600160a01b031633146108e25760405162461bcd60e51b81526004016108d9906128cc565b60405180910390fd5b60d0546108ef908261288b565b6001600160a01b038316600090815260d1602052604090205461091291906128f7565b6001600160a01b038316600090815260d1602052604090205560cf546109399082906128f7565b60cf5560d054610949908261288b565b60cd5461095691906128f7565b60cd55604080516001600160a01b0384168152602081018390527f0f6798a560793a54c3bcfe86a93cde1e73087d944c0ea20544137d412139688591015b60405180910390a15050565b6000826001600160a01b0381166109b657600080fd5b6001600160a01b0381163014156109cc57600080fd5b6001600160a01b038516600090815260d2602090815260408083203384529091529020546109fb90849061290f565b6001600160a01b038616600090815260d26020908152604080832033845290915281209190915560d054610a2f908561288b565b6001600160a01b038716600090815260d16020526040902054909150610a5690829061290f565b6001600160a01b03808816600090815260d160205260408082209390935590871681522054610a869082906128f7565b6001600160a01b03808716600081815260d160205260409081902093909355915190881690600080516020612b3183398151915290610ac89088815260200190565b60405180910390a350600195945050505050565b60335460ff1615610aff5760405162461bcd60e51b81526004016108d990612926565b6000610b108264e8d4a5100061288b565b905060008111610b565760405162461bcd60e51b8152602060048201526011602482015270043616e6e6f74207769746864726177203607c1b60448201526064016108d9565b60d5546040516370a0823160e01b81523060048201526000916001600160a01b0316906370a082319060240160206040518083038186803b158015610b9a57600080fd5b505afa158015610bae573d6000803e3d6000fd5b505050506040513d601f19601f82011682018060405250810190610bd2919061285c565b905082811015610c245760405162461bcd60e51b815260206004820152601c60248201527f496e73756666696369656e74205265736572766520696e2042616e6b0000000060448201526064016108d9565b60d55460405163095ea7b360e01b8152306004820152602481018590526001600160a01b039091169063095ea7b390604401602060405180830381600087803b158015610c7057600080fd5b505af1158015610c84573d6000803e3d6000fd5b505050506040513d601f19601f82011682018060405250810190610ca89190612950565b5060d5546040516323b872dd60e01b8152306004820152336024820152604481018590526001600160a01b03909116906323b872dd90606401602060405180830381600087803b158015610cfb57600080fd5b505af1158015610d0f573d6000803e3d6000fd5b505050506040513d601f19601f82011682018060405250810190610d339190612950565b5060d054610d41908361288b565b33600090815260d16020526040902054610d5b919061290f565b33600090815260d1602052604090205560cf54610d7990839061290f565b60cf5560d054610d89908361288b565b60cd54610d96919061290f565b60cd5560405182815233907f884edad9ce6fa2440d8a54cc123490eb96d2768479d49ff9c7366125a9424364906020015b60405180910390a2505050565b6000467f8b73c3c69bb8fe3d512ecc4cf759cc79239f7b179b0ffacaa9a75d522b39400f610e0061070e565b805160209182012060408051808201825260018152603160f81b90840152805192830193909352918101919091527fc89efdaa54c0f20c7adf612882df0950f5a951637e0307cdcb4c672f298b8bc66060820152608081018290523060a082015260c0016040516020818303038152906040528051906020012091505090565b600054610100900460ff1680610e99575060005460ff16155b610eb55760405162461bcd60e51b81526004016108d990612972565b600054610100900460ff16158015610ed7576000805461ffff19166101011790555b610edf61214a565b610eeb838360126115ca565b610ef76012600a612aa4565b610f0290600161288b565b610f209073af298d050e4395d69670b12b7f4100000000000061288b565b60cd556fffffffffffffffffffffffffffffffff60ce5560cc805461ffff60a01b19169055610f516012600a612aa4565b610f5c90600161288b565b60cf90815560cd5433600090815260d1602052604090208190559054610f81916128aa565b60d05560cf546040519081523390600090600080516020612b318339815191529060200160405180910390a38015610fbf576000805461ff00191690555b505050565b33600090815260d2602090815260408083206001600160a01b0386168452909152812054610ff39083906128f7565b33600081815260d2602090815260408083206001600160a01b03891680855290835292819020859055519384529092600080516020612b5183398151915291016107e9565b6065546001600160a01b031633146110625760405162461bcd60e51b81526004016108d990612ab0565b61106a6121c5565b565b6065546001600160a01b031633146110965760405162461bcd60e51b81526004016108d990612ab0565b60d860009054906101000a90046001600160a01b03166001600160a01b031663eb0c49556040518163ffffffff1660e01b8152600401602060405180830381600087803b1580156110e657600080fd5b505af11580156110fa573d6000803e3d6000fd5b505050506040513d601f19601f8201168201806040525081019061111e919061285c565b506000811161112a5750565b600061113b8264e8d4a5100061288b565b905060d0548161114b919061288b565b33600090815260d16020526040902054611165919061290f565b33600090815260d1602052604090205560cf5461118390829061290f565b60cf5560d054611193908261288b565b60cd546111a0919061290f565b60cd5560408051338152602081018390527fcc16f5dbb4873280815c1ee09dbd06736cffcc184412cf7a71a0fdb75d397ca59101610994565b50565b60d0546001600160a01b038216600090815260d1602052604081205490916107f5916128aa565b6065546001600160a01b0316331461122d5760405162461bcd60e51b81526004016108d990612ab0565b61106a6000612258565b6065546001600160a01b031633146112615760405162461bcd60e51b81526004016108d990612ab0565b61106a6122aa565b6000816001600160a01b03811661127f57600080fd5b6001600160a01b03811630141561129557600080fd5b6001600160a01b038416600090815260d1602052604081205460d0549091906112be90836128aa565b6001600160a01b038716600090815260d2602090815260408083203384529091529020549091506112f090829061290f565b6001600160a01b03808816600081815260d26020908152604080832033845282528083209590955591815260d1909152828120819055908716815220546113389083906128f7565b6001600160a01b03808716600081815260d160205260409081902093909355915190881690600080516020612b3183398151915290610ac89085815260200190565b6065546001600160a01b031633146113a45760405162461bcd60e51b81526004016108d990612ab0565b60cc80546001600160a01b0319166001600160a01b0383169081179091556040519081527f0e6961f1a1afb87eaf51fd64f22ddc10062e23aa7838eac5d0bdf140bfd389729060200160405180910390a150565b60606098805461071d90612827565b6065546001600160a01b031633146114315760405162461bcd60e51b81526004016108d990612ab0565b60d780546001600160a01b039092166001600160a01b0319928316811790915560d88054909216179055565b6065546001600160a01b031633146114875760405162461bcd60e51b81526004016108d990612ab0565b60d860009054906101000a90046001600160a01b03166001600160a01b031663eb0c49556040518163ffffffff1660e01b8152600401602060405180830381600087803b1580156114d757600080fd5b505af11580156114eb573d6000803e3d6000fd5b505050506040513d601f19601f8201168201806040525081019061150f919061285c565b5060006115218264e8d4a5100061288b565b90506000811161152f575050565b60d05461153c908261288b565b33600090815260d1602052604090205461155691906128f7565b33600090815260d1602052604090205560cf546115749082906128f7565b60cf5560d054611584908261288b565b60cd5461159191906128f7565b60cd5560408051338152602081018390527f0f6798a560793a54c3bcfe86a93cde1e73087d944c0ea20544137d41213968859101610994565b600054610100900460ff16806115e3575060005460ff16155b6115ff5760405162461bcd60e51b81526004016108d990612972565b600054610100900460ff16158015611621576000805461ffff19166101011790555b835161163490609790602087019061242e565b50825161164890609890602086019061242e565b506099805460ff191660ff8416179055801561166a576000805461ff00191690555b50505050565b6000816001600160a01b03811661168657600080fd5b6001600160a01b03811630141561169c57600080fd5b33600090815260d1602052604081205460d0549091906116bc90836128aa565b33600090815260d160205260408082208290556001600160a01b03881682529020549091506116ec9083906128f7565b6001600160a01b038616600081815260d16020526040908190209290925590513390600080516020612b318339815191529061172b9085815260200190565b60405180910390a36001935050505b50919050565b33600090815260d2602090815260408083206001600160a01b03861684529091528120548083101561177b57611776838261290f565b61177e565b60005b33600081815260d2602090815260408083206001600160a01b038a1680855290835292819020859055519384529092600080516020612b51833981519152910160405180910390a35060019392505050565b60cc546000906001600160a01b031633146117ea57600080fd5b821580156117f6575081155b1561184057837f72725a3b1e5bd622d6bcd1339bb31279c351abe8f541ac7fd320f24e1b1641f260cf5460405161182f91815260200190565b60405180910390a25060cf546118d1565b821561185c578260cf5461185491906128f7565b60cf5561186e565b8160cf5461186a919061290f565b60cf555b60ce5460cf5411156118815760ce5460cf555b60cf5460cd5461189191906128aa565b60d05560cf5460405190815284907f72725a3b1e5bd622d6bcd1339bb31279c351abe8f541ac7fd320f24e1b1641f29060200160405180910390a25060cf545b9392505050565b6000826001600160a01b0381166118ee57600080fd5b6001600160a01b03811630141561190457600080fd5b600060d05484611914919061288b565b33600090815260d1602052604090205490915061193290829061290f565b33600090815260d16020526040808220929092556001600160a01b0387168152205461195f9082906128f7565b6001600160a01b038616600081815260d16020526040908190209290925590513390600080516020612b318339815191529061199e9088815260200190565b60405180910390a3506001949350505050565b60335460ff16156119d45760405162461bcd60e51b81526004016108d990612926565b60006119e58264e8d4a5100061288b565b905060008111611a2a5760405162461bcd60e51b815260206004820152601060248201526f043616e6e6f74206465706f73697420360841b60448201526064016108d9565b60d554604051636eb1769f60e11b81523360048201523060248201526000916001600160a01b03169063dd62ed3e9060440160206040518083038186803b158015611a7457600080fd5b505afa158015611a88573d6000803e3d6000fd5b505050506040513d601f19601f82011682018060405250810190611aac919061285c565b905082811015611af75760405162461bcd60e51b8152602060048201526016602482015275496e73756666696369656e7420416c6c6f77616e636560501b60448201526064016108d9565b60d5546040516323b872dd60e01b8152336004820152306024820152604481018590526001600160a01b03909116906323b872dd90606401602060405180830381600087803b158015611b4957600080fd5b505af1158015611b5d573d6000803e3d6000fd5b505050506040513d601f19601f82011682018060405250810190611b819190612950565b5060d054611b8f908361288b565b33600090815260d16020526040902054611ba991906128f7565b33600090815260d1602052604090205560cf54611bc79083906128f7565b60cf5560d054611bd7908361288b565b60cd54611be491906128f7565b60cd5560405182815233907fe1fffcc4923d04b559f4d29a8bfc6cda04eb5b0d3c460751c2402c5c5cc9109c90602001610dc7565b60d7546001600160a01b03163314611c435760405162461bcd60e51b81526004016108d9906128cc565b8060cf54611c5191906128f7565b60cf81905560ce541015611c665760ce5460cf555b60cf5460cd54611c7691906128aa565b60d05560cf5460405133917f106aac375bbcf013d1e52338bbf9e740009a1a3a6869f8daa1b72aa1620f5fec91611cb591858252602082015260400190565b60405180910390a250565b600054610100900460ff1680611cd9575060005460ff16155b611cf55760405162461bcd60e51b81526004016108d990612972565b600054610100900460ff16158015611d17576000805461ffff19166101011790555b611d5f6040518060400160405280600a8152602001692aa9a224902a37b5b2b760b11b815250604051806040016040528060048152602001635553444960e01b815250610e80565b611d67612302565b60d480546001600160a01b0384166001600160a01b0319918216811790925560d5805490911690911790558015611da4576000805461ff00191690555b5050565b83421115611db557600080fd5b6001600160a01b03878116600081815260d3602090815260408083205481517f6e71edae12b1b97f4d1f60370fef10105fa2faae0126114a169c64845d6126c98185015280830195909552948b166060850152608084018a905260a0840185905260c08085018a90528151808603909101815260e09094019052825192019190912090611e40610dd4565b60405161190160f01b602082015260228101919091526042810183905260620160408051601f1981840301815282825280516020918201206000845290830180835281905260ff8916918301919091526060820187905260808201869052915060019060a0016020604051602081039080840390855afa158015611ec8573d6000803e3d6000fd5b505050602060405103516001600160a01b03168a6001600160a01b031614611eef57600080fd5b611efa8360016128f7565b6001600160a01b038b8116600081815260d3602090815260408083209590955560d28152848220938e16808352938152908490208c905592518b815291929091600080516020612b51833981519152910160405180910390a350505050505050505050565b60d7546001600160a01b03163314611f895760405162461bcd60e51b81526004016108d9906128cc565b60d054611f96908261288b565b6001600160a01b038316600090815260d1602052604090205411611ffc5760405162461bcd60e51b815260206004820152601860248201527f555344493a206e6f7420656e6f7567682062616c616e6365000000000000000060448201526064016108d9565b60d054612009908261288b565b6001600160a01b038316600090815260d1602052604090205461202c919061290f565b6001600160a01b038316600090815260d1602052604090205560cf5461205390829061290f565b60cf5560d054612063908261288b565b60cd54612070919061290f565b60cd55604080516001600160a01b0384168152602081018390527fcc16f5dbb4873280815c1ee09dbd06736cffcc184412cf7a71a0fdb75d397ca59101610994565b6065546001600160a01b031633146120dc5760405162461bcd60e51b81526004016108d990612ab0565b6001600160a01b0381166121415760405162461bcd60e51b815260206004820152602660248201527f4f776e61626c653a206e6577206f776e657220697320746865207a65726f206160448201526564647265737360d01b60648201526084016108d9565b6111d981612258565b600054610100900460ff1680612163575060005460ff16155b61217f5760405162461bcd60e51b81526004016108d990612972565b600054610100900460ff161580156121a1576000805461ffff19166101011790555b6121a9612331565b6121b161239b565b80156111d9576000805461ff001916905550565b60335460ff1661220e5760405162461bcd60e51b815260206004820152601460248201527314185d5cd8589b194e881b9bdd081c185d5cd95960621b60448201526064016108d9565b6033805460ff191690557f5db9ee0a495bf2e6ff9c91a7834c1ba4fdd244a5e8aa4e537bd38aeae4b073aa335b6040516001600160a01b03909116815260200160405180910390a1565b606580546001600160a01b038381166001600160a01b0319831681179093556040519116919082907f8be0079c531659141344cd1fd0a4f28419497f9722a3daafe3b4186f6b6457e090600090a35050565b60335460ff16156122cd5760405162461bcd60e51b81526004016108d990612926565b6033805460ff191660011790557f62e78cea01bee320cd4e420270b5ea74000d11b0c9f74754ebdbfc544b05a25861223b3390565b600054610100900460ff166123295760405162461bcd60e51b81526004016108d990612ae5565b61106a6123fb565b600054610100900460ff168061234a575060005460ff16155b6123665760405162461bcd60e51b81526004016108d990612972565b600054610100900460ff161580156121b1576000805461ffff191661010117905580156111d9576000805461ff001916905550565b600054610100900460ff16806123b4575060005460ff16155b6123d05760405162461bcd60e51b81526004016108d990612972565b600054610100900460ff161580156123f2576000805461ffff19166101011790555b6121b133612258565b600054610100900460ff166124225760405162461bcd60e51b81526004016108d990612ae5565b6033805460ff19169055565b82805461243a90612827565b90600052602060002090601f01602090048101928261245c57600085556124a2565b82601f1061247557805160ff19168380011785556124a2565b828001600101855582156124a2579182015b828111156124a2578251825591602001919060010190612487565b506124ae9291506124b2565b5090565b5b808211156124ae57600081556001016124b3565b600060208083528351808285015260005b818110156124f4578581018301518582016040015282016124d8565b81811115612506576000604083870101525b50601f01601f1916929092016040019392505050565b80356001600160a01b038116811461253357600080fd5b919050565b6000806040838503121561254b57600080fd5b6125548361251c565b946020939093013593505050565b60006020828403121561257457600080fd5b6118d18261251c565b60008060006060848603121561259257600080fd5b61259b8461251c565b92506125a96020850161251c565b9150604084013590509250925092565b6000602082840312156125cb57600080fd5b5035919050565b634e487b7160e01b600052604160045260246000fd5b600082601f8301126125f957600080fd5b813567ffffffffffffffff80821115612614576126146125d2565b604051601f8301601f19908116603f0116810190828211818310171561263c5761263c6125d2565b8160405283815286602085880101111561265557600080fd5b836020870160208301376000602085830101528094505050505092915050565b6000806040838503121561268857600080fd5b823567ffffffffffffffff808211156126a057600080fd5b6126ac868387016125e8565b935060208501359150808211156126c257600080fd5b506126cf858286016125e8565b9150509250929050565b600080604083850312156126ec57600080fd5b6126f58361251c565b91506127036020840161251c565b90509250929050565b803560ff8116811461253357600080fd5b60008060006060848603121561273257600080fd5b833567ffffffffffffffff8082111561274a57600080fd5b612756878388016125e8565b9450602086013591508082111561276c57600080fd5b50612779868287016125e8565b9250506127886040850161270c565b90509250925092565b6000806000606084860312156127a657600080fd5b505081359360208301359350604090920135919050565b600080600080600080600060e0888a0312156127d857600080fd5b6127e18861251c565b96506127ef6020890161251c565b9550604088013594506060880135935061280b6080890161270c565b925060a0880135915060c0880135905092959891949750929550565b600181811c9082168061283b57607f821691505b6020821081141561173a57634e487b7160e01b600052602260045260246000fd5b60006020828403121561286e57600080fd5b5051919050565b634e487b7160e01b600052601160045260246000fd5b60008160001904831182151516156128a5576128a5612875565b500290565b6000826128c757634e487b7160e01b600052601260045260246000fd5b500490565b60208082526011908201527037b7363c903b30bab63a1036b0b9ba32b960791b604082015260600190565b6000821982111561290a5761290a612875565b500190565b60008282101561292157612921612875565b500390565b60208082526010908201526f14185d5cd8589b194e881c185d5cd95960821b604082015260600190565b60006020828403121561296257600080fd5b815180151581146118d157600080fd5b6020808252602e908201527f496e697469616c697a61626c653a20636f6e747261637420697320616c72656160408201526d191e481a5b9a5d1a585b1a5e995960921b606082015260800190565b600181815b808511156129fb5781600019048211156129e1576129e1612875565b808516156129ee57918102915b93841c93908002906129c5565b509250929050565b600082612a12575060016107f5565b81612a1f575060006107f5565b8160018114612a355760028114612a3f57612a5b565b60019150506107f5565b60ff841115612a5057612a50612875565b50506001821b6107f5565b5060208310610133831016604e8410600b8410161715612a7e575081810a6107f5565b612a8883836129c0565b8060001904821115612a9c57612a9c612875565b029392505050565b60006118d18383612a03565b6020808252818101527f4f776e61626c653a2063616c6c6572206973206e6f7420746865206f776e6572604082015260600190565b6020808252602b908201527f496e697469616c697a61626c653a20636f6e7472616374206973206e6f74206960408201526a6e697469616c697a696e6760a81b60608201526080019056feddf252ad1be2c89b69c2b068fc378daa952ba7f163c4a11628f55a4df523b3ef8c5be1e5ebec7d5bd14f71427d1e84f3dd0314c0f7b2291e5b200ac8c7c3b925a26469706673582212207fba2b311852b881984fe961ffaa649796dc2296fe122394617dd46e1e844d0464736f6c63430008090033",
  "linkReferences": {},
  "deployedLinkReferences": {}
}