{
  "_format": "hh-sol-artifact-1",
  "contractName": "USDI",
  "sourceName": "contracts/USDI.sol",
  "abi": [
    {
      "anonymous": false,
      "inputs": [
        {
          "indexed": true,
          "internalType": "address",
          "name": "owner",
          "type": "address"
        },
        {
          "indexed": true,
          "internalType": "address",
          "name": "spender",
          "type": "address"
        },
        {
          "indexed": false,
          "internalType": "uint256",
          "name": "value",
          "type": "uint256"
        }
      ],
      "name": "Approval",
      "type": "event"
    },
    {
      "anonymous": false,
      "inputs": [
        {
          "indexed": false,
          "internalType": "address",
          "name": "from",
          "type": "address"
        },
        {
          "indexed": false,
          "internalType": "uint256",
          "name": "_value",
          "type": "uint256"
        }
      ],
      "name": "Burn",
      "type": "event"
    },
    {
      "anonymous": false,
      "inputs": [
        {
          "indexed": true,
          "internalType": "address",
          "name": "_from",
          "type": "address"
        },
        {
          "indexed": false,
          "internalType": "uint256",
          "name": "_value",
          "type": "uint256"
        }
      ],
      "name": "Deposit",
      "type": "event"
    },
    {
      "anonymous": false,
      "inputs": [
        {
          "indexed": true,
          "internalType": "address",
          "name": "_from",
          "type": "address"
        },
        {
          "indexed": false,
          "internalType": "uint256",
          "name": "_value",
          "type": "uint256"
        },
        {
          "indexed": false,
          "internalType": "uint256",
          "name": "_totalSupply",
          "type": "uint256"
        }
      ],
      "name": "Donation",
      "type": "event"
    },
    {
      "anonymous": false,
      "inputs": [
        {
          "indexed": false,
          "internalType": "address",
          "name": "monetaryPolicy",
          "type": "address"
        }
      ],
      "name": "LogMonetaryPolicyUpdated",
      "type": "event"
    },
    {
      "anonymous": false,
      "inputs": [
        {
          "indexed": true,
          "internalType": "uint256",
          "name": "epoch",
          "type": "uint256"
        },
        {
          "indexed": false,
          "internalType": "uint256",
          "name": "totalSupply",
          "type": "uint256"
        }
      ],
      "name": "LogRebase",
      "type": "event"
    },
    {
      "anonymous": false,
      "inputs": [
        {
          "indexed": false,
          "internalType": "address",
          "name": "to",
          "type": "address"
        },
        {
          "indexed": false,
          "internalType": "uint256",
          "name": "_value",
          "type": "uint256"
        }
      ],
      "name": "Mint",
      "type": "event"
    },
    {
      "anonymous": false,
      "inputs": [
        {
          "indexed": true,
          "internalType": "address",
          "name": "previousOwner",
          "type": "address"
        },
        {
          "indexed": true,
          "internalType": "address",
          "name": "newOwner",
          "type": "address"
        }
      ],
      "name": "OwnershipTransferred",
      "type": "event"
    },
    {
      "anonymous": false,
      "inputs": [
        {
          "indexed": false,
          "internalType": "address",
          "name": "account",
          "type": "address"
        }
      ],
      "name": "Paused",
      "type": "event"
    },
    {
      "anonymous": false,
      "inputs": [
        {
          "indexed": true,
          "internalType": "address",
          "name": "from",
          "type": "address"
        },
        {
          "indexed": true,
          "internalType": "address",
          "name": "to",
          "type": "address"
        },
        {
          "indexed": false,
          "internalType": "uint256",
          "name": "value",
          "type": "uint256"
        }
      ],
      "name": "Transfer",
      "type": "event"
    },
    {
      "anonymous": false,
      "inputs": [
        {
          "indexed": false,
          "internalType": "address",
          "name": "account",
          "type": "address"
        }
      ],
      "name": "Unpaused",
      "type": "event"
    },
    {
      "anonymous": false,
      "inputs": [
        {
          "indexed": true,
          "internalType": "address",
          "name": "_from",
          "type": "address"
        },
        {
          "indexed": false,
          "internalType": "uint256",
          "name": "_value",
          "type": "uint256"
        }
      ],
      "name": "Withdraw",
      "type": "event"
    },
    {
      "inputs": [],
      "name": "DOMAIN_SEPARATOR",
      "outputs": [
        {
          "internalType": "bytes32",
          "name": "",
          "type": "bytes32"
        }
      ],
      "stateMutability": "view",
      "type": "function"
    },
    {
      "inputs": [],
      "name": "EIP712_DOMAIN",
      "outputs": [
        {
          "internalType": "bytes32",
          "name": "",
          "type": "bytes32"
        }
      ],
      "stateMutability": "view",
      "type": "function"
    },
    {
      "inputs": [],
      "name": "EIP712_REVISION",
      "outputs": [
        {
          "internalType": "string",
          "name": "",
          "type": "string"
        }
      ],
      "stateMutability": "view",
      "type": "function"
    },
    {
      "inputs": [],
      "name": "MAX_SUPPLY",
      "outputs": [
        {
          "internalType": "uint256",
          "name": "",
          "type": "uint256"
        }
      ],
      "stateMutability": "view",
      "type": "function"
    },
    {
      "inputs": [],
      "name": "PERMIT_TYPEHASH",
      "outputs": [
        {
          "internalType": "bytes32",
          "name": "",
          "type": "bytes32"
        }
      ],
      "stateMutability": "view",
      "type": "function"
    },
    {
      "inputs": [
        {
          "internalType": "string",
          "name": "name_",
          "type": "string"
        },
        {
          "internalType": "string",
          "name": "symbol_",
          "type": "string"
        },
        {
          "internalType": "uint8",
          "name": "decimals_",
          "type": "uint8"
        }
      ],
      "name": "__ERC20Detailed_init",
      "outputs": [],
      "stateMutability": "nonpayable",
      "type": "function"
    },
    {
      "inputs": [
        {
          "internalType": "string",
          "name": "name",
          "type": "string"
        },
        {
          "internalType": "string",
          "name": "symbol",
          "type": "string"
        }
      ],
      "name": "__UFragments_init",
      "outputs": [],
      "stateMutability": "nonpayable",
      "type": "function"
    },
    {
      "inputs": [
        {
          "internalType": "address",
          "name": "",
          "type": "address"
        }
      ],
      "name": "_gonBalances",
      "outputs": [
        {
          "internalType": "uint256",
          "name": "",
          "type": "uint256"
        }
      ],
      "stateMutability": "view",
      "type": "function"
    },
    {
      "inputs": [],
      "name": "_gonsPerFragment",
      "outputs": [
        {
          "internalType": "uint256",
          "name": "",
          "type": "uint256"
        }
      ],
      "stateMutability": "view",
      "type": "function"
    },
    {
      "inputs": [],
      "name": "_lenderAddress",
      "outputs": [
        {
          "internalType": "address",
          "name": "",
          "type": "address"
        }
      ],
      "stateMutability": "view",
      "type": "function"
    },
    {
      "inputs": [],
      "name": "_reserve",
      "outputs": [
        {
          "internalType": "contract IERC20",
          "name": "",
          "type": "address"
        }
      ],
      "stateMutability": "view",
      "type": "function"
    },
    {
      "inputs": [],
      "name": "_totalGons",
      "outputs": [
        {
          "internalType": "uint256",
          "name": "",
          "type": "uint256"
        }
      ],
      "stateMutability": "view",
      "type": "function"
    },
    {
      "inputs": [],
      "name": "_totalSupply",
      "outputs": [
        {
          "internalType": "uint256",
          "name": "",
          "type": "uint256"
        }
      ],
      "stateMutability": "view",
      "type": "function"
    },
    {
      "inputs": [],
      "name": "_vaultControllerAddress",
      "outputs": [
        {
          "internalType": "address",
          "name": "",
          "type": "address"
        }
      ],
      "stateMutability": "view",
      "type": "function"
    },
    {
      "inputs": [
        {
          "internalType": "address",
          "name": "owner_",
          "type": "address"
        },
        {
          "internalType": "address",
          "name": "spender",
          "type": "address"
        }
      ],
      "name": "allowance",
      "outputs": [
        {
          "internalType": "uint256",
          "name": "",
          "type": "uint256"
        }
      ],
      "stateMutability": "view",
      "type": "function"
    },
    {
      "inputs": [
        {
          "internalType": "address",
          "name": "spender",
          "type": "address"
        },
        {
          "internalType": "uint256",
          "name": "value",
          "type": "uint256"
        }
      ],
      "name": "approve",
      "outputs": [
        {
          "internalType": "bool",
          "name": "",
          "type": "bool"
        }
      ],
      "stateMutability": "nonpayable",
      "type": "function"
    },
    {
      "inputs": [
        {
          "internalType": "address",
          "name": "who",
          "type": "address"
        }
      ],
      "name": "balanceOf",
      "outputs": [
        {
          "internalType": "uint256",
          "name": "",
          "type": "uint256"
        }
      ],
      "stateMutability": "view",
      "type": "function"
    },
    {
      "inputs": [
        {
          "internalType": "uint256",
          "name": "usdc_amount",
          "type": "uint256"
        }
      ],
      "name": "burn",
      "outputs": [],
      "stateMutability": "nonpayable",
      "type": "function"
    },
    {
      "inputs": [],
      "name": "decimals",
      "outputs": [
        {
          "internalType": "uint8",
          "name": "",
          "type": "uint8"
        }
      ],
      "stateMutability": "view",
      "type": "function"
    },
    {
      "inputs": [
        {
          "internalType": "address",
          "name": "spender",
          "type": "address"
        },
        {
          "internalType": "uint256",
          "name": "subtractedValue",
          "type": "uint256"
        }
      ],
      "name": "decreaseAllowance",
      "outputs": [
        {
          "internalType": "bool",
          "name": "",
          "type": "bool"
        }
      ],
      "stateMutability": "nonpayable",
      "type": "function"
    },
    {
      "inputs": [
        {
          "internalType": "uint256",
          "name": "usdc_amount",
          "type": "uint256"
        }
      ],
      "name": "deposit",
      "outputs": [],
      "stateMutability": "nonpayable",
      "type": "function"
    },
    {
      "inputs": [
        {
          "internalType": "uint256",
          "name": "usdc_amount",
          "type": "uint256"
        }
      ],
      "name": "donate",
      "outputs": [],
      "stateMutability": "nonpayable",
      "type": "function"
    },
    {
      "inputs": [
        {
          "internalType": "address",
          "name": "spender",
          "type": "address"
        },
        {
          "internalType": "uint256",
          "name": "addedValue",
          "type": "uint256"
        }
      ],
      "name": "increaseAllowance",
      "outputs": [
        {
          "internalType": "bool",
          "name": "",
          "type": "bool"
        }
      ],
      "stateMutability": "nonpayable",
      "type": "function"
    },
    {
      "inputs": [
        {
          "internalType": "address",
          "name": "reserveAddr",
          "type": "address"
        }
      ],
      "name": "initialize",
      "outputs": [],
      "stateMutability": "nonpayable",
      "type": "function"
    },
    {
      "inputs": [
        {
          "internalType": "uint256",
          "name": "usdc_amount",
          "type": "uint256"
        }
      ],
      "name": "mint",
      "outputs": [],
      "stateMutability": "nonpayable",
      "type": "function"
    },
    {
      "inputs": [],
      "name": "monetaryPolicy",
      "outputs": [
        {
          "internalType": "address",
          "name": "",
          "type": "address"
        }
      ],
      "stateMutability": "view",
      "type": "function"
    },
    {
      "inputs": [],
      "name": "name",
      "outputs": [
        {
          "internalType": "string",
          "name": "",
          "type": "string"
        }
      ],
      "stateMutability": "view",
      "type": "function"
    },
    {
      "inputs": [
        {
          "internalType": "address",
          "name": "who",
          "type": "address"
        }
      ],
      "name": "nonces",
      "outputs": [
        {
          "internalType": "uint256",
          "name": "",
          "type": "uint256"
        }
      ],
      "stateMutability": "view",
      "type": "function"
    },
    {
      "inputs": [],
      "name": "owner",
      "outputs": [
        {
          "internalType": "address",
          "name": "",
          "type": "address"
        }
      ],
      "stateMutability": "view",
      "type": "function"
    },
    {
      "inputs": [],
      "name": "pause",
      "outputs": [],
      "stateMutability": "nonpayable",
      "type": "function"
    },
    {
      "inputs": [],
      "name": "paused",
      "outputs": [
        {
          "internalType": "bool",
          "name": "",
          "type": "bool"
        }
      ],
      "stateMutability": "view",
      "type": "function"
    },
    {
      "inputs": [
        {
          "internalType": "address",
          "name": "owner",
          "type": "address"
        },
        {
          "internalType": "address",
          "name": "spender",
          "type": "address"
        },
        {
          "internalType": "uint256",
          "name": "value",
          "type": "uint256"
        },
        {
          "internalType": "uint256",
          "name": "deadline",
          "type": "uint256"
        },
        {
          "internalType": "uint8",
          "name": "v",
          "type": "uint8"
        },
        {
          "internalType": "bytes32",
          "name": "r",
          "type": "bytes32"
        },
        {
          "internalType": "bytes32",
          "name": "s",
          "type": "bytes32"
        }
      ],
      "name": "permit",
      "outputs": [],
      "stateMutability": "nonpayable",
      "type": "function"
    },
    {
      "inputs": [
        {
          "internalType": "uint256",
          "name": "epoch",
          "type": "uint256"
        },
        {
          "internalType": "uint256",
          "name": "supplyAdd",
          "type": "uint256"
        },
        {
          "internalType": "uint256",
          "name": "supplyRemove",
          "type": "uint256"
        }
      ],
      "name": "rebase",
      "outputs": [
        {
          "internalType": "uint256",
          "name": "",
          "type": "uint256"
        }
      ],
      "stateMutability": "nonpayable",
      "type": "function"
    },
    {
      "inputs": [],
      "name": "renounceOwnership",
      "outputs": [],
      "stateMutability": "nonpayable",
      "type": "function"
    },
    {
      "inputs": [],
      "name": "reserveAddress",
      "outputs": [
        {
          "internalType": "address",
          "name": "",
          "type": "address"
        }
      ],
      "stateMutability": "view",
      "type": "function"
    },
    {
      "inputs": [],
      "name": "reserveRatio",
      "outputs": [
        {
          "internalType": "uint192",
          "name": "e18_reserve_ratio",
          "type": "uint192"
        }
      ],
      "stateMutability": "view",
      "type": "function"
    },
    {
      "inputs": [
        {
          "internalType": "address",
          "name": "who",
          "type": "address"
        }
      ],
      "name": "scaledBalanceOf",
      "outputs": [
        {
          "internalType": "uint256",
          "name": "",
          "type": "uint256"
        }
      ],
      "stateMutability": "view",
      "type": "function"
    },
    {
      "inputs": [],
      "name": "scaledTotalSupply",
      "outputs": [
        {
          "internalType": "uint256",
          "name": "",
          "type": "uint256"
        }
      ],
      "stateMutability": "view",
      "type": "function"
    },
    {
      "inputs": [
        {
          "internalType": "address",
          "name": "monetaryPolicy_",
          "type": "address"
        }
      ],
      "name": "setMonetaryPolicy",
      "outputs": [],
      "stateMutability": "nonpayable",
      "type": "function"
    },
    {
      "inputs": [
        {
          "internalType": "address",
          "name": "vault_master_address",
          "type": "address"
        }
      ],
      "name": "setVaultController",
      "outputs": [],
      "stateMutability": "nonpayable",
      "type": "function"
    },
    {
      "inputs": [],
      "name": "symbol",
      "outputs": [
        {
          "internalType": "string",
          "name": "",
          "type": "string"
        }
      ],
      "stateMutability": "view",
      "type": "function"
    },
    {
      "inputs": [],
      "name": "totalSupply",
      "outputs": [
        {
          "internalType": "uint256",
          "name": "",
          "type": "uint256"
        }
      ],
      "stateMutability": "view",
      "type": "function"
    },
    {
      "inputs": [
        {
          "internalType": "address",
          "name": "to",
          "type": "address"
        },
        {
          "internalType": "uint256",
          "name": "value",
          "type": "uint256"
        }
      ],
      "name": "transfer",
      "outputs": [
        {
          "internalType": "bool",
          "name": "",
          "type": "bool"
        }
      ],
      "stateMutability": "nonpayable",
      "type": "function"
    },
    {
      "inputs": [
        {
          "internalType": "address",
          "name": "to",
          "type": "address"
        }
      ],
      "name": "transferAll",
      "outputs": [
        {
          "internalType": "bool",
          "name": "",
          "type": "bool"
        }
      ],
      "stateMutability": "nonpayable",
      "type": "function"
    },
    {
      "inputs": [
        {
          "internalType": "address",
          "name": "from",
          "type": "address"
        },
        {
          "internalType": "address",
          "name": "to",
          "type": "address"
        }
      ],
      "name": "transferAllFrom",
      "outputs": [
        {
          "internalType": "bool",
          "name": "",
          "type": "bool"
        }
      ],
      "stateMutability": "nonpayable",
      "type": "function"
    },
    {
      "inputs": [
        {
          "internalType": "address",
          "name": "from",
          "type": "address"
        },
        {
          "internalType": "address",
          "name": "to",
          "type": "address"
        },
        {
          "internalType": "uint256",
          "name": "value",
          "type": "uint256"
        }
      ],
      "name": "transferFrom",
      "outputs": [
        {
          "internalType": "bool",
          "name": "",
          "type": "bool"
        }
      ],
      "stateMutability": "nonpayable",
      "type": "function"
    },
    {
      "inputs": [
        {
          "internalType": "address",
          "name": "newOwner",
          "type": "address"
        }
      ],
      "name": "transferOwnership",
      "outputs": [],
      "stateMutability": "nonpayable",
      "type": "function"
    },
    {
      "inputs": [],
      "name": "unpause",
      "outputs": [],
      "stateMutability": "nonpayable",
      "type": "function"
    },
    {
      "inputs": [
        {
          "internalType": "address",
          "name": "target",
          "type": "address"
        },
        {
          "internalType": "uint256",
          "name": "amount",
          "type": "uint256"
        }
      ],
      "name": "vaultControllerBurn",
      "outputs": [],
      "stateMutability": "nonpayable",
      "type": "function"
    },
    {
      "inputs": [
        {
          "internalType": "uint256",
          "name": "amount",
          "type": "uint256"
        }
      ],
      "name": "vaultControllerDonate",
      "outputs": [],
      "stateMutability": "nonpayable",
      "type": "function"
    },
    {
      "inputs": [
        {
          "internalType": "address",
          "name": "target",
          "type": "address"
        },
        {
          "internalType": "uint256",
          "name": "amount",
          "type": "uint256"
        }
      ],
      "name": "vaultControllerMint",
      "outputs": [],
      "stateMutability": "nonpayable",
      "type": "function"
    },
    {
      "inputs": [
        {
          "internalType": "uint256",
          "name": "usdc_amount",
          "type": "uint256"
        }
      ],
      "name": "withdraw",
      "outputs": [],
      "stateMutability": "nonpayable",
      "type": "function"
    },
    {
      "inputs": [],
      "name": "withdrawAll",
      "outputs": [],
      "stateMutability": "nonpayable",
      "type": "function"
    }
  ],
  "bytecode": "0x608060405234801561001057600080fd5b50613607806100206000396000f3fe608060405234801561001057600080fd5b50600436106103275760003560e01c806384d4b410116101b8578063a9059cbb11610104578063d505accf116100a2578063f14faf6f1161007c578063f14faf6f1461072d578063f2fde38b14610740578063f79ed94b14610753578063fd5eb09d1461076457600080fd5b8063d505accf146106ba578063dd62ed3e146106cd578063e1b11da41461070657600080fd5b8063c4996f51116100de578063c4996f5114610678578063c4d66de814610681578063c8e142ff14610694578063c99d6f01146106a757600080fd5b8063a9059cbb1461064a578063b1bf962d1461065d578063b6b55f251461066557600080fd5b806395d89b4111610171578063a10daee31161014b578063a10daee3146105fe578063a3a7e7f314610611578063a457c2d714610624578063a48daa4f1461063757600080fd5b806395d89b41146105d057806399747f15146105d8578063a0712d68146105eb57600080fd5b806384d4b41014610574578063853828b6146105875780638b4f04291461058f5780638b5a6a08146105a25780638da5cb5b146105b55780638e27d7d7146105bd57600080fd5b806336fed9751161027757806342966c6811610230578063715018a61161020a578063715018a61461051b57806378160376146105235780637ecebe00146105435780638456cb591461056c57600080fd5b806342966c68146104ea5780635c975abb146104fd57806370a082311461050857600080fd5b806336fed975146104685780633769175f14610488578063395093511461049b5780633eaaf86b146104ae5780633f4ba83a146104b7578063413ab4a8146104bf57600080fd5b80631da24f3e116102e457806330adf81f116102be57806330adf81f14610416578063313ce5671461043d57806332cb6b0c146104575780633644e5151461046057600080fd5b80631da24f3e146103c757806323b872dd146103f05780632e1a7d4d1461040357600080fd5b80630522658d1461032c57806306fdde0314610341578063095ea7b31461035f5780630c7d5cd814610382578063178a6670146103a257806318160ddd146103b5575b600080fd5b61033f61033a366004612f18565b61076d565b005b610349610896565b6040516103569190612f42565b60405180910390f35b61037261036d366004612f18565b6108a5565b6040519015158152602001610356565b61038a610900565b6040516001600160c01b039091168152602001610356565b61033f6103b0366004612f18565b6109b7565b60cf545b604051908152602001610356565b6103b96103d5366004612f97565b6001600160a01b0316600090815260d1602052604090205490565b6103726103fe366004612fb2565b610b42565b61033f610411366004612fee565b610c7e565b6103b97f6e71edae12b1b97f4d1f60370fef10105fa2faae0126114a169c64845d6126c981565b610445611085565b60405160ff9091168152602001610356565b6103b960ce5481565b6103b9611093565b6103b9610476366004612f97565b60d16020526000908152604090205481565b61033f6104963660046130aa565b61113f565b6103726104a9366004612f18565b611283565b6103b960cf5481565b61033f6112f7565b60d4546104d2906001600160a01b031681565b6040516001600160a01b039091168152602001610356565b61033f6104f8366004612fee565b611330565b60335460ff16610372565b6103b9610516366004612f97565b611505565b61033f61152c565b610349604051806040016040528060018152602001603160f81b81525081565b6103b9610551366004612f97565b6001600160a01b0316600090815260d3602052604090205490565b61033f611565565b61037261058236600461310e565b61159c565b61033f6116ad565b60d6546104d2906001600160a01b031681565b61033f6105b0366004612f97565b611a33565b6104d2611ab6565b60cc546104d2906001600160a01b031681565b610349611aca565b61033f6105e6366004612f97565b611ad4565b61033f6105f9366004612fee565b611b2f565b61033f61060c366004613152565b611cea565b61037261061f366004612f97565b611d90565b610372610632366004612f18565b611e60565b6103b96106453660046131c6565b611ef0565b610372610658366004612f18565b611ff8565b60cd546103b9565b61033f610673366004612fee565b6120d1565b6103b960d05481565b61033f61068f366004612f97565b612421565b60d5546104d2906001600160a01b031681565b61033f6106b5366004612fee565b6124f9565b61033f6106c83660046131f2565b612538565b6103b96106db36600461310e565b6001600160a01b03918216600090815260d26020908152604080832093909416825291909152205490565b6103b97f8b73c3c69bb8fe3d512ecc4cf759cc79239f7b179b0ffacaa9a75d522b39400f81565b61033f61073b366004612fee565b6126ef565b61033f61074e366004612f97565b61298b565b60d4546001600160a01b03166104d2565b6103b960cd5481565b60d6546001600160a01b0316336001600160a01b0316146107a95760405162461bcd60e51b81526004016107a09061325c565b60405180910390fd5b60d0546107b690826132a0565b6001600160a01b038316600090815260d160205260409020546107d991906132bf565b6001600160a01b038316600090815260d1602052604090205560cf546108009082906132bf565b60cf5560d05461081090826132a0565b60cd5461081d91906132bf565b60cd556040518181526001600160a01b038316906000906000805160206135928339815191529060200160405180910390a3604080516001600160a01b0384168152602081018390527f0f6798a560793a54c3bcfe86a93cde1e73087d944c0ea20544137d412139688591015b60405180910390a15050565b60606108a0612a28565b905090565b33600081815260d2602090815260408083206001600160a01b038716808552925280832085905551919290916000805160206135b2833981519152906108ee9086815260200190565b60405180910390a35060015b92915050565b60cf5460d4546040516370a0823160e01b81523060048201526000926108a0929091670de0b6b3a7640000916001600160a01b0316906370a082319060240160206040518083038186803b15801561095757600080fd5b505afa15801561096b573d6000803e3d6000fd5b505050506040513d601f19601f8201168201806040525081019061098f91906132d7565b61099991906132a0565b6109a391906132f0565b6109b29064e8d4a510006132a0565b612aba565b60d6546001600160a01b0316336001600160a01b0316146109ea5760405162461bcd60e51b81526004016107a09061325c565b60d0546109f790826132a0565b6001600160a01b038316600090815260d1602052604090205411610a5d5760405162461bcd60e51b815260206004820152601860248201527f555344493a206e6f7420656e6f7567682062616c616e6365000000000000000060448201526064016107a0565b60d054610a6a90826132a0565b6001600160a01b038316600090815260d16020526040902054610a8d9190613312565b6001600160a01b038316600090815260d1602052604090205560cf54610ab4908290613312565b60cf5560d054610ac490826132a0565b60cd54610ad19190613312565b60cd556040518181526000906001600160a01b038416906000805160206135928339815191529060200160405180910390a3604080516001600160a01b0384168152602081018390527fcc16f5dbb4873280815c1ee09dbd06736cffcc184412cf7a71a0fdb75d397ca5910161088a565b6000826001600160a01b038116610b5857600080fd5b6001600160a01b038116301415610b6e57600080fd5b6001600160a01b038516600090815260d260209081526040808320338452909152902054610b9d908490613312565b6001600160a01b038616600090815260d26020908152604080832033845290915281209190915560d054610bd190856132a0565b6001600160a01b038716600090815260d16020526040902054909150610bf8908290613312565b6001600160a01b03808816600090815260d160205260408082209390935590871681522054610c289082906132bf565b6001600160a01b03808716600081815260d16020526040908190209390935591519088169060008051602061359283398151915290610c6a9088815260200190565b60405180910390a350600195945050505050565b60d760009054906101000a90046001600160a01b03166001600160a01b031663eb0c49556040518163ffffffff1660e01b8152600401602060405180830381600087803b158015610cce57600080fd5b505af1158015610ce2573d6000803e3d6000fd5b505050506040513d601f19601f82011682018060405250810190610d0691906132d7565b5060335460ff1615610d2a5760405162461bcd60e51b81526004016107a090613329565b6000610d3b8264e8d4a510006132a0565b9050306370a08231336040516001600160e01b031960e084901b1681526001600160a01b03909116600482015260240160206040518083038186803b158015610d8357600080fd5b505afa158015610d97573d6000803e3d6000fd5b505050506040513d601f19601f82011682018060405250810190610dbb91906132d7565b811115610dff5760405162461bcd60e51b8152602060048201526012602482015271696e73756666696369656e742066756e647360701b60448201526064016107a0565b60008111610e435760405162461bcd60e51b8152602060048201526011602482015270043616e6e6f74207769746864726177203607c1b60448201526064016107a0565b60d4546040516370a0823160e01b81523060048201526000916001600160a01b0316906370a082319060240160206040518083038186803b158015610e8757600080fd5b505afa158015610e9b573d6000803e3d6000fd5b505050506040513d601f19601f82011682018060405250810190610ebf91906132d7565b905082811015610f115760405162461bcd60e51b815260206004820152601c60248201527f496e73756666696369656e74205265736572766520696e2042616e6b0000000060448201526064016107a0565b60d4546001600160a01b031663a9059cbb336040516001600160e01b031960e084901b1681526001600160a01b03909116600482015260248101869052604401602060405180830381600087803b158015610f6b57600080fd5b505af1158015610f7f573d6000803e3d6000fd5b505050506040513d601f19601f82011682018060405250810190610fa39190613353565b610fbf5760405162461bcd60e51b81526004016107a090613375565b60d054610fcc90836132a0565b33600090815260d16020526040902054610fe69190613312565b33600090815260d1602052604090205560cf54611004908390613312565b60cf5560d05461101490836132a0565b60cd546110219190613312565b60cd5560405182815260009033906000805160206135928339815191529060200160405180910390a360405182815233907f884edad9ce6fa2440d8a54cc123490eb96d2768479d49ff9c7366125a9424364906020015b60405180910390a2505050565b60006108a060995460ff1690565b6000467f8b73c3c69bb8fe3d512ecc4cf759cc79239f7b179b0ffacaa9a75d522b39400f6110bf610896565b805160209182012060408051808201825260018152603160f81b90840152805192830193909352918101919091527fc89efdaa54c0f20c7adf612882df0950f5a951637e0307cdcb4c672f298b8bc66060820152608081018290523060a082015260c0016040516020818303038152906040528051906020012091505090565b600054610100900460ff1680611158575060005460ff16155b6111745760405162461bcd60e51b81526004016107a09061339e565b600054610100900460ff16158015611196576000805461ffff19166101011790555b61119e612b01565b6111aa83836012611cea565b6111b66012600a6134d0565b6111c19060016132a0565b6111df9073af298d050e4395d69670b12b7f410000000000006132a0565b60cd556fffffffffffffffffffffffffffffffff60ce5560cc805461ffff60a01b191690556112106012600a6134d0565b61121b9060016132a0565b60cf90815560cd5433600090815260d1602052604090208190559054611240916132f0565b60d05560cf5460405190815233906000906000805160206135928339815191529060200160405180910390a3801561127e576000805461ff00191690555b505050565b33600090815260d2602090815260408083206001600160a01b03861684529091528120546112b29083906132bf565b33600081815260d2602090815260408083206001600160a01b038916808552908352928190208590555193845290926000805160206135b283398151915291016108ee565b33611300611ab6565b6001600160a01b0316146113265760405162461bcd60e51b81526004016107a0906134dc565b61132e612b7c565b565b60d760009054906101000a90046001600160a01b03166001600160a01b031663eb0c49556040518163ffffffff1660e01b8152600401602060405180830381600087803b15801561138057600080fd5b505af1158015611394573d6000803e3d6000fd5b505050506040513d601f19601f820116820180604052508101906113b891906132d7565b50336113c2611ab6565b6001600160a01b0316146113e85760405162461bcd60e51b81526004016107a0906134dc565b806114255760405162461bcd60e51b815260206004820152600d60248201526c043616e6e6f74206275726e203609c1b60448201526064016107a0565b60006114368264e8d4a510006132a0565b905060d0548161144691906132a0565b33600090815260d160205260409020546114609190613312565b33600090815260d1602052604090205560cf5461147e908290613312565b60cf5560d05461148e90826132a0565b60cd5461149b9190613312565b60cd5560405181815260009033906000805160206135928339815191529060200160405180910390a37fcc16f5dbb4873280815c1ee09dbd06736cffcc184412cf7a71a0fdb75d397ca5335b604080516001600160a01b039092168252602082018490520161088a565b60d0546001600160a01b038216600090815260d1602052604081205490916108fa916132f0565b33611535611ab6565b6001600160a01b03161461155b5760405162461bcd60e51b81526004016107a0906134dc565b61132e6000612c0f565b3361156e611ab6565b6001600160a01b0316146115945760405162461bcd60e51b81526004016107a0906134dc565b61132e612c61565b6000816001600160a01b0381166115b257600080fd5b6001600160a01b0381163014156115c857600080fd5b6001600160a01b038416600090815260d1602052604081205460d0549091906115f190836132f0565b6001600160a01b038716600090815260d260209081526040808320338452909152902054909150611623908290613312565b6001600160a01b03808816600081815260d26020908152604080832033845282528083209590955591815260d19091528281208190559087168152205461166b9083906132bf565b6001600160a01b03808716600081815260d16020526040908190209390935591519088169060008051602061359283398151915290610c6a9085815260200190565b60d760009054906101000a90046001600160a01b03166001600160a01b031663eb0c49556040518163ffffffff1660e01b8152600401602060405180830381600087803b1580156116fd57600080fd5b505af1158015611711573d6000803e3d6000fd5b505050506040513d601f19601f8201168201806040525081019061173591906132d7565b5060335460ff16156117595760405162461bcd60e51b81526004016107a090613329565b60d4546040516370a0823160e01b81523060048201526000916001600160a01b0316906370a082319060240160206040518083038186803b15801561179d57600080fd5b505afa1580156117b1573d6000803e3d6000fd5b505050506040513d601f19601f820116820180604052508101906117d591906132d7565b9050806118175760405162461bcd60e51b815260206004820152601060248201526f5265736572766520697320656d70747960801b60448201526064016107a0565b600064e8d4a51000306370a08231336040516001600160e01b031960e084901b1681526001600160a01b03909116600482015260240160206040518083038186803b15801561186557600080fd5b505afa158015611879573d6000803e3d6000fd5b505050506040513d601f19601f8201168201806040525081019061189d91906132d7565b6118a791906132f0565b9050818111156118b45750805b60006118c58264e8d4a510006132a0565b60d4549091506001600160a01b031663a9059cbb336040516001600160e01b031960e084901b1681526001600160a01b03909116600482015260248101859052604401602060405180830381600087803b15801561192257600080fd5b505af1158015611936573d6000803e3d6000fd5b505050506040513d601f19601f8201168201806040525081019061195a9190613353565b6119765760405162461bcd60e51b81526004016107a090613375565b60d05461198390826132a0565b33600090815260d1602052604090205461199d9190613312565b33600090815260d1602052604090205560cf546119bb908290613312565b60cf5560d0546119cb90826132a0565b60cd546119d89190613312565b60cd5560405181815260009033906000805160206135928339815191529060200160405180910390a360405181815233907f884edad9ce6fa2440d8a54cc123490eb96d2768479d49ff9c7366125a942436490602001611078565b33611a3c611ab6565b6001600160a01b031614611a625760405162461bcd60e51b81526004016107a0906134dc565b60cc80546001600160a01b0319166001600160a01b0383169081179091556040519081527f0e6961f1a1afb87eaf51fd64f22ddc10062e23aa7838eac5d0bdf140bfd389729060200160405180910390a150565b60006108a06065546001600160a01b031690565b60606108a0612cb9565b33611add611ab6565b6001600160a01b031614611b035760405162461bcd60e51b81526004016107a0906134dc565b60d680546001600160a01b039092166001600160a01b0319928316811790915560d78054909216179055565b60d760009054906101000a90046001600160a01b03166001600160a01b031663eb0c49556040518163ffffffff1660e01b8152600401602060405180830381600087803b158015611b7f57600080fd5b505af1158015611b93573d6000803e3d6000fd5b505050506040513d601f19601f82011682018060405250810190611bb791906132d7565b5033611bc1611ab6565b6001600160a01b031614611be75760405162461bcd60e51b81526004016107a0906134dc565b80611c245760405162461bcd60e51b815260206004820152600d60248201526c043616e6e6f74206d696e74203609c1b60448201526064016107a0565b6000611c358264e8d4a510006132a0565b905060d05481611c4591906132a0565b33600090815260d16020526040902054611c5f91906132bf565b33600090815260d1602052604090205560cf54611c7d9082906132bf565b60cf5560d054611c8d90826132a0565b60cd54611c9a91906132bf565b60cd5560405181815233906000906000805160206135928339815191529060200160405180910390a37f0f6798a560793a54c3bcfe86a93cde1e73087d944c0ea20544137d4121396885336114e7565b600054610100900460ff1680611d03575060005460ff16155b611d1f5760405162461bcd60e51b81526004016107a09061339e565b600054610100900460ff16158015611d41576000805461ffff19166101011790555b8351611d54906097906020870190612e6c565b508251611d68906098906020860190612e6c565b506099805460ff191660ff84161790558015611d8a576000805461ff00191690555b50505050565b6000816001600160a01b038116611da657600080fd5b6001600160a01b038116301415611dbc57600080fd5b33600090815260d1602052604081205460d054909190611ddc90836132f0565b33600090815260d160205260408082208290556001600160a01b0388168252902054909150611e0c9083906132bf565b6001600160a01b038616600081815260d1602052604090819020929092559051339060008051602061359283398151915290611e4b9085815260200190565b60405180910390a36001935050505b50919050565b33600090815260d2602090815260408083206001600160a01b038616845290915281205480831015611e9b57611e968382613312565b611e9e565b60005b33600081815260d2602090815260408083206001600160a01b038a16808552908352928190208590555193845290926000805160206135b2833981519152910160405180910390a35060019392505050565b60cc546000906001600160a01b03163314611f0a57600080fd5b82158015611f16575081155b15611f6057837f72725a3b1e5bd622d6bcd1339bb31279c351abe8f541ac7fd320f24e1b1641f260cf54604051611f4f91815260200190565b60405180910390a25060cf54611ff1565b8215611f7c578260cf54611f7491906132bf565b60cf55611f8e565b8160cf54611f8a9190613312565b60cf555b60ce5460cf541115611fa15760ce5460cf555b60cf5460cd54611fb191906132f0565b60d05560cf5460405190815284907f72725a3b1e5bd622d6bcd1339bb31279c351abe8f541ac7fd320f24e1b1641f29060200160405180910390a25060cf545b9392505050565b6000826001600160a01b03811661200e57600080fd5b6001600160a01b03811630141561202457600080fd5b600060d0548461203491906132a0565b33600090815260d16020526040902054909150612052908290613312565b33600090815260d16020526040808220929092556001600160a01b0387168152205461207f9082906132bf565b6001600160a01b038616600081815260d16020526040908190209290925590513390600080516020613592833981519152906120be9088815260200190565b60405180910390a3506001949350505050565b60d760009054906101000a90046001600160a01b03166001600160a01b031663eb0c49556040518163ffffffff1660e01b8152600401602060405180830381600087803b15801561212157600080fd5b505af1158015612135573d6000803e3d6000fd5b505050506040513d601f19601f8201168201806040525081019061215991906132d7565b5060335460ff161561217d5760405162461bcd60e51b81526004016107a090613329565b600061218e8264e8d4a510006132a0565b9050600081116121d35760405162461bcd60e51b815260206004820152601060248201526f043616e6e6f74206465706f73697420360841b60448201526064016107a0565b60d4546000906001600160a01b031663dd62ed3e336040516001600160e01b031960e084901b1681526001600160a01b03909116600482015230602482015260440160206040518083038186803b15801561222d57600080fd5b505afa158015612241573d6000803e3d6000fd5b505050506040513d601f19601f8201168201806040525081019061226591906132d7565b9050828110156122b05760405162461bcd60e51b8152602060048201526016602482015275496e73756666696369656e7420416c6c6f77616e636560501b60448201526064016107a0565b60d4546001600160a01b03166323b872dd336040516001600160e01b031960e084901b1681526001600160a01b03909116600482015230602482015260448101869052606401602060405180830381600087803b15801561231057600080fd5b505af1158015612324573d6000803e3d6000fd5b505050506040513d601f19601f820116820180604052508101906123489190613353565b6123645760405162461bcd60e51b81526004016107a090613375565b60d05461237190836132a0565b33600090815260d1602052604090205461238b91906132bf565b33600090815260d1602052604090205560cf546123a99083906132bf565b60cf5560d0546123b990836132a0565b60cd546123c691906132bf565b60cd5560405182815233906000906000805160206135928339815191529060200160405180910390a360405182815233907fe1fffcc4923d04b559f4d29a8bfc6cda04eb5b0d3c460751c2402c5c5cc9109c90602001611078565b600054610100900460ff168061243a575060005460ff16155b6124565760405162461bcd60e51b81526004016107a09061339e565b600054610100900460ff16158015612478576000805461ffff19166101011790555b6124c06040518060400160405280600a8152602001692aa9a224902a37b5b2b760b11b815250604051806040016040528060048152602001635553444960e01b81525061113f565b6124c8612cc8565b60d480546001600160a01b0319166001600160a01b03841617905580156124f5576000805461ff00191690555b5050565b60d6546001600160a01b0316336001600160a01b03161461252c5760405162461bcd60e51b81526004016107a09061325c565b61253581612cf7565b50565b8342111561254557600080fd5b6001600160a01b03878116600081815260d3602090815260408083205481517f6e71edae12b1b97f4d1f60370fef10105fa2faae0126114a169c64845d6126c98185015280830195909552948b166060850152608084018a905260a0840185905260c08085018a90528151808603909101815260e090940190528251920191909120906125d0611093565b60405161190160f01b602082015260228101919091526042810183905260620160408051601f1981840301815282825280516020918201206000845290830180835281905260ff8916918301919091526060820187905260808201869052915060019060a0016020604051602081039080840390855afa158015612658573d6000803e3d6000fd5b505050602060405103516001600160a01b03168a6001600160a01b03161461267f57600080fd5b61268a8360016132bf565b6001600160a01b038b8116600081815260d3602090815260408083209590955560d28152848220938e16808352938152908490208c905592518b8152919290916000805160206135b2833981519152910160405180910390a350505050505050505050565b60d760009054906101000a90046001600160a01b03166001600160a01b031663eb0c49556040518163ffffffff1660e01b8152600401602060405180830381600087803b15801561273f57600080fd5b505af1158015612753573d6000803e3d6000fd5b505050506040513d601f19601f8201168201806040525081019061277791906132d7565b5060335460ff161561279b5760405162461bcd60e51b81526004016107a090613329565b60006127ac8264e8d4a510006132a0565b9050600081116127f15760405162461bcd60e51b815260206004820152601060248201526f043616e6e6f74206465706f73697420360841b60448201526064016107a0565b60d4546000906001600160a01b031663dd62ed3e336040516001600160e01b031960e084901b1681526001600160a01b03909116600482015230602482015260440160206040518083038186803b15801561284b57600080fd5b505afa15801561285f573d6000803e3d6000fd5b505050506040513d601f19601f8201168201806040525081019061288391906132d7565b9050828110156128ce5760405162461bcd60e51b8152602060048201526016602482015275496e73756666696369656e7420416c6c6f77616e636560501b60448201526064016107a0565b60d4546001600160a01b03166323b872dd336040516001600160e01b031960e084901b1681526001600160a01b03909116600482015230602482015260448101869052606401602060405180830381600087803b15801561292e57600080fd5b505af1158015612942573d6000803e3d6000fd5b505050506040513d601f19601f820116820180604052508101906129669190613353565b6129825760405162461bcd60e51b81526004016107a090613375565b61127e83612cf7565b33612994611ab6565b6001600160a01b0316146129ba5760405162461bcd60e51b81526004016107a0906134dc565b6001600160a01b038116612a1f5760405162461bcd60e51b815260206004820152602660248201527f4f776e61626c653a206e6577206f776e657220697320746865207a65726f206160448201526564647265737360d01b60648201526084016107a0565b61253581612c0f565b606060978054612a3790613511565b80601f0160208091040260200160405190810160405280929190818152602001828054612a6390613511565b8015612ab05780601f10612a8557610100808354040283529160200191612ab0565b820191906000526020600020905b815481529060010190602001808311612a9357829003601f168201915b5050505050905090565b60006001600160c01b038210612afd5760405162461bcd60e51b81526020600482015260086024820152676f766572666c6f7760c01b60448201526064016107a0565b5090565b600054610100900460ff1680612b1a575060005460ff16155b612b365760405162461bcd60e51b81526004016107a09061339e565b600054610100900460ff16158015612b58576000805461ffff19166101011790555b612b60612d6f565b612b68612dd9565b8015612535576000805461ff001916905550565b60335460ff16612bc55760405162461bcd60e51b815260206004820152601460248201527314185d5cd8589b194e881b9bdd081c185d5cd95960621b60448201526064016107a0565b6033805460ff191690557f5db9ee0a495bf2e6ff9c91a7834c1ba4fdd244a5e8aa4e537bd38aeae4b073aa335b6040516001600160a01b03909116815260200160405180910390a1565b606580546001600160a01b038381166001600160a01b0319831681179093556040519116919082907f8be0079c531659141344cd1fd0a4f28419497f9722a3daafe3b4186f6b6457e090600090a35050565b60335460ff1615612c845760405162461bcd60e51b81526004016107a090613329565b6033805460ff191660011790557f62e78cea01bee320cd4e420270b5ea74000d11b0c9f74754ebdbfc544b05a258612bf23390565b606060988054612a3790613511565b600054610100900460ff16612cef5760405162461bcd60e51b81526004016107a090613546565b61132e612e39565b8060cf54612d0591906132bf565b60cf81905560ce541015612d1a5760ce5460cf555b60cf5460cd54612d2a91906132f0565b60d05560cf5460408051838152602081019290925233917f106aac375bbcf013d1e52338bbf9e740009a1a3a6869f8daa1b72aa1620f5fec910160405180910390a250565b600054610100900460ff1680612d88575060005460ff16155b612da45760405162461bcd60e51b81526004016107a09061339e565b600054610100900460ff16158015612b68576000805461ffff19166101011790558015612535576000805461ff001916905550565b600054610100900460ff1680612df2575060005460ff16155b612e0e5760405162461bcd60e51b81526004016107a09061339e565b600054610100900460ff16158015612e30576000805461ffff19166101011790555b612b6833612c0f565b600054610100900460ff16612e605760405162461bcd60e51b81526004016107a090613546565b6033805460ff19169055565b828054612e7890613511565b90600052602060002090601f016020900481019282612e9a5760008555612ee0565b82601f10612eb357805160ff1916838001178555612ee0565b82800160010185558215612ee0579182015b82811115612ee0578251825591602001919060010190612ec5565b50612afd9291505b80821115612afd5760008155600101612ee8565b80356001600160a01b0381168114612f1357600080fd5b919050565b60008060408385031215612f2b57600080fd5b612f3483612efc565b946020939093013593505050565b600060208083528351808285015260005b81811015612f6f57858101830151858201604001528201612f53565b81811115612f81576000604083870101525b50601f01601f1916929092016040019392505050565b600060208284031215612fa957600080fd5b611ff182612efc565b600080600060608486031215612fc757600080fd5b612fd084612efc565b9250612fde60208501612efc565b9150604084013590509250925092565b60006020828403121561300057600080fd5b5035919050565b634e487b7160e01b600052604160045260246000fd5b600082601f83011261302e57600080fd5b813567ffffffffffffffff8082111561304957613049613007565b604051601f8301601f19908116603f0116810190828211818310171561307157613071613007565b8160405283815286602085880101111561308a57600080fd5b836020870160208301376000602085830101528094505050505092915050565b600080604083850312156130bd57600080fd5b823567ffffffffffffffff808211156130d557600080fd5b6130e18683870161301d565b935060208501359150808211156130f757600080fd5b506131048582860161301d565b9150509250929050565b6000806040838503121561312157600080fd5b61312a83612efc565b915061313860208401612efc565b90509250929050565b803560ff81168114612f1357600080fd5b60008060006060848603121561316757600080fd5b833567ffffffffffffffff8082111561317f57600080fd5b61318b8783880161301d565b945060208601359150808211156131a157600080fd5b506131ae8682870161301d565b9250506131bd60408501613141565b90509250925092565b6000806000606084860312156131db57600080fd5b505081359360208301359350604090920135919050565b600080600080600080600060e0888a03121561320d57600080fd5b61321688612efc565b965061322460208901612efc565b9550604088013594506060880135935061324060808901613141565b925060a0880135915060c0880135905092959891949750929550565b60208082526014908201527337b7363c902b30bab63a21b7b73a3937b63632b960611b604082015260600190565b634e487b7160e01b600052601160045260246000fd5b60008160001904831182151516156132ba576132ba61328a565b500290565b600082198211156132d2576132d261328a565b500190565b6000602082840312156132e957600080fd5b5051919050565b60008261330d57634e487b7160e01b600052601260045260246000fd5b500490565b6000828210156133245761332461328a565b500390565b60208082526010908201526f14185d5cd8589b194e881c185d5cd95960821b604082015260600190565b60006020828403121561336557600080fd5b81518015158114611ff157600080fd5b6020808252600f908201526e1d1c985b9cd9995c8819985a5b1959608a1b604082015260600190565b6020808252602e908201527f496e697469616c697a61626c653a20636f6e747261637420697320616c72656160408201526d191e481a5b9a5d1a585b1a5e995960921b606082015260800190565b600181815b8085111561342757816000190482111561340d5761340d61328a565b8085161561341a57918102915b93841c93908002906133f1565b509250929050565b60008261343e575060016108fa565b8161344b575060006108fa565b8160018114613461576002811461346b57613487565b60019150506108fa565b60ff84111561347c5761347c61328a565b50506001821b6108fa565b5060208310610133831016604e8410600b84101617156134aa575081810a6108fa565b6134b483836133ec565b80600019048211156134c8576134c861328a565b029392505050565b6000611ff1838361342f565b6020808252818101527f4f776e61626c653a2063616c6c6572206973206e6f7420746865206f776e6572604082015260600190565b600181811c9082168061352557607f821691505b60208210811415611e5a57634e487b7160e01b600052602260045260246000fd5b6020808252602b908201527f496e697469616c697a61626c653a20636f6e7472616374206973206e6f74206960408201526a6e697469616c697a696e6760a81b60608201526080019056feddf252ad1be2c89b69c2b068fc378daa952ba7f163c4a11628f55a4df523b3ef8c5be1e5ebec7d5bd14f71427d1e84f3dd0314c0f7b2291e5b200ac8c7c3b925a2646970667358221220cf26814df3c875538617532b99ac8af255f02dfb73afce612d42fde55cca439464736f6c63430008090033",
  "linkReferences": {},
  "deployedLinkReferences": {}
}