{
  "_format": "hh-sol-artifact-1",
  "contractName": "Wave",
  "sourceName": "contracts/genesis/wave.sol",
  "abi": [
    {
      "inputs": [
        {
          "internalType": "bytes32",
          "name": "root",
          "type": "bytes32"
        },
        {
          "internalType": "uint256",
          "name": "totalReward",
          "type": "uint256"
        },
        {
          "internalType": "uint256",
          "name": "floor",
          "type": "uint256"
        },
        {
          "internalType": "uint256",
          "name": "enableTime",
          "type": "uint256"
        },
        {
          "internalType": "uint256",
          "name": "disableTime",
          "type": "uint256"
        },
        {
          "internalType": "address",
          "name": "receiver",
          "type": "address"
        }
      ],
      "stateMutability": "nonpayable",
      "type": "constructor"
    },
    {
      "anonymous": false,
      "inputs": [
        {
          "indexed": true,
          "internalType": "address",
          "name": "from",
          "type": "address"
        },
        {
          "indexed": false,
          "internalType": "uint256",
          "name": "amount",
          "type": "uint256"
        }
      ],
      "name": "Points",
      "type": "event"
    },
    {
      "inputs": [],
      "name": "_disableTime",
      "outputs": [
        {
          "internalType": "uint256",
          "name": "",
          "type": "uint256"
        }
      ],
      "stateMutability": "view",
      "type": "function"
    },
    {
      "inputs": [],
      "name": "_enableTime",
      "outputs": [
        {
          "internalType": "uint256",
          "name": "",
          "type": "uint256"
        }
      ],
      "stateMutability": "view",
      "type": "function"
    },
    {
      "inputs": [],
      "name": "_floor",
      "outputs": [
        {
          "internalType": "uint256",
          "name": "",
          "type": "uint256"
        }
      ],
      "stateMutability": "view",
      "type": "function"
    },
    {
      "inputs": [],
      "name": "_receiver",
      "outputs": [
        {
          "internalType": "address",
          "name": "",
          "type": "address"
        }
      ],
      "stateMutability": "view",
      "type": "function"
    },
    {
      "inputs": [],
      "name": "_totalClaimed",
      "outputs": [
        {
          "internalType": "uint256",
          "name": "",
          "type": "uint256"
        }
      ],
      "stateMutability": "view",
      "type": "function"
    },
    {
      "inputs": [],
      "name": "_totalReward",
      "outputs": [
        {
          "internalType": "uint256",
          "name": "",
          "type": "uint256"
        }
      ],
      "stateMutability": "view",
      "type": "function"
    },
    {
      "inputs": [],
      "name": "canRedeem",
      "outputs": [
        {
          "internalType": "bool",
          "name": "",
          "type": "bool"
        }
      ],
      "stateMutability": "view",
      "type": "function"
    },
    {
      "inputs": [
        {
          "internalType": "address",
          "name": "",
          "type": "address"
        }
      ],
      "name": "claimed",
      "outputs": [
        {
          "internalType": "uint256",
          "name": "",
          "type": "uint256"
        }
      ],
      "stateMutability": "view",
      "type": "function"
    },
    {
      "inputs": [
        {
          "internalType": "uint256",
          "name": "amount",
          "type": "uint256"
        },
        {
          "internalType": "uint256",
          "name": "key",
          "type": "uint256"
        },
        {
          "internalType": "bytes32[]",
          "name": "merkleProof",
          "type": "bytes32[]"
        }
      ],
      "name": "getPoints",
      "outputs": [],
      "stateMutability": "nonpayable",
      "type": "function"
    },
    {
      "inputs": [],
      "name": "isEnabled",
      "outputs": [
        {
          "internalType": "bool",
          "name": "",
          "type": "bool"
        }
      ],
      "stateMutability": "view",
      "type": "function"
    },
    {
      "inputs": [],
      "name": "merkleRoot",
      "outputs": [
        {
          "internalType": "bytes32",
          "name": "",
          "type": "bytes32"
        }
      ],
      "stateMutability": "view",
      "type": "function"
    },
    {
      "inputs": [],
      "name": "pointsToken",
      "outputs": [
        {
          "internalType": "contract IERC20",
          "name": "",
          "type": "address"
        }
      ],
      "stateMutability": "view",
      "type": "function"
    },
    {
      "inputs": [],
      "name": "redeem",
      "outputs": [],
      "stateMutability": "nonpayable",
      "type": "function"
    },
    {
      "inputs": [
        {
          "internalType": "address",
          "name": "",
          "type": "address"
        }
      ],
      "name": "redeemed",
      "outputs": [
        {
          "internalType": "bool",
          "name": "",
          "type": "bool"
        }
      ],
      "stateMutability": "view",
      "type": "function"
    },
    {
      "inputs": [],
      "name": "rewardToken",
      "outputs": [
        {
          "internalType": "contract IERC20",
          "name": "",
          "type": "address"
        }
      ],
      "stateMutability": "view",
      "type": "function"
    }
  ],
  "bytecode": "0x6080604052600060025534801561001557600080fd5b50604051610d3d380380610d3d83398101604081905261003491610075565b600592909255600655600791909155600491909155600880546001600160a01b0319166001600160a01b0390921691909117905560025560006003556100d9565b60008060008060008060c0878903121561008e57600080fd5b86516020880151604089015160608a015160808b015160a08c0151949a50929850909650945092506001600160a01b03811681146100cb57600080fd5b809150509295509295509295565b610c55806100e86000396000f3fe608060405234801561001057600080fd5b50600436106100f55760003560e01c8063b704568b11610097578063f060b26811610066578063f060b268146101e5578063f7c618c1146101f8578063f97ed50914610200578063fd515e381461020a57600080fd5b8063b704568b146101a9578063be040fb0146101b2578063c0bcabbc146101bc578063c884ef83146101c557600080fd5b80635729d04e116100d35780635729d04e1461014a5780636aa633b61461015357806372e1011c1461016b5780639f4568ef1461018657600080fd5b806302964ff1146100fa5780632eb4a7ab1461012a5780634068867514610141575b600080fd5b60085461010d906001600160a01b031681565b6040516001600160a01b0390911681526020015b60405180910390f35b61013360025481565b604051908152602001610121565b61013360065481565b61013360045481565b61015b610213565b6040519015158152602001610121565b61010d73a0b86991c6218b36c1d19d4a2e9eb0ce3606eb4881565b61015b6101943660046109c2565b60016020526000908152604090205460ff1681565b61013360075481565b6101ba61022c565b005b61013360055481565b6101336101d33660046109c2565b60006020819052908152604090205481565b6101ba6101f3366004610a08565b6104d9565b61010d600081565b600654421161015b565b61013360035481565b600060055442118015610227575060065442105b905090565b6102536040518060400160405280600681526020016572656465656d60d01b8152506106d4565b600654421115156001146102a15760405162461bcd60e51b815260206004820152601060248201526f18d85b89dd081c995919595b481e595d60821b60448201526064015b60405180910390fd5b3360009081526001602052604090205460ff16156102f25760405162461bcd60e51b815260206004820152600e60248201526d616c72656164792072656465656d60901b6044820152606401610298565b6103206040518060400160405280600d81526020016c726571756972657320646f6e6560981b8152506106d4565b3360009081526001602081905260408220805460ff191690911790556004546003546103519064e8d4a51000610af1565b11156104105761037a6040518060400160405280600281526020016124a360f11b8152506106d4565b600060035464e8d4a5100061038f9190610af1565b6004546103a490670de0b6b3a7640000610af1565b6103ae9190610b10565b90506103d96040518060400160405280600781526020016603930ba34b79d160cd1b81525082610717565b33600090815260208190526040902054670de0b6b3a7640000906103fe908390610af1565b6104089190610b10565b915050610463565b61043560405180604001604052806004815260200163454c534560e01b8152506106d4565b60075433600090815260208190526040902054620f42409161045691610af1565b6104609190610b10565b90505b6104936040518060400160405280600f81526020016e61626f757420746f2067697665546f60881b8152506106d4565b6104ab336104a68364e8d4a51000610af1565b610760565b6104d66040518060400160405280600a8152602001691491511151534811539160b21b8152506106d4565b50565b6105096040518060400160405280600f81526020016e33b2ba2837b4b73a39902122a3a4a760891b8152506106d4565b610511610213565b15156001146105505760405162461bcd60e51b815260206004820152600b60248201526a1b9bdd08195b98589b195960aa1b6044820152606401610298565b3361055c818484610830565b151560011461059d5760405162461bcd60e51b815260206004820152600d60248201526c34b73b30b634b210383937b7b360991b6044820152606401610298565b6001600160a01b03811660009081526020819052604090205483906105c3908690610b32565b11156106055760405162461bcd60e51b81526020600482015260116024820152701b585e08185b1b1bd8c818db185a5b5959607a1b6044820152606401610298565b6001600160a01b038116600090815260208190526040902054610629908590610b32565b6001600160a01b038216600090815260208190526040902055600354610650908590610b32565b60035561065d8185610889565b806001600160a01b03167fadd3089cb70634d9d13b9d04ee6e5f91f919eabb32e05c151c12d54976955bdc8560405161069891815260200190565b60405180910390a26106ce6040518060400160405280600d81526020016c19d95d141bda5b9d1cc8115391609a1b8152506106d4565b50505050565b6104d6816040516024016106e89190610b97565b60408051601f198184030181529190526020810180516001600160e01b031663104c13eb60e21b1790526108df565b61075c828260405160240161072d929190610baa565b60408051601f198184030181529190526020810180516001600160e01b03166309710a9d60e41b1790526108df565b5050565b60405163a9059cbb60e01b81526001600160a01b038316600482015260248101829052600090819063a9059cbb906044015b602060405180830381600087803b1580156107ac57600080fd5b505af11580156107c0573d6000803e3d6000fd5b505050506040513d601f19601f820116820180604052508101906107e49190610bcc565b90508061082b5760405162461bcd60e51b8152602060048201526015602482015274195c98cc8c081d1c985b9cd9995c8819985a5b1959605a1b6044820152606401610298565b505050565b6040516bffffffffffffffffffffffff19606085901b1660208201526034810183905260009081906054016040516020818303038152906040528051906020012090506108808360025483610900565b95945050505050565b6008546040516323b872dd60e01b81526001600160a01b03808516600483015290911660248201526044810182905260009073a0b86991c6218b36c1d19d4a2e9eb0ce3606eb48906323b872dd90606401610792565b80516a636f6e736f6c652e6c6f67602083016000808483855afa5050505050565b60008261090d8584610916565b14949350505050565b600081815b84518110156109ba57600085828151811061093857610938610bee565b6020026020010151905080831161097a5760408051602081018590529081018290526060016040516020818303038152906040528051906020012092506109a7565b60408051602081018390529081018490526060016040516020818303038152906040528051906020012092505b50806109b281610c04565b91505061091b565b509392505050565b6000602082840312156109d457600080fd5b81356001600160a01b03811681146109eb57600080fd5b9392505050565b634e487b7160e01b600052604160045260246000fd5b600080600060608486031215610a1d57600080fd5b833592506020808501359250604085013567ffffffffffffffff80821115610a4457600080fd5b818701915087601f830112610a5857600080fd5b813581811115610a6a57610a6a6109f2565b8060051b604051601f19603f83011681018181108582111715610a8f57610a8f6109f2565b60405291825284820192508381018501918a831115610aad57600080fd5b938501935b82851015610acb57843584529385019392850192610ab2565b8096505050505050509250925092565b634e487b7160e01b600052601160045260246000fd5b6000816000190483118215151615610b0b57610b0b610adb565b500290565b600082610b2d57634e487b7160e01b600052601260045260246000fd5b500490565b60008219821115610b4557610b45610adb565b500190565b6000815180845260005b81811015610b7057602081850181015186830182015201610b54565b81811115610b82576000602083870101525b50601f01601f19169290920160200192915050565b6020815260006109eb6020830184610b4a565b604081526000610bbd6040830185610b4a565b90508260208301529392505050565b600060208284031215610bde57600080fd5b815180151581146109eb57600080fd5b634e487b7160e01b600052603260045260246000fd5b6000600019821415610c1857610c18610adb565b506001019056fea26469706673582212204caade94ee2fcfaa0b4e2edccddb6c365f86c02390e91c77c1e6eaba1c6f165564736f6c63430008090033",
  "linkReferences": {},
  "deployedLinkReferences": {}
}