{
  "_format": "hh-sol-artifact-1",
  "contractName": "AnchoredViewRelay",
  "sourceName": "contracts/oracle/Logic/AnchoredViewRelay.sol",
  "abi": [
    {
      "inputs": [
        {
          "internalType": "address",
          "name": "anchor_address",
          "type": "address"
        },
        {
          "internalType": "address",
          "name": "main_address",
          "type": "address"
        },
        {
          "internalType": "uint256",
          "name": "widthNumerator",
          "type": "uint256"
        },
        {
          "internalType": "uint256",
          "name": "widthDenominator",
          "type": "uint256"
        }
      ],
      "stateMutability": "nonpayable",
      "type": "constructor"
    },
    {
      "inputs": [],
      "name": "_anchorAddress",
      "outputs": [
        {
          "internalType": "address",
          "name": "",
          "type": "address"
        }
      ],
      "stateMutability": "view",
      "type": "function"
    },
    {
      "inputs": [],
      "name": "_anchorRelay",
      "outputs": [
        {
          "internalType": "contract IOracleRelay",
          "name": "",
          "type": "address"
        }
      ],
      "stateMutability": "view",
      "type": "function"
    },
    {
      "inputs": [],
      "name": "_mainAddress",
      "outputs": [
        {
          "internalType": "address",
          "name": "",
          "type": "address"
        }
      ],
      "stateMutability": "view",
      "type": "function"
    },
    {
      "inputs": [],
      "name": "_mainRelay",
      "outputs": [
        {
          "internalType": "contract IOracleRelay",
          "name": "",
          "type": "address"
        }
      ],
      "stateMutability": "view",
      "type": "function"
    },
    {
      "inputs": [],
      "name": "_widthDenominator",
      "outputs": [
        {
          "internalType": "uint256",
          "name": "",
          "type": "uint256"
        }
      ],
      "stateMutability": "view",
      "type": "function"
    },
    {
      "inputs": [],
      "name": "_widthNumerator",
      "outputs": [
        {
          "internalType": "uint256",
          "name": "",
          "type": "uint256"
        }
      ],
      "stateMutability": "view",
      "type": "function"
    },
    {
      "inputs": [],
      "name": "currentValue",
      "outputs": [
        {
          "internalType": "uint256",
          "name": "",
          "type": "uint256"
        }
      ],
      "stateMutability": "view",
      "type": "function"
    }
  ],
  "bytecode": "0x60806040523480156200001157600080fd5b5060405162000bed38038062000bed8339818101604052810190620000379190620001f7565b836000806101000a81548173ffffffffffffffffffffffffffffffffffffffff021916908373ffffffffffffffffffffffffffffffffffffffff16021790555083600160006101000a81548173ffffffffffffffffffffffffffffffffffffffff021916908373ffffffffffffffffffffffffffffffffffffffff16021790555082600260006101000a81548173ffffffffffffffffffffffffffffffffffffffff021916908373ffffffffffffffffffffffffffffffffffffffff16021790555082600360006101000a81548173ffffffffffffffffffffffffffffffffffffffff021916908373ffffffffffffffffffffffffffffffffffffffff16021790555081600481905550806005819055505050505062000269565b600080fd5b600073ffffffffffffffffffffffffffffffffffffffff82169050919050565b6000620001848262000157565b9050919050565b620001968162000177565b8114620001a257600080fd5b50565b600081519050620001b6816200018b565b92915050565b6000819050919050565b620001d181620001bc565b8114620001dd57600080fd5b50565b600081519050620001f181620001c6565b92915050565b6000806000806080858703121562000214576200021362000152565b5b60006200022487828801620001a5565b94505060206200023787828801620001a5565b93505060406200024a87828801620001e0565b92505060606200025d87828801620001e0565b91505092959194509250565b61097480620002796000396000f3fe608060405234801561001057600080fd5b506004361061007d5760003560e01c8063698996f81161005b578063698996f8146100dc57806379a38ef6146100fa57806388af30c314610118578063ac42ff10146101365761007d565b806335d612251461008257806339ebe916146100a05780635ec6bfe5146100be575b600080fd5b61008a610154565b6040516100979190610521565b60405180910390f35b6100a861017a565b6040516100b59190610521565b60405180910390f35b6100c66101a0565b6040516100d39190610555565b60405180910390f35b6100e46101a6565b6040516100f19190610555565b60405180910390f35b6101026101b5565b60405161010f9190610555565b60405180910390f35b6101206101bb565b60405161012d9190610591565b60405180910390f35b61013e6101e1565b60405161014b9190610591565b60405180910390f35b600360009054906101000a900473ffffffffffffffffffffffffffffffffffffffff1681565b600160009054906101000a900473ffffffffffffffffffffffffffffffffffffffff1681565b60055481565b60006101b0610205565b905090565b60045481565b600260009054906101000a900473ffffffffffffffffffffffffffffffffffffffff1681565b60008054906101000a900473ffffffffffffffffffffffffffffffffffffffff1681565b600080600360009054906101000a900473ffffffffffffffffffffffffffffffffffffffff1673ffffffffffffffffffffffffffffffffffffffff1663698996f86040518163ffffffff1660e01b815260040160206040518083038186803b15801561027057600080fd5b505afa158015610284573d6000803e3d6000fd5b505050506040513d601f19601f820116820180604052508101906102a891906105dd565b9050600081116102ed576040517f08c379a00000000000000000000000000000000000000000000000000000000081526004016102e490610667565b60405180910390fd5b6000600160009054906101000a900473ffffffffffffffffffffffffffffffffffffffff1673ffffffffffffffffffffffffffffffffffffffff1663698996f86040518163ffffffff1660e01b815260040160206040518083038186803b15801561035757600080fd5b505afa15801561036b573d6000803e3d6000fd5b505050506040513d601f19601f8201168201806040525081019061038f91906105dd565b9050600081116103d4576040517f08c379a00000000000000000000000000000000000000000000000000000000081526004016103cb906106d3565b60405180910390fd5b6000600554826004546103e79190610722565b6103f191906107ab565b90506000818361040191906107dc565b9050600082846104119190610832565b9050818510610455576040517f08c379a000000000000000000000000000000000000000000000000000000000815260040161044c906108b2565b60405180910390fd5b808511610497576040517f08c379a000000000000000000000000000000000000000000000000000000000815260040161048e9061091e565b60405180910390fd5b849550505050505090565b600073ffffffffffffffffffffffffffffffffffffffff82169050919050565b6000819050919050565b60006104e76104e26104dd846104a2565b6104c2565b6104a2565b9050919050565b60006104f9826104cc565b9050919050565b600061050b826104ee565b9050919050565b61051b81610500565b82525050565b60006020820190506105366000830184610512565b92915050565b6000819050919050565b61054f8161053c565b82525050565b600060208201905061056a6000830184610546565b92915050565b600061057b826104a2565b9050919050565b61058b81610570565b82525050565b60006020820190506105a66000830184610582565b92915050565b600080fd5b6105ba8161053c565b81146105c557600080fd5b50565b6000815190506105d7816105b1565b92915050565b6000602082840312156105f3576105f26105ac565b5b6000610601848285016105c8565b91505092915050565b600082825260208201905092915050565b7f696e76616c6964206f7261636c652076616c7565000000000000000000000000600082015250565b600061065160148361060a565b915061065c8261061b565b602082019050919050565b6000602082019050818103600083015261068081610644565b9050919050565b7f696e76616c696420616e63686f722076616c7565000000000000000000000000600082015250565b60006106bd60148361060a565b91506106c882610687565b602082019050919050565b600060208201905081810360008301526106ec816106b0565b9050919050565b7f4e487b7100000000000000000000000000000000000000000000000000000000600052601160045260246000fd5b600061072d8261053c565b91506107388361053c565b9250817fffffffffffffffffffffffffffffffffffffffffffffffffffffffffffffffff0483118215151615610771576107706106f3565b5b828202905092915050565b7f4e487b7100000000000000000000000000000000000000000000000000000000600052601260045260246000fd5b60006107b68261053c565b91506107c18361053c565b9250826107d1576107d061077c565b5b828204905092915050565b60006107e78261053c565b91506107f28361053c565b9250827fffffffffffffffffffffffffffffffffffffffffffffffffffffffffffffffff03821115610827576108266106f3565b5b828201905092915050565b600061083d8261053c565b91506108488361053c565b92508282101561085b5761085a6106f3565b5b828203905092915050565b7f616e63686f7220746f6f20686967680000000000000000000000000000000000600082015250565b600061089c600f8361060a565b91506108a782610866565b602082019050919050565b600060208201905081810360008301526108cb8161088f565b9050919050565b7f616e63686f7220746f6f206c6f77000000000000000000000000000000000000600082015250565b6000610908600e8361060a565b9150610913826108d2565b602082019050919050565b60006020820190508181036000830152610937816108fb565b905091905056fea264697066735822122069da5c2c1f0b6ae0fd3f0a20464c2010d524ba79592bcd9fad40056691e03ee264736f6c63430008090033",
  "linkReferences": {},
  "deployedLinkReferences": {}
}