{
  "_format": "hh-sol-artifact-1",
  "contractName": "InterestProtocolToken",
  "sourceName": "contracts/governance/token/TokenDelegator.sol",
  "abi": [
    {
      "inputs": [
        {
          "internalType": "address",
          "name": "account_",
          "type": "address"
        },
        {
          "internalType": "address",
          "name": "owner_",
          "type": "address"
        },
        {
          "internalType": "address",
          "name": "implementation_",
          "type": "address"
        },
        {
          "internalType": "uint256",
          "name": "initialSupply_",
          "type": "uint256"
        }
      ],
      "stateMutability": "nonpayable",
      "type": "constructor"
    },
    {
      "anonymous": false,
      "inputs": [
        {
          "indexed": true,
          "internalType": "address",
          "name": "owner",
          "type": "address"
        },
        {
          "indexed": true,
          "internalType": "address",
          "name": "spender",
          "type": "address"
        },
        {
          "indexed": false,
          "internalType": "uint256",
          "name": "amount",
          "type": "uint256"
        }
      ],
      "name": "Approval",
      "type": "event"
    },
    {
      "anonymous": false,
      "inputs": [
        {
          "indexed": false,
          "internalType": "string",
          "name": "oldName",
          "type": "string"
        },
        {
          "indexed": false,
          "internalType": "string",
          "name": "newName",
          "type": "string"
        }
      ],
      "name": "ChangedName",
      "type": "event"
    },
    {
      "anonymous": false,
      "inputs": [
        {
          "indexed": false,
          "internalType": "string",
          "name": "oldSybmol",
          "type": "string"
        },
        {
          "indexed": false,
          "internalType": "string",
          "name": "newSybmol",
          "type": "string"
        }
      ],
      "name": "ChangedSymbol",
      "type": "event"
    },
    {
      "anonymous": false,
      "inputs": [
        {
          "indexed": true,
          "internalType": "address",
          "name": "delegator",
          "type": "address"
        },
        {
          "indexed": true,
          "internalType": "address",
          "name": "fromDelegate",
          "type": "address"
        },
        {
          "indexed": true,
          "internalType": "address",
          "name": "toDelegate",
          "type": "address"
        }
      ],
      "name": "DelegateChanged",
      "type": "event"
    },
    {
      "anonymous": false,
      "inputs": [
        {
          "indexed": true,
          "internalType": "address",
          "name": "delegate",
          "type": "address"
        },
        {
          "indexed": false,
          "internalType": "uint256",
          "name": "previousBalance",
          "type": "uint256"
        },
        {
          "indexed": false,
          "internalType": "uint256",
          "name": "newBalance",
          "type": "uint256"
        }
      ],
      "name": "DelegateVotesChanged",
      "type": "event"
    },
    {
      "anonymous": false,
      "inputs": [
        {
          "indexed": true,
          "internalType": "address",
          "name": "oldMinter",
          "type": "address"
        },
        {
          "indexed": true,
          "internalType": "address",
          "name": "newMinter",
          "type": "address"
        }
      ],
      "name": "MinterChanged",
      "type": "event"
    },
    {
      "anonymous": false,
      "inputs": [
        {
          "indexed": false,
          "internalType": "address",
          "name": "oldImplementation",
          "type": "address"
        },
        {
          "indexed": false,
          "internalType": "address",
          "name": "newImplementation",
          "type": "address"
        }
      ],
      "name": "NewImplementation",
      "type": "event"
    },
    {
      "anonymous": false,
      "inputs": [
        {
          "indexed": true,
          "internalType": "address",
          "name": "from",
          "type": "address"
        },
        {
          "indexed": true,
          "internalType": "address",
          "name": "to",
          "type": "address"
        },
        {
          "indexed": false,
          "internalType": "uint256",
          "name": "amount",
          "type": "uint256"
        }
      ],
      "name": "Transfer",
      "type": "event"
    },
    {
      "stateMutability": "payable",
      "type": "fallback"
    },
    {
      "inputs": [
        {
          "internalType": "address",
          "name": "implementation_",
          "type": "address"
        }
      ],
      "name": "_setImplementation",
      "outputs": [],
      "stateMutability": "nonpayable",
      "type": "function"
    },
    {
      "inputs": [],
      "name": "decimals",
      "outputs": [
        {
          "internalType": "uint8",
          "name": "",
          "type": "uint8"
        }
      ],
      "stateMutability": "view",
      "type": "function"
    },
    {
      "inputs": [],
      "name": "implementation",
      "outputs": [
        {
          "internalType": "address",
          "name": "",
          "type": "address"
        }
      ],
      "stateMutability": "view",
      "type": "function"
    },
    {
      "inputs": [],
      "name": "name",
      "outputs": [
        {
          "internalType": "string",
          "name": "",
          "type": "string"
        }
      ],
      "stateMutability": "view",
      "type": "function"
    },
    {
      "inputs": [],
      "name": "owner",
      "outputs": [
        {
          "internalType": "address",
          "name": "",
          "type": "address"
        }
      ],
      "stateMutability": "view",
      "type": "function"
    },
    {
      "inputs": [],
      "name": "symbol",
      "outputs": [
        {
          "internalType": "string",
          "name": "",
          "type": "string"
        }
      ],
      "stateMutability": "view",
      "type": "function"
    },
    {
      "inputs": [],
      "name": "totalSupply",
      "outputs": [
        {
          "internalType": "uint256",
          "name": "",
          "type": "uint256"
        }
      ],
      "stateMutability": "view",
      "type": "function"
    },
    {
      "stateMutability": "payable",
      "type": "receive"
    }
  ],
  "bytecode": "0x60c06040526011608081905270125b9d195c995cdd08141c9bdd1bd8dbdb607a1b60a09081526100329160019190610227565b506040805180820190915260038082526212541560ea1b602090920191825261005d91600291610227565b5034801561006a57600080fd5b5060405161085e38038061085e833981016040819052610089916102dc565b6001600160a01b0382166100e35760405162461bcd60e51b815260206004820152601f60248201527f546f6b656e44656c656761746f723a20696e76616c6964206164647265737300604482015260640160405180910390fd5b600480546001600160a01b0319166001600160a01b038581169190911790915560405190851660248201526044810182905261015190839060640160408051601f198184030181529190526020810180516001600160e01b0390811663cd6dc68760e01b179091526101b116565b600080546001600160a01b0319166001600160a01b03841690811782556040805192835260208301919091527fd604de94d45953f9138079ec1b82d533cb2160c906d1076d1f7ed54befbca97a910160405180910390a15050505061039d565b600080836001600160a01b0316836040516101cc9190610327565b600060405180830381855af49150503d8060008114610207576040519150601f19603f3d011682016040523d82523d6000602084013e61020c565b606091505b50915091506000821415610221573d60208201fd5b50505050565b82805461023390610362565b90600052602060002090601f016020900481019282610255576000855561029b565b82601f1061026e57805160ff191683800117855561029b565b8280016001018555821561029b579182015b8281111561029b578251825591602001919060010190610280565b506102a79291506102ab565b5090565b5b808211156102a757600081556001016102ac565b80516001600160a01b03811681146102d757600080fd5b919050565b600080600080608085870312156102f257600080fd5b6102fb856102c0565b9350610309602086016102c0565b9250610317604086016102c0565b6060959095015193969295505050565b6000825160005b81811015610348576020818601810151858301520161032e565b81811115610357576000828501525b509190910192915050565b600181811c9082168061037657607f821691505b6020821081141561039757634e487b7160e01b600052602260045260246000fd5b50919050565b6104b2806103ac6000396000f3fe6080604052600436106100745760003560e01c80635c60da1b1161004e5780635c60da1b1461016c5780638da5cb5b146101a457806395d89b41146101c4578063bb913f41146101d95761007b565b806306fdde03146100f657806318160ddd14610121578063313ce567146101455761007b565b3661007b57005b600080546040516001600160a01b039091169061009b90839036906103ac565b600060405180830381855af49150503d80600081146100d6576040519150601f19603f3d011682016040523d82523d6000602084013e6100db565b606091505b505090506040513d6000823e8180156100f2573d82f35b3d82fd5b34801561010257600080fd5b5061010b6101fb565b60405161011891906103bc565b60405180910390f35b34801561012d57600080fd5b5061013760035481565b604051908152602001610118565b34801561015157600080fd5b5061015a601281565b60405160ff9091168152602001610118565b34801561017857600080fd5b5060005461018c906001600160a01b031681565b6040516001600160a01b039091168152602001610118565b3480156101b057600080fd5b5060045461018c906001600160a01b031681565b3480156101d057600080fd5b5061010b610289565b3480156101e557600080fd5b506101f96101f4366004610411565b610296565b005b6001805461020890610441565b80601f016020809104026020016040519081016040528092919081815260200182805461023490610441565b80156102815780601f1061025657610100808354040283529160200191610281565b820191906000526020600020905b81548152906001019060200180831161026457829003601f168201915b505050505081565b6002805461020890610441565b6004546001600160a01b031633146102f55760405162461bcd60e51b815260206004820152601b60248201527f6f6e6c794f776e65723a2073656e646572206e6f74206f776e6572000000000060448201526064015b60405180910390fd5b6001600160a01b03811661034b5760405162461bcd60e51b815260206004820181905260248201527f5f736574496d706c656d656e746174696f6e3a20696e76616c6964206164647260448201526064016102ec565b600080546001600160a01b038381166001600160a01b031983168117909355604080519190921680825260208201939093527fd604de94d45953f9138079ec1b82d533cb2160c906d1076d1f7ed54befbca97a910160405180910390a15050565b8183823760009101908152919050565b600060208083528351808285015260005b818110156103e9578581018301518582016040015282016103cd565b818111156103fb576000604083870101525b50601f01601f1916929092016040019392505050565b60006020828403121561042357600080fd5b81356001600160a01b038116811461043a57600080fd5b9392505050565b600181811c9082168061045557607f821691505b6020821081141561047657634e487b7160e01b600052602260045260246000fd5b5091905056fea26469706673582212208e99d2dd436af216afb8839184ecff5fc5661e42728b032ace396d0078233de864736f6c63430008090033",
  "linkReferences": {},
  "deployedLinkReferences": {}
}