{
  "_format": "hh-sol-artifact-1",
  "contractName": "OracleMaster",
  "sourceName": "contracts/oracle/OracleMaster.sol",
  "abi": [
    {
      "inputs": [],
      "stateMutability": "nonpayable",
      "type": "constructor"
    },
    {
      "anonymous": false,
      "inputs": [
        {
          "indexed": true,
          "internalType": "address",
          "name": "previousOwner",
          "type": "address"
        },
        {
          "indexed": true,
          "internalType": "address",
          "name": "newOwner",
          "type": "address"
        }
      ],
      "name": "OwnershipTransferred",
      "type": "event"
    },
    {
      "inputs": [
        {
          "internalType": "address",
          "name": "",
          "type": "address"
        }
      ],
      "name": "_paused",
      "outputs": [
        {
          "internalType": "bool",
          "name": "",
          "type": "bool"
        }
      ],
      "stateMutability": "view",
      "type": "function"
    },
    {
      "inputs": [
        {
          "internalType": "address",
          "name": "",
          "type": "address"
        }
      ],
      "name": "_relays",
      "outputs": [
        {
          "internalType": "address",
          "name": "",
          "type": "address"
        }
      ],
      "stateMutability": "view",
      "type": "function"
    },
    {
      "inputs": [
        {
          "internalType": "address",
          "name": "token_address",
          "type": "address"
        }
      ],
      "name": "get_live_price",
      "outputs": [
        {
          "internalType": "uint256",
          "name": "",
          "type": "uint256"
        }
      ],
      "stateMutability": "view",
      "type": "function"
    },
    {
      "inputs": [],
      "name": "owner",
      "outputs": [
        {
          "internalType": "address",
          "name": "",
          "type": "address"
        }
      ],
      "stateMutability": "view",
      "type": "function"
    },
    {
      "inputs": [
        {
          "internalType": "address",
          "name": "token_address",
          "type": "address"
        },
        {
          "internalType": "bool",
          "name": "state",
          "type": "bool"
        }
      ],
      "name": "pause_relay",
      "outputs": [],
      "stateMutability": "nonpayable",
      "type": "function"
    },
    {
      "inputs": [],
      "name": "renounceOwnership",
      "outputs": [],
      "stateMutability": "nonpayable",
      "type": "function"
    },
    {
      "inputs": [
        {
          "internalType": "address",
          "name": "token_address",
          "type": "address"
        },
        {
          "internalType": "address",
          "name": "relay_address",
          "type": "address"
        }
      ],
      "name": "set_relay",
      "outputs": [],
      "stateMutability": "nonpayable",
      "type": "function"
    },
    {
      "inputs": [
        {
          "internalType": "address",
          "name": "newOwner",
          "type": "address"
        }
      ],
      "name": "transferOwnership",
      "outputs": [],
      "stateMutability": "nonpayable",
      "type": "function"
    }
  ],
  "bytecode": "0x608060405234801561001057600080fd5b5060006100216100c460201b60201c565b9050806000806101000a81548173ffffffffffffffffffffffffffffffffffffffff021916908373ffffffffffffffffffffffffffffffffffffffff1602179055508073ffffffffffffffffffffffffffffffffffffffff16600073ffffffffffffffffffffffffffffffffffffffff167f8be0079c531659141344cd1fd0a4f28419497f9722a3daafe3b4186f6b6457e060405160405180910390a3506100cc565b600033905090565b610d7c806100db6000396000f3fe608060405234801561001057600080fd5b50600436106100885760003560e01c80638da5cb5b1161005b5780638da5cb5b14610113578063b962a0e914610131578063c054fd5d1461014d578063f2fde38b1461017d57610088565b80633b794eac1461008d57806366f94015146100bd578063715018a6146100ed5780638ce781b6146100f7575b600080fd5b6100a760048036038101906100a29190610999565b610199565b6040516100b491906109df565b60405180910390f35b6100d760048036038101906100d29190610999565b6103fa565b6040516100e49190610a15565b60405180910390f35b6100f561041a565b005b610111600480360381019061010c9190610a5c565b610554565b005b61011b61062b565b6040516101289190610aab565b60405180910390f35b61014b60048036038101906101469190610ac6565b610654565b005b61016760048036038101906101629190610999565b610752565b6040516101749190610aab565b60405180910390f35b61019760048036038101906101929190610999565b610785565b005b6000801515600260008473ffffffffffffffffffffffffffffffffffffffff1673ffffffffffffffffffffffffffffffffffffffff16815260200190815260200160002060009054906101000a900460ff1615151461022d576040517f08c379a000000000000000000000000000000000000000000000000000000000815260040161022490610b63565b60405180910390fd5b600073ffffffffffffffffffffffffffffffffffffffff16600160008473ffffffffffffffffffffffffffffffffffffffff1673ffffffffffffffffffffffffffffffffffffffff16815260200190815260200160002060009054906101000a900473ffffffffffffffffffffffffffffffffffffffff1673ffffffffffffffffffffffffffffffffffffffff1614156102fc576040517f08c379a00000000000000000000000000000000000000000000000000000000081526004016102f390610bcf565b60405180910390fd5b6000600160008473ffffffffffffffffffffffffffffffffffffffff1673ffffffffffffffffffffffffffffffffffffffff16815260200190815260200160002060009054906101000a900473ffffffffffffffffffffffffffffffffffffffff16905060008173ffffffffffffffffffffffffffffffffffffffff1663698996f86040518163ffffffff1660e01b815260040160206040518083038186803b1580156103a857600080fd5b505afa1580156103bc573d6000803e3d6000fd5b505050506040513d601f19601f820116820180604052508101906103e09190610c1b565b905060008114156103f057600080fd5b8092505050919050565b60026020528060005260406000206000915054906101000a900460ff1681565b61042261092e565b73ffffffffffffffffffffffffffffffffffffffff1661044061062b565b73ffffffffffffffffffffffffffffffffffffffff1614610496576040517f08c379a000000000000000000000000000000000000000000000000000000000815260040161048d90610c94565b60405180910390fd5b600073ffffffffffffffffffffffffffffffffffffffff1660008054906101000a900473ffffffffffffffffffffffffffffffffffffffff1673ffffffffffffffffffffffffffffffffffffffff167f8be0079c531659141344cd1fd0a4f28419497f9722a3daafe3b4186f6b6457e060405160405180910390a360008060006101000a81548173ffffffffffffffffffffffffffffffffffffffff021916908373ffffffffffffffffffffffffffffffffffffffff160217905550565b61055c61092e565b73ffffffffffffffffffffffffffffffffffffffff1661057a61062b565b73ffffffffffffffffffffffffffffffffffffffff16146105d0576040517f08c379a00000000000000000000000000000000000000000000000000000000081526004016105c790610c94565b60405180910390fd5b80600260008473ffffffffffffffffffffffffffffffffffffffff1673ffffffffffffffffffffffffffffffffffffffff16815260200190815260200160002060006101000a81548160ff0219169083151502179055505050565b60008060009054906101000a900473ffffffffffffffffffffffffffffffffffffffff16905090565b61065c61092e565b73ffffffffffffffffffffffffffffffffffffffff1661067a61062b565b73ffffffffffffffffffffffffffffffffffffffff16146106d0576040517f08c379a00000000000000000000000000000000000000000000000000000000081526004016106c790610c94565b60405180910390fd5b80600160008473ffffffffffffffffffffffffffffffffffffffff1673ffffffffffffffffffffffffffffffffffffffff16815260200190815260200160002060006101000a81548173ffffffffffffffffffffffffffffffffffffffff021916908373ffffffffffffffffffffffffffffffffffffffff1602179055505050565b60016020528060005260406000206000915054906101000a900473ffffffffffffffffffffffffffffffffffffffff1681565b61078d61092e565b73ffffffffffffffffffffffffffffffffffffffff166107ab61062b565b73ffffffffffffffffffffffffffffffffffffffff1614610801576040517f08c379a00000000000000000000000000000000000000000000000000000000081526004016107f890610c94565b60405180910390fd5b600073ffffffffffffffffffffffffffffffffffffffff168173ffffffffffffffffffffffffffffffffffffffff161415610871576040517f08c379a000000000000000000000000000000000000000000000000000000000815260040161086890610d26565b60405180910390fd5b8073ffffffffffffffffffffffffffffffffffffffff1660008054906101000a900473ffffffffffffffffffffffffffffffffffffffff1673ffffffffffffffffffffffffffffffffffffffff167f8be0079c531659141344cd1fd0a4f28419497f9722a3daafe3b4186f6b6457e060405160405180910390a3806000806101000a81548173ffffffffffffffffffffffffffffffffffffffff021916908373ffffffffffffffffffffffffffffffffffffffff16021790555050565b600033905090565b600080fd5b600073ffffffffffffffffffffffffffffffffffffffff82169050919050565b60006109668261093b565b9050919050565b6109768161095b565b811461098157600080fd5b50565b6000813590506109938161096d565b92915050565b6000602082840312156109af576109ae610936565b5b60006109bd84828501610984565b91505092915050565b6000819050919050565b6109d9816109c6565b82525050565b60006020820190506109f460008301846109d0565b92915050565b60008115159050919050565b610a0f816109fa565b82525050565b6000602082019050610a2a6000830184610a06565b92915050565b610a39816109fa565b8114610a4457600080fd5b50565b600081359050610a5681610a30565b92915050565b60008060408385031215610a7357610a72610936565b5b6000610a8185828601610984565b9250506020610a9285828601610a47565b9150509250929050565b610aa58161095b565b82525050565b6000602082019050610ac06000830184610a9c565b92915050565b60008060408385031215610add57610adc610936565b5b6000610aeb85828601610984565b9250506020610afc85828601610984565b9150509250929050565b600082825260208201905092915050565b7f72656c6179207061757365640000000000000000000000000000000000000000600082015250565b6000610b4d600c83610b06565b9150610b5882610b17565b602082019050919050565b60006020820190508181036000830152610b7c81610b40565b9050919050565b7f746f6b656e206e6f7420656e61626c6564000000000000000000000000000000600082015250565b6000610bb9601183610b06565b9150610bc482610b83565b602082019050919050565b60006020820190508181036000830152610be881610bac565b9050919050565b610bf8816109c6565b8114610c0357600080fd5b50565b600081519050610c1581610bef565b92915050565b600060208284031215610c3157610c30610936565b5b6000610c3f84828501610c06565b91505092915050565b7f4f776e61626c653a2063616c6c6572206973206e6f7420746865206f776e6572600082015250565b6000610c7e602083610b06565b9150610c8982610c48565b602082019050919050565b60006020820190508181036000830152610cad81610c71565b9050919050565b7f4f776e61626c653a206e6577206f776e657220697320746865207a65726f206160008201527f6464726573730000000000000000000000000000000000000000000000000000602082015250565b6000610d10602683610b06565b9150610d1b82610cb4565b604082019050919050565b60006020820190508181036000830152610d3f81610d03565b905091905056fea2646970667358221220e52452736f322a298c345df5d2f960288061982230d486eee21f49cec494f2d564736f6c63430008090033",
  "linkReferences": {},
  "deployedLinkReferences": {}
}