{
  "_format": "hh-sol-artifact-1",
  "contractName": "ChainlinkOracleRelay",
  "sourceName": "contracts/oracle/External/ChainlinkOracleRelay.sol",
  "abi": [
    {
      "inputs": [
        {
          "internalType": "address",
          "name": "feed_address",
          "type": "address"
        },
        {
          "internalType": "uint256",
          "name": "mul",
          "type": "uint256"
        },
        {
          "internalType": "uint256",
          "name": "div",
          "type": "uint256"
        }
      ],
      "stateMutability": "nonpayable",
      "type": "constructor"
    },
    {
      "inputs": [],
      "name": "_divide",
      "outputs": [
        {
          "internalType": "uint256",
          "name": "",
          "type": "uint256"
        }
      ],
      "stateMutability": "view",
      "type": "function"
    },
    {
      "inputs": [],
      "name": "_feedAddress",
      "outputs": [
        {
          "internalType": "address",
          "name": "",
          "type": "address"
        }
      ],
      "stateMutability": "view",
      "type": "function"
    },
    {
      "inputs": [],
      "name": "_multiply",
      "outputs": [
        {
          "internalType": "uint256",
          "name": "",
          "type": "uint256"
        }
      ],
      "stateMutability": "view",
      "type": "function"
    },
    {
      "inputs": [],
      "name": "currentValue",
      "outputs": [
        {
          "internalType": "uint256",
          "name": "",
          "type": "uint256"
        }
      ],
      "stateMutability": "view",
      "type": "function"
    }
  ],
  "bytecode": "0x608060405234801561001057600080fd5b5060405161030438038061030483398101604081905261002f91610065565b600080546001600160a01b039094166001600160a01b0319948516811790915560018054909416179092556002556003556100a8565b60008060006060848603121561007a57600080fd5b83516001600160a01b038116811461009157600080fd5b602085015160409095015190969495509392505050565b61024d806100b76000396000f3fe608060405234801561001057600080fd5b506004361061004c5760003560e01c806328147333146100515780635873be3e14610081578063698996f8146100985780639a7ac214146100a0575b600080fd5b600054610064906001600160a01b031681565b6040516001600160a01b0390911681526020015b60405180910390f35b61008a60025481565b604051908152602001610078565b61008a6100a9565b61008a60035481565b60006100b36100b8565b905090565b600080600160009054906101000a90046001600160a01b03166001600160a01b03166350d25bcd6040518163ffffffff1660e01b815260040160206040518083038186803b15801561010957600080fd5b505afa15801561011d573d6000803e3d6000fd5b505050506040513d601f19601f8201168201806040525081019061014191906101af565b90506000811361018b5760405162461bcd60e51b81526020600482015260116024820152700636861696e6c696e6b3a207078203c203607c1b604482015260640160405180910390fd5b60006003546002548361019e91906101c8565b6101a891906101f5565b9392505050565b6000602082840312156101c157600080fd5b5051919050565b60008160001904831182151516156101f057634e487b7160e01b600052601160045260246000fd5b500290565b60008261021257634e487b7160e01b600052601260045260246000fd5b50049056fea2646970667358221220ff6e3f73ba8c87c1df50977377f42dd645a3fd097dcf296b36877adc511ef57e64736f6c63430008090033",
  "linkReferences": {},
  "deployedLinkReferences": {}
}