{
  "_format": "hh-sol-artifact-1",
  "contractName": "OracleMaster",
  "sourceName": "contracts/oracle/OracleMaster.sol",
  "abi": [
    {
      "inputs": [],
      "stateMutability": "nonpayable",
      "type": "constructor"
    },
    {
      "anonymous": false,
      "inputs": [
        {
          "indexed": true,
          "internalType": "address",
          "name": "previousOwner",
          "type": "address"
        },
        {
          "indexed": true,
          "internalType": "address",
          "name": "newOwner",
          "type": "address"
        }
      ],
      "name": "OwnershipTransferred",
      "type": "event"
    },
    {
      "inputs": [
        {
          "internalType": "address",
          "name": "",
          "type": "address"
        }
      ],
      "name": "_paused",
      "outputs": [
        {
          "internalType": "bool",
          "name": "",
          "type": "bool"
        }
      ],
      "stateMutability": "view",
      "type": "function"
    },
    {
      "inputs": [
        {
          "internalType": "address",
          "name": "",
          "type": "address"
        }
      ],
      "name": "_relays",
      "outputs": [
        {
          "internalType": "address",
          "name": "",
          "type": "address"
        }
      ],
      "stateMutability": "view",
      "type": "function"
    },
    {
      "inputs": [
        {
          "internalType": "address",
          "name": "token_address",
          "type": "address"
        }
      ],
      "name": "getLivePrice",
      "outputs": [
        {
          "internalType": "uint256",
          "name": "",
          "type": "uint256"
        }
      ],
      "stateMutability": "view",
      "type": "function"
    },
    {
      "inputs": [],
      "name": "owner",
      "outputs": [
        {
          "internalType": "address",
          "name": "",
          "type": "address"
        }
      ],
      "stateMutability": "view",
      "type": "function"
    },
    {
      "inputs": [
        {
          "internalType": "address",
          "name": "token_address",
          "type": "address"
        },
        {
          "internalType": "bool",
          "name": "state",
          "type": "bool"
        }
      ],
      "name": "pauseRelay",
      "outputs": [],
      "stateMutability": "nonpayable",
      "type": "function"
    },
    {
      "inputs": [],
      "name": "renounceOwnership",
      "outputs": [],
      "stateMutability": "nonpayable",
      "type": "function"
    },
    {
      "inputs": [
        {
          "internalType": "address",
          "name": "token_address",
          "type": "address"
        },
        {
          "internalType": "address",
          "name": "relay_address",
          "type": "address"
        }
      ],
      "name": "setRelay",
      "outputs": [],
      "stateMutability": "nonpayable",
      "type": "function"
    },
    {
      "inputs": [
        {
          "internalType": "address",
          "name": "newOwner",
          "type": "address"
        }
      ],
      "name": "transferOwnership",
      "outputs": [],
      "stateMutability": "nonpayable",
      "type": "function"
    }
  ],
  "bytecode": "0x608060405234801561001057600080fd5b50600080546001600160a01b031916339081178255604051909182917f8be0079c531659141344cd1fd0a4f28419497f9722a3daafe3b4186f6b6457e0908290a350610604806100616000396000f3fe608060405234801561001057600080fd5b50600436106100885760003560e01c80638da5cb5b1161005b5780638da5cb5b14610103578063b962a0e914610128578063c054fd5d1461013b578063f2fde38b1461016457600080fd5b806366f940151461008d578063715018a6146100c5578063852b5d82146100cf5780638ce781b6146100f0575b600080fd5b6100b061009b3660046104f6565b60026020526000908152604090205460ff1681565b60405190151581526020015b60405180910390f35b6100cd610177565b005b6100e26100dd3660046104f6565b6101f4565b6040519081526020016100bc565b6100cd6100fe366004610511565b610343565b6000546001600160a01b03165b6040516001600160a01b0390911681526020016100bc565b6100cd61013636600461054d565b610398565b6101106101493660046104f6565b6001602052600090815260409020546001600160a01b031681565b6100cd6101723660046104f6565b6103f0565b6000546001600160a01b031633146101aa5760405162461bcd60e51b81526004016101a190610580565b60405180910390fd5b600080546040516001600160a01b03909116907f8be0079c531659141344cd1fd0a4f28419497f9722a3daafe3b4186f6b6457e0908390a3600080546001600160a01b0319169055565b6001600160a01b03811660009081526002602052604081205460ff161561024c5760405162461bcd60e51b815260206004820152600c60248201526b1c995b185e481c185d5cd95960a21b60448201526064016101a1565b6001600160a01b03828116600090815260016020526040902054166102a75760405162461bcd60e51b81526020600482015260116024820152701d1bdad95b881b9bdd08195b98589b1959607a1b60448201526064016101a1565b6001600160a01b038083166000908152600160209081526040808320548151630d3132df60e31b81529151941693849263698996f89260048082019391829003018186803b1580156102f857600080fd5b505afa15801561030c573d6000803e3d6000fd5b505050506040513d601f19601f8201168201806040525081019061033091906105b5565b90508061033c57600080fd5b9392505050565b6000546001600160a01b0316331461036d5760405162461bcd60e51b81526004016101a190610580565b6001600160a01b03919091166000908152600260205260409020805460ff1916911515919091179055565b6000546001600160a01b031633146103c25760405162461bcd60e51b81526004016101a190610580565b6001600160a01b03918216600090815260016020526040902080546001600160a01b03191691909216179055565b6000546001600160a01b0316331461041a5760405162461bcd60e51b81526004016101a190610580565b6001600160a01b03811661047f5760405162461bcd60e51b815260206004820152602660248201527f4f776e61626c653a206e6577206f776e657220697320746865207a65726f206160448201526564647265737360d01b60648201526084016101a1565b600080546040516001600160a01b03808516939216917f8be0079c531659141344cd1fd0a4f28419497f9722a3daafe3b4186f6b6457e091a3600080546001600160a01b0319166001600160a01b0392909216919091179055565b80356001600160a01b03811681146104f157600080fd5b919050565b60006020828403121561050857600080fd5b61033c826104da565b6000806040838503121561052457600080fd5b61052d836104da565b91506020830135801515811461054257600080fd5b809150509250929050565b6000806040838503121561056057600080fd5b610569836104da565b9150610577602084016104da565b90509250929050565b6020808252818101527f4f776e61626c653a2063616c6c6572206973206e6f7420746865206f776e6572604082015260600190565b6000602082840312156105c757600080fd5b505191905056fea26469706673582212202f11cbd79b023eeeb860a2e784f1b8080891fffbdbd7efc473767152c9b80f6464736f6c63430008090033",
  "linkReferences": {},
  "deployedLinkReferences": {}
}