{
  "_format": "hh-sol-artifact-1",
  "contractName": "CurveMaster",
  "sourceName": "contracts/curve/CurveMaster.sol",
  "abi": [
    {
      "inputs": [],
      "stateMutability": "nonpayable",
      "type": "constructor"
    },
    {
      "anonymous": false,
      "inputs": [
        {
          "indexed": true,
          "internalType": "address",
          "name": "previousOwner",
          "type": "address"
        },
        {
          "indexed": true,
          "internalType": "address",
          "name": "newOwner",
          "type": "address"
        }
      ],
      "name": "OwnershipTransferred",
      "type": "event"
    },
    {
      "inputs": [
        {
          "internalType": "address",
          "name": "",
          "type": "address"
        }
      ],
      "name": "_curves",
      "outputs": [
        {
          "internalType": "address",
          "name": "",
          "type": "address"
        }
      ],
      "stateMutability": "view",
      "type": "function"
    },
    {
      "inputs": [
        {
          "internalType": "address",
          "name": "",
          "type": "address"
        }
      ],
      "name": "_paused",
      "outputs": [
        {
          "internalType": "bool",
          "name": "",
          "type": "bool"
        }
      ],
      "stateMutability": "view",
      "type": "function"
    },
    {
      "inputs": [
        {
          "internalType": "address",
          "name": "curve_address",
          "type": "address"
        },
        {
          "internalType": "int256",
          "name": "x_value",
          "type": "int256"
        }
      ],
      "name": "get_value_at",
      "outputs": [
        {
          "internalType": "int256",
          "name": "",
          "type": "int256"
        }
      ],
      "stateMutability": "view",
      "type": "function"
    },
    {
      "inputs": [],
      "name": "owner",
      "outputs": [
        {
          "internalType": "address",
          "name": "",
          "type": "address"
        }
      ],
      "stateMutability": "view",
      "type": "function"
    },
    {
      "inputs": [
        {
          "internalType": "address",
          "name": "token_address",
          "type": "address"
        },
        {
          "internalType": "bool",
          "name": "state",
          "type": "bool"
        }
      ],
      "name": "pause_curve",
      "outputs": [],
      "stateMutability": "nonpayable",
      "type": "function"
    },
    {
      "inputs": [],
      "name": "renounceOwnership",
      "outputs": [],
      "stateMutability": "nonpayable",
      "type": "function"
    },
    {
      "inputs": [
        {
          "internalType": "address",
          "name": "token_address",
          "type": "address"
        },
        {
          "internalType": "address",
          "name": "curve_address",
          "type": "address"
        }
      ],
      "name": "set_curve",
      "outputs": [],
      "stateMutability": "nonpayable",
      "type": "function"
    },
    {
      "inputs": [
        {
          "internalType": "address",
          "name": "newOwner",
          "type": "address"
        }
      ],
      "name": "transferOwnership",
      "outputs": [],
      "stateMutability": "nonpayable",
      "type": "function"
    }
  ],
  "bytecode": "0x608060405234801561001057600080fd5b5060006100216100c460201b60201c565b9050806000806101000a81548173ffffffffffffffffffffffffffffffffffffffff021916908373ffffffffffffffffffffffffffffffffffffffff1602179055508073ffffffffffffffffffffffffffffffffffffffff16600073ffffffffffffffffffffffffffffffffffffffff167f8be0079c531659141344cd1fd0a4f28419497f9722a3daafe3b4186f6b6457e060405160405180910390a3506100cc565b600033905090565b610ddd806100db6000396000f3fe608060405234801561001057600080fd5b50600436106100885760003560e01c80637639404d1161005b5780637639404d146101275780638da5cb5b14610143578063b09ae49e14610161578063f2fde38b1461017d57610088565b8063297796871461008d578063383336c0146100bd57806366f94015146100ed578063715018a61461011d575b600080fd5b6100a760048036038101906100a291906109a5565b610199565b6040516100b491906109e1565b60405180910390f35b6100d760048036038101906100d29190610a32565b6101cc565b6040516100e49190610a81565b60405180910390f35b610107600480360381019061010291906109a5565b610439565b6040516101149190610ab7565b60405180910390f35b610125610459565b005b610141600480360381019061013c9190610ad2565b610593565b005b61014b610691565b60405161015891906109e1565b60405180910390f35b61017b60048036038101906101769190610b3e565b6106ba565b005b610197600480360381019061019291906109a5565b610791565b005b60016020528060005260406000206000915054906101000a900473ffffffffffffffffffffffffffffffffffffffff1681565b6000801515600260008573ffffffffffffffffffffffffffffffffffffffff1673ffffffffffffffffffffffffffffffffffffffff16815260200190815260200160002060009054906101000a900460ff16151514610260576040517f08c379a000000000000000000000000000000000000000000000000000000000815260040161025790610bdb565b60405180910390fd5b600073ffffffffffffffffffffffffffffffffffffffff16600160008573ffffffffffffffffffffffffffffffffffffffff1673ffffffffffffffffffffffffffffffffffffffff16815260200190815260200160002060009054906101000a900473ffffffffffffffffffffffffffffffffffffffff1673ffffffffffffffffffffffffffffffffffffffff16141561032f576040517f08c379a000000000000000000000000000000000000000000000000000000000815260040161032690610c47565b60405180910390fd5b6000600160008573ffffffffffffffffffffffffffffffffffffffff1673ffffffffffffffffffffffffffffffffffffffff16815260200190815260200160002060009054906101000a900473ffffffffffffffffffffffffffffffffffffffff16905060008173ffffffffffffffffffffffffffffffffffffffff1663414be42b856040518263ffffffff1660e01b81526004016103ce9190610a81565b60206040518083038186803b1580156103e657600080fd5b505afa1580156103fa573d6000803e3d6000fd5b505050506040513d601f19601f8201168201806040525081019061041e9190610c7c565b9050600081141561042e57600080fd5b809250505092915050565b60026020528060005260406000206000915054906101000a900460ff1681565b61046161093a565b73ffffffffffffffffffffffffffffffffffffffff1661047f610691565b73ffffffffffffffffffffffffffffffffffffffff16146104d5576040517f08c379a00000000000000000000000000000000000000000000000000000000081526004016104cc90610cf5565b60405180910390fd5b600073ffffffffffffffffffffffffffffffffffffffff1660008054906101000a900473ffffffffffffffffffffffffffffffffffffffff1673ffffffffffffffffffffffffffffffffffffffff167f8be0079c531659141344cd1fd0a4f28419497f9722a3daafe3b4186f6b6457e060405160405180910390a360008060006101000a81548173ffffffffffffffffffffffffffffffffffffffff021916908373ffffffffffffffffffffffffffffffffffffffff160217905550565b61059b61093a565b73ffffffffffffffffffffffffffffffffffffffff166105b9610691565b73ffffffffffffffffffffffffffffffffffffffff161461060f576040517f08c379a000000000000000000000000000000000000000000000000000000000815260040161060690610cf5565b60405180910390fd5b80600160008473ffffffffffffffffffffffffffffffffffffffff1673ffffffffffffffffffffffffffffffffffffffff16815260200190815260200160002060006101000a81548173ffffffffffffffffffffffffffffffffffffffff021916908373ffffffffffffffffffffffffffffffffffffffff1602179055505050565b60008060009054906101000a900473ffffffffffffffffffffffffffffffffffffffff16905090565b6106c261093a565b73ffffffffffffffffffffffffffffffffffffffff166106e0610691565b73ffffffffffffffffffffffffffffffffffffffff1614610736576040517f08c379a000000000000000000000000000000000000000000000000000000000815260040161072d90610cf5565b60405180910390fd5b80600260008473ffffffffffffffffffffffffffffffffffffffff1673ffffffffffffffffffffffffffffffffffffffff16815260200190815260200160002060006101000a81548160ff0219169083151502179055505050565b61079961093a565b73ffffffffffffffffffffffffffffffffffffffff166107b7610691565b73ffffffffffffffffffffffffffffffffffffffff161461080d576040517f08c379a000000000000000000000000000000000000000000000000000000000815260040161080490610cf5565b60405180910390fd5b600073ffffffffffffffffffffffffffffffffffffffff168173ffffffffffffffffffffffffffffffffffffffff16141561087d576040517f08c379a000000000000000000000000000000000000000000000000000000000815260040161087490610d87565b60405180910390fd5b8073ffffffffffffffffffffffffffffffffffffffff1660008054906101000a900473ffffffffffffffffffffffffffffffffffffffff1673ffffffffffffffffffffffffffffffffffffffff167f8be0079c531659141344cd1fd0a4f28419497f9722a3daafe3b4186f6b6457e060405160405180910390a3806000806101000a81548173ffffffffffffffffffffffffffffffffffffffff021916908373ffffffffffffffffffffffffffffffffffffffff16021790555050565b600033905090565b600080fd5b600073ffffffffffffffffffffffffffffffffffffffff82169050919050565b600061097282610947565b9050919050565b61098281610967565b811461098d57600080fd5b50565b60008135905061099f81610979565b92915050565b6000602082840312156109bb576109ba610942565b5b60006109c984828501610990565b91505092915050565b6109db81610967565b82525050565b60006020820190506109f660008301846109d2565b92915050565b6000819050919050565b610a0f816109fc565b8114610a1a57600080fd5b50565b600081359050610a2c81610a06565b92915050565b60008060408385031215610a4957610a48610942565b5b6000610a5785828601610990565b9250506020610a6885828601610a1d565b9150509250929050565b610a7b816109fc565b82525050565b6000602082019050610a966000830184610a72565b92915050565b60008115159050919050565b610ab181610a9c565b82525050565b6000602082019050610acc6000830184610aa8565b92915050565b60008060408385031215610ae957610ae8610942565b5b6000610af785828601610990565b9250506020610b0885828601610990565b9150509250929050565b610b1b81610a9c565b8114610b2657600080fd5b50565b600081359050610b3881610b12565b92915050565b60008060408385031215610b5557610b54610942565b5b6000610b6385828601610990565b9250506020610b7485828601610b29565b9150509250929050565b600082825260208201905092915050565b7f6375727665207061757365640000000000000000000000000000000000000000600082015250565b6000610bc5600c83610b7e565b9150610bd082610b8f565b602082019050919050565b60006020820190508181036000830152610bf481610bb8565b9050919050565b7f746f6b656e206e6f7420656e61626c6564000000000000000000000000000000600082015250565b6000610c31601183610b7e565b9150610c3c82610bfb565b602082019050919050565b60006020820190508181036000830152610c6081610c24565b9050919050565b600081519050610c7681610a06565b92915050565b600060208284031215610c9257610c91610942565b5b6000610ca084828501610c67565b91505092915050565b7f4f776e61626c653a2063616c6c6572206973206e6f7420746865206f776e6572600082015250565b6000610cdf602083610b7e565b9150610cea82610ca9565b602082019050919050565b60006020820190508181036000830152610d0e81610cd2565b9050919050565b7f4f776e61626c653a206e6577206f776e657220697320746865207a65726f206160008201527f6464726573730000000000000000000000000000000000000000000000000000602082015250565b6000610d71602683610b7e565b9150610d7c82610d15565b604082019050919050565b60006020820190508181036000830152610da081610d64565b905091905056fea2646970667358221220402251ef2b3bf2c34a5223ef9ba5b242da3d5c2a8357735596283ff9a52984d764736f6c63430008090033",
  "linkReferences": {},
  "deployedLinkReferences": {}
}